{
  "_format": "hh-sol-artifact-1",
  "contractName": "FastPriceFeed",
  "sourceName": "contracts/oracle/FastPriceFeed.sol",
  "abi": [
    {
      "inputs": [
        {
          "internalType": "uint256",
          "name": "_priceDuration",
          "type": "uint256"
        },
        {
          "internalType": "uint256",
          "name": "_minBlockInterval",
          "type": "uint256"
        },
        {
          "internalType": "uint256",
          "name": "_maxDeviationBasisPoints",
          "type": "uint256"
        },
        {
          "internalType": "address",
          "name": "_fastPriceEvents",
          "type": "address"
        },
        {
          "internalType": "address",
          "name": "_tokenManager",
          "type": "address"
        },
        {
          "internalType": "address",
          "name": "_positionRouter",
          "type": "address"
        }
      ],
      "stateMutability": "nonpayable",
      "type": "constructor"
    },
    {
      "inputs": [],
      "name": "AlreadyInitialized",
      "type": "error"
    },
    {
      "inputs": [],
      "name": "AlreadyVoted",
      "type": "error"
    },
    {
      "inputs": [],
      "name": "Forbidden",
      "type": "error"
    },
    {
      "inputs": [],
      "name": "InvalidArrayLengths",
      "type": "error"
    },
    {
      "inputs": [],
      "name": "InvalidPriceDuration",
      "type": "error"
    },
    {
      "inputs": [],
      "name": "InvalidTimestamp",
      "type": "error"
    },
    {
      "inputs": [],
      "name": "UpdateCooldown",
      "type": "error"
    },
    {
      "anonymous": false,
      "inputs": [
        {
          "indexed": false,
          "internalType": "address",
          "name": "signer",
          "type": "address"
        }
      ],
      "name": "DisableFastPrice",
      "type": "event"
    },
    {
      "anonymous": false,
      "inputs": [
        {
          "indexed": false,
          "internalType": "address",
          "name": "signer",
          "type": "address"
        }
      ],
      "name": "EnableFastPrice",
      "type": "event"
    },
    {
      "anonymous": false,
      "inputs": [
        {
          "indexed": true,
          "internalType": "address",
          "name": "previousOwner",
          "type": "address"
        },
        {
          "indexed": true,
          "internalType": "address",
          "name": "newOwner",
          "type": "address"
        }
      ],
      "name": "OwnershipTransferred",
      "type": "event"
    },
    {
      "inputs": [],
      "name": "BASIS_POINTS_DIVISOR",
      "outputs": [
        {
          "internalType": "uint16",
          "name": "",
          "type": "uint16"
        }
      ],
      "stateMutability": "view",
      "type": "function"
    },
    {
      "inputs": [],
      "name": "MAX_PRICE_DURATION",
      "outputs": [
        {
          "internalType": "uint16",
          "name": "",
          "type": "uint16"
        }
      ],
      "stateMutability": "view",
      "type": "function"
    },
    {
      "inputs": [],
      "name": "PRICE_PRECISION",
      "outputs": [
        {
          "internalType": "uint128",
          "name": "",
          "type": "uint128"
        }
      ],
      "stateMutability": "view",
      "type": "function"
    },
    {
      "inputs": [],
      "name": "disableFastPrice",
      "outputs": [],
      "stateMutability": "nonpayable",
      "type": "function"
    },
    {
      "inputs": [],
      "name": "disableFastPriceVoteCount",
      "outputs": [
        {
          "internalType": "uint256",
          "name": "",
          "type": "uint256"
        }
      ],
      "stateMutability": "view",
      "type": "function"
    },
    {
      "inputs": [
        {
          "internalType": "address",
          "name": "",
          "type": "address"
        }
      ],
      "name": "disableFastPriceVotes",
      "outputs": [
        {
          "internalType": "bool",
          "name": "",
          "type": "bool"
        }
      ],
      "stateMutability": "view",
      "type": "function"
    },
    {
      "inputs": [],
      "name": "enableFastPrice",
      "outputs": [],
      "stateMutability": "nonpayable",
      "type": "function"
    },
    {
      "inputs": [],
      "name": "fastPriceEvents",
      "outputs": [
        {
          "internalType": "address",
          "name": "",
          "type": "address"
        }
      ],
      "stateMutability": "view",
      "type": "function"
    },
    {
      "inputs": [],
      "name": "favorFastPrice",
      "outputs": [
        {
          "internalType": "bool",
          "name": "",
          "type": "bool"
        }
      ],
      "stateMutability": "view",
      "type": "function"
    },
    {
      "inputs": [
        {
          "internalType": "address",
          "name": "_token",
          "type": "address"
        },
        {
          "internalType": "uint256",
          "name": "_refPrice",
          "type": "uint256"
        },
        {
          "internalType": "bool",
          "name": "_maximise",
          "type": "bool"
        }
      ],
      "name": "getPrice",
      "outputs": [
        {
          "internalType": "uint256",
          "name": "",
          "type": "uint256"
        }
      ],
      "stateMutability": "view",
      "type": "function"
    },
    {
      "inputs": [
        {
          "internalType": "uint256",
          "name": "_minAuthorizations",
          "type": "uint256"
        },
        {
          "internalType": "address[]",
          "name": "_signers",
          "type": "address[]"
        },
        {
          "internalType": "address[]",
          "name": "_updaters",
          "type": "address[]"
        }
      ],
      "name": "initialize",
      "outputs": [],
      "stateMutability": "nonpayable",
      "type": "function"
    },
    {
      "inputs": [],
      "name": "isInitialized",
      "outputs": [
        {
          "internalType": "bool",
          "name": "",
          "type": "bool"
        }
      ],
      "stateMutability": "view",
      "type": "function"
    },
    {
      "inputs": [
        {
          "internalType": "address",
          "name": "",
          "type": "address"
        }
      ],
      "name": "isSigner",
      "outputs": [
        {
          "internalType": "bool",
          "name": "",
          "type": "bool"
        }
      ],
      "stateMutability": "view",
      "type": "function"
    },
    {
      "inputs": [],
      "name": "isSpreadEnabled",
      "outputs": [
        {
          "internalType": "bool",
          "name": "",
          "type": "bool"
        }
      ],
      "stateMutability": "view",
      "type": "function"
    },
    {
      "inputs": [
        {
          "internalType": "address",
          "name": "",
          "type": "address"
        }
      ],
      "name": "isUpdater",
      "outputs": [
        {
          "internalType": "bool",
          "name": "",
          "type": "bool"
        }
      ],
      "stateMutability": "view",
      "type": "function"
    },
    {
      "inputs": [],
      "name": "lastUpdatedAt",
      "outputs": [
        {
          "internalType": "uint256",
          "name": "",
          "type": "uint256"
        }
      ],
      "stateMutability": "view",
      "type": "function"
    },
    {
      "inputs": [],
      "name": "lastUpdatedBlock",
      "outputs": [
        {
          "internalType": "uint256",
          "name": "",
          "type": "uint256"
        }
      ],
      "stateMutability": "view",
      "type": "function"
    },
    {
      "inputs": [],
      "name": "maxDeviationBasisPoints",
      "outputs": [
        {
          "internalType": "uint256",
          "name": "",
          "type": "uint256"
        }
      ],
      "stateMutability": "view",
      "type": "function"
    },
    {
      "inputs": [],
      "name": "maxTimeDeviation",
      "outputs": [
        {
          "internalType": "uint256",
          "name": "",
          "type": "uint256"
        }
      ],
      "stateMutability": "view",
      "type": "function"
    },
    {
      "inputs": [],
      "name": "minAuthorizations",
      "outputs": [
        {
          "internalType": "uint256",
          "name": "",
          "type": "uint256"
        }
      ],
      "stateMutability": "view",
      "type": "function"
    },
    {
      "inputs": [],
      "name": "minBlockInterval",
      "outputs": [
        {
          "internalType": "uint256",
          "name": "",
          "type": "uint256"
        }
      ],
      "stateMutability": "view",
      "type": "function"
    },
    {
      "inputs": [],
      "name": "owner",
      "outputs": [
        {
          "internalType": "address",
          "name": "",
          "type": "address"
        }
      ],
      "stateMutability": "view",
      "type": "function"
    },
    {
      "inputs": [],
      "name": "positionRouter",
      "outputs": [
        {
          "internalType": "address",
          "name": "",
          "type": "address"
        }
      ],
      "stateMutability": "view",
      "type": "function"
    },
    {
      "inputs": [],
      "name": "priceDuration",
      "outputs": [
        {
          "internalType": "uint256",
          "name": "",
          "type": "uint256"
        }
      ],
      "stateMutability": "view",
      "type": "function"
    },
    {
      "inputs": [
        {
          "internalType": "address",
          "name": "",
          "type": "address"
        }
      ],
      "name": "prices",
      "outputs": [
        {
          "internalType": "uint256",
          "name": "",
          "type": "uint256"
        }
      ],
      "stateMutability": "view",
      "type": "function"
    },
    {
      "inputs": [],
      "name": "renounceOwnership",
      "outputs": [],
      "stateMutability": "nonpayable",
      "type": "function"
    },
    {
      "inputs": [
        {
          "internalType": "uint256[]",
          "name": "_priceBitArray",
          "type": "uint256[]"
        },
        {
          "internalType": "uint256",
          "name": "_timestamp",
          "type": "uint256"
        }
      ],
      "name": "setCompactedPrices",
      "outputs": [],
      "stateMutability": "nonpayable",
      "type": "function"
    },
    {
      "inputs": [
        {
          "internalType": "address",
          "name": "_fastPriceEvents",
          "type": "address"
        }
      ],
      "name": "setFastPriceEvents",
      "outputs": [],
      "stateMutability": "nonpayable",
      "type": "function"
    },
    {
      "inputs": [
        {
          "internalType": "bool",
          "name": "_isSpreadEnabled",
          "type": "bool"
        }
      ],
      "name": "setIsSpreadEnabled",
      "outputs": [],
      "stateMutability": "nonpayable",
      "type": "function"
    },
    {
      "inputs": [
        {
          "internalType": "uint256",
          "name": "_lastUpdatedAt",
          "type": "uint256"
        }
      ],
      "name": "setLastUpdatedAt",
      "outputs": [],
      "stateMutability": "nonpayable",
      "type": "function"
    },
    {
      "inputs": [
        {
          "internalType": "uint256",
          "name": "_maxDeviationBasisPoints",
          "type": "uint256"
        }
      ],
      "name": "setMaxDeviationBasisPoints",
      "outputs": [],
      "stateMutability": "nonpayable",
      "type": "function"
    },
    {
      "inputs": [
        {
          "internalType": "uint256",
          "name": "_maxTimeDeviation",
          "type": "uint256"
        }
      ],
      "name": "setMaxTimeDeviation",
      "outputs": [],
      "stateMutability": "nonpayable",
      "type": "function"
    },
    {
      "inputs": [
        {
          "internalType": "uint256",
          "name": "_minAuthorizations",
          "type": "uint256"
        }
      ],
      "name": "setMinAuthorizations",
      "outputs": [],
      "stateMutability": "nonpayable",
      "type": "function"
    },
    {
      "inputs": [
        {
          "internalType": "uint256",
          "name": "_minBlockInterval",
          "type": "uint256"
        }
      ],
      "name": "setMinBlockInterval",
      "outputs": [],
      "stateMutability": "nonpayable",
      "type": "function"
    },
    {
      "inputs": [
        {
          "internalType": "uint256",
          "name": "_priceDuration",
          "type": "uint256"
        }
      ],
      "name": "setPriceDuration",
      "outputs": [],
      "stateMutability": "nonpayable",
      "type": "function"
    },
    {
      "inputs": [
        {
          "internalType": "address[]",
          "name": "_tokens",
          "type": "address[]"
        },
        {
          "internalType": "uint256[]",
          "name": "_prices",
          "type": "uint256[]"
        },
        {
          "internalType": "uint256",
          "name": "_timestamp",
          "type": "uint256"
        }
      ],
      "name": "setPrices",
      "outputs": [],
      "stateMutability": "nonpayable",
      "type": "function"
    },
    {
      "inputs": [
        {
          "internalType": "uint256",
          "name": "_priceBits",
          "type": "uint256"
        },
        {
          "internalType": "uint256",
          "name": "_timestamp",
          "type": "uint256"
        }
      ],
      "name": "setPricesWithBits",
      "outputs": [],
      "stateMutability": "nonpayable",
      "type": "function"
    },
    {
      "inputs": [
        {
          "internalType": "uint256",
          "name": "_priceBits",
          "type": "uint256"
        },
        {
          "internalType": "uint256",
          "name": "_timestamp",
          "type": "uint256"
        },
        {
          "internalType": "uint256",
          "name": "_endIndexForIncreasePositions",
          "type": "uint256"
        },
        {
          "internalType": "uint256",
          "name": "_endIndexForDecreasePositions",
          "type": "uint256"
        }
      ],
      "name": "setPricesWithBitsAndExecute",
      "outputs": [],
      "stateMutability": "nonpayable",
      "type": "function"
    },
    {
      "inputs": [
        {
          "internalType": "address",
          "name": "_account",
          "type": "address"
        },
        {
          "internalType": "bool",
          "name": "_isActive",
          "type": "bool"
        }
      ],
      "name": "setSigner",
      "outputs": [],
      "stateMutability": "nonpayable",
      "type": "function"
    },
    {
      "inputs": [
        {
          "internalType": "address",
          "name": "_tokenManager",
          "type": "address"
        }
      ],
      "name": "setTokenManager",
      "outputs": [],
      "stateMutability": "nonpayable",
      "type": "function"
    },
    {
      "inputs": [
        {
          "internalType": "address[]",
          "name": "_tokens",
          "type": "address[]"
        },
        {
          "internalType": "uint256[]",
          "name": "_tokenPrecisions",
          "type": "uint256[]"
        }
      ],
      "name": "setTokens",
      "outputs": [],
      "stateMutability": "nonpayable",
      "type": "function"
    },
    {
      "inputs": [
        {
          "internalType": "address",
          "name": "_account",
          "type": "address"
        },
        {
          "internalType": "bool",
          "name": "_isActive",
          "type": "bool"
        }
      ],
      "name": "setUpdater",
      "outputs": [],
      "stateMutability": "nonpayable",
      "type": "function"
    },
    {
      "inputs": [
        {
          "internalType": "uint256",
          "name": "_volBasisPoints",
          "type": "uint256"
        }
      ],
      "name": "setVolBasisPoints",
      "outputs": [],
      "stateMutability": "nonpayable",
      "type": "function"
    },
    {
      "inputs": [],
      "name": "tokenManager",
      "outputs": [
        {
          "internalType": "address",
          "name": "",
          "type": "address"
        }
      ],
      "stateMutability": "view",
      "type": "function"
    },
    {
      "inputs": [
        {
          "internalType": "uint256",
          "name": "",
          "type": "uint256"
        }
      ],
      "name": "tokenPrecisions",
      "outputs": [
        {
          "internalType": "uint256",
          "name": "",
          "type": "uint256"
        }
      ],
      "stateMutability": "view",
      "type": "function"
    },
    {
      "inputs": [
        {
          "internalType": "uint256",
          "name": "",
          "type": "uint256"
        }
      ],
      "name": "tokens",
      "outputs": [
        {
          "internalType": "address",
          "name": "",
          "type": "address"
        }
      ],
      "stateMutability": "view",
      "type": "function"
    },
    {
      "inputs": [
        {
          "internalType": "address",
          "name": "newOwner",
          "type": "address"
        }
      ],
      "name": "transferOwnership",
      "outputs": [],
      "stateMutability": "nonpayable",
      "type": "function"
    },
    {
      "inputs": [],
      "name": "volBasisPoints",
      "outputs": [
        {
          "internalType": "uint256",
          "name": "",
          "type": "uint256"
        }
      ],
      "stateMutability": "view",
      "type": "function"
    }
  ],
  "bytecode": "0x6080346200012457601f6200199238819003918201601f19168301916001600160401b03831184841017620001295780849260c09460405283398101031262000124578051906020810151906040810151906200005f606082016200013f565b6200007b60a062000073608085016200013f565b93016200013f565b600080546001600160a01b031980821633908117845560405191996001600160a01b03999598959490938a16907f8be0079c531659141344cd1fd0a4f28419497f9722a3daafe3b4186f6b6457e09080a3610708821162000115575091869493918593600655600755600a5516856001541617600155168360025416176002551690600354161760035560405161183d9081620001558239f35b63e0aedb8760e01b8152600490fd5b600080fd5b634e487b7160e01b600052604160045260246000fd5b51906001600160a01b0382168203620001245756fe608060408181526004918236101561001657600080fd5b600092833560e01c91826303b04936146110685750816303cd25711461104957816303f4d7dc14610ff85781630e9272ea14610fcf578163114fbeb314610fb0578163126082cf14610f935781631389a3cc14610e8c57816314dd2dce14610e6a578163162ac4e014610e2557816317835d1c14610def5781631a15339114610d9d578163287800c914610d7e5781632a709b1414610d5557816331cb610514610d00578163392e53cd14610cdb5781633aa08f8614610cbc57816344c2319314610c805781634d11fb4a14610c2f5781634f64b2be14610be65781634fdfb08614610ba857816354aea12714610b8a57816361ef161f14610b61578163668d3d6514610b44578163695d418414610b1f5781636ccd47c414610a80578163715018a614610a38578163715c753614610a19578163776d16c1146109f7578163782661bc146108fa5781637cb2b79c146108b55781637df73e27146108775781637fbc79c61461076b5781637fece3681461072757816382553aad146107055781638da5cb5b146106dd57816395082d25146106b65781639e4de0e314610694578163b0a2566614610675578163b3606b5614610656578163c0e4de8e14610630578163c8390a481461048d578163c84a9124146103e8578163ce98dfa8146103a2578163cfed246b1461036a578163d6a153f114610348578163d925351a1461030d578163f2fde38b14610256575063f90ce5ba1461023557600080fd5b346102525781600319360112610252576020906005549051908152f35b5080fd5b905034610309576020366003190112610309576102716110a3565b9061027a611243565b6001600160a01b039182169283156102b75750506000548260018060a01b0319821617600055166000805160206117e8833981519152600080a380f35b906020608492519162461bcd60e51b8352820152602660248201527f4f776e61626c653a206e6577206f776e657220697320746865207a65726f206160448201526564647265737360d01b6064820152fd5b8280fd5b91905034610309576020366003190112610309576002546001600160a01b0316330361033b575035600b5580f35b51631dd2188d60e31b8152fd5b83903461025257602036600319011261025257610363611243565b3560075580f35b5050346102525760203660031901126102525760209181906001600160a01b036103926110a3565b168152600d845220549051908152f35b83903461025257602036600319011261025257358015158091036103e3576103c8611243565b815460ff60a81b191660a89190911b60ff60a81b1617815580f35b600080fd5b905034610309578260031936011261030957338352600f60205260ff82842054161561047f57338352601060205260ff8284205416610471575060207f4c0c5fabf50e808e3bc8d19577d305e3a7163eea7e8a74a50caa8896694cd44b9133845260108252808420600160ff19825416179055610466600c546112fd565b600c5551338152a180f35b9051637c9a1cf960e01b8152fd5b9051631dd2188d60e31b8152fd5b8383346102525780600319360112610252576001600160401b0390833582811161062c576104be90369086016111d5565b90602435838111610628576104d6903690870161111c565b906104df611243565b8251825103610619575081518381116105af57600160401b9081811161060657601154816011558082106105dd575b506011865260209384016000805160206117c8833981519152875b8381106105c2575050505081519384116105af57831161059c5781906012548460125580851061057e575b5001906012845280842090845b84811061056c578580f35b83518382015592810192600101610561565b610596906012600052858460002091820191016112e6565b85610554565b634e487b7160e01b845260418552602484fd5b634e487b7160e01b855260418652602485fd5b82516001600160a01b03168282015591860191600101610529565b6011600052610600906000805160206117c88339815191529081019083016112e6565b8761050e565b634e487b7160e01b865260418752602486fd5b5163a9854bc960e01b81528590fd5b8480fd5b8380fd5b50503461025257816003193601126102525760209061064d611624565b90519015158152f35b5050346102525781600319360112610252576020906007549051908152f35b505034610252578160031936011261025257602090600c549051908152f35b839034610252576020366003190112610252576106af611243565b3560095580f35b5050346102525781600319360112610252575168327cb2734119d3b7a9601e1b8152602090f35b505034610252578160031936011261025257905490516001600160a01b039091168152602090f35b83903461025257602036600319011261025257610720611243565b35600a5580f35b82843461076857606036600319011261076857506107436110a3565b906044359182151583036103e35760209261076191602435906114ea565b9051908152f35b80fd5b91905034610309576060366003190112610309576001600160401b036024358181116106285761079e90369085016111d5565b90604435908111610628576107b690369085016111d5565b926107bf611243565b845460ff8160a01c166108695760ff60a01b1916600160a01b17855535600b55835b81518110156108215761081c906001600160a01b03610800828561130c565b51168652600f602052838620805460ff191660011790556112fd565b6107e1565b5050825b825181101561086557610860906001600160a01b03610844828661130c565b51168552600e602052828520805460ff191660011790556112fd565b610825565b8380f35b50825162dc149f60e41b8152fd5b5050346102525760203660031901126102525760209160ff9082906001600160a01b036108a26110a3565b168152600f855220541690519015158152f35b8334610768576020366003190112610768576108cf6110a3565b6108d7611243565b600280546001600160a01b0319166001600160a01b039290921691909117905580f35b905034610309576060366003190112610309576001600160401b039080358281116106285761092c90369083016111d5565b9160243590811161062857610944903690830161111c565b90338552602090600e825260ff8587205416156109e95750610967604435611736565b61096f578480f35b6001805490946001600160a01b039182169490919087875b610994575b505050508480f35b81518110156109e457806109d9846109af6109de948661130c565b51166109bb838a61130c565b51818d52600d8952878d20556109d1838a61130c565b51908a6116d9565b6112fd565b87610987565b61098c565b8451631dd2188d60e31b8152fd5b83903461025257602036600319011261025257610a12611243565b3560085580f35b505034610252578160031936011261025257602090600a549051908152f35b8334610768578060031936011261076857610a51611243565b600080546001600160a01b0319811682556001600160a01b03166000805160206117e88339815191528280a380f35b905034610309578260031936011261030957338352600f60205260ff82842054161561047f57338352601060205260ff828420541615610471573383526010602052818320805460ff19169055600c54908115610b0c575060001901600c55513381527f9fe0c305c33aa92757a537936872a60be0d91549a4303cc99fd8b7fce8a0027590602090a180f35b634e487b7160e01b845260119052602483fd5b50503461025257816003193601126102525760ff6020925460a81c1690519015158152f35b505034610252578160031936011261025257602090516107088152f35b50503461025257816003193601126102525760035490516001600160a01b039091168152602090f35b90503461030957826003193601126103095760209250549051908152f35b5050346102525760203660031901126102525760209160ff9082906001600160a01b03610bd36110a3565b168152600e855220541690519015158152f35b90503461030957602036600319011261030957356011548110156103095760116000526000805160206117c8833981519152015490516001600160a01b03909116815260209150f35b90503461030957602036600319011261030957356012548110156103095760126000527fbb8a6a4669ba250d26cd7a459eca9d215f8307e33aebe50379bc5a3617ec34440154905190815260209150f35b90503461030957602036600319011261030957803591610c9e611243565b6107088311610caf57505060065580f35b5163e0aedb8760e01b8152fd5b5050346102525781600319360112610252576020906008549051908152f35b50503461025257816003193601126102525760ff6020925460a01c1690519015158152f35b505034610252578060031936011261025257610d5290610d1e6110a3565b90610d2761117a565b91610d30611243565b60018060a01b03168452600f60205283209060ff801983541691151516179055565b80f35b50503461025257816003193601126102525760025490516001600160a01b039091168152602090f35b505034610252578160031936011261025257602090600b549051908152f35b505034610252578060031936011261025257610d5290610dbb6110a3565b90610dc461117a565b91610dcd611243565b60018060a01b03168452600e60205283209060ff801983541691151516179055565b91905034610309578060031936011261030957338352600e60205260ff81842054161561033b5750610d52906024359035611647565b833461076857602036600319011261076857610e3f6110a3565b610e47611243565b600180546001600160a01b0319166001600160a01b039290921691909117905580f35b83903461025257602036600319011261025257610e85611243565b8035905580f35b8391503461025257608036600319011261025257338252600e60205260ff838320541615610f8557610ec16024358235611647565b6003546001600160a01b031692833b15610309578051629a208160e81b815293838580610ef3336044358884016114b4565b038183855af18015610f7b57610f67575b839450803b15610f6257815163f3883d8b60e01b81529284918491829084908290610f369033906064359084016114b4565b03925af1908115610f595750610f495750f35b610f52906110b9565b6107685780f35b513d84823e3d90fd5b505050fd5b929093610f73906110b9565b918390610f04565b82513d86823e3d90fd5b8251631dd2188d60e31b8152fd5b505034610252578160031936011261025257602090516127108152f35b5050346102525781600319360112610252576020906009549051908152f35b50503461025257816003193601126102525760015490516001600160a01b039091168152602090f35b90503461030957816003193601126103095780356001600160401b03811161062c57611027903690830161111c565b91338452600e60205260ff81852054161561033b5783610d526024358561135d565b5050346102525781600319360112610252576020906006549051908152f35b849084346103095760203660031901126103095760209260ff91906001600160a01b036110936110a3565b1681526010855220541615158152f35b600435906001600160a01b03821682036103e357565b6001600160401b0381116110cc57604052565b634e487b7160e01b600052604160045260246000fd5b601f909101601f19168101906001600160401b038211908210176110cc57604052565b6001600160401b0381116110cc5760051b60200190565b81601f820112156103e35780359161113383611105565b9261114160405194856110e2565b808452602092838086019260051b8201019283116103e3578301905b82821061116b575050505090565b8135815290830190830161115d565b6024359081151582036103e357565b6011548110156111a457601160005260206000200190600090565b634e487b7160e01b600052603260045260246000fd5b6012548110156111a457601260005260206000200190600090565b81601f820112156103e3578035916111ec83611105565b926111fa60405194856110e2565b808452602092838086019260051b8201019283116103e3578301905b828210611224575050505090565b81356001600160a01b03811681036103e3578152908301908301611216565b6000546001600160a01b0316330361125757565b606460405162461bcd60e51b815260206004820152602060248201527f4f776e61626c653a2063616c6c6572206973206e6f7420746865206f776e65726044820152fd5b68327cb2734119d3b7a9601e1b8082029291801590840490911417156112bd57565b634e487b7160e01b600052601160045260246000fd5b818102929181159184041417156112bd57565b8181106112f1575050565b600081556001016112e6565b60001981146112bd5760010190565b80518210156111a45760209160051b010190565b906127109182018092116112bd57565b919082018092116112bd57565b8115611347570490565b634e487b7160e01b600052601260045260246000fd5b9061136790611736565b61136e5750565b600180546001600160a01b03908116926000835b61138e575b5050505050565b81518110156114af5790816113a58594938361130c565b516000855b6113c2575b50506113ba906112fd565b909192611382565b909192939450600886818310156114a55750600384811b9185830414851517156112bd576113f08383611330565b60119081541115611499576001600160fb1b03841684036114855750916109d9826114638a95611445611440868d61143361142e8361147a9c611330565b611189565b905490861b1c1695611330565b6111ba565b9054911b1c61145e63ffffffff898760051b1c1661129b565b61133d565b9080600052600d602052816040600020558b6116d9565b8195949392916113aa565b634e487b7160e01b60005260045260246000fd5b50505050505050505050565b95949392506113af565b611387565b9081526001600160a01b03909116602082015260400190565b906127109182039182116112bd57565b919082039182116112bd57565b6114f960045460065490611330565b421161161e576001600160a01b03166000908152600d602052604081205491821561157b57600a54612710948561154c6115468261153f61153987611320565b886112d3565b04946114cd565b856112d3565b0495611556611624565b611599575b50611582575082811061157b57505081811015611576575090565b905090565b9250505090565b935082811161157b57505081811115611576575090565b8686101580611614575b1561155b579294955090506115e6578383106115bf5750505090565b9091926115d7906115d16009546114cd565b906112d3565b04905081811015611576575090565b8383116115f35750505090565b909192611605906115d1600954611320565b04905081811115611576575090565b50828611156115a3565b50905090565b60ff60005460a81c1661164257600c54600b54111561164257600190565b600090565b9061165190611736565b6116585750565b6001546001600160a01b03908116919060005b600881106116795750505050565b60118054821015611387576001600160fb1b03821682036114855750806109d9836116bd6116a96116d495611189565b929054600393841b1c1691611445856111ba565b9080600052600d60205281604060002055876116d9565b61166b565b6001600160a01b03908116801561173057803b156103e35760009283604492604051968795869463e0409c7160e01b865216600485015260248401525af18015611724576110b95750565b6040513d6000823e3d90fd5b50505050565b6007548061179e575b5060085461174d81426114dd565b82119081159161178a575b506117785760045481106117725760045543600555600190565b50600090565b60405163b7d0949760e01b8152600490fd5b611795915042611330565b81101538611758565b6117aa600554436114dd565b106117b5573861173f565b604051638aa5aabb60e01b8152600490fdfe31ecc21a745e3968a04e9570e4425bc18fa8019c68028196b546d1669c200c688be0079c531659141344cd1fd0a4f28419497f9722a3daafe3b4186f6b6457e0a2646970667358221220f9d07366d7aaa6b98b91bd9be8c8617d71ff42ce61c99cba53c05a1c633e786c64736f6c63430008110033",
  "linkReferences": {},
  "deployedLinkReferences": {}
}