{
  "_format": "hh-sol-artifact-1",
  "contractName": "FastPriceEvents",
  "sourceName": "contracts/oracle/FastPriceEvents.sol",
  "abi": [
    {
      "anonymous": false,
      "inputs": [
        {
          "indexed": true,
          "internalType": "address",
          "name": "previousOwner",
          "type": "address"
        },
        {
          "indexed": true,
          "internalType": "address",
          "name": "newOwner",
          "type": "address"
        }
      ],
      "name": "OwnershipTransferred",
      "type": "event"
    },
    {
      "anonymous": false,
      "inputs": [
        {
          "indexed": false,
          "internalType": "address",
          "name": "token",
          "type": "address"
        },
        {
          "indexed": false,
          "internalType": "uint256",
          "name": "price",
          "type": "uint256"
        },
        {
          "indexed": false,
          "internalType": "address",
          "name": "priceFeed",
          "type": "address"
        }
      ],
      "name": "PriceUpdate",
      "type": "event"
    },
    {
      "inputs": [
        {
          "internalType": "address",
          "name": "_token",
          "type": "address"
        },
        {
          "internalType": "uint256",
          "name": "_price",
          "type": "uint256"
        }
      ],
      "name": "emitPriceEvent",
      "outputs": [],
      "stateMutability": "nonpayable",
      "type": "function"
    },
    {
      "inputs": [
        {
          "internalType": "address",
          "name": "",
          "type": "address"
        }
      ],
      "name": "isPriceFeed",
      "outputs": [
        {
          "internalType": "bool",
          "name": "",
          "type": "bool"
        }
      ],
      "stateMutability": "view",
      "type": "function"
    },
    {
      "inputs": [],
      "name": "owner",
      "outputs": [
        {
          "internalType": "address",
          "name": "",
          "type": "address"
        }
      ],
      "stateMutability": "view",
      "type": "function"
    },
    {
      "inputs": [],
      "name": "renounceOwnership",
      "outputs": [],
      "stateMutability": "nonpayable",
      "type": "function"
    },
    {
      "inputs": [
        {
          "internalType": "address",
          "name": "_priceFeed",
          "type": "address"
        },
        {
          "internalType": "bool",
          "name": "_isPriceFeed",
          "type": "bool"
        }
      ],
      "name": "setIsPriceFeed",
      "outputs": [],
      "stateMutability": "nonpayable",
      "type": "function"
    },
    {
      "inputs": [
        {
          "internalType": "address",
          "name": "newOwner",
          "type": "address"
        }
      ],
      "name": "transferOwnership",
      "outputs": [],
      "stateMutability": "nonpayable",
      "type": "function"
    }
  ],
  "bytecode": "0x6080806040523461005b5760008054336001600160a01b0319821681178355916001600160a01b03909116907f8be0079c531659141344cd1fd0a4f28419497f9722a3daafe3b4186f6b6457e09080a361039a90816100618239f35b600080fdfe60806040818152600436101561001457600080fd5b600091823560e01c90816357a94beb146102925750806369d4c9241461023d578063715018a6146101f25780638da5cb5b146101cb578063e0409c71146101155763f2fde38b1461006457600080fd5b346101115760203660031901126101115761007d6102d1565b6100856102ec565b6001600160a01b039081169182156100bf575082546001600160a01b0319811683178455166000805160206103458339815191528380a380f35b5162461bcd60e51b815260206004820152602660248201527f4f776e61626c653a206e6577206f776e657220697320746865207a65726f206160448201526564647265737360d01b6064820152608490fd5b5080fd5b503461011157806003193601126101115761012e6102d1565b90338352600160205260ff8184205416156101885780516001600160a01b039092168252602435602083015233908201527fc37a77b91cc3fc2d0e4b43fd2f347ec67adda10e39215de4742836cc3e42c97a90606090a180f35b5162461bcd60e51b815260206004820152601f60248201527f4661737450726963654576656e74733a20696e76616c69642073656e646572006044820152606490fd5b5034610111578160031936011261011157905490516001600160a01b039091168152602090f35b823461023a578060031936011261023a5761020b6102ec565b80546001600160a01b03198116825581906001600160a01b03166000805160206103458339815191528280a380f35b80fd5b50346101115780600319360112610111576102566102d1565b906024359182151580930361028e5761026d6102ec565b60018060a01b03168352600160205282209060ff8019835416911617905580f35b8380fd5b919050346102cd5760203660031901126102cd5760209260ff91906001600160a01b036102bd6102d1565b1681526001855220541615158152f35b8280fd5b600435906001600160a01b03821682036102e757565b600080fd5b6000546001600160a01b0316330361030057565b606460405162461bcd60e51b815260206004820152602060248201527f4f776e61626c653a2063616c6c6572206973206e6f7420746865206f776e65726044820152fdfe8be0079c531659141344cd1fd0a4f28419497f9722a3daafe3b4186f6b6457e0a264697066735822122000379160109147f5d6f7378f6d103190c6d6f452ec77e26e276639e36de28f8364736f6c63430008110033",
  "linkReferences": {},
  "deployedLinkReferences": {}
}