{
  "_format": "hh-sol-artifact-1",
  "contractName": "OrderBook",
  "sourceName": "contracts/core/OrderBook.sol",
  "abi": [
    {
      "inputs": [],
      "stateMutability": "nonpayable",
      "type": "constructor"
    },
    {
      "inputs": [],
      "name": "AlreadyInitialized",
      "type": "error"
    },
    {
      "inputs": [],
      "name": "InsufficientAmountOut",
      "type": "error"
    },
    {
      "inputs": [],
      "name": "InsufficientCollateral",
      "type": "error"
    },
    {
      "inputs": [],
      "name": "InsufficientFee",
      "type": "error"
    },
    {
      "inputs": [],
      "name": "InvalidAmount",
      "type": "error"
    },
    {
      "inputs": [],
      "name": "InvalidPath",
      "type": "error"
    },
    {
      "inputs": [],
      "name": "InvalidPrice",
      "type": "error"
    },
    {
      "inputs": [],
      "name": "InvalidSender",
      "type": "error"
    },
    {
      "inputs": [],
      "name": "InvalidValue",
      "type": "error"
    },
    {
      "inputs": [],
      "name": "NonexistentOrder",
      "type": "error"
    },
    {
      "anonymous": false,
      "inputs": [
        {
          "indexed": true,
          "internalType": "address",
          "name": "account",
          "type": "address"
        },
        {
          "indexed": false,
          "internalType": "uint256",
          "name": "orderIndex",
          "type": "uint256"
        },
        {
          "indexed": false,
          "internalType": "address",
          "name": "collateralToken",
          "type": "address"
        },
        {
          "indexed": false,
          "internalType": "uint256",
          "name": "collateralDelta",
          "type": "uint256"
        },
        {
          "indexed": false,
          "internalType": "address",
          "name": "indexToken",
          "type": "address"
        },
        {
          "indexed": false,
          "internalType": "uint256",
          "name": "sizeDelta",
          "type": "uint256"
        },
        {
          "indexed": false,
          "internalType": "bool",
          "name": "isLong",
          "type": "bool"
        },
        {
          "indexed": false,
          "internalType": "uint256",
          "name": "triggerPrice",
          "type": "uint256"
        },
        {
          "indexed": false,
          "internalType": "bool",
          "name": "triggerAboveThreshold",
          "type": "bool"
        },
        {
          "indexed": false,
          "internalType": "uint256",
          "name": "executionFee",
          "type": "uint256"
        }
      ],
      "name": "CancelDecreaseOrder",
      "type": "event"
    },
    {
      "anonymous": false,
      "inputs": [
        {
          "indexed": true,
          "internalType": "address",
          "name": "account",
          "type": "address"
        },
        {
          "indexed": false,
          "internalType": "uint256",
          "name": "orderIndex",
          "type": "uint256"
        },
        {
          "indexed": false,
          "internalType": "address",
          "name": "purchaseToken",
          "type": "address"
        },
        {
          "indexed": false,
          "internalType": "uint256",
          "name": "purchaseTokenAmount",
          "type": "uint256"
        },
        {
          "indexed": false,
          "internalType": "address",
          "name": "collateralToken",
          "type": "address"
        },
        {
          "indexed": false,
          "internalType": "address",
          "name": "indexToken",
          "type": "address"
        },
        {
          "indexed": false,
          "internalType": "uint256",
          "name": "sizeDelta",
          "type": "uint256"
        },
        {
          "indexed": false,
          "internalType": "bool",
          "name": "isLong",
          "type": "bool"
        },
        {
          "indexed": false,
          "internalType": "uint256",
          "name": "triggerPrice",
          "type": "uint256"
        },
        {
          "indexed": false,
          "internalType": "bool",
          "name": "triggerAboveThreshold",
          "type": "bool"
        },
        {
          "indexed": false,
          "internalType": "uint256",
          "name": "executionFee",
          "type": "uint256"
        }
      ],
      "name": "CancelIncreaseOrder",
      "type": "event"
    },
    {
      "anonymous": false,
      "inputs": [
        {
          "indexed": true,
          "internalType": "address",
          "name": "account",
          "type": "address"
        },
        {
          "indexed": false,
          "internalType": "uint256",
          "name": "orderIndex",
          "type": "uint256"
        },
        {
          "indexed": false,
          "internalType": "address[]",
          "name": "path",
          "type": "address[]"
        },
        {
          "indexed": false,
          "internalType": "uint256",
          "name": "amountIn",
          "type": "uint256"
        },
        {
          "indexed": false,
          "internalType": "uint256",
          "name": "minOut",
          "type": "uint256"
        },
        {
          "indexed": false,
          "internalType": "uint256",
          "name": "triggerRatio",
          "type": "uint256"
        },
        {
          "indexed": false,
          "internalType": "bool",
          "name": "triggerAboveThreshold",
          "type": "bool"
        },
        {
          "indexed": false,
          "internalType": "bool",
          "name": "shouldUnwrap",
          "type": "bool"
        },
        {
          "indexed": false,
          "internalType": "uint256",
          "name": "executionFee",
          "type": "uint256"
        }
      ],
      "name": "CancelSwapOrder",
      "type": "event"
    },
    {
      "anonymous": false,
      "inputs": [
        {
          "indexed": true,
          "internalType": "address",
          "name": "account",
          "type": "address"
        },
        {
          "indexed": false,
          "internalType": "uint256",
          "name": "orderIndex",
          "type": "uint256"
        },
        {
          "indexed": false,
          "internalType": "address",
          "name": "collateralToken",
          "type": "address"
        },
        {
          "indexed": false,
          "internalType": "uint256",
          "name": "collateralDelta",
          "type": "uint256"
        },
        {
          "indexed": false,
          "internalType": "address",
          "name": "indexToken",
          "type": "address"
        },
        {
          "indexed": false,
          "internalType": "uint256",
          "name": "sizeDelta",
          "type": "uint256"
        },
        {
          "indexed": false,
          "internalType": "bool",
          "name": "isLong",
          "type": "bool"
        },
        {
          "indexed": false,
          "internalType": "uint256",
          "name": "triggerPrice",
          "type": "uint256"
        },
        {
          "indexed": false,
          "internalType": "bool",
          "name": "triggerAboveThreshold",
          "type": "bool"
        },
        {
          "indexed": false,
          "internalType": "uint256",
          "name": "executionFee",
          "type": "uint256"
        }
      ],
      "name": "CreateDecreaseOrder",
      "type": "event"
    },
    {
      "anonymous": false,
      "inputs": [
        {
          "indexed": true,
          "internalType": "address",
          "name": "account",
          "type": "address"
        },
        {
          "indexed": false,
          "internalType": "uint256",
          "name": "orderIndex",
          "type": "uint256"
        },
        {
          "indexed": false,
          "internalType": "address",
          "name": "purchaseToken",
          "type": "address"
        },
        {
          "indexed": false,
          "internalType": "uint256",
          "name": "purchaseTokenAmount",
          "type": "uint256"
        },
        {
          "indexed": false,
          "internalType": "address",
          "name": "collateralToken",
          "type": "address"
        },
        {
          "indexed": false,
          "internalType": "address",
          "name": "indexToken",
          "type": "address"
        },
        {
          "indexed": false,
          "internalType": "uint256",
          "name": "sizeDelta",
          "type": "uint256"
        },
        {
          "indexed": false,
          "internalType": "bool",
          "name": "isLong",
          "type": "bool"
        },
        {
          "indexed": false,
          "internalType": "uint256",
          "name": "triggerPrice",
          "type": "uint256"
        },
        {
          "indexed": false,
          "internalType": "bool",
          "name": "triggerAboveThreshold",
          "type": "bool"
        },
        {
          "indexed": false,
          "internalType": "uint256",
          "name": "executionFee",
          "type": "uint256"
        }
      ],
      "name": "CreateIncreaseOrder",
      "type": "event"
    },
    {
      "anonymous": false,
      "inputs": [
        {
          "indexed": true,
          "internalType": "address",
          "name": "account",
          "type": "address"
        },
        {
          "indexed": false,
          "internalType": "uint256",
          "name": "orderIndex",
          "type": "uint256"
        },
        {
          "indexed": false,
          "internalType": "address[]",
          "name": "path",
          "type": "address[]"
        },
        {
          "indexed": false,
          "internalType": "uint256",
          "name": "amountIn",
          "type": "uint256"
        },
        {
          "indexed": false,
          "internalType": "uint256",
          "name": "minOut",
          "type": "uint256"
        },
        {
          "indexed": false,
          "internalType": "uint256",
          "name": "triggerRatio",
          "type": "uint256"
        },
        {
          "indexed": false,
          "internalType": "bool",
          "name": "triggerAboveThreshold",
          "type": "bool"
        },
        {
          "indexed": false,
          "internalType": "bool",
          "name": "shouldUnwrap",
          "type": "bool"
        },
        {
          "indexed": false,
          "internalType": "uint256",
          "name": "executionFee",
          "type": "uint256"
        }
      ],
      "name": "CreateSwapOrder",
      "type": "event"
    },
    {
      "anonymous": false,
      "inputs": [
        {
          "indexed": true,
          "internalType": "address",
          "name": "account",
          "type": "address"
        },
        {
          "indexed": false,
          "internalType": "uint256",
          "name": "orderIndex",
          "type": "uint256"
        },
        {
          "indexed": false,
          "internalType": "address",
          "name": "collateralToken",
          "type": "address"
        },
        {
          "indexed": false,
          "internalType": "uint256",
          "name": "collateralDelta",
          "type": "uint256"
        },
        {
          "indexed": false,
          "internalType": "address",
          "name": "indexToken",
          "type": "address"
        },
        {
          "indexed": false,
          "internalType": "uint256",
          "name": "sizeDelta",
          "type": "uint256"
        },
        {
          "indexed": false,
          "internalType": "bool",
          "name": "isLong",
          "type": "bool"
        },
        {
          "indexed": false,
          "internalType": "uint256",
          "name": "triggerPrice",
          "type": "uint256"
        },
        {
          "indexed": false,
          "internalType": "bool",
          "name": "triggerAboveThreshold",
          "type": "bool"
        },
        {
          "indexed": false,
          "internalType": "uint256",
          "name": "executionFee",
          "type": "uint256"
        },
        {
          "indexed": false,
          "internalType": "uint256",
          "name": "executionPrice",
          "type": "uint256"
        }
      ],
      "name": "ExecuteDecreaseOrder",
      "type": "event"
    },
    {
      "anonymous": false,
      "inputs": [
        {
          "indexed": true,
          "internalType": "address",
          "name": "account",
          "type": "address"
        },
        {
          "indexed": false,
          "internalType": "uint256",
          "name": "orderIndex",
          "type": "uint256"
        },
        {
          "indexed": false,
          "internalType": "address",
          "name": "purchaseToken",
          "type": "address"
        },
        {
          "indexed": false,
          "internalType": "uint256",
          "name": "purchaseTokenAmount",
          "type": "uint256"
        },
        {
          "indexed": false,
          "internalType": "address",
          "name": "collateralToken",
          "type": "address"
        },
        {
          "indexed": false,
          "internalType": "address",
          "name": "indexToken",
          "type": "address"
        },
        {
          "indexed": false,
          "internalType": "uint256",
          "name": "sizeDelta",
          "type": "uint256"
        },
        {
          "indexed": false,
          "internalType": "bool",
          "name": "isLong",
          "type": "bool"
        },
        {
          "indexed": false,
          "internalType": "uint256",
          "name": "triggerPrice",
          "type": "uint256"
        },
        {
          "indexed": false,
          "internalType": "bool",
          "name": "triggerAboveThreshold",
          "type": "bool"
        },
        {
          "indexed": false,
          "internalType": "uint256",
          "name": "executionFee",
          "type": "uint256"
        },
        {
          "indexed": false,
          "internalType": "uint256",
          "name": "executionPrice",
          "type": "uint256"
        }
      ],
      "name": "ExecuteIncreaseOrder",
      "type": "event"
    },
    {
      "anonymous": false,
      "inputs": [
        {
          "indexed": true,
          "internalType": "address",
          "name": "account",
          "type": "address"
        },
        {
          "indexed": false,
          "internalType": "uint256",
          "name": "orderIndex",
          "type": "uint256"
        },
        {
          "indexed": false,
          "internalType": "address[]",
          "name": "path",
          "type": "address[]"
        },
        {
          "indexed": false,
          "internalType": "uint256",
          "name": "amountIn",
          "type": "uint256"
        },
        {
          "indexed": false,
          "internalType": "uint256",
          "name": "minOut",
          "type": "uint256"
        },
        {
          "indexed": false,
          "internalType": "uint256",
          "name": "amountOut",
          "type": "uint256"
        },
        {
          "indexed": false,
          "internalType": "uint256",
          "name": "triggerRatio",
          "type": "uint256"
        },
        {
          "indexed": false,
          "internalType": "bool",
          "name": "triggerAboveThreshold",
          "type": "bool"
        },
        {
          "indexed": false,
          "internalType": "bool",
          "name": "shouldUnwrap",
          "type": "bool"
        },
        {
          "indexed": false,
          "internalType": "uint256",
          "name": "executionFee",
          "type": "uint256"
        }
      ],
      "name": "ExecuteSwapOrder",
      "type": "event"
    },
    {
      "anonymous": false,
      "inputs": [
        {
          "indexed": false,
          "internalType": "address",
          "name": "router",
          "type": "address"
        },
        {
          "indexed": false,
          "internalType": "address",
          "name": "vault",
          "type": "address"
        },
        {
          "indexed": false,
          "internalType": "address",
          "name": "weth",
          "type": "address"
        },
        {
          "indexed": false,
          "internalType": "uint256",
          "name": "minExecutionFee",
          "type": "uint256"
        },
        {
          "indexed": false,
          "internalType": "uint256",
          "name": "minPurchaseTokenAmountUsd",
          "type": "uint256"
        }
      ],
      "name": "Initialize",
      "type": "event"
    },
    {
      "anonymous": false,
      "inputs": [
        {
          "indexed": true,
          "internalType": "address",
          "name": "previousOwner",
          "type": "address"
        },
        {
          "indexed": true,
          "internalType": "address",
          "name": "newOwner",
          "type": "address"
        }
      ],
      "name": "OwnershipTransferred",
      "type": "event"
    },
    {
      "anonymous": false,
      "inputs": [
        {
          "indexed": true,
          "internalType": "address",
          "name": "account",
          "type": "address"
        },
        {
          "indexed": false,
          "internalType": "uint256",
          "name": "orderIndex",
          "type": "uint256"
        },
        {
          "indexed": false,
          "internalType": "address",
          "name": "collateralToken",
          "type": "address"
        },
        {
          "indexed": false,
          "internalType": "uint256",
          "name": "collateralDelta",
          "type": "uint256"
        },
        {
          "indexed": false,
          "internalType": "address",
          "name": "indexToken",
          "type": "address"
        },
        {
          "indexed": false,
          "internalType": "uint256",
          "name": "sizeDelta",
          "type": "uint256"
        },
        {
          "indexed": false,
          "internalType": "bool",
          "name": "isLong",
          "type": "bool"
        },
        {
          "indexed": false,
          "internalType": "uint256",
          "name": "triggerPrice",
          "type": "uint256"
        },
        {
          "indexed": false,
          "internalType": "bool",
          "name": "triggerAboveThreshold",
          "type": "bool"
        }
      ],
      "name": "UpdateDecreaseOrder",
      "type": "event"
    },
    {
      "anonymous": false,
      "inputs": [
        {
          "indexed": true,
          "internalType": "address",
          "name": "account",
          "type": "address"
        },
        {
          "indexed": false,
          "internalType": "uint256",
          "name": "orderIndex",
          "type": "uint256"
        },
        {
          "indexed": false,
          "internalType": "address",
          "name": "collateralToken",
          "type": "address"
        },
        {
          "indexed": false,
          "internalType": "address",
          "name": "indexToken",
          "type": "address"
        },
        {
          "indexed": false,
          "internalType": "bool",
          "name": "isLong",
          "type": "bool"
        },
        {
          "indexed": false,
          "internalType": "uint256",
          "name": "sizeDelta",
          "type": "uint256"
        },
        {
          "indexed": false,
          "internalType": "uint256",
          "name": "triggerPrice",
          "type": "uint256"
        },
        {
          "indexed": false,
          "internalType": "bool",
          "name": "triggerAboveThreshold",
          "type": "bool"
        }
      ],
      "name": "UpdateIncreaseOrder",
      "type": "event"
    },
    {
      "anonymous": false,
      "inputs": [
        {
          "indexed": false,
          "internalType": "uint256",
          "name": "minExecutionFee",
          "type": "uint256"
        }
      ],
      "name": "UpdateMinExecutionFee",
      "type": "event"
    },
    {
      "anonymous": false,
      "inputs": [
        {
          "indexed": false,
          "internalType": "uint256",
          "name": "minPurchaseTokenAmountUsd",
          "type": "uint256"
        }
      ],
      "name": "UpdateMinPurchaseTokenAmountUsd",
      "type": "event"
    },
    {
      "anonymous": false,
      "inputs": [
        {
          "indexed": true,
          "internalType": "address",
          "name": "account",
          "type": "address"
        },
        {
          "indexed": false,
          "internalType": "uint256",
          "name": "ordexIndex",
          "type": "uint256"
        },
        {
          "indexed": false,
          "internalType": "address[]",
          "name": "path",
          "type": "address[]"
        },
        {
          "indexed": false,
          "internalType": "uint256",
          "name": "amountIn",
          "type": "uint256"
        },
        {
          "indexed": false,
          "internalType": "uint256",
          "name": "minOut",
          "type": "uint256"
        },
        {
          "indexed": false,
          "internalType": "uint256",
          "name": "triggerRatio",
          "type": "uint256"
        },
        {
          "indexed": false,
          "internalType": "bool",
          "name": "triggerAboveThreshold",
          "type": "bool"
        },
        {
          "indexed": false,
          "internalType": "bool",
          "name": "shouldUnwrap",
          "type": "bool"
        },
        {
          "indexed": false,
          "internalType": "uint256",
          "name": "executionFee",
          "type": "uint256"
        }
      ],
      "name": "UpdateSwapOrder",
      "type": "event"
    },
    {
      "inputs": [],
      "name": "PRICE_PRECISION",
      "outputs": [
        {
          "internalType": "uint128",
          "name": "",
          "type": "uint128"
        }
      ],
      "stateMutability": "view",
      "type": "function"
    },
    {
      "inputs": [
        {
          "internalType": "uint256",
          "name": "_orderIndex",
          "type": "uint256"
        }
      ],
      "name": "cancelDecreaseOrder",
      "outputs": [],
      "stateMutability": "nonpayable",
      "type": "function"
    },
    {
      "inputs": [
        {
          "internalType": "uint256",
          "name": "_orderIndex",
          "type": "uint256"
        }
      ],
      "name": "cancelIncreaseOrder",
      "outputs": [],
      "stateMutability": "nonpayable",
      "type": "function"
    },
    {
      "inputs": [
        {
          "internalType": "uint256[]",
          "name": "_swapOrderIndexes",
          "type": "uint256[]"
        },
        {
          "internalType": "uint256[]",
          "name": "_increaseOrderIndexes",
          "type": "uint256[]"
        },
        {
          "internalType": "uint256[]",
          "name": "_decreaseOrderIndexes",
          "type": "uint256[]"
        }
      ],
      "name": "cancelMultiple",
      "outputs": [],
      "stateMutability": "nonpayable",
      "type": "function"
    },
    {
      "inputs": [
        {
          "internalType": "uint256",
          "name": "_orderIndex",
          "type": "uint256"
        }
      ],
      "name": "cancelSwapOrder",
      "outputs": [],
      "stateMutability": "nonpayable",
      "type": "function"
    },
    {
      "inputs": [
        {
          "internalType": "address",
          "name": "_indexToken",
          "type": "address"
        },
        {
          "internalType": "uint256",
          "name": "_sizeDelta",
          "type": "uint256"
        },
        {
          "internalType": "address",
          "name": "_collateralToken",
          "type": "address"
        },
        {
          "internalType": "uint256",
          "name": "_collateralDelta",
          "type": "uint256"
        },
        {
          "internalType": "bool",
          "name": "_isLong",
          "type": "bool"
        },
        {
          "internalType": "uint256",
          "name": "_triggerPrice",
          "type": "uint256"
        },
        {
          "internalType": "bool",
          "name": "_triggerAboveThreshold",
          "type": "bool"
        }
      ],
      "name": "createDecreaseOrder",
      "outputs": [],
      "stateMutability": "payable",
      "type": "function"
    },
    {
      "inputs": [
        {
          "internalType": "address[]",
          "name": "_path",
          "type": "address[]"
        },
        {
          "internalType": "uint256",
          "name": "_amountIn",
          "type": "uint256"
        },
        {
          "internalType": "address",
          "name": "_indexToken",
          "type": "address"
        },
        {
          "internalType": "uint256",
          "name": "_minOut",
          "type": "uint256"
        },
        {
          "internalType": "uint256",
          "name": "_sizeDelta",
          "type": "uint256"
        },
        {
          "internalType": "address",
          "name": "_collateralToken",
          "type": "address"
        },
        {
          "internalType": "bool",
          "name": "_isLong",
          "type": "bool"
        },
        {
          "internalType": "uint256",
          "name": "_triggerPrice",
          "type": "uint256"
        },
        {
          "internalType": "bool",
          "name": "_triggerAboveThreshold",
          "type": "bool"
        },
        {
          "internalType": "uint256",
          "name": "_executionFee",
          "type": "uint256"
        },
        {
          "internalType": "bool",
          "name": "_shouldWrap",
          "type": "bool"
        }
      ],
      "name": "createIncreaseOrder",
      "outputs": [],
      "stateMutability": "payable",
      "type": "function"
    },
    {
      "inputs": [
        {
          "internalType": "address[]",
          "name": "_path",
          "type": "address[]"
        },
        {
          "internalType": "uint256",
          "name": "_amountIn",
          "type": "uint256"
        },
        {
          "internalType": "uint256",
          "name": "_minOut",
          "type": "uint256"
        },
        {
          "internalType": "uint256",
          "name": "_triggerRatio",
          "type": "uint256"
        },
        {
          "internalType": "bool",
          "name": "_triggerAboveThreshold",
          "type": "bool"
        },
        {
          "internalType": "uint256",
          "name": "_executionFee",
          "type": "uint256"
        },
        {
          "internalType": "bool",
          "name": "_shouldWrap",
          "type": "bool"
        },
        {
          "internalType": "bool",
          "name": "_shouldUnwrap",
          "type": "bool"
        }
      ],
      "name": "createSwapOrder",
      "outputs": [],
      "stateMutability": "payable",
      "type": "function"
    },
    {
      "inputs": [
        {
          "internalType": "address",
          "name": "",
          "type": "address"
        },
        {
          "internalType": "uint256",
          "name": "",
          "type": "uint256"
        }
      ],
      "name": "decreaseOrders",
      "outputs": [
        {
          "internalType": "address",
          "name": "account",
          "type": "address"
        },
        {
          "internalType": "address",
          "name": "collateralToken",
          "type": "address"
        },
        {
          "internalType": "uint256",
          "name": "collateralDelta",
          "type": "uint256"
        },
        {
          "internalType": "address",
          "name": "indexToken",
          "type": "address"
        },
        {
          "internalType": "uint256",
          "name": "sizeDelta",
          "type": "uint256"
        },
        {
          "internalType": "bool",
          "name": "isLong",
          "type": "bool"
        },
        {
          "internalType": "uint256",
          "name": "triggerPrice",
          "type": "uint256"
        },
        {
          "internalType": "bool",
          "name": "triggerAboveThreshold",
          "type": "bool"
        },
        {
          "internalType": "uint256",
          "name": "executionFee",
          "type": "uint256"
        }
      ],
      "stateMutability": "view",
      "type": "function"
    },
    {
      "inputs": [
        {
          "internalType": "address",
          "name": "",
          "type": "address"
        }
      ],
      "name": "decreaseOrdersIndex",
      "outputs": [
        {
          "internalType": "uint256",
          "name": "",
          "type": "uint256"
        }
      ],
      "stateMutability": "view",
      "type": "function"
    },
    {
      "inputs": [
        {
          "internalType": "address",
          "name": "_address",
          "type": "address"
        },
        {
          "internalType": "uint256",
          "name": "_orderIndex",
          "type": "uint256"
        },
        {
          "internalType": "address payable",
          "name": "_feeReceiver",
          "type": "address"
        }
      ],
      "name": "executeDecreaseOrder",
      "outputs": [],
      "stateMutability": "nonpayable",
      "type": "function"
    },
    {
      "inputs": [
        {
          "internalType": "address",
          "name": "_address",
          "type": "address"
        },
        {
          "internalType": "uint256",
          "name": "_orderIndex",
          "type": "uint256"
        },
        {
          "internalType": "address payable",
          "name": "_feeReceiver",
          "type": "address"
        }
      ],
      "name": "executeIncreaseOrder",
      "outputs": [],
      "stateMutability": "nonpayable",
      "type": "function"
    },
    {
      "inputs": [
        {
          "internalType": "address",
          "name": "_account",
          "type": "address"
        },
        {
          "internalType": "uint256",
          "name": "_orderIndex",
          "type": "uint256"
        },
        {
          "internalType": "address payable",
          "name": "_feeReceiver",
          "type": "address"
        }
      ],
      "name": "executeSwapOrder",
      "outputs": [],
      "stateMutability": "nonpayable",
      "type": "function"
    },
    {
      "inputs": [
        {
          "internalType": "address",
          "name": "_account",
          "type": "address"
        },
        {
          "internalType": "uint256",
          "name": "_orderIndex",
          "type": "uint256"
        }
      ],
      "name": "getDecreaseOrder",
      "outputs": [
        {
          "internalType": "address",
          "name": "collateralToken",
          "type": "address"
        },
        {
          "internalType": "uint256",
          "name": "collateralDelta",
          "type": "uint256"
        },
        {
          "internalType": "address",
          "name": "indexToken",
          "type": "address"
        },
        {
          "internalType": "uint256",
          "name": "sizeDelta",
          "type": "uint256"
        },
        {
          "internalType": "bool",
          "name": "isLong",
          "type": "bool"
        },
        {
          "internalType": "uint256",
          "name": "triggerPrice",
          "type": "uint256"
        },
        {
          "internalType": "bool",
          "name": "triggerAboveThreshold",
          "type": "bool"
        },
        {
          "internalType": "uint256",
          "name": "executionFee",
          "type": "uint256"
        }
      ],
      "stateMutability": "view",
      "type": "function"
    },
    {
      "inputs": [
        {
          "internalType": "address",
          "name": "_account",
          "type": "address"
        },
        {
          "internalType": "uint256",
          "name": "_orderIndex",
          "type": "uint256"
        }
      ],
      "name": "getIncreaseOrder",
      "outputs": [
        {
          "internalType": "address",
          "name": "purchaseToken",
          "type": "address"
        },
        {
          "internalType": "uint256",
          "name": "purchaseTokenAmount",
          "type": "uint256"
        },
        {
          "internalType": "address",
          "name": "collateralToken",
          "type": "address"
        },
        {
          "internalType": "address",
          "name": "indexToken",
          "type": "address"
        },
        {
          "internalType": "uint256",
          "name": "sizeDelta",
          "type": "uint256"
        },
        {
          "internalType": "bool",
          "name": "isLong",
          "type": "bool"
        },
        {
          "internalType": "uint256",
          "name": "triggerPrice",
          "type": "uint256"
        },
        {
          "internalType": "bool",
          "name": "triggerAboveThreshold",
          "type": "bool"
        },
        {
          "internalType": "uint256",
          "name": "executionFee",
          "type": "uint256"
        }
      ],
      "stateMutability": "view",
      "type": "function"
    },
    {
      "inputs": [
        {
          "internalType": "address",
          "name": "_account",
          "type": "address"
        },
        {
          "internalType": "uint256",
          "name": "_orderIndex",
          "type": "uint256"
        }
      ],
      "name": "getSwapOrder",
      "outputs": [
        {
          "internalType": "address",
          "name": "path0",
          "type": "address"
        },
        {
          "internalType": "address",
          "name": "path1",
          "type": "address"
        },
        {
          "internalType": "address",
          "name": "path2",
          "type": "address"
        },
        {
          "internalType": "uint256",
          "name": "amountIn",
          "type": "uint256"
        },
        {
          "internalType": "uint256",
          "name": "minOut",
          "type": "uint256"
        },
        {
          "internalType": "uint256",
          "name": "triggerRatio",
          "type": "uint256"
        },
        {
          "internalType": "bool",
          "name": "triggerAboveThreshold",
          "type": "bool"
        },
        {
          "internalType": "bool",
          "name": "shouldUnwrap",
          "type": "bool"
        },
        {
          "internalType": "uint256",
          "name": "executionFee",
          "type": "uint256"
        }
      ],
      "stateMutability": "view",
      "type": "function"
    },
    {
      "inputs": [
        {
          "internalType": "address",
          "name": "",
          "type": "address"
        },
        {
          "internalType": "uint256",
          "name": "",
          "type": "uint256"
        }
      ],
      "name": "increaseOrders",
      "outputs": [
        {
          "internalType": "address",
          "name": "account",
          "type": "address"
        },
        {
          "internalType": "address",
          "name": "purchaseToken",
          "type": "address"
        },
        {
          "internalType": "uint256",
          "name": "purchaseTokenAmount",
          "type": "uint256"
        },
        {
          "internalType": "address",
          "name": "collateralToken",
          "type": "address"
        },
        {
          "internalType": "address",
          "name": "indexToken",
          "type": "address"
        },
        {
          "internalType": "uint256",
          "name": "sizeDelta",
          "type": "uint256"
        },
        {
          "internalType": "bool",
          "name": "isLong",
          "type": "bool"
        },
        {
          "internalType": "uint256",
          "name": "triggerPrice",
          "type": "uint256"
        },
        {
          "internalType": "bool",
          "name": "triggerAboveThreshold",
          "type": "bool"
        },
        {
          "internalType": "uint256",
          "name": "executionFee",
          "type": "uint256"
        }
      ],
      "stateMutability": "view",
      "type": "function"
    },
    {
      "inputs": [
        {
          "internalType": "address",
          "name": "",
          "type": "address"
        }
      ],
      "name": "increaseOrdersIndex",
      "outputs": [
        {
          "internalType": "uint256",
          "name": "",
          "type": "uint256"
        }
      ],
      "stateMutability": "view",
      "type": "function"
    },
    {
      "inputs": [
        {
          "internalType": "address",
          "name": "_router",
          "type": "address"
        },
        {
          "internalType": "address",
          "name": "_vault",
          "type": "address"
        },
        {
          "internalType": "address",
          "name": "_weth",
          "type": "address"
        },
        {
          "internalType": "uint256",
          "name": "_minExecutionFee",
          "type": "uint256"
        },
        {
          "internalType": "uint256",
          "name": "_minPurchaseTokenAmountUsd",
          "type": "uint256"
        }
      ],
      "name": "initialize",
      "outputs": [],
      "stateMutability": "nonpayable",
      "type": "function"
    },
    {
      "inputs": [],
      "name": "isInitialized",
      "outputs": [
        {
          "internalType": "bool",
          "name": "",
          "type": "bool"
        }
      ],
      "stateMutability": "view",
      "type": "function"
    },
    {
      "inputs": [],
      "name": "minExecutionFee",
      "outputs": [
        {
          "internalType": "uint256",
          "name": "",
          "type": "uint256"
        }
      ],
      "stateMutability": "view",
      "type": "function"
    },
    {
      "inputs": [],
      "name": "minPurchaseTokenAmountUsd",
      "outputs": [
        {
          "internalType": "uint256",
          "name": "",
          "type": "uint256"
        }
      ],
      "stateMutability": "view",
      "type": "function"
    },
    {
      "inputs": [],
      "name": "owner",
      "outputs": [
        {
          "internalType": "address",
          "name": "",
          "type": "address"
        }
      ],
      "stateMutability": "view",
      "type": "function"
    },
    {
      "inputs": [],
      "name": "renounceOwnership",
      "outputs": [],
      "stateMutability": "nonpayable",
      "type": "function"
    },
    {
      "inputs": [],
      "name": "router",
      "outputs": [
        {
          "internalType": "address",
          "name": "",
          "type": "address"
        }
      ],
      "stateMutability": "view",
      "type": "function"
    },
    {
      "inputs": [
        {
          "internalType": "uint256",
          "name": "_minExecutionFee",
          "type": "uint256"
        }
      ],
      "name": "setMinExecutionFee",
      "outputs": [],
      "stateMutability": "nonpayable",
      "type": "function"
    },
    {
      "inputs": [
        {
          "internalType": "uint256",
          "name": "_minPurchaseTokenAmountUsd",
          "type": "uint256"
        }
      ],
      "name": "setMinPurchaseTokenAmountUsd",
      "outputs": [],
      "stateMutability": "nonpayable",
      "type": "function"
    },
    {
      "inputs": [
        {
          "internalType": "address",
          "name": "",
          "type": "address"
        },
        {
          "internalType": "uint256",
          "name": "",
          "type": "uint256"
        }
      ],
      "name": "swapOrders",
      "outputs": [
        {
          "internalType": "address",
          "name": "account",
          "type": "address"
        },
        {
          "internalType": "uint256",
          "name": "amountIn",
          "type": "uint256"
        },
        {
          "internalType": "uint256",
          "name": "minOut",
          "type": "uint256"
        },
        {
          "internalType": "uint256",
          "name": "triggerRatio",
          "type": "uint256"
        },
        {
          "internalType": "bool",
          "name": "triggerAboveThreshold",
          "type": "bool"
        },
        {
          "internalType": "bool",
          "name": "shouldUnwrap",
          "type": "bool"
        },
        {
          "internalType": "uint256",
          "name": "executionFee",
          "type": "uint256"
        }
      ],
      "stateMutability": "view",
      "type": "function"
    },
    {
      "inputs": [
        {
          "internalType": "address",
          "name": "",
          "type": "address"
        }
      ],
      "name": "swapOrdersIndex",
      "outputs": [
        {
          "internalType": "uint256",
          "name": "",
          "type": "uint256"
        }
      ],
      "stateMutability": "view",
      "type": "function"
    },
    {
      "inputs": [
        {
          "internalType": "address",
          "name": "newOwner",
          "type": "address"
        }
      ],
      "name": "transferOwnership",
      "outputs": [],
      "stateMutability": "nonpayable",
      "type": "function"
    },
    {
      "inputs": [
        {
          "internalType": "uint256",
          "name": "_orderIndex",
          "type": "uint256"
        },
        {
          "internalType": "uint256",
          "name": "_collateralDelta",
          "type": "uint256"
        },
        {
          "internalType": "uint256",
          "name": "_sizeDelta",
          "type": "uint256"
        },
        {
          "internalType": "uint256",
          "name": "_triggerPrice",
          "type": "uint256"
        },
        {
          "internalType": "bool",
          "name": "_triggerAboveThreshold",
          "type": "bool"
        }
      ],
      "name": "updateDecreaseOrder",
      "outputs": [],
      "stateMutability": "nonpayable",
      "type": "function"
    },
    {
      "inputs": [
        {
          "internalType": "uint256",
          "name": "_orderIndex",
          "type": "uint256"
        },
        {
          "internalType": "uint256",
          "name": "_sizeDelta",
          "type": "uint256"
        },
        {
          "internalType": "uint256",
          "name": "_triggerPrice",
          "type": "uint256"
        },
        {
          "internalType": "bool",
          "name": "_triggerAboveThreshold",
          "type": "bool"
        }
      ],
      "name": "updateIncreaseOrder",
      "outputs": [],
      "stateMutability": "nonpayable",
      "type": "function"
    },
    {
      "inputs": [
        {
          "internalType": "uint256",
          "name": "_orderIndex",
          "type": "uint256"
        },
        {
          "internalType": "uint256",
          "name": "_minOut",
          "type": "uint256"
        },
        {
          "internalType": "uint256",
          "name": "_triggerRatio",
          "type": "uint256"
        },
        {
          "internalType": "bool",
          "name": "_triggerAboveThreshold",
          "type": "bool"
        }
      ],
      "name": "updateSwapOrder",
      "outputs": [],
      "stateMutability": "nonpayable",
      "type": "function"
    },
    {
      "inputs": [
        {
          "internalType": "bool",
          "name": "_triggerAboveThreshold",
          "type": "bool"
        },
        {
          "internalType": "uint256",
          "name": "_triggerPrice",
          "type": "uint256"
        },
        {
          "internalType": "address",
          "name": "_indexToken",
          "type": "address"
        },
        {
          "internalType": "bool",
          "name": "_maximizePrice",
          "type": "bool"
        },
        {
          "internalType": "bool",
          "name": "_raise",
          "type": "bool"
        }
      ],
      "name": "validatePositionOrderPrice",
      "outputs": [
        {
          "internalType": "uint256",
          "name": "",
          "type": "uint256"
        },
        {
          "internalType": "bool",
          "name": "",
          "type": "bool"
        }
      ],
      "stateMutability": "view",
      "type": "function"
    },
    {
      "inputs": [
        {
          "internalType": "address[]",
          "name": "_path",
          "type": "address[]"
        },
        {
          "internalType": "uint256",
          "name": "_triggerRatio",
          "type": "uint256"
        }
      ],
      "name": "validateSwapOrderPriceWithTriggerAboveThreshold",
      "outputs": [
        {
          "internalType": "bool",
          "name": "",
          "type": "bool"
        }
      ],
      "stateMutability": "view",
      "type": "function"
    },
    {
      "inputs": [],
      "name": "vault",
      "outputs": [
        {
          "internalType": "address",
          "name": "",
          "type": "address"
        }
      ],
      "stateMutability": "view",
      "type": "function"
    },
    {
      "inputs": [],
      "name": "weth",
      "outputs": [
        {
          "internalType": "address",
          "name": "",
          "type": "address"
        }
      ],
      "stateMutability": "view",
      "type": "function"
    },
    {
      "stateMutability": "payable",
      "type": "receive"
    }
  ],
  "bytecode": "0x60808060405234620000335760016000556200001b3362000038565b620000263262000038565b613cd99081620000828239f35b600080fd5b600180546001600160a01b039283166001600160a01b0319821681179092559091167f8be0079c531659141344cd1fd0a4f28419497f9722a3daafe3b4186f6b6457e0600080a356fe6080806040526004361015610041575b50361561001b57600080fd5b6008546001600160a01b0316330361002f57005b604051636edaef2f60e11b8152600490fd5b600090813560e01c908162cf066b14612e3d57508063026032ee14612d5857806307c7edc314612a5e5780630d5cc93814612a1057806311d9444a14612729578063269ae6c21461238d5780632b7d6290146122ce578063392e53cd146122ab5780633fc8cef31461228257806347e0bbd0146120fd5780634c54f0b014611f7357806363ae210314611f55578063715018a614611f0957806379221fa214611e77578063807c5600146118ca5780638da5cb5b146118a15780638de10c2e1461188357806395082d251461185b5780639983ee1b1461178d5780639e71b0f014611659578063a397ea5414611568578063a6b63eb814611484578063aec224551461144b578063b142a4b014610fd4578063c16cde8a14610dde578063c4a1821b14610d95578063c86b0f7d14610c71578063d0d40cd614610a69578063d38ab519146106e8578063d3bab1d1146105ef578063d566d0ca146105b6578063f2d2e01b14610506578063f2fde38b14610453578063f882ac0714610282578063f887ea4014610259578063fbfa77cf146102305763fc2cee620361000f573461022d57602036600319011261022d577fbde5eafdc37b81830d70124cddccaaa6d034e71dda3c8fc18a959ca76a7cbcfc602060043561021f613085565b80600b55604051908152a180f35b80fd5b503461022d578060031936011261022d57600a546040516001600160a01b039091168152602090f35b503461022d578060031936011261022d576009546040516001600160a01b039091168152602090f35b503461022d5760208060031936011261044f576004356102a66002845414156130ee565b600283553383526006825260408320818452825260408320604051906102cb82612eef565b60018060a01b0391828254168152600194858301926040518085848297549384815201908b52848b20928b5b8b87838310610438575050505061031092500385612f3a565b81830193845260028101549260408101938452600382015494606082019586526004830154926080830193845260058101549188600660a086019360ff86161515855260ff60c088019660081c161515865201549460e0810195865251161561042657600080516020613c44833981519152986103a260408e8d6103f49a3383526006815283832091835252206131d8565b806103ad835161313a565b51168160085416146000146103fc57506103d484516103cf33918a51906131a6565b6138b6565b519551965193519051151591511515925193604051978897339b896135d1565b0390a2815580f35b6104169061040a835161313a565b51168851903390613286565b6104213385516138b6565b6103d4565b60405163dd16077560e01b8152600490fd5b86548c168552958101958a955090930192016102f7565b5080fd5b503461022d57602036600319011261022d5761046d612e73565b610475613085565b6001600160a01b039081169081156104b257600180546001600160a01b03198116841790915516600080516020613c64833981519152600080a380f35b60405162461bcd60e51b815260206004820152602660248201527f4f776e61626c653a206e6577206f776e657220697320746865207a65726f206160448201526564647265737360d01b6064820152608490fd5b503461022d57604036600319011261022d57610120906001600160a01b039060409082610531612e73565b16815260046020528181206024358252602052209080825416918160018201541691600282015490600383015416600483015460ff60058501541691600685015493600860ff600788015416960154966040519889526020890152604088015260608701526080860152151560a085015260c0840152151560e0830152610100820152f35b503461022d57602036600319011261022d576020906040906001600160a01b036105de612e73565b168152600583522054604051908152f35b503461022d57604036600319011261022d576001600160a01b039060409082610616612e73565b16815260026020528181206024358252602052206040519161063783612f1e565b8082541683528060018301541691826020850152600281015491826040860152806003830154169081606087015260048301541680608087015260058301548060a088015260ff6006850154161515908160c08901526007850154928360e08a015260ff60088701541615159460096101009787898d015201549788610120809c0152604051998a5260208a015260408901526060880152608087015260a086015260c085015260e0840152820152f35b503461022d576106f736612e9f565b91906107076002855414156130ee565b6002845560018060a01b038216845260026020526040842081855260205260408420926040519361073785612f1e565b80546001600160a01b039081168087526001830154821660208801526002830154604088015260038301548216606088015260048301549091166080870152600582015460a0870152600682015460ff908116151560c0880152600783015460e0880152600883015416151561010087015260099091015461012086015215610426576107e5610100850151151560e086015160018060a01b036080880151169060c0880151151592613762565b509260018060a01b0316855260026020526040852082865260205261080c604086206134bc565b6020840151600a5460408601516108319290916001600160a01b039081169116613286565b602084015160608501516001600160a01b039182169116036109c9575b60095484516060860151608087015160a088015160c08901518a956001600160a01b03938416959084169484169391151592911690843b156109c557869460a49386926040519889978896630f8ee8bb60e11b8852600488015260248701526044860152606485015260848401525af180156109ba5761099e575b5050907f7fb1c74d1ea6aa1c9c585e17ce8274c8ff98745e85e7459b73f87d784494f58e92610900610160936101208701516138b6565b60018060a01b038551169460018060a01b0360208201511690604081015160018060a01b0360608301511660018060a01b0360808401511660a08401519060c085015115159260e0860151946101206101008801511515970151976040519a8b5260208b015260408a01526060890152608088015260a087015260c086015260e0850152610100840152610120830152610140820152a26001815580f35b6109aa90939293612f0b565b6109b6579084386108c9565b8480fd5b6040513d84823e3d90fd5b8680fd5b6040516001600160401b036060820190811190821117610a5357610a34816060610a4e930160405260028152604036602083013760208701516001600160a01b0316610a148261313a565b5260608701516001600160a01b0316610a2c82613147565b5230906139e3565b6060860151600a546001600160a01b039081169116613286565b61084e565b634e487b7160e01b600052604160045260246000fd5b503461022d57604036600319011261022d576001600160a01b03610a8b612e73565b168152600660205260408120602435825260205260408120604051610aaf81612eef565b81546001600160a01b03168152604051600183810180548084529086526020808720929592918491820190885b88828210610c5157505050610af392500383612f3a565b816020840152600281015492604081019384526003820154606082015260048201546080820152600660058301549260ff8416151560a084015260ff60c084019460081c161515845201549260e0820193845280511515600014610c49576001600160a01b0390610b639061313a565b5116945b602082015190815111600014610c41576001600160a01b0390610b8990613147565b5116935b6020820151805190976002821115610c34575060021015610c1e5761012096606060018060a01b0391015116905b5160608301519160a060808501519401511515945115159551966040519860018060a01b0316895260018060a01b0316602089015260018060a01b031660408801526060870152608086015260a085015260c084015260e0830152610100820152f35b634e487b7160e01b600052603260045260246000fd5b9050610120975090610bbb565b508593610b8d565b508594610b67565b85546001600160a01b031684529485019487945060209093019201610adc565b503461022d57610c803661305e565b9091610c9260028695965414156130ee565b60028455338452600660209081526040808620878752909152842080546001600160a01b031615610426578160038201558360048201556005810192610cd881856130dd565b6001820194600660ff6002850154965460081c1693015493604051956101008088019a885260208801528754809a52610120870197895260208920899a5b808c10610d735750507fa7f9f4a25eb76f5ec01b1a429d95d6a00833f0f137c88827c58799a1c1ff0dfe97989950604087015260608601526080850152151560a0840152151560c083015260e08201528033930390a26001815580f35b81546001600160a01b03168a5260019b8c019b6020909a019990910190610d16565b503461022d57604036600319011261022d57600435906001600160401b03821161022d576020610dd4610dcb3660048601612f74565b60243590613615565b6040519015158152f35b5060e036600319011261022d57610df3612e73565b610dfb612e89565b610e03612fe2565b91610e0c612ff1565b91610e1b6002865414156130ee565b60028555610e27613875565b600b543410610fc257338552600560205260408520549260405193610e4b85612ed3565b3385526001600160a01b0383811660208701526064356040870181905290851660608701526024356080870181905287151560a088015260a43560c088015283151560e08801523461010088015290969095600183018311610fae5791610fa493917f48ee333d2a65cc45fdb83bc012920d89181c3377390cd239d2b63f2bef67a02d97969593338b5260056020526001830160408c2055600460205260408b20838c52602052600861010060408d209260018060a01b0381511660018060a01b031990818654161785556001850160018060a01b036020840151168282541617905560408201516002860155600385019060018060a01b036060840151169082541617905560808101516004850155610f6e60a08201511515600586016130dd565b60c08101516006850155610f8b60e08201511515600786016130dd565b0151910155604051968796339a349660a435958a613584565b0390a26001815580f35b634e487b7160e01b89526011600452602489fd5b604051632a9ffab760e21b8152600490fd5b5061016036600319011261022d576004356001600160401b03811161044f57611001903690600401612f74565b611009612e89565b60a4356001600160a01b038116900361136557611024612ff1565b6101043515156101043503611365576101443580151581036113655761104e6002865414156130ee565b6002855561105a613875565b600b54610124351061143a57156113ad576001600160a01b0361107c8461313a565b511660018060a01b03600854160361137d5761109d602435610124356131a6565b3403610fc2575b82516000198101908111611399576001600160a01b03906110c59085613167565b511692600181511160001461138f57836001600160a01b036110e68361313a565b51161461137d5761112a9061111f6001600160a01b036111058361313a565b51600a54602435926001600160a01b039091169116613286565b309060643590613a91565b915b600a54604051630a48d5a960e01b81529060209082906001600160a01b0316818061115b898b6004840161326b565b03915afa90811561137257869161133b575b50600c5411611329573385526003602052604085205460405161118f81612f1e565b33815260208101869052604081018590526001600160a01b0360a435811660608301528316608082015260843560a082015283151560c082015260e43560e0820152610104351515610100820152610124356101208201526001820182116113155791610fa4917fb27b9afe3043b93788c40cfc3cc73f5d928a2e40f3ba01820b246426de8fa1b995949333895260036020526001820160408a2055600260205260408920828a52602052600961012060408b209260018060a01b0381511660018060a01b031990818654161785556001850160018060a01b0360208401511682825416179055604082015160028601556003850160018060a01b0360608401511682825416179055600485019060018060a01b036080840151169082541617905560a081015160058501556112ce60c08201511515600686016130dd565b60e081015160078501556112ec6101008201511515600886016130dd565b015191015560405194859433986101243594610104359460e435946084359360a435928b61352e565b634e487b7160e01b87526011600452602487fd5b604051633a23d82560e01b8152600490fd5b90506020813d60201161136a575b8161135660209383612f3a565b8101031261136557513861116d565b600080fd5b3d9150611349565b6040513d88823e3d90fd5b6040516320db826760e01b8152600490fd5b506024359161112c565b634e487b7160e01b85526011600452602485fd5b610124353403610fc25760095484906001600160a01b03908116906113d18661313a565b511690803b15611436576040516303704f0f60e31b815291839183918290849082906114089060243590309033906004860161317b565b03925af180156109ba5761141e575b50506110a4565b61142790612f0b565b611432578338611417565b8380fd5b8280fd5b60405162976f7560e21b8152600490fd5b503461022d57602036600319011261022d576020906040906001600160a01b03611473612e73565b168152600383522054604051908152f35b503461022d5760a036600319011261022d5761149e612e73565b6024356001600160a01b038181169291839003611365576114bd612e89565b606435608435916114cc613085565b600d549560ff8716611557578460a09660017f0f4e49fafe73f5d41dd869ea8947aca5854012f53890a27f7379ad92a02edb6d9960ff191617600d551694600180881b031992868460095416176009558284600a541617600a55168092600854161760085582600b5583600c556040519485526020850152604084015260608301526080820152a180f35b60405162dc149f60e41b8152600490fd5b503461022d5760a036600319011261022d5760043560443560643560243561158e612fe2565b9261159d6002875414156130ee565b600286553386526004602052604086208587526020526040862060018060a01b03928382541615610426578460068301556115db86600784016130dd565b82600483015580600283015560ff6005856001850154169560038501541693015416936040519788526020880152604087015260608601526080850152151560a084015260c0830152151560e08201527f75781255bc71c83f89f29e5a2599f2c174a562d2cd8f2e818a47f132e72804986101003392a26001815580f35b503461022d5760208060031936011261044f5760043561167d6002845414156130ee565b600283553383526004825260408320818452825260408320604051916116a283612ed3565b60018060a01b0393848354169485855280600185015416958286019687526002850154946040870195865282600382015416926060880193845260048201546080890190815260ff6005840154169060a08a01911515825260068401549260c08b01938452600860ff6007870154169560e08d0196151587520154956101008c0196875215610426578080600080516020613c248339815191529c8f604061175d918e610fa49e3383526004815283832091835252206134f8565b611768338a516138b6565b51169c51169951965116905191511515925193511515945195604051998a998a613584565b503461022d5761179c3661305e565b916117ab6002865414156130ee565b600285553385526002602052604085208486526020526040852060018060a01b03908181541615610426578360078201556117e985600883016130dd565b82600582015560ff6006836003840154169360048401541692015416916040519687526020870152604086015215156060850152608084015260a0830152151560c08201527f0a0360dd5c354235bbf8d386ba3b24ef8134088e0785677de1504df219d9149a60e03392a26001815580f35b503461022d578060031936011261022d5760405168327cb2734119d3b7a9601e1b8152602090f35b503461022d578060031936011261022d576020600c54604051908152f35b503461022d578060031936011261022d576001546040516001600160a01b039091168152602090f35b503461022d57606036600319011261022d576001600160401b03600435818111611436576118fc903690600401613000565b60243582811161143257611914903690600401613000565b916044359081116114325761192d903690600401613000565b835b8251811015611b35576119428184613167565b51906119526002875414156130ee565b6002865533865260066020526040862082875260205260408620916040519261197a84612eef565b80546001600160a01b03168452604051600182018054808352908a526020808b20908301918b905b808210611b1357505050906119bc81600694930382612f3a565b6020860152600281015460408601526003810154606086015260048101546080860152600581015460ff808216151560a088015260089190911c16151560c0860152015460e084015282516001600160a01b03161561042657600080516020613c44833981519152611ad193338952600660205260408920838a52602052611a4660408a206131d8565b60208101516001600160a01b0390611a5d9061313a565b516008546001600160a01b0316911603611ad657611a8960e08201516103cf33916040850151906131a6565b6020810151611ac5604083015192606081015190608081015160a082015115159060e060c0840151151593015193604051978897339b896135d1565b0390a2600186556131c9565b61192f565b6020810151611b00906001600160a01b0390611af19061313a565b51166040830151903390613286565b611b0e3360e08301516138b6565b611a89565b82546001600160a01b03168452602090930192600192830192909101906119a2565b848285825b8151811015611d0657611b4d8183613167565b5190611b5d6002865414156130ee565b60028555338552600260205260408520828652602052604085209160405192611b8584612f1e565b80546001600160a01b039081168086526001830154821660208701526002830154604087015260038301548216606087015260048301549091166080860152600582015460a0860152600682015460ff908116151560c0870152600783015460e087015260088301541615156101008601526009909101546101208501521561042657600080516020613c84833981519152611cdd93338852600260205260408820838952602052611c39604089206134bc565b60208101516008546001600160a01b0391821691168103611ce25750611c6e6101208201516103cf33916040850151906131a6565b805160208201516040808401516060850151608086015160a087015160c088015160e08901516101008a0151610120909a015196516001600160a01b03998a169c909a8b9a611cd19a91151598939794151596811694811693929116908b61352e565b0390a2600185556131c9565b611b3a565b6040820151611cf2913390613286565b611d01336101208301516138b6565b611c6e565b5050815b8151811015611e7357611d1d8183613167565b5190600291611d2f83865414156130ee565b8285553385526004602052604085208186526020526040852092600860405194611d5886612ed3565b80546001600160a01b03908116808852600183015482166020890152938201546040880152600382015416606087015260048101546080870152600581015460ff908116151560a0880152600682015460c0880152600782015416151560e087015201546101008501521561042657600080516020613c24833981519152611e6e93338752600460205260408720838852602052611df8604088206134f8565b611e07336101008301516138b6565b805160208201516040808401516060850151608086015160a087015160c088015160e08901516101009099015195516001600160a01b039889169b90998a99611e62999115159793969415159594811693929116908a613584565b0390a2600184556131c9565b611d0a565b8280f35b503461022d57604036600319011261022d5760e0906001600160a01b039060409082611ea1612e73565b1681526006602052818120602435825260205220908154169060ff600282015491600381015460048201549060066005840154930154946040519687526020870152604086015260608501528181161515608085015260081c16151560a083015260c0820152f35b503461022d578060031936011261022d57611f22613085565b600180546001600160a01b031981169091556000906001600160a01b0316600080516020613c648339815191528280a380f35b503461022d578060031936011261022d576020600b54604051908152f35b503461022d5760a036600319011261022d5760043580151581036113655760243590611f9d612e89565b9160643592831515840361136557611fb3612fe2565b93600090156120785750600a54604051637092736960e11b81526001600160a01b0392831660048201529160209183916024918391165afa90811561206c5760009161203b575b50915b15612033578111915b61201c575b604091825191825215156020820152f35b8161200b575b60405162bfc92160e01b8152600490fd5b811091612006565b906020823d8211612064575b8161205460209383612f3a565b8101031261022d57505184611ffa565b3d9150612047565b6040513d6000823e3d90fd5b600a546040516340d3096b60e11b81526001600160a01b039384166004820152919260209183916024918391165afa9182156120f15780926120bd575b505091611ffd565b9091506020823d82116120e9575b816120d860209383612f3a565b8101031261022d57505184806120b5565b3d91506120cb565b604051903d90823e3d90fd5b503461022d5760208060031936011261044f57600435906121226002845414156130ee565b6002835533835260028152604083208284528152604083206040519261214784612f1e565b60018060a01b039384835416948582528060018501541695858301968752600285015494604084019586528260038201541692606085019384528060048301541660808601908152600583015460a0870190815260ff6006850154169160c08801921515835260078501549360e08901948552600960ff600888015416966101008b0197151588520154966101208a01978852156104265780808f8f9b600080516020613c848339815191529f8f908f9e610fa49f6040879661221a9288953383526002815283832091835252206134bc565b511683600854168114600014612265575061223d906103cf8d51339251906131a6565b51169e51169b519851169151169151925115159351945115159551966040519a8b9a8b61352e565b6122729151903390613286565b61227d338c516138b6565b61223d565b503461022d578060031936011261022d576008546040516001600160a01b039091168152602090f35b503461022d578060031936011261022d57602060ff600d54166040519015158152f35b503461022d57604036600319011261022d57610140906001600160a01b0390604090826122f9612e73565b16815260026020528181206024358252602052209080825416918160018201541691600282015490806003840154169060048401541660058401549060ff60068601541692600786015494600960ff60088901541697015497604051998a5260208a015260408901526060880152608087015260a0860152151560c085015260e08401521515610100830152610120820152f35b5061010036600319011261022d576004356001600160401b03811161044f576123ba903690600401612f74565b906123c3612fe2565b6123cb612ff1565b60e435151560e43503611436576123e66002845414156130ee565b6002835583516002811415908161271d575b5061137d576001600160a01b0361240e8561313a565b511684516000198101908111611399576001600160a01b03906124319087613167565b51161461137d576024351561270b57600b5460a4351061143a57612453613875565b15612690576001600160a01b036124698461313a565b511660018060a01b03600854160361137d5761248960243560a4356131a6565b3403610fc2575b33825260076020526040822054604051936124aa85612eef565b33855280602086015260243560408601526044356060860152606435608086015282151560a086015260e435151560c086015260a43560e086015260018201821161267c573384526007602090815260408086206001850190556006825280862084875282528520865181546001600160a01b0319166001600160a01b039190911617815590860151805196906001600160401b03881161266857600160401b8811610a5357600183015488600185015580891061263b575b50602001966001830187526020872097875b82811061261e5750505090600660e08360407fdf06bb56ffc4029dc0b62b68bb5bbadea93a38b530cefc9b81afb742a6555d88979695015160028501556060810151600385015560808101516004850155600584016125da60a08301511515826130dd565b60c0820151151561ff0082549160081b169061ff0019161790550151910155610fa4604051928392339660a4359260e43592606435916044359160243591896135d1565b81516001600160a01b0316818b0155602090910190600101612575565b600184016000526020600020908982015b818301811061265c575050612563565b6000815560010161264c565b634e487b7160e01b87526041600452602487fd5b634e487b7160e01b84526011600452602484fd5b9060a4353403610fc2576009546001600160a01b03908116906126b28561313a565b5116813b15611436576126e6839283926040519485809481936303704f0f60e31b835260243590309033906004860161317b565b03925af180156109ba576126fc575b5090612490565b61270590612f0b565b386126f5565b60405163162908e360e11b8152600490fd5b600391501415386123f8565b503461022d5761273836612e9f565b906127476002855414156130ee565b6002845560018060a01b038316845260046020526040842081855260205260408420926040519361277785612ed3565b80546001600160a01b03908116808752600183015482166020880152600283015460408801526003830154909116606087015260048201546080870152600582015460ff908116151560a0880152600683015460c0880152600783015416151560e0870152600890910154610100860152156104265761281660e0850151151560c086015160018060a01b036060880151169060a08801511592613762565b509060018060a01b0316855260046020526040852082865260205261283d604086206134f8565b600954845160208681015160608801516040808a015160808b015160a08c01519251632662166b60e01b81526001600160a01b0397881660048201529487166024860152928616604485015260648401526084830191909152151560a48201523060c482015295929091869160e49183918b91165af19384156113725786946129d2575b5060208501516008547f9a382661d6573da86db000471303be6f0b2b1bb66089b08e3c16a85d7b6e94f89561014095949361292d9390926001600160a01b0391821692911682036129b657885161292292506001600160a01b0316906138b6565b6101008701516138b6565b60018060a01b038551169460018060a01b0360208201511690604081015160018060a01b03606083015116608083015160a084015115159160c08501519361010060e0870151151596015196604051998a5260208a015260408901526060880152608087015260a086015260c085015260e0840152610100830152610120820152a26001815580f35b88516129cd926001600160a01b0390911690613286565b612922565b935091906020843d602011612a08575b816129ef60209383612f3a565b81010312612a0457925192909161292d6128c1565b8580fd5b3d91506129e2565b503461022d57602036600319011261022d577fe46d9daf6d25f7615efa1d0183b90ac6759d85014b598e409aadf0fd918d59a66020600435612a50613085565b80600c55604051908152a180f35b503461022d57612a6d36612e9f565b612a7d60028594955414156130ee565b6002835560018060a01b0384168352600660205260408320828452602052604083209160405192612aad84612eef565b80546001600160a01b03168452604051600182018054808352908752602080882090830191885b818110612d395750505090612aee81600694930382612f3a565b6020860152600281015460408601526003810154606086015260048101546080860152600581015460ff818116151560a088015260089190911c16151560c0860152015460e084015282516001600160a01b0316156104265760a0830151612d11575b60018060a01b0385168452600660205260408420818552602052612b77604085206131d8565b6020830151612baa906001600160a01b0390612b929061313a565b511660018060a01b03600a5416604086015191613286565b6020830151805160001981019691908711612cfd57612bf37f7e1fe496989eea92b738a562dbf9c0ae6aa6fcf3f1ef09e95ee4f7603721706b95969760018060a01b0392613167565b516008546001600160a01b031691161480612cf0575b15612cca57612c47612c25602087015160608801513091613a91565b8651909490612c3d906001600160a01b0316866138b6565b60e08701516138b6565b602085015192604086015195606081015191608082015160a083015115159160e060c0850151151594015194612c8f604051998a998a526101208060208c01528a019061322e565b604089019b909b526060880152608087015260a086015260c085015260e08401526101008301526001600160a01b0316930390a26001815580f35b612c47612cea6020870151606088015160018060a01b0389511691613a91565b93612c3d565b5060c08501511515612c09565b634e487b7160e01b86526011600452602486fd5b612d246020840151608085015190613615565b612b515760405162bfc92160e01b8152600490fd5b82546001600160a01b0316845260209093019260019283019201612ad4565b503461022d57604036600319011261022d576001600160a01b039060409082612d7f612e73565b168152600460205281812060243582526020522060405191612da083612ed3565b8082541683528060018301541691826020850152600281015491826040860152600382015416806060860152600482015480608087015260ff6005840154161515908160a08801526006840154928360c0890152600860ff6007870154161515958660e08b015201549586610100809a0152604051978852602088015260408701526060860152608085015260a084015260c083015260e0820152f35b90503461044f57602036600319011261044f576020916040906001600160a01b03612e66612e73565b1681526007845220548152f35b600435906001600160a01b038216820361136557565b604435906001600160a01b038216820361136557565b6060906003190112611365576001600160a01b03600435818116810361136557916024359160443590811681036113655790565b61012081019081106001600160401b03821117610a5357604052565b61010081019081106001600160401b03821117610a5357604052565b6001600160401b038111610a5357604052565b61014081019081106001600160401b03821117610a5357604052565b601f909101601f19168101906001600160401b03821190821017610a5357604052565b6001600160401b038111610a535760051b60200190565b81601f8201121561136557803591612f8b83612f5d565b92612f996040519485612f3a565b808452602092838086019260051b820101928311611365578301905b828210612fc3575050505090565b81356001600160a01b0381168103611365578152908301908301612fb5565b60843590811515820361136557565b60c43590811515820361136557565b81601f820112156113655780359161301783612f5d565b926130256040519485612f3a565b808452602092838086019260051b820101928311611365578301905b82821061304f575050505090565b81358152908301908301613041565b60809060031901126113655760043590602435906044359060643580151581036113655790565b6001546001600160a01b0316330361309957565b606460405162461bcd60e51b815260206004820152602060248201527f4f776e61626c653a2063616c6c6572206973206e6f7420746865206f776e65726044820152fd5b9060ff801983541691151516179055565b156130f557565b60405162461bcd60e51b815260206004820152601f60248201527f5265656e7472616e637947756172643a207265656e7472616e742063616c6c006044820152606490fd5b805115610c1e5760200190565b805160011015610c1e5760400190565b805160021015610c1e5760600190565b8051821015610c1e5760209160051b010190565b6001600160a01b03918216815291811660208301529091166040820152606081019190915260800190565b919082018092116131b357565b634e487b7160e01b600052601160045260246000fd5b60001981146131b35760010190565b600090818155600180820180549084815581613211575b5050508082600260069301558260038201558260048201558260058201550155565b845260208420908101905b818110156131ef57848155820161321c565b90815180825260208080930193019160005b82811061324e575050505090565b83516001600160a01b031685529381019392810192600101613240565b6001600160a01b039091168152602081019190915260400190565b906040918251906132bc826132ae6020978883019663a9059cbb60e01b88526024840161326b565b03601f198101845283612f3a565b83516001600160a01b03919091169290918285016001600160401b03811184821017610a535785528583527f5361666545524332303a206c6f772d6c6576656c2063616c6c206661696c656486840152833b156133be57906133339291600094859283809351925af161332d613402565b90613441565b805180613342575b5050505050565b8185918101031261044f578301519081159182150361022d57506133685780808061333b565b60849250519062461bcd60e51b82526004820152602a60248201527f5361666545524332303a204552433230206f7065726174696f6e20646964206e6044820152691bdd081cdd58d8d9595960b21b6064820152fd5b845162461bcd60e51b815260048101879052601d60248201527f416464726573733a2063616c6c20746f206e6f6e2d636f6e74726163740000006044820152606490fd5b3d1561343c573d906001600160401b038211610a535760405191613430601f8201601f191660200184612f3a565b82523d6000602084013e565b606090565b9091901561344d575090565b81511561345d5750805190602001fd5b6040519062461bcd60e51b82528160208060048301528251908160248401526000935b8285106134a3575050604492506000838284010152601f80199101168101030190fd5b8481018201518686016044015293810193859350613480565b60096000918281558260018201558260028201558260038201558260048201558260058201558260068201558260078201558260088201550155565b60086000918281558260018201558260028201558260038201558260048201558260058201558260068201558260078201550155565b9693916101209895919b9a9996939261014089019c895260018060a01b03938480931660208b015260408a015216606088015216608086015260a0850152151560c084015260e083015215156101008201520152565b95929361010097949a99989592919a61012088019b885260018060a01b03809316602089015260408801521660608601526080850152151560a084015260c0830152151560e08201520152565b94916135f39060e097949a99989592875261010080602089015287019061322e565b98604086015260608501526080840152151560a0830152151560c08201520152565b805160028114159081613756575b5061137d57805115610c1e5760208181015182516001600160a01b039182169391929160001982019182116131b357839161365d91613167565b511691600a541691604051936340d3096b60e11b855260048501528184602481865afa93841561206c57600094613727575b508190602460405180958193637092736960e11b835260048301525afa90811561206c576000916136fb575b5068327cb2734119d3b7a9601e1b808202925081159183041417156131b35781156136e557041190565b634e487b7160e01b600052601260045260246000fd5b82813d8311613720575b61370f8183612f3a565b8101031261022d57505180386136bb565b503d613705565b90938282813d831161374f575b61373e8183612f3a565b8101031261022d575051928161368f565b503d613734565b60039150141538613623565b9392909190600090156137fc5750600a54604051637092736960e11b81526001600160a01b0392831660048201529160209183916024918391165afa90811561206c576000916137cb575b50925b156137c3578211915b8215612022579190565b8210916137b9565b906020823d82116137f4575b816137e460209383612f3a565b8101031261022d575051386137ad565b3d91506137d7565b600a546040516340d3096b60e11b81526001600160a01b039384166004820152919260209183916024918391165afa9182156120f1578092613841575b5050926137b0565b9091506020823d821161386d575b8161385c60209383612f3a565b8101031261022d5750513880613839565b3d915061384f565b3461387c57565b6008546001600160a01b0316803b1561136557600060049160405192838092630d0e30db60e41b825234905af1801561206c57612f0b5750565b6008546000926001600160a01b03918216803b156109b657848091602460405180948193632e1a7d4d60e01b83528960048401525af180156139d8576139c5575b5082471061398057839283928392165af1613910613402565b501561391857565b60405162461bcd60e51b815260206004820152603a60248201527f416464726573733a20756e61626c6520746f2073656e642076616c75652c20726044820152791958da5c1a595b9d081b585e481a185d99481c995d995c9d195960321b6064820152608490fd5b60405162461bcd60e51b815260206004820152601d60248201527f416464726573733a20696e73756666696369656e742062616c616e63650000006044820152606490fd5b6139d190949194612f0b565b92386138f7565b6040513d87823e3d90fd5b906002825114613a70576003825114613a08576040516320db826760e01b8152600490fd5b613a6d916001600160a01b03613a50613a3982613a248561313a565b511683613a3086613147565b51163091613b01565b82613a4385613147565b511683600a541690613286565b613a6581613a5d84613147565b511692613157565b511690613b01565b90565b613a6d916001600160a01b03613a6581613a898461313a565b511692613147565b91906002835114613ae8576003835114613ab7576040516320db826760e01b8152600490fd5b613a6d926001600160a01b03613ad3613a3982613a248561313a565b613ae081613a5d84613147565b511690613b83565b613a6d926001600160a01b03613ae081613a898461313a565b600a54604051634998b10960e11b81526001600160a01b03928316600482015292821660248401529281166044830152909160209183916064918391600091165af190811561206c57600091613b55575090565b906020823d8211613b7b575b81613b6e60209383612f3a565b8101031261022d57505190565b3d9150613b61565b600a54604051634998b10960e11b81526001600160a01b03928316600482015292821660248401529381166044830152909260209184916064918391600091165af191821561206c57600092613bf0575b508110613bde5790565b604051637294b85560e11b8152600490fd5b90916020823d8211613c1b575b81613c0a60209383612f3a565b8101031261022d5750519038613bd4565b3d9150613bfd56fe1154174c82984656b028c8021671988f60a346497e56fe02554761184f82a075efd66d4f9c2f880c70aedeb5b26a44fb474cea07e5d6c533f2d27c303d5d94538be0079c531659141344cd1fd0a4f28419497f9722a3daafe3b4186f6b6457e0d500f34e0ec655b7614ae42e1d9c666d5e4dde909a1297829f8c5ecf00805d32a2646970667358221220fc3b0fdc67e32a43280fdcdae14a66d2765f850aed20a7ea77ed838f6456d31064736f6c63430008110033",
  "linkReferences": {},
  "deployedLinkReferences": {}
}