{
  "_format": "hh-sol-artifact-1",
  "contractName": "RewardDistributor",
  "sourceName": "contracts/staking/RewardDistributor.sol",
  "abi": [
    {
      "inputs": [
        {
          "internalType": "address",
          "name": "_rewardToken",
          "type": "address"
        },
        {
          "internalType": "address",
          "name": "_rewardTracker",
          "type": "address"
        }
      ],
      "stateMutability": "nonpayable",
      "type": "constructor"
    },
    {
      "anonymous": false,
      "inputs": [
        {
          "indexed": false,
          "internalType": "uint256",
          "name": "amount",
          "type": "uint256"
        }
      ],
      "name": "Distribute",
      "type": "event"
    },
    {
      "anonymous": false,
      "inputs": [
        {
          "indexed": false,
          "internalType": "uint256",
          "name": "amount",
          "type": "uint256"
        }
      ],
      "name": "TokensPerIntervalChange",
      "type": "event"
    },
    {
      "inputs": [],
      "name": "admin",
      "outputs": [
        {
          "internalType": "address",
          "name": "",
          "type": "address"
        }
      ],
      "stateMutability": "view",
      "type": "function"
    },
    {
      "inputs": [],
      "name": "distribute",
      "outputs": [
        {
          "internalType": "uint256",
          "name": "",
          "type": "uint256"
        }
      ],
      "stateMutability": "nonpayable",
      "type": "function"
    },
    {
      "inputs": [],
      "name": "gov",
      "outputs": [
        {
          "internalType": "address",
          "name": "",
          "type": "address"
        }
      ],
      "stateMutability": "view",
      "type": "function"
    },
    {
      "inputs": [],
      "name": "lastDistributionTime",
      "outputs": [
        {
          "internalType": "uint256",
          "name": "",
          "type": "uint256"
        }
      ],
      "stateMutability": "view",
      "type": "function"
    },
    {
      "inputs": [],
      "name": "pendingRewards",
      "outputs": [
        {
          "internalType": "uint256",
          "name": "",
          "type": "uint256"
        }
      ],
      "stateMutability": "view",
      "type": "function"
    },
    {
      "inputs": [],
      "name": "rewardToken",
      "outputs": [
        {
          "internalType": "address",
          "name": "",
          "type": "address"
        }
      ],
      "stateMutability": "view",
      "type": "function"
    },
    {
      "inputs": [],
      "name": "rewardTracker",
      "outputs": [
        {
          "internalType": "address",
          "name": "",
          "type": "address"
        }
      ],
      "stateMutability": "view",
      "type": "function"
    },
    {
      "inputs": [
        {
          "internalType": "address",
          "name": "_admin",
          "type": "address"
        }
      ],
      "name": "setAdmin",
      "outputs": [],
      "stateMutability": "nonpayable",
      "type": "function"
    },
    {
      "inputs": [
        {
          "internalType": "address",
          "name": "_gov",
          "type": "address"
        }
      ],
      "name": "setGov",
      "outputs": [],
      "stateMutability": "nonpayable",
      "type": "function"
    },
    {
      "inputs": [
        {
          "internalType": "uint256",
          "name": "_amount",
          "type": "uint256"
        }
      ],
      "name": "setTokensPerInterval",
      "outputs": [],
      "stateMutability": "nonpayable",
      "type": "function"
    },
    {
      "inputs": [],
      "name": "tokensPerInterval",
      "outputs": [
        {
          "internalType": "uint256",
          "name": "",
          "type": "uint256"
        }
      ],
      "stateMutability": "view",
      "type": "function"
    },
    {
      "inputs": [],
      "name": "updateLastDistributionTime",
      "outputs": [],
      "stateMutability": "nonpayable",
      "type": "function"
    },
    {
      "inputs": [
        {
          "internalType": "address",
          "name": "_token",
          "type": "address"
        },
        {
          "internalType": "address",
          "name": "_account",
          "type": "address"
        },
        {
          "internalType": "uint256",
          "name": "_amount",
          "type": "uint256"
        }
      ],
      "name": "withdrawToken",
      "outputs": [],
      "stateMutability": "nonpayable",
      "type": "function"
    }
  ],
  "bytecode": "0x6080346100a157601f6109d638819003918201601f19168301916001600160401b038311848410176100a65780849260409485528339810103126100a157610052602061004b836100bc565b92016100bc565b90600160005560018060a01b0319913383600154161760015560018060a01b03809216836002541617600255168160055416176005553390600654161760065560405161090590816100d18239f35b600080fd5b634e487b7160e01b600052604160045260246000fd5b51906001600160a01b03821682036100a15756fe6040608081526004908136101561001557600080fd5b600091823560e01c90816301e33667146103c057816312d43a511461039757816318e20a031461026e5781633ae6d6eb146102415781636bcb411a14610218578163704b6c02146101d057816375b17350146101ae57508063a8d9362714610190578063cfad57a214610144578063e4fc6b6d14610128578063eded3fda14610105578063f7c618c1146100dd5763f851a440146100b257600080fd5b346100d957816003193601126100d95760065490516001600160a01b039091168152602090f35b5080fd5b50346100d957816003193601126100d95760025490516001600160a01b039091168152602090f35b50346100d957816003193601126100d957602090610121610750565b9051908152f35b50346100d957816003193601126100d957602090610121610795565b823461018d57602036600319011261018d5761015e610413565b600154906001600160a01b0390610178338385161461042e565b6001600160a01b031990921691161760015580f35b80fd5b50346100d957816003193601126100d9576020906003549051908152f35b9050346101cc57826003193601126101cc5760209250549051908152f35b8280fd5b833461018d57602036600319011261018d576101ea610413565b6001546001600160a01b039190610204908316331461042e565b1660018060a01b0319600654161760065580f35b5050346100d957816003193601126100d95760055490516001600160a01b039091168152602090f35b8390346100d957816003193601126100d95761026860018060a01b03600654163314610705565b42905580f35b919050346101cc5760203660031901126101cc5781359160018060a01b0361029b81600654163314610705565b81541561033c5790849160055416803b156101cc57829082855180958193630f8562c360e21b83525af1801561033257610302575b847f98dc76c39aa5a5dcb749f8750a65db3dfa1e14bcc1591a9c16a7420e5da748f8602086868160035551908152a180f35b9193916001600160401b03821161031f57508352918160206102d0565b634e487b7160e01b835260419052602482fd5b83513d87823e3d90fd5b506020608492519162461bcd60e51b8352820152602f60248201527f5265776172644469737472696275746f723a20696e76616c6964206c6173744460448201526e6973747269627574696f6e54696d6560881b6064820152fd5b5050346100d957816003193601126100d95760015490516001600160a01b039091168152602090f35b833461018d57606036600319011261018d576103da610413565b6001600160a01b0390602435828116810361040f578261040261040c9460015416331461042e565b60443592166104ab565b80f35b8380fd5b600435906001600160a01b038216820361042957565b600080fd5b1561043557565b60405162461bcd60e51b815260206004820152601560248201527423b7bb32b93730b136329d103337b93134b23232b760591b6044820152606490fd5b601f909101601f19168101906001600160401b0382119082101761049557604052565b634e487b7160e01b600052604160045260246000fd5b60405163a9059cbb60e01b60208083019182526001600160a01b039485166024808501919091526044808501979097529583529493919260808401926001600160401b0392918385118686101761067557169360c0810184811084821117610675576040528684527f5361666545524332303a206c6f772d6c6576656c2063616c6c206661696c656460a0820152843b1561063157600094859283809351925af13d15610623573d91821161060f579061058492916040519161057788601f19601f8401160184610472565b82523d858884013e61068a565b805180610593575b5050505050565b818591810103126100d9578301519081159182150361018d57506105b95780808061058c565b90602a6084926040519262461bcd60e51b845260048401528201527f5361666545524332303a204552433230206f7065726174696f6e20646964206e6044820152691bdd081cdd58d8d9595960b21b6064820152fd5b5050634e487b7160e01b8252506041600452fd5b61058492915060609061068a565b60405162461bcd60e51b815260048101889052601d818801527f416464726573733a2063616c6c20746f206e6f6e2d636f6e74726163740000006044820152606490fd5b86634e487b7160e01b60005260416004526000fd5b90919015610696575090565b8151156106a65750805190602001fd5b6040519062461bcd60e51b82528160208060048301528251908160248401526000935b8285106106ec575050604492506000838284010152601f80199101168101030190fd5b84810182015186860160440152938101938593506106c9565b1561070c57565b60405162461bcd60e51b815260206004820152601c60248201527b2932bbb0b9322234b9ba3934b13aba37b91d103337b93134b23232b760211b6044820152606490fd5b60045480421461078f574203428111610779576003548181029181830414901517156107795790565b634e487b7160e01b600052601160045260246000fd5b50600090565b6005546001600160a01b03908116330361087c576107b1610750565b9081156108755742600455600254166040516370a0823160e01b8152306004820152602081602481855afa90811561086957600091610838575b5080831161082e575b50816108019133906104ab565b7f4def474aca53bf221d07d9ab0f675b3f6d8d2494b8427271bcf43c018ef1eead6020604051838152a190565b91506108016107f4565b906020823d8211610861575b8161085160209383610472565b8101031261018d575051386107eb565b3d9150610844565b6040513d6000823e3d90fd5b5050600090565b60405162461bcd60e51b815260206004820152602560248201527f5265776172644469737472696275746f723a20696e76616c6964206d73672e7360448201526432b73232b960d91b6064820152608490fdfea2646970667358221220c786251eb0f3ee151ba3eb36c49f1a59d65e460c71168479b64a0c9d3de62eee64736f6c63430008110033",
  "linkReferences": {},
  "deployedLinkReferences": {}
}