{
  "_format": "hh-sol-artifact-1",
  "contractName": "RewardRouterV2",
  "sourceName": "contracts/staking/RewardRouterV2.sol",
  "abi": [
    {
      "inputs": [],
      "name": "AlreadyInitialized",
      "type": "error"
    },
    {
      "inputs": [],
      "name": "InvalidAmount",
      "type": "error"
    },
    {
      "inputs": [],
      "name": "InvalidReceiver",
      "type": "error"
    },
    {
      "inputs": [],
      "name": "InvalidSender",
      "type": "error"
    },
    {
      "inputs": [],
      "name": "InvalidValue",
      "type": "error"
    },
    {
      "inputs": [],
      "name": "SenderHasVestedTokens",
      "type": "error"
    },
    {
      "inputs": [],
      "name": "TransferNotSignalled",
      "type": "error"
    },
    {
      "anonymous": false,
      "inputs": [
        {
          "indexed": true,
          "internalType": "address",
          "name": "previousOwner",
          "type": "address"
        },
        {
          "indexed": true,
          "internalType": "address",
          "name": "newOwner",
          "type": "address"
        }
      ],
      "name": "OwnershipTransferred",
      "type": "event"
    },
    {
      "anonymous": false,
      "inputs": [
        {
          "indexed": false,
          "internalType": "address",
          "name": "account",
          "type": "address"
        },
        {
          "indexed": false,
          "internalType": "uint256",
          "name": "amount",
          "type": "uint256"
        }
      ],
      "name": "StakeVlp",
      "type": "event"
    },
    {
      "anonymous": false,
      "inputs": [
        {
          "indexed": false,
          "internalType": "address",
          "name": "account",
          "type": "address"
        },
        {
          "indexed": false,
          "internalType": "address",
          "name": "token",
          "type": "address"
        },
        {
          "indexed": false,
          "internalType": "uint256",
          "name": "amount",
          "type": "uint256"
        }
      ],
      "name": "StakeVwave",
      "type": "event"
    },
    {
      "anonymous": false,
      "inputs": [
        {
          "indexed": false,
          "internalType": "address",
          "name": "account",
          "type": "address"
        },
        {
          "indexed": false,
          "internalType": "uint256",
          "name": "amount",
          "type": "uint256"
        }
      ],
      "name": "UnstakeVlp",
      "type": "event"
    },
    {
      "anonymous": false,
      "inputs": [
        {
          "indexed": false,
          "internalType": "address",
          "name": "account",
          "type": "address"
        },
        {
          "indexed": false,
          "internalType": "address",
          "name": "token",
          "type": "address"
        },
        {
          "indexed": false,
          "internalType": "uint256",
          "name": "amount",
          "type": "uint256"
        }
      ],
      "name": "UnstakeVwave",
      "type": "event"
    },
    {
      "inputs": [
        {
          "internalType": "address",
          "name": "_sender",
          "type": "address"
        }
      ],
      "name": "acceptTransfer",
      "outputs": [],
      "stateMutability": "nonpayable",
      "type": "function"
    },
    {
      "inputs": [
        {
          "internalType": "address[]",
          "name": "_accounts",
          "type": "address[]"
        }
      ],
      "name": "batchCompoundForAccounts",
      "outputs": [],
      "stateMutability": "nonpayable",
      "type": "function"
    },
    {
      "inputs": [
        {
          "internalType": "address[]",
          "name": "_accounts",
          "type": "address[]"
        },
        {
          "internalType": "uint256[]",
          "name": "_amounts",
          "type": "uint256[]"
        }
      ],
      "name": "batchStakeVwaveForAccounts",
      "outputs": [],
      "stateMutability": "nonpayable",
      "type": "function"
    },
    {
      "inputs": [],
      "name": "bnVwave",
      "outputs": [
        {
          "internalType": "address",
          "name": "",
          "type": "address"
        }
      ],
      "stateMutability": "view",
      "type": "function"
    },
    {
      "inputs": [],
      "name": "bonusVwaveTracker",
      "outputs": [
        {
          "internalType": "address",
          "name": "",
          "type": "address"
        }
      ],
      "stateMutability": "view",
      "type": "function"
    },
    {
      "inputs": [],
      "name": "claim",
      "outputs": [],
      "stateMutability": "nonpayable",
      "type": "function"
    },
    {
      "inputs": [],
      "name": "claimEsVwave",
      "outputs": [],
      "stateMutability": "nonpayable",
      "type": "function"
    },
    {
      "inputs": [],
      "name": "claimFees",
      "outputs": [],
      "stateMutability": "nonpayable",
      "type": "function"
    },
    {
      "inputs": [],
      "name": "compound",
      "outputs": [],
      "stateMutability": "nonpayable",
      "type": "function"
    },
    {
      "inputs": [
        {
          "internalType": "address",
          "name": "_account",
          "type": "address"
        }
      ],
      "name": "compoundForAccount",
      "outputs": [],
      "stateMutability": "nonpayable",
      "type": "function"
    },
    {
      "inputs": [],
      "name": "esVwave",
      "outputs": [
        {
          "internalType": "address",
          "name": "",
          "type": "address"
        }
      ],
      "stateMutability": "view",
      "type": "function"
    },
    {
      "inputs": [],
      "name": "feeVlpTracker",
      "outputs": [
        {
          "internalType": "address",
          "name": "",
          "type": "address"
        }
      ],
      "stateMutability": "view",
      "type": "function"
    },
    {
      "inputs": [],
      "name": "feeVwaveTracker",
      "outputs": [
        {
          "internalType": "address",
          "name": "",
          "type": "address"
        }
      ],
      "stateMutability": "view",
      "type": "function"
    },
    {
      "inputs": [
        {
          "internalType": "bool",
          "name": "_shouldClaimVwave",
          "type": "bool"
        },
        {
          "internalType": "bool",
          "name": "_shouldStakeVwave",
          "type": "bool"
        },
        {
          "internalType": "bool",
          "name": "_shouldClaimEsVwave",
          "type": "bool"
        },
        {
          "internalType": "bool",
          "name": "_shouldStakeEsVwave",
          "type": "bool"
        },
        {
          "internalType": "bool",
          "name": "_shouldStakeMultiplierPoints",
          "type": "bool"
        },
        {
          "internalType": "bool",
          "name": "_shouldClaimWeth",
          "type": "bool"
        },
        {
          "internalType": "bool",
          "name": "_shouldConvertWethToEth",
          "type": "bool"
        }
      ],
      "name": "handleRewards",
      "outputs": [],
      "stateMutability": "nonpayable",
      "type": "function"
    },
    {
      "inputs": [
        {
          "internalType": "address",
          "name": "_weth",
          "type": "address"
        },
        {
          "internalType": "address",
          "name": "_vwave",
          "type": "address"
        },
        {
          "internalType": "address",
          "name": "_esVwave",
          "type": "address"
        },
        {
          "internalType": "address",
          "name": "_bnVwave",
          "type": "address"
        },
        {
          "internalType": "address",
          "name": "_vlp",
          "type": "address"
        },
        {
          "internalType": "address",
          "name": "_stakedVwaveTracker",
          "type": "address"
        },
        {
          "internalType": "address",
          "name": "_bonusVwaveTracker",
          "type": "address"
        },
        {
          "internalType": "address",
          "name": "_feeVwaveTracker",
          "type": "address"
        },
        {
          "internalType": "address",
          "name": "_feeVlpTracker",
          "type": "address"
        },
        {
          "internalType": "address",
          "name": "_stakedVlpTracker",
          "type": "address"
        },
        {
          "internalType": "address",
          "name": "_vlpManager",
          "type": "address"
        },
        {
          "internalType": "address",
          "name": "_vwaveVester",
          "type": "address"
        },
        {
          "internalType": "address",
          "name": "_vlpVester",
          "type": "address"
        }
      ],
      "name": "initialize",
      "outputs": [],
      "stateMutability": "nonpayable",
      "type": "function"
    },
    {
      "inputs": [],
      "name": "isInitialized",
      "outputs": [
        {
          "internalType": "bool",
          "name": "",
          "type": "bool"
        }
      ],
      "stateMutability": "view",
      "type": "function"
    },
    {
      "inputs": [
        {
          "internalType": "address",
          "name": "_token",
          "type": "address"
        },
        {
          "internalType": "uint256",
          "name": "_amount",
          "type": "uint256"
        },
        {
          "internalType": "uint256",
          "name": "_minUsdv",
          "type": "uint256"
        },
        {
          "internalType": "uint256",
          "name": "_minVlp",
          "type": "uint256"
        }
      ],
      "name": "mintAndStakeVlp",
      "outputs": [
        {
          "internalType": "uint256",
          "name": "",
          "type": "uint256"
        }
      ],
      "stateMutability": "nonpayable",
      "type": "function"
    },
    {
      "inputs": [
        {
          "internalType": "uint256",
          "name": "_minUsdv",
          "type": "uint256"
        },
        {
          "internalType": "uint256",
          "name": "_minVlp",
          "type": "uint256"
        }
      ],
      "name": "mintAndStakeVlpETH",
      "outputs": [
        {
          "internalType": "uint256",
          "name": "",
          "type": "uint256"
        }
      ],
      "stateMutability": "payable",
      "type": "function"
    },
    {
      "inputs": [],
      "name": "owner",
      "outputs": [
        {
          "internalType": "address",
          "name": "",
          "type": "address"
        }
      ],
      "stateMutability": "view",
      "type": "function"
    },
    {
      "inputs": [
        {
          "internalType": "address",
          "name": "",
          "type": "address"
        }
      ],
      "name": "pendingReceivers",
      "outputs": [
        {
          "internalType": "address",
          "name": "",
          "type": "address"
        }
      ],
      "stateMutability": "view",
      "type": "function"
    },
    {
      "inputs": [],
      "name": "renounceOwnership",
      "outputs": [],
      "stateMutability": "nonpayable",
      "type": "function"
    },
    {
      "inputs": [
        {
          "internalType": "address",
          "name": "_receiver",
          "type": "address"
        }
      ],
      "name": "signalTransfer",
      "outputs": [],
      "stateMutability": "nonpayable",
      "type": "function"
    },
    {
      "inputs": [
        {
          "internalType": "uint256",
          "name": "_amount",
          "type": "uint256"
        }
      ],
      "name": "stakeEsVwave",
      "outputs": [],
      "stateMutability": "nonpayable",
      "type": "function"
    },
    {
      "inputs": [
        {
          "internalType": "uint256",
          "name": "_amount",
          "type": "uint256"
        }
      ],
      "name": "stakeVwave",
      "outputs": [],
      "stateMutability": "nonpayable",
      "type": "function"
    },
    {
      "inputs": [
        {
          "internalType": "address",
          "name": "_account",
          "type": "address"
        },
        {
          "internalType": "uint256",
          "name": "_amount",
          "type": "uint256"
        }
      ],
      "name": "stakeVwaveForAccount",
      "outputs": [],
      "stateMutability": "nonpayable",
      "type": "function"
    },
    {
      "inputs": [],
      "name": "stakedVlpTracker",
      "outputs": [
        {
          "internalType": "address",
          "name": "",
          "type": "address"
        }
      ],
      "stateMutability": "view",
      "type": "function"
    },
    {
      "inputs": [],
      "name": "stakedVwaveTracker",
      "outputs": [
        {
          "internalType": "address",
          "name": "",
          "type": "address"
        }
      ],
      "stateMutability": "view",
      "type": "function"
    },
    {
      "inputs": [
        {
          "internalType": "address",
          "name": "newOwner",
          "type": "address"
        }
      ],
      "name": "transferOwnership",
      "outputs": [],
      "stateMutability": "nonpayable",
      "type": "function"
    },
    {
      "inputs": [
        {
          "internalType": "address",
          "name": "_tokenOut",
          "type": "address"
        },
        {
          "internalType": "uint256",
          "name": "_vlpAmount",
          "type": "uint256"
        },
        {
          "internalType": "uint256",
          "name": "_minOut",
          "type": "uint256"
        },
        {
          "internalType": "address",
          "name": "_receiver",
          "type": "address"
        }
      ],
      "name": "unstakeAndRedeemVlp",
      "outputs": [
        {
          "internalType": "uint256",
          "name": "",
          "type": "uint256"
        }
      ],
      "stateMutability": "nonpayable",
      "type": "function"
    },
    {
      "inputs": [
        {
          "internalType": "uint256",
          "name": "_vlpAmount",
          "type": "uint256"
        },
        {
          "internalType": "uint256",
          "name": "_minOut",
          "type": "uint256"
        },
        {
          "internalType": "address payable",
          "name": "_receiver",
          "type": "address"
        }
      ],
      "name": "unstakeAndRedeemVlpETH",
      "outputs": [
        {
          "internalType": "uint256",
          "name": "",
          "type": "uint256"
        }
      ],
      "stateMutability": "nonpayable",
      "type": "function"
    },
    {
      "inputs": [
        {
          "internalType": "uint256",
          "name": "_amount",
          "type": "uint256"
        }
      ],
      "name": "unstakeEsVwave",
      "outputs": [],
      "stateMutability": "nonpayable",
      "type": "function"
    },
    {
      "inputs": [
        {
          "internalType": "uint256",
          "name": "_amount",
          "type": "uint256"
        }
      ],
      "name": "unstakeVwave",
      "outputs": [],
      "stateMutability": "nonpayable",
      "type": "function"
    },
    {
      "inputs": [],
      "name": "vlp",
      "outputs": [
        {
          "internalType": "address",
          "name": "",
          "type": "address"
        }
      ],
      "stateMutability": "view",
      "type": "function"
    },
    {
      "inputs": [],
      "name": "vlpManager",
      "outputs": [
        {
          "internalType": "address",
          "name": "",
          "type": "address"
        }
      ],
      "stateMutability": "view",
      "type": "function"
    },
    {
      "inputs": [],
      "name": "vlpVester",
      "outputs": [
        {
          "internalType": "address",
          "name": "",
          "type": "address"
        }
      ],
      "stateMutability": "view",
      "type": "function"
    },
    {
      "inputs": [],
      "name": "vwave",
      "outputs": [
        {
          "internalType": "address",
          "name": "",
          "type": "address"
        }
      ],
      "stateMutability": "view",
      "type": "function"
    },
    {
      "inputs": [],
      "name": "vwaveVester",
      "outputs": [
        {
          "internalType": "address",
          "name": "",
          "type": "address"
        }
      ],
      "stateMutability": "view",
      "type": "function"
    },
    {
      "inputs": [],
      "name": "weth",
      "outputs": [
        {
          "internalType": "address",
          "name": "",
          "type": "address"
        }
      ],
      "stateMutability": "view",
      "type": "function"
    },
    {
      "inputs": [
        {
          "internalType": "address",
          "name": "_token",
          "type": "address"
        },
        {
          "internalType": "address",
          "name": "_account",
          "type": "address"
        },
        {
          "internalType": "uint256",
          "name": "_amount",
          "type": "uint256"
        }
      ],
      "name": "withdrawToken",
      "outputs": [],
      "stateMutability": "nonpayable",
      "type": "function"
    },
    {
      "stateMutability": "payable",
      "type": "receive"
    }
  ],
  "bytecode": "0x6080806040523461005e57600160008181558154336001600160a01b0319821681179093556001600160a01b0316907f8be0079c531659141344cd1fd0a4f28419497f9722a3daafe3b4186f6b6457e09080a3613d4190816100648239f35b600080fdfe6080604052600436101561003f575b361561001957600080fd5b6002546001600160a01b0316330361002d57005b604051636edaef2f60e11b8152600490fd5b6000803560e01c806301e33667146123e3578063098bbe8e146123ba578063131a96451461239157806313a95939146123685780631af276a6146122ec57806326a8e9e5146122c35780632a9f4083146122875780632fdd983d1461207157806330b7000214611a7b578063392e53cd14611a5557806339c22a3314611a165780633fc8cef3146119ed578063483a875f1461199d57806349ce93451461195f5780634b442d72146119365780634e71d92d146118255780635a83fcf114611694578063655603a414610f665780636fa6d4e514610f3d5780637001bfbf14610f14578063715018a614610ec857806373e214f414610e9f578063832119e014610e765780638850362a14610c265780638c651e5d14610a855780638da5cb5b14610a5c57806396cf264d14610a1e57806398bb08cc146109145780639f6f8f06146108eb578063b6fac960146106bf578063c13ee5cb14610696578063c97ee6921461066d578063d157696a14610630578063d294f0931461057c578063d9e951f01461047d578063e1b9db8914610441578063ef9aacfd146102e0578063f2fde38b1461022d5763f69e2046146101f8575061000e565b3461022a578060031936011261022a576102166002825414156127ea565b6002815561022333612a69565b6001815580f35b80fd5b503461022a57602036600319011261022a57610247612592565b61024f6126a5565b6001600160a01b0390811690811561028c57600180546001600160a01b03198116841790915516600080516020613cec833981519152600080a380f35b60405162461bcd60e51b815260206004820152602660248201527f4f776e61626c653a206e6577206f776e657220697320746865207a65726f206160448201526564647265737360d01b6064820152608490fd5b503461022a5760208060031936011261043d576102fb612592565b9061030a6002845414156127ea565b6002835560018060a01b039081600d541660405182816024816370a0823160e01b958682523360048301525afa908115610432578691610405575b501590811591610395575b5061038357600f9061036184613590565b338552526040832080546001600160a01b031916919092161790556001815580f35b60405163ee37d31160e01b8152600490fd5b90508183600e54169160246040518094819382523360048301525afa9081156103fa5785916103c8575b50151538610350565b90508181813d83116103f3575b6103df81836125fd565b810103126103ee5751386103bf565b600080fd5b503d6103d5565b6040513d87823e3d90fd5b90508281813d831161042b575b61041c81836125fd565b810103126103ee575138610345565b503d610412565b6040513d88823e3d90fd5b5080fd5b503461022a57602036600319011261022a576020906001600160a01b03906040908261046b612592565b168152600f8452205416604051908152f35b503461022a578060031936011261022a5761049c6002825414156127ea565b600281556007546040516309f4173d60e11b80825260209290916001600160a01b03918490829084168188816104d6338060048401612a20565b03925af19081156103fa578491610553575b5090600a5416916040519283918252818681610508333360048401612a20565b03925af180156105485761051f575b826001815580f35b813d8311610541575b61053281836125fd565b810103126103ee573880610517565b503d610528565b6040513d85823e3d90fd5b813d8311610575575b61056681836125fd565b810103126103ee5782386104e8565b503d61055c565b503461022a578060031936011261022a5761059b6002825414156127ea565b600281556009546040516309f4173d60e11b80825260209290916001600160a01b03918490829084168188816105d5338060048401612a20565b03925af19081156103fa578491610607575b5090600b5416916040519283918252818681610508333360048401612a20565b813d8311610629575b61061a81836125fd565b810103126103ee5782386105e7565b503d610610565b503461022a57602036600319011261022a576106506002825414156127ea565b60028155600480546102239135906001600160a01b0316336131dc565b503461022a578060031936011261022a57600d546040516001600160a01b039091168152602090f35b503461022a578060031936011261022a57600a546040516001600160a01b039091168152602090f35b503461022a57606036600319011261022a576001600160a01b03600435604435828116810361085b576106f66002855414156127ea565b6002845581156108d957828493600a541681600b541690803b156108d55785604051809281838161073963098bf59d60e01b988983528c339133600486016128eb565b03925af19081156104325786916108bd575b505081600b5416908260065416823b156108b95761077e9287928360405180968195829483528b339133600486016128eb565b03925af19081156103fa5785916108a0575b509060206107c582600c541683600254166040519889809481936371d597ad60e01b835230908c602435913360048701612915565b03925af194851561089557829561085f575b5060025416803b1561043d578190602460405180948193632e1a7d4d60e01b83528960048401525af180156103fa57610847575b5092600080516020613ccc83398151915261083b60019361082e86602098612948565b60405191829133836126fd565b0390a155604051908152f35b61085185916125d4565b61085b573861080b565b8380fd5b915093506020813d821161088d575b8161087b602093836125fd565b810103126103ee5784905193386107d7565b3d915061086e565b6040513d84823e3d90fd5b6108a9906125d4565b6108b4578338610790565b505050fd5b8680fd5b6108c6906125d4565b6108d157843861074b565b8480fd5b8580fd5b60405163162908e360e11b8152600490fd5b503461022a578060031936011261022a57600e546040516001600160a01b039091168152602090f35b503461022a57604036600319011261022a576001600160401b039060043582811161043d57610947903690600401612637565b60243592831161043d573660238401121561043d57826004013561096a81612620565b9361097860405195866125fd565b81855260209160248387019160051b830101913683116108d557602401905b828210610a0f57505050506109b06002835414156127ea565b600282556109bc6126a5565b6003546001600160a01b0390811691835b8151811015610a0757806109fd846109e8610a02948661285b565b5116866109f5848b61285b565b519133612c7c565b612836565b6109cd565b846001815580f35b81358152908301908301610997565b503461022a57602036600319011261022a57610a3e6002825414156127ea565b6002815560035461022390600435906001600160a01b0316336131dc565b503461022a578060031936011261022a576001546040516001600160a01b039091168152602090f35b503461022a57608036600319011261022a57610a9f612592565b602435610aaa6125be565b610ab86002855414156127ea565b6002845581156108d957600a54600b546001600160a01b039186918316908316803b15610c2257826040518092818381610b0463098bf59d60e01b988983528d339133600486016128eb565b03925af1908115610548578391610c0e575b505082600b5416908360065416823b1561085b57610b499284928360405180968195829483528c339133600486016128eb565b03925af1801561089557610bf6575b505090610b8a93602092600c541690866040518097819582946371d597ad60e01b845289604435913360048701612915565b03925af1918215610548578392610bc2575b50602092600080516020613ccc83398151915261083b60019360405191829133836126fd565b9091506020813d8211610bee575b81610bdd602093836125fd565b810103126103ee5751906020610b9c565b3d9150610bd0565b610c02909392936125d4565b6108d157908438610b58565b610c17906125d4565b61043d578138610b16565b8280fd5b50604036600319011261022a57610c416002825414156127ea565b600281553415610e64576002546001600160a01b0391908216803b1561043d578160049160405192838092630d0e30db60e41b825234905af1801561089557610e50575b50610cb79082600254169280600c5416604051809563095ea7b360e01b825281858160209889963490600484016126fd565b03925af193841561089557829394610e23575b5083610d0182600c541683600254166040519687809481936317eb2a1560e01b835260243590600435903490333060048801612885565b03925af1928315610895578293610df4575b5080600b5416816006541690803b1561085b57836040518092818381610d4a8b631e42d69b60e21b998a84523333600486016128c0565b03925af18015610de957908491610dd5575b505081600a541691600b541690823b1561085b57610d909284928387936040519687958694859384523333600486016128c0565b03925af1801561089557610dc1575b50600190600080516020613c8c8339815191526040518061083b8633836126fd565b610dcb82916125d4565b61022a5738610d9f565b610dde906125d4565b610c22578238610d5c565b6040513d86823e3d90fd5b9092508381813d8311610e1c575b610e0c81836125fd565b810103126103ee57519138610d13565b503d610e02565b610e4290853d8711610e49575b610e3a81836125fd565b810190612718565b5038610cca565b503d610e30565b610e5a82916125d4565b61022a5738610c85565b604051632a9ffab760e21b8152600490fd5b503461022a578060031936011261022a576006546040516001600160a01b039091168152602090f35b503461022a578060031936011261022a576004546040516001600160a01b039091168152602090f35b503461022a578060031936011261022a57610ee16126a5565b600180546001600160a01b031981169091556000906001600160a01b0316600080516020613cec8339815191528280a380f35b503461022a578060031936011261022a57600c546040516001600160a01b039091168152602090f35b503461022a578060031936011261022a576009546040516001600160a01b039091168152602090f35b503461022a5760208060031936011261043d57610f81612592565b610f8f6002845414156127ea565b6002835560018060a01b0380600d541692604051936370a0823160e01b948581528281602481878916958660048301525afa908115611431578791611667575b5015801590611609575b61038357808652600f82523383604088205416036115f757808652600f82526040862080546001600160a01b03191690558594849161101733613590565b61102083612a69565b8460075416856003541690856040518092818061104c87637aeceb1f60e11b9b8c845260048401612a20565b03915afa90811561150b5789916115c6575b50806115a5575b5050846007541661108d85876004541680938a6040518095819482938c845260048401612a20565b03915afa90811561150b578991611574575b5080611553575b505084600954168560055416604051918583528683806110ca858d60048401612a20565b0381845afa928315611548578a93611516575b508261143c575b50505084600454169060405192835260048301528382602481845afa9182156114315787926113ff575b5081849188936113a8575b5050611140915084600b541692856006541690604051938492839283528960048401612a20565b0381855afa928315610432578693611375575b505081611208575b505080600d541690813b156108b4576040518481630f713c2360e41b9485825281838161118c338b60048401612a20565b03925af19081156103fa5785916111f4575b5050600e541691823b156108b4576111c9928492836040518096819582948352339060048401612a20565b03925af18015610895576111e0575b506001905580f35b6111e9906125d4565b61022a5780386111d8565b6111fd906125d4565b6108b457833861119e565b82600a5416803b156108d5578560405180928183816112388b8a63098bf59d60e01b9a8b855282600486016128eb565b03925af1908115610432578691611361575b505082600b541690836006541690823b156108b9578592879283869361127f60405197889687958694855282600486016128eb565b03925af19081156103fa57859161134d575b505081600b5416826006541690803b156108d5578560405180928183816112ca89631e42d69b60e21b998a84528d3390600486016128c0565b03925af1908115610432578691611339575b505082600a54169183600b541692803b156108b95761130f938780946040519687958694859384523333600486016128c0565b03925af1908115610de95784911561115b5761132a906125d4565b61133557823861115b565b5050fd5b611342906125d4565b6108d15784386112dc565b611356906125d4565b6108b4578338611291565b61136a906125d4565b6108d157843861124a565b819650809293503d83116113a1575b61138e81836125fd565b810103126103ee57849351903880611153565b503d611384565b6113ca916040519485809481936323b872dd60e01b8352338d60048501612a47565b03925af18015610432576113e2575b82818792611119565b6113f890833d8511610e4957610e3a81836125fd565b50386113d9565b965090508286813d811161142a575b61141881836125fd565b810103126103ee57945186958361110e565b503d61140e565b6040513d89823e3d90fd5b803b156114ef57888a91848361146a956040519687958694859363098bf59d60e01b855282600486016128eb565b03925af190811561150b5789916114f3575b5050856009541690866005541690823b156114ef576114b8928a92838b60405196879586948593631e42d69b60e21b85523390600486016128c0565b03925af19081156114e45788916114d0575b806110e4565b6114d9906125d4565b6108b95786386114ca565b6040513d8a823e3d90fd5b8980fd5b6114fc906125d4565b61150757873861147c565b8780fd5b6040513d8b823e3d90fd5b995091508589813d8111611541575b61152f81836125fd565b810103126103ee5789985191386110dd565b503d611525565b6040513d8c823e3d90fd5b6115618161156d938a612de1565b86600454163389612c7c565b38806110a6565b809950868092503d831161159e575b61158d81836125fd565b810103126103ee578897513861109f565b503d611583565b6115b3816115bf938a612de1565b86600354163389612c7c565b3880611065565b809950868092503d83116115f0575b6115df81836125fd565b810103126103ee578897513861105e565b503d6115d5565b6040516325ed4d4b60e01b8152600490fd5b5060248284600e5416604051928380928a82528660048301525afa90811561143157879161163a575b501515610fd9565b90508281813d8311611660575b61165181836125fd565b810103126103ee575138611632565b503d611647565b90508281813d831161168d575b61167e81836125fd565b810103126103ee575138610fcf565b503d611674565b503461022a57608036600319011261022a576116ae612592565b602435906116c06002845414156127ea565b6002835581156108d957600c546040516317eb2a1560e01b8152926001600160a01b039260209285929085169183918891839161170a916064359160443591338060048801612885565b03925af19182156105485783926117f2575b508281600b5416826006541690803b15610c22578260405180928183816117548b631e42d69b60e21b998a84523333600486016128c0565b03925af19081156105485783916117de575b5050600a54600b5484169316803b15610c2257611797938386936040519687958694859384523333600486016128c0565b03925af18015610548576117ca575b506001602092600080516020613c8c8339815191526040518061083b8633836126fd565b6117d483916125d4565b61043d57386117a6565b6117e7906125d4565b61043d578138611766565b9091506020813d821161181d575b8161180d602093836125fd565b810103126103ee5751903861171c565b3d9150611800565b503461022a578060031936011261022a576118446002825414156127ea565b600281556009546040516309f4173d60e11b80825260209290916001600160a01b039184908290841681888161187e338060048401612a20565b03925af19081156103fa57849161190d575b505080600b54168360405180928582528188816118b1333360048401612a20565b03925af19081156103fa5784916118e4575b505080600754168360405180928582528188816104d6333360048401612a20565b813d8311611906575b6118f781836125fd565b810103126103ee5782386118c3565b503d6118ed565b813d831161192f575b61192081836125fd565b810103126103ee578238611890565b503d611916565b503461022a578060031936011261022a576008546040516001600160a01b039091168152602090f35b503461022a57602036600319011261022a5761197f6002825414156127ea565b60028155600480546102239135906001600160a01b03163380612c7c565b503461022a57604036600319011261022a576102236119ba612592565b6119c86002845414156127ea565b600283556119d46126a5565b600354602435916001600160a01b039091169033612c7c565b503461022a578060031936011261022a576002546040516001600160a01b039091168152602090f35b503461022a57602036600319011261022a57611a366002825414156127ea565b6002815560035461022390600435906001600160a01b03163380612c7c565b503461022a578060031936011261022a57602060ff60015460a01c166040519015158152f35b503461022a5760e036600319011261022a57600435801515810361043d57602435908115158203610c2257604435801515810361085b576064359081151582036108d1576084359182151583036108d55760a4359384151585036108b95760c43595861515870361150757611af46002895414156127ea565b600288558791611f72575b80611f69575b611f4b575b508591611e57575b80611e4e575b611e30575b50611d4d575b611b30575b506001815580f35b15611c7d576009546040516309f4173d60e11b8082526001600160a01b03928491602091829085908716818681611b6b303360048401612a20565b03925af1938415610548578394611c4a575b508185600b5416916040519283918252818681611b9e303360048401612a20565b03925af1918215610548578392611c17575b5050611bbc9192612a3a565b9160025416803b1561043d57818091602460405180948193632e1a7d4d60e01b83528860048401525af1801561089557611c03575b5050611bfd9033612948565b38611b28565b611c0c906125d4565b61043d578138611bf1565b8193508092503d8311611c43575b611c2f81836125fd565b810103126103ee57518390611bbc38611bb0565b503d611c25565b82809295508194503d8311611c76575b611c6481836125fd565b810103126103ee578491519238611b7d565b503d611c5a565b6009546040516309f4173d60e11b80825260209290916001600160a01b0391849082908416818881611cb3338060048401612a20565b03925af19081156103fa578491611d24575b5090600b5416916040519283918252818681611ce5333360048401612a20565b03925af1801561054857611cfb575b5050611bfd565b813d8311611d1d575b611d0e81836125fd565b810103126103ee573880611cf4565b503d611d04565b813d8311611d46575b611d3781836125fd565b810103126103ee578238611cc5565b503d611d2d565b6008546040516309f4173d60e11b81526001600160a01b039185919060209082908516818581611d81338060048401612a20565b03925af1908115610895578291611dff575b5080611da2575b505050611b23565b60095460055484169316803b15610c2257611dd69383604051809681958294631e42d69b60e21b84523333600486016128c0565b03925af18015610de957611dec575b8381611d9a565b611df8909391936125d4565b9138611de5565b90506020813d8211611e28575b81611e19602093836125fd565b8101031261043d575138611d93565b3d9150611e0c565b600454611e4891906001600160a01b03163380612c7c565b38611b1d565b50801515611b18565b6007546040516309f4173d60e11b8082529293506020916001600160a01b039190839082908416818c81611e8f338060048401612a20565b03925af191821561150b5783918a93611f16575b50600a54604051958652859116818b81611ec1338060048401612a20565b03925af19182156114e4578892611ee4575b50611ede9250612a3a565b90611b12565b90915082813d8311611f0f575b611efb81836125fd565b810103126108b957611ede91519038611ed3565b503d611ef1565b8281939294503d8311611f44575b611f2e81836125fd565b81010312611f40578290519138611ea3565b8880fd5b503d611f24565b600354611f6391906001600160a01b03163380612c7c565b38611b0a565b50801515611b05565b600d546040516309f4173d60e11b8082529293506020916001600160a01b039190839082908416818e81611faa338060048401612a20565b03925af19182156120665783918c93612031575b50600e54604051958652859116818d81611fdc338060048401612a20565b03925af1918215611548578a92611fff575b50611ff99250612a3a565b90611aff565b90915082813d831161202a575b61201681836125fd565b81010312611f4057611ff991519038611fee565b503d61200c565b8281939294503d831161205f575b61204981836125fd565b8101031261205b578290519138611fbe565b8a80fd5b503d61203f565b6040513d8d823e3d90fd5b503461022a576101a036600319011261022a5761208c612592565b6120946125a8565b6044356001600160a01b038116810361085b576120af6125be565b6084356001600160a01b03811681036108d55760a4356001600160a01b03811681036108b95760c435906001600160a01b03821682036115075760e435926001600160a01b0384168403611f405761010435946001600160a01b03861686036114ef5761012435966001600160a01b038816880361205b5761014435986001600160a01b038a168a0361228357610164359a6001600160a01b038c168c0361227f57610184356001600160a01b038116900361227f5761216d6126a5565b60015460ff8160a01c1661226e5760ff60a01b1916600160a01b17600155600280546001600160a01b03199081166001600160a01b039384161790915560038054821693831693909317909255600480548316938216939093179092556005805482169383169390931790925560068054831693821693909317909255600780548216938316939093179092556008805483169382169390931790925560098054821693831693909317909255600b8054831693821693909317909255600a8054821693831693909317909255600c8054831693821693909317909255600d8054821693831693909317909255600e80549092166101843590911617905580f35b60405162dc149f60e41b8152600490fd5b8c80fd5b8b80fd5b503461022a57602036600319011261022a576102236122a4612592565b6122b26002845414156127ea565b600283556122be6126a5565b612a69565b503461022a578060031936011261022a576003546040516001600160a01b039091168152602090f35b503461022a57602036600319011261022a576004356001600160401b03811161043d5761231d903690600401612637565b9061232c6002825414156127ea565b600281556123386126a5565b805b8251811015611b2857612363906109fd6001600160a01b0361235c838761285b565b5116612a69565b61233a565b503461022a578060031936011261022a576005546040516001600160a01b039091168152602090f35b503461022a578060031936011261022a57600b546040516001600160a01b039091168152602090f35b503461022a578060031936011261022a576007546040516001600160a01b039091168152602090f35b503461022a57606036600319011261022a576123fd612592565b6124056125a8565b9061240e6126a5565b60405163a9059cbb60e01b60208083019182529391926001600160a01b0316916124539084906124459060443590602484016126fd565b03601f1981018552846125fd565b60408051939084016001600160401b0381118582101761257e576040528484527f5361666545524332303a206c6f772d6c6576656c2063616c6c206661696c656485850152823b15612539576124bb9392869283809351925af16124b5612730565b9061276f565b805190816124c7578380f35b82806124d7938301019101612718565b156124e25780808380f35b6084906040519062461bcd60e51b82526004820152602a60248201527f5361666545524332303a204552433230206f7065726174696f6e20646964206e6044820152691bdd081cdd58d8d9595960b21b6064820152fd5b60405162461bcd60e51b815260048101869052601d60248201527f416464726573733a2063616c6c20746f206e6f6e2d636f6e74726163740000006044820152606490fd5b634e487b7160e01b87526041600452602487fd5b600435906001600160a01b03821682036103ee57565b602435906001600160a01b03821682036103ee57565b606435906001600160a01b03821682036103ee57565b6001600160401b0381116125e757604052565b634e487b7160e01b600052604160045260246000fd5b601f909101601f19168101906001600160401b038211908210176125e757604052565b6001600160401b0381116125e75760051b60200190565b81601f820112156103ee5780359161264e83612620565b9261265c60405194856125fd565b808452602092838086019260051b8201019283116103ee578301905b828210612686575050505090565b81356001600160a01b03811681036103ee578152908301908301612678565b6001546001600160a01b031633036126b957565b606460405162461bcd60e51b815260206004820152602060248201527f4f776e61626c653a2063616c6c6572206973206e6f7420746865206f776e65726044820152fd5b6001600160a01b039091168152602081019190915260400190565b908160209103126103ee575180151581036103ee5790565b3d1561276a573d906001600160401b0382116125e7576040519161275e601f8201601f1916602001846125fd565b82523d6000602084013e565b606090565b9091901561277b575090565b81511561278b5750805190602001fd5b6040519062461bcd60e51b82528160208060048301528251908160248401526000935b8285106127d1575050604492506000838284010152601f80199101168101030190fd5b84810182015186860160440152938101938593506127ae565b156127f157565b60405162461bcd60e51b815260206004820152601f60248201527f5265656e7472616e637947756172643a207265656e7472616e742063616c6c006044820152606490fd5b60001981146128455760010190565b634e487b7160e01b600052601160045260246000fd5b805182101561286f5760209160051b010190565b634e487b7160e01b600052603260045260246000fd5b6001600160a01b039182168152918116602083015290911660408201526060810191909152608081019190915260a081019190915260c00190565b6001600160a01b03918216815291811660208301529091166040820152606081019190915260800190565b6001600160a01b039182168152918116602083015260408201929092529116606082015260800190565b6001600160a01b039182168152918116602083015260408201929092526060810192909252909116608082015260a00190565b8147106129db576000918291829182916001600160a01b03165af161296b612730565b501561297357565b60405162461bcd60e51b815260206004820152603a60248201527f416464726573733a20756e61626c6520746f2073656e642076616c75652c20726044820152791958da5c1a595b9d081b585e481a185d99481c995d995c9d195960321b6064820152608490fd5b60405162461bcd60e51b815260206004820152601d60248201527f416464726573733a20696e73756666696369656e742062616c616e63650000006044820152606490fd5b6001600160a01b0391821681529116602082015260400190565b9190820180921161284557565b6001600160a01b03918216815291166020820152604081019190915260600190565b600754604080516309f4173d60e11b808252600494929391602091600091838180612a9789808d8401612a20565b03818660018060a01b03809a165af1908115612bf9578391612c4f575b5080612c3a575b50612adc8386866008541681868c8c51968795869485938b85528401612a20565b03925af1908115612bf9579083929187959491612c03575b5080612b8c575b50838391898488600a541692612b1c8c51998a968795869485528401612a20565b03925af1958615612b82575094612b52575b505082612b3c575b50505050565b612b499354169080612c7c565b38808080612b36565b9080929450813d8311612b7b575b612b6a81836125fd565b810103126103ee5751913880612b2e565b503d612b60565b51903d90823e3d90fd5b90919293508460095416856005541691813b156108d157849188838c612bc783958e5198899788968795631e42d69b60e21b875286016128c0565b03925af18015612bf9578493928795928692612be6575b509150612afb565b612bf2909491946125d4565b9238612bde565b87513d85823e3d90fd5b848096508193949592503d8311612c33575b612c1f81836125fd565b81010312610c225790859392915138612af4565b503d612c15565b612c4990858954168780612c7c565b38612abb565b90508381813d8311612c75575b612c6681836125fd565b81010312610c22575138612ab4565b503d612c5c565b939293600085156108d9576007546001600160a01b0390811692833b15610c2257612cc6838960409689838a8a5196879586948593631e42d69b60e21b9b8c8652600486016128c0565b03925af18015612dc457612dce575b5081600854168260075416813b156108d15789612d06928692838a8a51968795869485938b855280600486016128c0565b03925af18015612dc457908491612db0575b50508160095416916008541690823b1561085b57612d4b928492838b9388519687958694859384528c80600486016128c0565b03925af18015612da657612d92575b50507f8f5347f2afe0e72192e96a89a64cb5498ddb83a57fd518e7616c88c24d69951a9394612d8d915193849384612a47565b0390a1565b612d9c82916125d4565b61022a5780612d5a565b83513d84823e3d90fd5b612db9906125d4565b610c22578238612d18565b85513d86823e3d90fd5b612dda909391936125d4565b9138612cd5565b929192600084156108d957600754604080516310c1c10360e01b81526001600160a01b038581166004830152919392602092919083908290602490829086165afa908115612dc45784916131af575b50816009541692826008541693803b156108d5578588612e6a928d838b5180968195829463098bf59d60e01b9d8e855282600486016128eb565b03925af1801561313d5761319c575b5082600854168360075416813b156108b9578b899288928389612eaa8d5197889687958694855282600486016128eb565b03925af1801561313d57908691613188575b50508260075416803b156108d557858b89928b8389612ee98d5197889687958694855282600486016128eb565b03925af1801561313d57908691613174575b50612f25575b5050505050600080516020613cac8339815191529394612d8d915193849384612a47565b60085486516309f4173d60e11b815290829082908616818981612f4c8e8060048401612a20565b03925af190811561313d578691613147575b50806130da575b506009546005548751637aeceb1f60e11b815291851693908516929091818180612f93878e60048401612a20565b0381885afa9182156130d05788926130a2575b505080158015612fb9575b505050612f01565b8c82029182048d14171561308e57811561307a570493823b156108d55787928692838793612ff58b5197889687958694855282600486016128eb565b03925af18015612dc457908491613066575b50506005541690813b15610c2257613038839283928651948580948193632770a7eb60e21b83528b600484016126fd565b03925af18015612da657613052575b808080808080612fb1565b61305c82916125d4565b61022a5780613047565b61306f906125d4565b610c22578238613007565b634e487b7160e01b87526012600452602487fd5b634e487b7160e01b87526011600452602487fd5b90809250813d83116130c9575b6130b981836125fd565b810103126103ee57513880612fa6565b503d6130af565b89513d8a823e3d90fd5b83600954168460055416813b156115075791879161311193838c8c5196879586948593631e42d69b60e21b855280600486016128c0565b03925af1801561313d57908691613129575b50612f65565b613132906125d4565b6108d1578438613123565b87513d88823e3d90fd5b90508181813d831161316d575b61315e81836125fd565b810103126103ee575138612f5e565b503d613154565b61317d906125d4565b6108d1578438612efb565b613191906125d4565b6108d1578438612ebc565b6131a8909591956125d4565b9338612e79565b90508281813d83116131d5575b6131c681836125fd565b8101031261085b575138612e30565b503d6131bc565b929192600084156108d957600754604080516310c1c10360e01b81526001600160a01b038581166004830152919392602092919083908290602490829086165afa908115612dc4578491613563575b50816009541692826008541693803b156108d5578588613265928d838b5180968195829463098bf59d60e01b9d8e855282600486016128eb565b03925af1801561313d57613550575b5082600854168360075416813b156108b9578b8992889283896132a58d5197889687958694855282600486016128eb565b03925af1801561313d5790869161353c575b50508260075416803b156108d557858b89928b83896132e48d5197889687958694855282600486016128eb565b03925af1801561313d57908691613528575b508161331d85600854168a8a519485809481936309f4173d60e11b83528060048401612a20565b03925af190811561313d5786916134fb575b5080613498575b506009546005548751637aeceb1f60e11b815291851693908516929091818180613364878e60048401612a20565b0381885afa9182156130d057889261346a575b5050801580156133a9575b5050505050505050600080516020613cac8339815191529394612d8d915193849384612a47565b8c82029182048d14171561308e57811561307a570493823b156108d557879286928387936133e58b5197889687958694855282600486016128eb565b03925af18015612dc457908491613456575b50506005541690813b15610c2257613428839283928651948580948193632770a7eb60e21b83528b600484016126fd565b03925af18015612da657613442575b808080808080613382565b61344c82916125d4565b61022a5780613437565b61345f906125d4565b610c225782386133f7565b90809250813d8311613491575b61348181836125fd565b810103126103ee57513880613377565b503d613477565b83600954168460055416813b15611507579187916134cf93838c8c5196879586948593631e42d69b60e21b855280600486016128c0565b03925af1801561313d579086916134e7575b50613336565b6134f0906125d4565b6108d15784386134e1565b90508181813d8311613521575b61351281836125fd565b810103126103ee57513861332f565b503d613508565b613531906125d4565b6108d15784386132f6565b613545906125d4565b6108d15784386132b7565b61355c909591956125d4565b9338613274565b90508281813d8311613589575b61357a81836125fd565b8101031261085b57513861322b565b503d613570565b6007546040805163a318021760e01b8082526001600160a01b03948516600480840182905295939484169360249360209390848187818a5afa908115613c8057600091613c53575b501595861596613bf0575b508515613b92575b8515613b2d575b8515613acf575b8515613a6a575b8515613a05575b85156139a0575b8515613942575b85156138d2575b8515613872575b50841561380d575b84156137a8575b8415613743575b84156136d3575b8415613660575b50505050613653575050565b51631e4ec46b60e01b8152fd5b82939450600e5416938551809581936370a0823160e01b8352898301525afa9081156136c85760009161369c575b509050151538808080613647565b82813d83116136c1575b6136b081836125fd565b8101031261022a575051803861368e565b503d6136a6565b83513d6000823e3d90fd5b9350828285600d54168751928380926370a0823160e01b8252868c8301525afa9081156137385760009161370b575b50151593613640565b908382813d8311613731575b61372181836125fd565b8101031261022a57505138613702565b503d613717565b86513d6000823e3d90fd5b9350828285600e5416875192838092635b8de71560e11b8252868c8301525afa9081156137385760009161377b575b50151593613639565b908382813d83116137a1575b61379181836125fd565b8101031261022a57505138613772565b503d613787565b9350828285600e5416875192838092631ccdc0d760e21b8252868c8301525afa908115613738576000916137e0575b50151593613632565b908382813d8311613806575b6137f681836125fd565b8101031261022a575051386137d7565b503d6137ec565b9350828285600b5416875192838092633792def360e01b8252868c8301525afa90811561373857600091613845575b5015159361362b565b908382813d831161386b575b61385b81836125fd565b8101031261022a5750513861383c565b503d613851565b9094508285600b541691858851809481938252868c8301525afa908115613738576000916138a5575b5015159338613623565b908382813d83116138cb575b6138bb81836125fd565b8101031261022a5750513861389b565b503d6138b1565b9450838382600a5416885192838092633792def360e01b8252878d8301525afa9081156139375760009161390a575b5015159461361c565b908482813d8311613930575b61392081836125fd565b8101031261022a57505138613901565b503d613916565b87513d6000823e3d90fd5b9450838382600a54168851928380928a8252878d8301525afa90811561393757600091613973575b50151594613615565b908482813d8311613999575b61398981836125fd565b8101031261022a5750513861396a565b503d61397f565b9450838382600d5416885192838092635b8de71560e11b8252878d8301525afa908115613937576000916139d8575b5015159461360e565b908482813d83116139fe575b6139ee81836125fd565b8101031261022a575051386139cf565b503d6139e4565b9450838382600d5416885192838092631ccdc0d760e21b8252878d8301525afa90811561393757600091613a3d575b50151594613607565b908482813d8311613a63575b613a5381836125fd565b8101031261022a57505138613a34565b503d613a49565b945083838260095416885192838092633792def360e01b8252878d8301525afa90811561393757600091613aa2575b50151594613600565b908482813d8311613ac8575b613ab881836125fd565b8101031261022a57505138613a99565b503d613aae565b9450838382600954168851928380928a8252878d8301525afa90811561393757600091613b00575b501515946135f9565b908482813d8311613b26575b613b1681836125fd565b8101031261022a57505138613af7565b503d613b0c565b945083838260085416885192838092633792def360e01b8252878d8301525afa90811561393757600091613b65575b501515946135f2565b908482813d8311613b8b575b613b7b81836125fd565b8101031261022a57505138613b5c565b503d613b71565b9450838382600854168851928380928a8252878d8301525afa90811561393757600091613bc3575b501515946135eb565b908482813d8311613be9575b613bd981836125fd565b8101031261022a57505138613bba565b503d613bcf565b859196508490885192838092633792def360e01b8252878d8301525afa90811561393757600091613c26575b50151594386135e3565b908482813d8311613c4c575b613c3c81836125fd565b8101031261022a57505138613c1c565b503d613c32565b908582813d8311613c79575b613c6981836125fd565b8101031261022a575051386135d8565b503d613c5f565b88513d6000823e3d90fdfe6de683ebf068b17af2e0b9ddc53d96e0b1067fbf72d1c9a72ae13a729375c38e7d4cb72ddc7d9d13ec1a23b38ef2d23bd8ec23a8234f0c9ceccaca8783fecb61599051324685a158502b8e35e65079c27c2b8937d3ec37ab0b9907e0725d6cba8be0079c531659141344cd1fd0a4f28419497f9722a3daafe3b4186f6b6457e0a2646970667358221220c1228a6d26a18e1d647157bfc0b51317ad5fcbb386191b87b0dfc094c29f56c164736f6c63430008110033",
  "linkReferences": {},
  "deployedLinkReferences": {}
}