{
  "_format": "hh-sol-artifact-1",
  "contractName": "RewardRouterV2",
  "sourceName": "contracts/staking/RewardRouterV2.sol",
  "abi": [
    {
      "anonymous": false,
      "inputs": [
        {
          "indexed": false,
          "internalType": "address",
          "name": "account",
          "type": "address"
        },
        {
          "indexed": false,
          "internalType": "uint256",
          "name": "amount",
          "type": "uint256"
        }
      ],
      "name": "StakeVlp",
      "type": "event"
    },
    {
      "anonymous": false,
      "inputs": [
        {
          "indexed": false,
          "internalType": "address",
          "name": "account",
          "type": "address"
        },
        {
          "indexed": false,
          "internalType": "address",
          "name": "token",
          "type": "address"
        },
        {
          "indexed": false,
          "internalType": "uint256",
          "name": "amount",
          "type": "uint256"
        }
      ],
      "name": "StakeVwave",
      "type": "event"
    },
    {
      "anonymous": false,
      "inputs": [
        {
          "indexed": false,
          "internalType": "address",
          "name": "account",
          "type": "address"
        },
        {
          "indexed": false,
          "internalType": "uint256",
          "name": "amount",
          "type": "uint256"
        }
      ],
      "name": "UnstakeVlp",
      "type": "event"
    },
    {
      "anonymous": false,
      "inputs": [
        {
          "indexed": false,
          "internalType": "address",
          "name": "account",
          "type": "address"
        },
        {
          "indexed": false,
          "internalType": "address",
          "name": "token",
          "type": "address"
        },
        {
          "indexed": false,
          "internalType": "uint256",
          "name": "amount",
          "type": "uint256"
        }
      ],
      "name": "UnstakeVwave",
      "type": "event"
    },
    {
      "inputs": [
        {
          "internalType": "address",
          "name": "_sender",
          "type": "address"
        }
      ],
      "name": "acceptTransfer",
      "outputs": [],
      "stateMutability": "nonpayable",
      "type": "function"
    },
    {
      "inputs": [
        {
          "internalType": "address[]",
          "name": "_accounts",
          "type": "address[]"
        }
      ],
      "name": "batchCompoundForAccounts",
      "outputs": [],
      "stateMutability": "nonpayable",
      "type": "function"
    },
    {
      "inputs": [
        {
          "internalType": "address[]",
          "name": "_accounts",
          "type": "address[]"
        },
        {
          "internalType": "uint256[]",
          "name": "_amounts",
          "type": "uint256[]"
        }
      ],
      "name": "batchStakeVwaveForAccount",
      "outputs": [],
      "stateMutability": "nonpayable",
      "type": "function"
    },
    {
      "inputs": [],
      "name": "bnVwave",
      "outputs": [
        {
          "internalType": "address",
          "name": "",
          "type": "address"
        }
      ],
      "stateMutability": "view",
      "type": "function"
    },
    {
      "inputs": [],
      "name": "bonusVwaveTracker",
      "outputs": [
        {
          "internalType": "address",
          "name": "",
          "type": "address"
        }
      ],
      "stateMutability": "view",
      "type": "function"
    },
    {
      "inputs": [],
      "name": "claim",
      "outputs": [],
      "stateMutability": "nonpayable",
      "type": "function"
    },
    {
      "inputs": [],
      "name": "claimEsVwave",
      "outputs": [],
      "stateMutability": "nonpayable",
      "type": "function"
    },
    {
      "inputs": [],
      "name": "claimFees",
      "outputs": [],
      "stateMutability": "nonpayable",
      "type": "function"
    },
    {
      "inputs": [],
      "name": "compound",
      "outputs": [],
      "stateMutability": "nonpayable",
      "type": "function"
    },
    {
      "inputs": [
        {
          "internalType": "address",
          "name": "_account",
          "type": "address"
        }
      ],
      "name": "compoundForAccount",
      "outputs": [],
      "stateMutability": "nonpayable",
      "type": "function"
    },
    {
      "inputs": [],
      "name": "esVwave",
      "outputs": [
        {
          "internalType": "address",
          "name": "",
          "type": "address"
        }
      ],
      "stateMutability": "view",
      "type": "function"
    },
    {
      "inputs": [],
      "name": "feeVlpTracker",
      "outputs": [
        {
          "internalType": "address",
          "name": "",
          "type": "address"
        }
      ],
      "stateMutability": "view",
      "type": "function"
    },
    {
      "inputs": [],
      "name": "feeVwaveTracker",
      "outputs": [
        {
          "internalType": "address",
          "name": "",
          "type": "address"
        }
      ],
      "stateMutability": "view",
      "type": "function"
    },
    {
      "inputs": [],
      "name": "gov",
      "outputs": [
        {
          "internalType": "address",
          "name": "",
          "type": "address"
        }
      ],
      "stateMutability": "view",
      "type": "function"
    },
    {
      "inputs": [
        {
          "internalType": "bool",
          "name": "_shouldClaimVwave",
          "type": "bool"
        },
        {
          "internalType": "bool",
          "name": "_shouldStakeVwave",
          "type": "bool"
        },
        {
          "internalType": "bool",
          "name": "_shouldClaimEsVwave",
          "type": "bool"
        },
        {
          "internalType": "bool",
          "name": "_shouldStakeEsVwave",
          "type": "bool"
        },
        {
          "internalType": "bool",
          "name": "_shouldStakeMultiplierPoints",
          "type": "bool"
        },
        {
          "internalType": "bool",
          "name": "_shouldClaimWeth",
          "type": "bool"
        },
        {
          "internalType": "bool",
          "name": "_shouldConvertWethToEth",
          "type": "bool"
        }
      ],
      "name": "handleRewards",
      "outputs": [],
      "stateMutability": "nonpayable",
      "type": "function"
    },
    {
      "inputs": [
        {
          "internalType": "address",
          "name": "_weth",
          "type": "address"
        },
        {
          "internalType": "address",
          "name": "_vwave",
          "type": "address"
        },
        {
          "internalType": "address",
          "name": "_esVwave",
          "type": "address"
        },
        {
          "internalType": "address",
          "name": "_bnVwave",
          "type": "address"
        },
        {
          "internalType": "address",
          "name": "_vlp",
          "type": "address"
        },
        {
          "internalType": "address",
          "name": "_stakedVwaveTracker",
          "type": "address"
        },
        {
          "internalType": "address",
          "name": "_bonusVwaveTracker",
          "type": "address"
        },
        {
          "internalType": "address",
          "name": "_feeVwaveTracker",
          "type": "address"
        },
        {
          "internalType": "address",
          "name": "_feeVlpTracker",
          "type": "address"
        },
        {
          "internalType": "address",
          "name": "_stakedVlpTracker",
          "type": "address"
        },
        {
          "internalType": "address",
          "name": "_vlpManager",
          "type": "address"
        },
        {
          "internalType": "address",
          "name": "_vwaveVester",
          "type": "address"
        },
        {
          "internalType": "address",
          "name": "_vlpVester",
          "type": "address"
        }
      ],
      "name": "initialize",
      "outputs": [],
      "stateMutability": "nonpayable",
      "type": "function"
    },
    {
      "inputs": [],
      "name": "isInitialized",
      "outputs": [
        {
          "internalType": "bool",
          "name": "",
          "type": "bool"
        }
      ],
      "stateMutability": "view",
      "type": "function"
    },
    {
      "inputs": [
        {
          "internalType": "address",
          "name": "_token",
          "type": "address"
        },
        {
          "internalType": "uint256",
          "name": "_amount",
          "type": "uint256"
        },
        {
          "internalType": "uint256",
          "name": "_minUsdv",
          "type": "uint256"
        },
        {
          "internalType": "uint256",
          "name": "_minVlp",
          "type": "uint256"
        }
      ],
      "name": "mintAndStakeVlp",
      "outputs": [
        {
          "internalType": "uint256",
          "name": "",
          "type": "uint256"
        }
      ],
      "stateMutability": "nonpayable",
      "type": "function"
    },
    {
      "inputs": [
        {
          "internalType": "uint256",
          "name": "_minUsdv",
          "type": "uint256"
        },
        {
          "internalType": "uint256",
          "name": "_minVlp",
          "type": "uint256"
        }
      ],
      "name": "mintAndStakeVlpETH",
      "outputs": [
        {
          "internalType": "uint256",
          "name": "",
          "type": "uint256"
        }
      ],
      "stateMutability": "payable",
      "type": "function"
    },
    {
      "inputs": [
        {
          "internalType": "address",
          "name": "",
          "type": "address"
        }
      ],
      "name": "pendingReceivers",
      "outputs": [
        {
          "internalType": "address",
          "name": "",
          "type": "address"
        }
      ],
      "stateMutability": "view",
      "type": "function"
    },
    {
      "inputs": [
        {
          "internalType": "address",
          "name": "_gov",
          "type": "address"
        }
      ],
      "name": "setGov",
      "outputs": [],
      "stateMutability": "nonpayable",
      "type": "function"
    },
    {
      "inputs": [
        {
          "internalType": "address",
          "name": "_receiver",
          "type": "address"
        }
      ],
      "name": "signalTransfer",
      "outputs": [],
      "stateMutability": "nonpayable",
      "type": "function"
    },
    {
      "inputs": [
        {
          "internalType": "uint256",
          "name": "_amount",
          "type": "uint256"
        }
      ],
      "name": "stakeEsVwave",
      "outputs": [],
      "stateMutability": "nonpayable",
      "type": "function"
    },
    {
      "inputs": [
        {
          "internalType": "uint256",
          "name": "_amount",
          "type": "uint256"
        }
      ],
      "name": "stakeVwave",
      "outputs": [],
      "stateMutability": "nonpayable",
      "type": "function"
    },
    {
      "inputs": [
        {
          "internalType": "address",
          "name": "_account",
          "type": "address"
        },
        {
          "internalType": "uint256",
          "name": "_amount",
          "type": "uint256"
        }
      ],
      "name": "stakeVwaveForAccount",
      "outputs": [],
      "stateMutability": "nonpayable",
      "type": "function"
    },
    {
      "inputs": [],
      "name": "stakedVlpTracker",
      "outputs": [
        {
          "internalType": "address",
          "name": "",
          "type": "address"
        }
      ],
      "stateMutability": "view",
      "type": "function"
    },
    {
      "inputs": [],
      "name": "stakedVwaveTracker",
      "outputs": [
        {
          "internalType": "address",
          "name": "",
          "type": "address"
        }
      ],
      "stateMutability": "view",
      "type": "function"
    },
    {
      "inputs": [
        {
          "internalType": "address",
          "name": "_tokenOut",
          "type": "address"
        },
        {
          "internalType": "uint256",
          "name": "_vlpAmount",
          "type": "uint256"
        },
        {
          "internalType": "uint256",
          "name": "_minOut",
          "type": "uint256"
        },
        {
          "internalType": "address",
          "name": "_receiver",
          "type": "address"
        }
      ],
      "name": "unstakeAndRedeemVlp",
      "outputs": [
        {
          "internalType": "uint256",
          "name": "",
          "type": "uint256"
        }
      ],
      "stateMutability": "nonpayable",
      "type": "function"
    },
    {
      "inputs": [
        {
          "internalType": "uint256",
          "name": "_vlpAmount",
          "type": "uint256"
        },
        {
          "internalType": "uint256",
          "name": "_minOut",
          "type": "uint256"
        },
        {
          "internalType": "address payable",
          "name": "_receiver",
          "type": "address"
        }
      ],
      "name": "unstakeAndRedeemVlpETH",
      "outputs": [
        {
          "internalType": "uint256",
          "name": "",
          "type": "uint256"
        }
      ],
      "stateMutability": "nonpayable",
      "type": "function"
    },
    {
      "inputs": [
        {
          "internalType": "uint256",
          "name": "_amount",
          "type": "uint256"
        }
      ],
      "name": "unstakeEsVwave",
      "outputs": [],
      "stateMutability": "nonpayable",
      "type": "function"
    },
    {
      "inputs": [
        {
          "internalType": "uint256",
          "name": "_amount",
          "type": "uint256"
        }
      ],
      "name": "unstakeVwave",
      "outputs": [],
      "stateMutability": "nonpayable",
      "type": "function"
    },
    {
      "inputs": [],
      "name": "vlp",
      "outputs": [
        {
          "internalType": "address",
          "name": "",
          "type": "address"
        }
      ],
      "stateMutability": "view",
      "type": "function"
    },
    {
      "inputs": [],
      "name": "vlpManager",
      "outputs": [
        {
          "internalType": "address",
          "name": "",
          "type": "address"
        }
      ],
      "stateMutability": "view",
      "type": "function"
    },
    {
      "inputs": [],
      "name": "vlpVester",
      "outputs": [
        {
          "internalType": "address",
          "name": "",
          "type": "address"
        }
      ],
      "stateMutability": "view",
      "type": "function"
    },
    {
      "inputs": [],
      "name": "vwave",
      "outputs": [
        {
          "internalType": "address",
          "name": "",
          "type": "address"
        }
      ],
      "stateMutability": "view",
      "type": "function"
    },
    {
      "inputs": [],
      "name": "vwaveVester",
      "outputs": [
        {
          "internalType": "address",
          "name": "",
          "type": "address"
        }
      ],
      "stateMutability": "view",
      "type": "function"
    },
    {
      "inputs": [],
      "name": "weth",
      "outputs": [
        {
          "internalType": "address",
          "name": "",
          "type": "address"
        }
      ],
      "stateMutability": "view",
      "type": "function"
    },
    {
      "inputs": [
        {
          "internalType": "address",
          "name": "_token",
          "type": "address"
        },
        {
          "internalType": "address",
          "name": "_account",
          "type": "address"
        },
        {
          "internalType": "uint256",
          "name": "_amount",
          "type": "uint256"
        }
      ],
      "name": "withdrawToken",
      "outputs": [],
      "stateMutability": "nonpayable",
      "type": "function"
    },
    {
      "stateMutability": "payable",
      "type": "receive"
    }
  ],
  "bytecode": "0x6080806040523461002d576001600081905580546001600160a01b031916331790556148b390816100338239f35b600080fdfe60806040526004361015610023575b361561001957600080fd5b61002161281d565b005b60003560e01c806301e336671461031b578063098bbe8e1461031257806312d43a5114610309578063131a96451461030057806313a95939146102f75780631af276a6146102ee57806326a8e9e5146102e55780632a9f4083146102dc5780632fdd983d146102d357806330b70002146102ca578063392e53cd146102c157806339c22a33146102b85780633fc8cef3146102af578063483a875f146102a657806349ce93451461029d5780634b442d72146102945780634e71d92d1461028b5780635a83fcf114610282578063655603a4146102795780636fa6d4e5146102705780637001bfbf1461026757806373e214f41461025e578063832119e0146102555780638850362a1461024c5780638c651e5d1461024357806396cf264d1461023a5780639f6f8f0614610231578063b6fac96014610228578063c13ee5cb1461021f578063c97ee69214610216578063cfad57a21461020d578063d157696a14610204578063d294f093146101fb578063d9e951f0146101f2578063e1b9db89146101e9578063ef9aacfd146101e0578063f220fe98146101d75763f69e20460361000e576101d26127a2565b61000e565b506101d26126ff565b506101d26125bf565b506101d261257f565b506101d2612508565b506101d261245e565b506101d261241f565b506101d26123d3565b506101d26123a9565b506101d261237f565b506101d261212e565b506101d2612104565b506101d26120c4565b506101d2611ed4565b506101d2611c14565b506101d2611bea565b506101d2611bc0565b506101d2611b96565b506101d2611b6c565b506101d261135b565b506101d2611164565b506101d2610f90565b506101d2610f66565b506101d2610f26565b506101d2610ec8565b506101d2610e9e565b506101d2610e5d565b506101d2610e36565b506101d261081b565b506101d2610763565b506101d261070d565b506101d26106e3565b506101d2610643565b506101d2610516565b506101d26104ec565b506101d26104c2565b506101d2610498565b506101d2610380565b6001600160a01b031690565b6001600160a01b0381160361034157565b600080fd5b610124359061035482610330565b565b610144359061035482610330565b610164359061035482610330565b610184359061035482610330565b5034610341576060366003190112610341576104576004356103a181610330565b600080602435926103b184610330565b6001546001600160a01b0391906103cb90831633146127d9565b1660405193610401856103f3602082019363a9059cbb60e01b85526044359060248401612aeb565b03601f198101875286610592565b826040519561040f87610577565b602087527f5361666545524332303a206c6f772d6c6576656c2063616c6c206661696c65646020880152610445843b1515612b7d565b51925af1610451612bc9565b90612c16565b80518061046057005b81602080610475936100219501019101612b06565b612b1e565b600091031261034157565b6001600160a01b03909116815260200190565b5034610341576000366003190112610341576007546040516001600160a01b039091168152602090f35b5034610341576000366003190112610341576001546040516001600160a01b039091168152602090f35b503461034157600036600319011261034157600b546040516001600160a01b039091168152602090f35b5034610341576000366003190112610341576005546040516001600160a01b039091168152602090f35b50634e487b7160e01b600052604160045260246000fd5b6001600160401b03811161056a57604052565b610572610540565b604052565b604081019081106001600160401b0382111761056a57604052565b601f909101601f19168101906001600160401b0382119082101761056a57604052565b6020906001600160401b0381116105ce575b60051b0190565b6105d6610540565b6105c7565b81601f82011215610341578035916105f2836105b5565b926106006040519485610592565b808452602092838086019260051b820101928311610341578301905b82821061062a575050505090565b838091833561063881610330565b81520191019061061c565b5034610341576020366003190112610341576004356001600160401b038111610341576106749036906004016105db565b61068360026000541415612c9d565b600260005560018060a01b03600180926106a18383541633146127d9565b6000825b6106b1575b6000839055005b81518110156106de57806106d3856106cc6106d89486612da0565b5116613d87565b612d84565b826106a5565b6106aa565b5034610341576000366003190112610341576003546040516001600160a01b039091168152602090f35b50346103415760203660031901126103415761075c60043561072e81610330565b61073d60026000541415612c9d565b600260005561075760018060a01b036001541633146127d9565b613d87565b6001600055005b5034610341576101a03660031901126103415761002160043561078581610330565b60243561079181610330565b60443561079d81610330565b6064356107a981610330565b6084356107b581610330565b60a4356107c181610330565b60c4356107cd81610330565b60e435916107da83610330565b61010435936107e885610330565b6107f0610346565b956107f9610356565b97610802610364565b9961080b610372565b9b61286f565b8015150361034157565b50346103415760e036600319011261034157600480359061083b82610811565b6024359161084883610811565b60443561085481610811565b6064359061086182610811565b6084359061086e82610811565b60a4359261087b84610811565b60c4359461088886610811565b60009761089960028a541415612c9d565b600289558891610d5b575b80610d52575b610d3d575b508691610c62575b80610c59575b610c3e575b50610b44575b6108dd575b826108d86001600055565b604051f35b15610a63576109786108fb6108f66108f6600954610324565b610324565b6040516309f4173d60e11b8082526020928390839081898161092030338d8401613067565b03925af1918215610a56575b8692610a37575b50826109466108f66108f6600b54610324565b604051928352829081898161095e30338d8401613067565b03925af1928315610a2a575b86936109fb575b5050613081565b6109896108f66108f6600254610324565b83813b156109f857604051632e1a7d4d60e01b81529384018381526109cb9492839182908490829060200103925af180156109eb575b6109d2575b5033612f8c565b38806108cd565b806109df6109e592610557565b8061047a565b386109c4565b6109f3612e60565b6109bf565b80fd5b610a1b929350803d10610a23575b610a138183610592565b810190612e16565b903880610971565b503d610a09565b610a32612e60565b61096a565b610a4f919250833d8511610a2357610a138183610592565b9038610933565b610a5e612e60565b61092c565b610ad8610a776108f66108f6600954610324565b604051926309f4173d60e11b80855284602081819795818a8498610a9e33338b8401613067565b03925af18015610b37575b610b1a575b50610ac06108f66108f6600b54610324565b90866040518096819582948352339033908401613067565b03925af18015610b0d575b610aef575b50506109cb565b81610b0592903d10610a2357610a138183610592565b503880610ae8565b610b15612e60565b610ae3565b610b3090843d8611610a2357610a138183610592565b5038610aae565b610b3f612e60565b610aa9565b610b556108f66108f6600854610324565b602060405180926309f4173d60e11b8252818881610b7633338c8401613067565b03925af1908115610c31575b8591610c13575b5080610b96575b506108c8565b84610ba86108f66108f6600954610324565b91610bb4600554610324565b92803b15610c0f57610bdf9383604051809681958294631e42d69b60e21b8452338d33908601612e6d565b03925af18015610c02575b15610b9057806109df610bfc92610557565b38610b90565b610c0a612e60565b610bea565b8280fd5b610c2b915060203d8111610a2357610a138183610592565b38610b89565b610c39612e60565b610b82565b610c5390610c4c8654610324565b3333613fb1565b386108c2565b508015156108bd565b9050610cfc610c786108f66108f6600754610324565b6040516309f4173d60e11b9081815280898b82602096818895938694610ca13333898401613067565b03925af1928315610d30575b8c93610d0f575b50610ce39293610ccb6108f66108f6600a54610324565b908d6040518096819582948352339033908401613067565b03925af1928315610d02575b8a936109fb575050613081565b906108b7565b610d0a612e60565b610cef565b610ce39350610d2a90833d8511610a2357610a138183610592565b92610cb4565b610d38612e60565b610cad565b610d4c90610c4c600354610324565b386108af565b508015156108aa565b9050610df5610d716108f66108f6600d54610324565b60405190816309f4173d60e11b918282528b8d60208481979481848497610d9b33338a8401613067565b03925af1938415610e29575b8194610e08575b50610ddc9394610dc56108f66108f6600e54610324565b916040518096819582948352339033908401613067565b03925af1928315610dfb575b8c936109fb575050613081565b906108a4565b610e03612e60565b610de8565b610ddc9450610e2390843d8611610a2357610a138183610592565b93610dae565b610e31612e60565b610da7565b503461034157600036600319011261034157602060ff60015460a01c166040519015158152f35b503461034157602036600319011261034157610e7e60026000541415612c9d565b600260005560035461075c90600435906001600160a01b03163380613fb1565b5034610341576000366003190112610341576002546040516001600160a01b039091168152602090f35b50346103415760403660031901126103415761075c600435610ee981610330565b610ef860026000541415612c9d565b60026000556001546001600160a01b039190610f1790831633146127d9565b60243591600354169033613fb1565b503461034157602036600319011261034157610f4760026000541415612c9d565b60026000556004805461075c9135906001600160a01b03163380613fb1565b5034610341576000366003190112610341576008546040516001600160a01b039091168152602090f35b5034610341576000806003193601126109f857610fb1600282541415612c9d565b60028155610fc66108f66108f6600954610324565b60405190816309f4173d60e11b918282526020938491818781610fed333360048401613067565b03925af18015611157575b61113a575b5061100f6108f66108f6600b54610324565b826040518092848252818781611029333360048401613067565b03925af1801561112d575b611110575b5061104b6108f66108f6600754610324565b826040518092848252818781611065333360048401613067565b03925af18015611103575b6110e6575b50816110886108f66108f6600a54610324565b60405192835282908186816110a1338060048401613067565b03925af180156110d9575b6110bb57826108d86001600055565b816110d192903d10610a2357610a138183610592565b5038806108cd565b6110e1612e60565b6110ac565b6110fc90833d8511610a2357610a138183610592565b5038611075565b61110b612e60565b611070565b61112690833d8511610a2357610a138183610592565b5038611039565b611135612e60565b611034565b61115090833d8511610a2357610a138183610592565b5038610ffd565b61115f612e60565b610ff8565b50346103415760803660031901126103415760043561118281610330565b6111e3602060243560009361119b600286541415612c9d565b600285556111aa821515612dca565b6111bb6108f66108f6600c54610324565b90856040518096819582946317eb2a1560e01b84526064359160443591333360048801612e25565b03925af190811561134e575b8291611330575b506112086108f66108f6600b54610324565b611213600654610324565b90803b1561132c5783604051809281838161123f89631e42d69b60e21b998a8452333360048601612e6d565b03925af1801561131f575b61130c575b506112616108f66108f6600a54610324565b9061126d600b54610324565b90823b15611308576112989285926112e4968693604051968795869485938452333360048601612e6d565b03925af180156112fb575b6112e8575b5060008051602061481e833981519152604051806112c7843383612aeb565b0390a16112d46001600055565b6040519081529081906020820190565b0390f35b806109df6112f592610557565b386112a8565b611303612e60565b6112a3565b8480fd5b806109df61131992610557565b3861124f565b611327612e60565b61124a565b8380fd5b611348915060203d8111610a2357610a138183610592565b386111f6565b611356612e60565b6111ef565b50346103415760208060031936011261034157600490813561137c81610330565b6000809361138e600283541415612c9d565b600282556113a36108f66108f6600d54610324565b936040946113e2865183816370a0823160e01b9485825281806113c88c8b8301610485565b03915afa908115611b5f575b8691611b42575b501561308d565b61140c6113f66108f66108f6600e54610324565b838851809285825281806113c88c8b8301610485565b8482848860018060a01b039461143d338761143661142989612565565b546001600160a01b031690565b16146130e8565b61145961144986612565565b80546001600160a01b0319169055565b611462336136b0565b61146b85613d87565b61147c6108f66108f6600754610324565b611487600354610324565b90858451809281806114a7878d637aeceb1f60e11b9c8d85528401613067565b03915afa908115611b35575b8b91611b18575b5080611af8575b50506114d46108f66108f6600754610324565b6114f9856114e28b54610324565b8093898d8851958694859384938d85528401613067565b03915afa908115611aeb575b8b91611ace575b5080611aa8575b50506115266108f66108f6600954610324565b611531600554610324565b809186888c61154a885196879384938c85528401613067565b0381845afa928315611a9b575b8c93611a7c575b5082611987575b5050506115e4948491828a6115806108f66108f68354610324565b926115948751958693849384528301610485565b0381845afa91821561197a575b8b9261195b575b50898b8d846118e6575b505050505050506115c4600b54610324565b936115d0600654610324565b918a5180958194829383528c8b8401613067565b039186165afa9283156118d9575b85936118ba575b5050816116dd575b50506116146108f66108f6600d54610324565b92833b15610c0f5784518381630f713c2360e41b9687825281838161163c33898b8401613067565b03925af180156116d0575b6116bd575b5061165e6108f66108f6600e54610324565b90813b1561132c578361167f95875196879586948593845233918401613067565b03925af180156116b0575b61169d575b5061169a6001600055565b51f35b806109df6116aa92610557565b3861168f565b6116b8612e60565b61168a565b806109df6116ca92610557565b3861164c565b6116d8612e60565b611647565b6116ee6108f66108f6600a54610324565b90813b156113085784868593858361171f958c519685889694879593869463098bf59d60e01b9c8d87528601612f2f565b03925af180156118ad575b61189a575b506117416108f66108f6600b54610324565b9061174d600654610324565b90823b1561185657869286928386936117738c51978896879586948552828d8601612f2f565b03925af1801561188d575b61187a575b506117956108f66108f6600b54610324565b6117a0600654610324565b813b1561130857848387936117ce93838b518096819582948c631e42d69b60e21b9b8c865233918601612e6d565b03925af1801561186d575b61185a575b506117f06108f66108f6600a54610324565b916117fc600b54610324565b92803b1561185657611820938680948a5196879586948593845233338c8601612e6d565b03925af18015611849575b611836575b80611601565b806109df61184392610557565b38611830565b611851612e60565b61182b565b8580fd5b806109df61186792610557565b386117de565b611875612e60565b6117d9565b806109df61188792610557565b38611783565b611895612e60565b61177e565b806109df6118a792610557565b3861172f565b6118b5612e60565b61172a565b6118d1929350803d10610a2357610a138183610592565b9038806115f9565b6118e1612e60565b6115f2565b6119059651968795869485936323b872dd60e01b855233918501613140565b03925af1801561194e575b611921575b82818b92898b8d6115b2565b61194090833d8511611947575b6119388183610592565b810190612b06565b5038611915565b503d61192e565b611956612e60565b611910565b611973919250833d8511610a2357610a138183610592565b90386115a8565b611982612e60565b6115a1565b92955092509450803b15611a5857849189918b838b8f836119bb91519889978896879563098bf59d60e01b87528601612f2f565b03925af18015611a6f575b611a5c575b506119dd6108f66108f6600954610324565b6119e8600554610324565b813b15611a5857898794611a1d8b6115e4988f968996838f8a5196879586948593631e42d69b60e21b85528c33918601612e6d565b03925af18015611a4b575b611a38575b829750819350611565565b806109df611a4592610557565b38611a2d565b611a53612e60565b611a28565b8880fd5b806109df611a6992610557565b386119cb565b611a77612e60565b6119c6565b611a94919350873d8911610a2357610a138183610592565b913861155e565b611aa3612e60565b611557565b611ab681611ac7938961415b565b611ac08a54610324565b3388613fb1565b3880611513565b611ae59150863d8811610a2357610a138183610592565b3861150c565b611af3612e60565b611505565b611b0681611b11938961415b565b611ac0600354610324565b38806114c1565b611b2f9150863d8811610a2357610a138183610592565b386114ba565b611b3d612e60565b6114b3565b611b599150843d8611610a2357610a138183610592565b386113db565b611b67612e60565b6113d4565b5034610341576000366003190112610341576009546040516001600160a01b039091168152602090f35b503461034157600036600319011261034157600c546040516001600160a01b039091168152602090f35b5034610341576000366003190112610341576004546040516001600160a01b039091168152602090f35b5034610341576000366003190112610341576006546040516001600160a01b039091168152602090f35b5060408060031936011261034157600090611c33600283541415612c9d565b60028255611c42341515612e98565b611c536108f66108f6600254610324565b9082823b156109f8578151630d0e30db60e41b8152611cc3936004929082908490829034905af18015611ec7575b611eb4575b50611c986108f66108f6600254610324565b611ca3600c54610324565b8351809263095ea7b360e01b82528188816020998a9634908a8401612aeb565b03925af18015611ea7575b611e8a575b508383611d1c611cea6108f66108f6600c54610324565b611cf5600254610324565b86516317eb2a1560e01b81529485938492839190602435908a3590349033308e8801612e25565b03925af1938415611e7d575b8594611e5e575b5050611d426108f66108f6600b54610324565b90611d4e600654610324565b91803b15611856578584518092818381611d788b631e42d69b60e21b9a8b845233338c8601612e6d565b03925af18015611e51575b611e3e575b50611d9a6108f66108f6600a54610324565b90611da6600b54610324565b92823b15611e3a5791859391876112e49894611dd18851978896879586948552339033908601612e6d565b03925af18015611e2d575b611e1a575b5060008051602061481e833981519152815180611dff853383612aeb565b0390a1611e0c6001600055565b519081529081906020820190565b806109df611e2792610557565b38611de1565b611e35612e60565b611ddc565b8680fd5b806109df611e4b92610557565b38611d88565b611e59612e60565b611d83565b611e75929450803d10610a2357610a138183610592565b913880611d2f565b611e85612e60565b611d28565b611ea090843d8611611947576119388183610592565b5038611cd3565b611eaf612e60565b611cce565b806109df611ec192610557565b38611c86565b611ecf612e60565b611c81565b503461034157608036600319011261034157600435611ef281610330565b60643590602435611f0283610330565b600091611f13600284541415612c9d565b60028355611f22821515612ee4565b611f336108f66108f6600a54610324565b611f3e600b54610324565b90803b1561130857846040518092818381611f6b63098bf59d60e01b988983528b33913360048601612f2f565b03925af180156120b7575b6120a4575b50611f8d6108f66108f6600b54610324565b611f98600654610324565b91813b156118565792611fca866020946112e49994612010978360405180968195829483528d33913360048601612f2f565b03925af18015612097575b612084575b50611fec6108f66108f6600c54610324565b90866040518096819582946371d597ad60e01b84528a604435913360048701612f59565b03925af1928315612077575b92612043575b506112c760008051602061485e833981519152916040519182913383612aeb565b60008051602061485e83398151915291925061206f6112c79160203d8111610a2357610a138183610592565b929150612022565b61207f612e60565b61201c565b806109df61209192610557565b38611fda565b61209f612e60565b611fd5565b806109df6120b192610557565b38611f7b565b6120bf612e60565b611f76565b5034610341576020366003190112610341576120e560026000541415612c9d565b600260005560035461075c90600435906001600160a01b031633614313565b503461034157600036600319011261034157600e546040516001600160a01b039091168152602090f35b50346103415760603660031901126103415760443560043561214f82610330565b6000918291612162600284541415612c9d565b60028355612171811515612ee4565b6121826108f66108f6600a54610324565b9161218e600b54610324565b833b156113085760409385855180928183816121bc63098bf59d60e01b988983528b33913360048601612f2f565b03925af18015612372575b61235f575b506121de6108f66108f6600b54610324565b906121ea600654610324565b823b15611e3a5761220f92879283885180968195829483528a33913360048601612f2f565b03925af18015612352575b61233f575b5060206122646122366108f66108f6600c54610324565b612241600254610324565b86519788809481936371d597ad60e01b835230908a602435913360048701612f59565b03925af1938415612332575b8594612312575b506122896108f66108f6600254610324565b803b1561185657916122e685611dff9360008051602061485e833981519152956112e49988518092632e1a7d4d60e01b82528183816122d089600483019190602083019252565b03925af18015612305575b6122f2575b50612f8c565b83519182913383612aeb565b806109df6122ff92610557565b386122e0565b61230d612e60565b6122db565b61232b91945060203d8111610a2357610a138183610592565b9238612277565b61233a612e60565b612270565b806109df61234c92610557565b3861221f565b61235a612e60565b61221a565b806109df61236c92610557565b386121cc565b61237a612e60565b6121c7565b503461034157600036600319011261034157600a546040516001600160a01b039091168152602090f35b503461034157600036600319011261034157600d546040516001600160a01b039091168152602090f35b5034610341576020366003190112610341576004356123f181610330565b600154906001600160a01b039061240b33838516146127d9565b6001600160a01b0319909216911617600155005b50346103415760203660031901126103415761244060026000541415612c9d565b60026000556004805461075c9135906001600160a01b031633614313565b5034610341576000806003193601126109f85761247f600282541415612c9d565b600281556124946108f66108f6600954610324565b60405190816309f4173d60e11b9182825260209384918187816124bb333360048401613067565b03925af180156124fb575b6124de575b50816110886108f66108f6600b54610324565b6124f490833d8511610a2357610a138183610592565b50386124cb565b612503612e60565b6124c6565b5034610341576000806003193601126109f857612529600282541415612c9d565b6002815561253e6108f66108f6600754610324565b60405190816309f4173d60e11b918282526020938491818781611065333360048401613067565b6001600160a01b03166000908152600f6020526040902090565b503461034157602036600319011261034157602060043561259f81610330565b60018060a01b03809116600052600f825260406000205416604051908152f35b503461034157602080600319360112610341576126be9061268d600435916125e683610330565b6125f560026000541415612c9d565b600260005561260b6108f66108f6600d54610324565b61264860405183816370a0823160e01b94858252818061262e3360048301610485565b03915afa9081156126f2575b600091611b4257501561308d565b8161265a6108f66108f6600e54610324565b604051928352829081806126713360048301610485565b03915afa9182156126e5575b6000926126c8575b50501561308d565b612696816136b0565b61269f33612565565b80546001600160a01b0319166001600160a01b03909216919091179055565b6100216001600055565b6126de9250803d10610a2357610a138183610592565b3880612685565b6126ed612e60565b61267d565b6126fa612e60565b61263a565b5034610341576040366003190112610341576001600160401b03600435818111610341576127319036906004016105db565b906024359081116103415736602382011215610341578060040135612755816105b5565b916127636040519384610592565b81835260209160248385019160051b8301019136831161034157602401905b828210612793576100218587612ce9565b81358152908301908301612782565b5034610341576000806003193601126109f8576127c3600282541415612c9d565b600281556127d033613d87565b60018155604051f35b156127e057565b60405162461bcd60e51b815260206004820152601560248201527423b7bb32b93730b136329d103337b93134b23232b760591b6044820152606490fd5b6002546001600160a01b0316330361283157565b60405162461bcd60e51b81526020600482015260166024820152752937baba32b91d1034b73b30b634b21039b2b73232b960511b6044820152606490fd5b91959b9a989497929996909960ff60015461289360018060a01b03821633146127d9565b60a01c16612a9c576103549c6129ae612a589a61298c612a1498612a7a9f6129d096612948612a369e61292661296a946129046129f29e6128e2600160a01b60ff60a01b196001541617600155565b600280546001600160a01b0319166001600160a01b0392909216919091179055565b600380546001600160a01b0319166001600160a01b0392909216919091179055565b600480546001600160a01b0319166001600160a01b0392909216919091179055565b600580546001600160a01b0319166001600160a01b0392909216919091179055565b600680546001600160a01b0319166001600160a01b0392909216919091179055565b600780546001600160a01b0319166001600160a01b0392909216919091179055565b600880546001600160a01b0319166001600160a01b0392909216919091179055565b600980546001600160a01b0319166001600160a01b0392909216919091179055565b600b80546001600160a01b0319166001600160a01b0392909216919091179055565b600a80546001600160a01b0319166001600160a01b0392909216919091179055565b600c80546001600160a01b0319166001600160a01b0392909216919091179055565b600d80546001600160a01b0319166001600160a01b0392909216919091179055565b600e80546001600160a01b0319166001600160a01b0392909216919091179055565b60405162461bcd60e51b815260206004820152602160248201527f526577617264526f757465723a20616c726561647920696e697469616c697a656044820152601960fa1b6064820152608490fd5b6001600160a01b039091168152602081019190915260400190565b908160209103126103415751612b1b81610811565b90565b15612b2557565b60405162461bcd60e51b815260206004820152602a60248201527f5361666545524332303a204552433230206f7065726174696f6e20646964206e6044820152691bdd081cdd58d8d9595960b21b6064820152608490fd5b15612b8457565b60405162461bcd60e51b815260206004820152601d60248201527f416464726573733a2063616c6c20746f206e6f6e2d636f6e74726163740000006044820152606490fd5b3d15612c11573d906001600160401b038211612c04575b60405191612bf8601f8201601f191660200184610592565b82523d6000602084013e565b612c0c610540565b612be0565b606090565b90919015612c22575090565b815115612c325750805190602001fd5b6040519062461bcd60e51b82528160208060048301528251928360248401526000915b848310612c84575050918060449311612c77575b601f01601f19168101030190fd5b6000838284010152612c69565b8183018101518684016044015285935091820191612c55565b15612ca457565b60405162461bcd60e51b815260206004820152601f60248201527f5265656e7472616e637947756172643a207265656e7472616e742063616c6c006044820152606490fd5b90612cf960026000541415612c9d565b600260005560018060a01b0360019281612d18859384541633146127d9565b6003548116916000845b612d32575b505050505050600055565b8151811015612d6857806106d384612d4d612d629486612da0565b511686612d5a848b612da0565b519133613fb1565b84612d22565b612d27565b50634e487b7160e01b600052601160045260246000fd5b6001906000198114612d94570190565b612d9c612d6d565b0190565b8051821015612db45760209160051b010190565b634e487b7160e01b600052603260045260246000fd5b15612dd157565b60405162461bcd60e51b815260206004820152601d60248201527f526577617264526f757465723a20696e76616c6964205f616d6f756e740000006044820152606490fd5b90816020910312610341575190565b6001600160a01b039182168152918116602083015290911660408201526060810191909152608081019190915260a081019190915260c00190565b506040513d6000823e3d90fd5b6001600160a01b03918216815291811660208301529091166040820152606081019190915260800190565b15612e9f57565b60405162461bcd60e51b815260206004820152601f60248201527f526577617264526f757465723a20696e76616c6964206d73672e76616c7565006044820152606490fd5b15612eeb57565b606460405162461bcd60e51b815260206004820152602060248201527f526577617264526f757465723a20696e76616c6964205f766c70416d6f756e746044820152fd5b6001600160a01b039182168152918116602083015260408201929092529116606082015260800190565b6001600160a01b039182168152918116602083015260408201929092526060810192909252909116608082015260a00190565b814710613022576040516000928392839291906001600160a01b03165af1612fb2612bc9565b5015612fba57565b60405162461bcd60e51b815260206004820152603a60248201527f416464726573733a20756e61626c6520746f2073656e642076616c75652c20726044820152791958da5c1a595b9d081b585e481a185d99481c995d995c9d195960321b6064820152608490fd5b60405162461bcd60e51b815260206004820152601d60248201527f416464726573733a20696e73756666696369656e742062616c616e63650000006044820152606490fd5b6001600160a01b0391821681529116602082015260400190565b81198111612d94570190565b1561309457565b60405162461bcd60e51b815260206004820152602660248201527f526577617264526f757465723a2073656e646572206861732076657374656420604482015265746f6b656e7360d01b6064820152608490fd5b156130ef57565b60405162461bcd60e51b8152602060048201526024808201527f526577617264526f757465723a207472616e73666572206e6f74207369676e616044820152631b1b195960e21b6064820152608490fd5b6001600160a01b03918216815291166020820152604081019190915260600190565b1561316957565b60405162461bcd60e51b815260206004820152603960248201526000805160206147de83398151915260448201527802e617665726167655374616b6564416d6f756e7473203e203603c1b6064820152608490fd5b156131c557565b60405162461bcd60e51b815260206004820152603660248201526000805160206147de83398151915260448201527502e63756d756c617469766552657761726473203e20360541b6064820152608490fd5b1561321e57565b60405162461bcd60e51b815260206004820152603860248201526000805160206147fe8339815191526044820152770617665726167655374616b6564416d6f756e7473203e20360441b6064820152608490fd5b1561327957565b60405162461bcd60e51b815260206004820152603560248201526000805160206147fe833981519152604482015274063756d756c617469766552657761726473203e203605c1b6064820152608490fd5b156132d157565b60405162461bcd60e51b815260206004820152603660248201527f526577617264526f757465723a206665655677617665547261636b65722e6176604482015275065726167655374616b6564416d6f756e7473203e20360541b6064820152608490fd5b1561333c57565b60405162461bcd60e51b815260206004820152603360248201527f526577617264526f757465723a206665655677617665547261636b65722e637560448201527206d756c617469766552657761726473203e203606c1b6064820152608490fd5b156133a457565b60405162461bcd60e51b815260206004820152603d60248201526000805160206147be83398151915260448201527f6572726564417665726167655374616b6564416d6f756e7473203e20300000006064820152608490fd5b1561340457565b60405162461bcd60e51b815260206004820152603a60248201526000805160206147be8339815191526044820152790657272656443756d756c617469766552657761726473203e20360341b6064820152608490fd5b1561346157565b60405162461bcd60e51b815260206004820152603760248201527f526577617264526f757465723a207374616b6564566c70547261636b65722e6160448201527607665726167655374616b6564416d6f756e7473203e203604c1b6064820152608490fd5b156134cd57565b60405162461bcd60e51b815260206004820152603460248201527f526577617264526f757465723a207374616b6564566c70547261636b65722e636044820152730756d756c617469766552657761726473203e20360641b6064820152608490fd5b1561353657565b60405162461bcd60e51b815260206004820152603460248201527f526577617264526f757465723a20666565566c70547261636b65722e6176657260448201527306167655374616b6564416d6f756e7473203e20360641b6064820152608490fd5b1561359f57565b60405162461bcd60e51b815260206004820152603160248201527f526577617264526f757465723a20666565566c70547261636b65722e63756d7560448201527006c617469766552657761726473203e203607c1b6064820152608490fd5b1561360557565b60405162461bcd60e51b815260206004820152602560248201527f526577617264526f757465723a2076776176655665737465722e62616c616e63604482015264065203e20360dc1b6064820152608490fd5b1561365f57565b60405162461bcd60e51b815260206004820152602360248201527f526577617264526f757465723a20766c705665737465722e62616c616e63652060448201526203e20360ec1b6064820152608490fd5b613ad66020610354926137446136cd6108f66108f6600754610324565b60405163a318021760e01b815261370a908581806136ee8860048301610485565b0381865afa908115613d7a575b600091613d5d575b5015613162565b836040518092633792def360e01b825281806137298860048301610485565b03915afa908115613d50575b600091613d33575b50156131be565b6137cf6137586108f66108f6600854610324565b60405163a318021760e01b8152613795908581806137798860048301610485565b0381865afa908115613d26575b600091613d09575b5015613217565b836040518092633792def360e01b825281806137b48860048301610485565b03915afa908115613cfc575b600091613cdf575b5015613272565b61385a6137e36108f66108f6600954610324565b60405163a318021760e01b8152613820908581806138048860048301610485565b0381865afa908115613cd2575b600091613cb5575b50156132ca565b836040518092633792def360e01b8252818061383f8860048301610485565b03915afa908115613ca8575b600091613c8b575b5015613335565b61386b6108f66108f6600d54610324565b604051631ccdc0d760e21b81526138a89084818061388c8760048301610485565b0381865afa908115613c7e575b600091613c67575b501561339d565b604051635b8de71560e11b81526138e5908481806138c98760048301610485565b0381865afa908115613c5a575b600091613c43575b50156133fd565b6139706138f96108f66108f6600a54610324565b60405163a318021760e01b81526139369086818061391a8960048301610485565b0381865afa908115613c36575b600091613c19575b501561345a565b846040518092633792def360e01b825281806139558960048301610485565b03915afa908115613c0c575b600091613bef575b50156134c6565b6139fb6139846108f66108f6600b54610324565b60405163a318021760e01b81526139c1908681806139a58960048301610485565b0381865afa908115613be2575b600091613bc5575b501561352f565b846040518092633792def360e01b825281806139e08960048301610485565b03915afa908115613bb8575b600091613b9b575b5015613598565b613a0c6108f66108f6600e54610324565b90613a48604051631ccdc0d760e21b8152858180613a2d8860048301610485565b0381875afa908115613b8e575b600091613b7157501561339d565b604051635b8de71560e11b8152613a8490858180613a698860048301610485565b0381875afa908115613b64575b600091613b475750156133fd565b613ac260405185816370a0823160e01b948582528180613aa78a60048301610485565b03915afa908115613b3a575b600091613b1d575b50156135fe565b604051809581948293835260048301610485565b03915afa908115613b10575b600091613af1575b5015613658565b613b0a915060203d602011610a2357610a138183610592565b38613aea565b613b18612e60565b613ae2565b613b349150863d8811610a2357610a138183610592565b38613abb565b613b42612e60565b613ab3565b613b5e9150863d8811610a2357610a138183610592565b386138de565b613b6c612e60565b613a76565b613b889150863d8811610a2357610a138183610592565b386138a1565b613b96612e60565b613a3a565b613bb29150853d8711610a2357610a138183610592565b386139f4565b613bc0612e60565b6139ec565b613bdc9150873d8911610a2357610a138183610592565b386139ba565b613bea612e60565b6139b2565b613c069150853d8711610a2357610a138183610592565b38613969565b613c14612e60565b613961565b613c309150873d8911610a2357610a138183610592565b3861392f565b613c3e612e60565b613927565b613b5e9150853d8711610a2357610a138183610592565b613c62612e60565b6138d6565b613b889150853d8711610a2357610a138183610592565b613c86612e60565b613899565b613ca29150843d8611610a2357610a138183610592565b38613853565b613cb0612e60565b61384b565b613ccc9150863d8811610a2357610a138183610592565b38613819565b613cda612e60565b613811565b613cf69150843d8611610a2357610a138183610592565b386137c8565b613d04612e60565b6137c0565b613d209150863d8811610a2357610a138183610592565b3861378e565b613d2e612e60565b613786565b613d4a9150843d8611610a2357610a138183610592565b3861373d565b613d58612e60565b613735565b613d749150863d8811610a2357610a138183610592565b38613703565b613d82612e60565b6136fb565b90613d996108f66108f6600754610324565b916040516309f4173d60e11b808252602091828180613dbc878060048401613067565b03816000809a5af1908115613f15575b8691613ef8575b5080613edc575b5081613ded6108f66108f6600854610324565b6040519283528290818881613e06898060048401613067565b03925af1918215613ecf575b8592613eb2575b505080613e2d575b50610354919250613f22565b613e3e6108f66108f6600954610324565b613e49600554610324565b813b1561185657918591613e7a936103549697604051809681958294631e42d69b60e21b84528a8060048601612e6d565b03925af18015613ea5575b613e92575b839250613e21565b806109df613e9f92610557565b38613e8a565b613ead612e60565b613e85565b613ec89250803d10610a2357610a138183610592565b3880613e19565b613ed7612e60565b613e12565b613ef290613eeb600454610324565b8580613fb1565b38613dda565b613f0f9150833d8511610a2357610a138183610592565b38613dd3565b613f1d612e60565b613dcc565b600a546040516309f4173d60e11b81526001600160a01b039290916020908390851681600081613f56878060048401613067565b03925af1918215613fa4575b600092613f84575b5081613f7557505050565b61035492600454169080613fb1565b613f9d91925060203d8111610a2357610a138183610592565b9038613f6a565b613fac612e60565b613f62565b919392613fbf811515612dca565b613fd06108f66108f6600754610324565b92833b1561034157859383604051809281631e42d69b60e21b95868252816140028960009e8f98899560048601612e6d565b03925af1801561414e575b61413b575b506140246108f66108f6600854610324565b86614030600754610324565b823b1561413757614055928591836040518096819582948a84528c8060048601612e6d565b03925af1801561412a575b614117575b506140776108f66108f6600954610324565b90614083600854610324565b90823b156141135796836140ee94936140d193837f8f5347f2afe0e72192e96a89a64cb5498ddb83a57fd518e7616c88c24d69951a9a9b6040519687958694859384528c8060048601612e6d565b03925af18015614106575b6140f3575b5060405193849384613140565b0390a1565b806109df61410092610557565b386140e1565b61410e612e60565b6140dc565b8780fd5b806109df61412492610557565b38614065565b614132612e60565b614060565b5080fd5b806109df61414892610557565b38614012565b614156612e60565b61400d565b9291614168811515612dca565b6141796108f66108f6600754610324565b602060405180926310c1c10360e01b825281806141998a60048301610485565b03915afa8015614306575b6142e8575b506141bb6108f66108f6600954610324565b906141c7600854610324565b823b156103415785928260405180928163098bf59d60e01b95868252816141f860009d8e9788948260048601612f2f565b03925af180156142db575b6142c8575b5061421a6108f66108f6600854610324565b86614226600754610324565b823b156141375761424c9285838893604051968795869485938b85528260048601612f2f565b03925af180156142bb575b6142a8575b5061426e6108f66108f6600754610324565b90813b15611e3a579060008051602061483e83398151915295966140ee939260405192839182528183816140d18a898d8260048601612f2f565b806109df6142b592610557565b3861425c565b6142c3612e60565b614257565b806109df6142d592610557565b38614208565b6142e3612e60565b614203565b6142ff9060203d8111610a2357610a138183610592565b50386141a9565b61430e612e60565b6141a4565b61431e831515612dca565b61432f6108f66108f6600754610324565b9260409384516310c1c10360e01b81526020808260049481806143548a898301610485565b03915afa918215614771575b600092614752575b5061437a6108f66108f6600954610324565b91614386600854610324565b833b1561034157600087869588836143b7958e519685889694879593869463098bf59d60e01b9e8f87528601612f2f565b03925af18015614745575b614732575b506143d96108f66108f6600854610324565b6143e4600754610324565b90803b15610341578760009187838861440b8f8d879151998a988997889687528601612f2f565b03925af18015614725575b614712575b5061442d6108f66108f6600754610324565b803b156103415760008789928783886144548f8d879151998a988997889687528601612f2f565b03925af18015614705575b6146f2575b506144766108f66108f6600854610324565b82895180926309f4173d60e11b8252816000816144968d808d8401613067565b03925af19081156146e5575b6000916146c8575b508061464e575b506144c36108f66108f6600954610324565b906144cf600554610324565b928951637aeceb1f60e11b81528181806144ec888d8c8401613067565b0381875afa918215614641575b600092614624575b50508061452d575b5050505050506140ee9060008051602061483e833981519152945193849384613140565b9061454087614545939b9698979b61477e565b61479d565b94813b15610341576000918983899361456b858b8a51998a988997889687528601612f2f565b03925af18015614617575b614604575b5061458d6108f66108f6600554610324565b803b156103415760006140ee946145ca92878360008051602061483e8339815191529b875196879586948593632770a7eb60e21b85528401612aeb565b03925af180156145f7575b6145e4575b8196839482614509565b806109df6145f192610557565b386145da565b6145ff612e60565b6145d5565b806109df61461192610557565b3861457b565b61461f612e60565b614576565b61463a9250803d10610a2357610a138183610592565b3880614501565b614649612e60565b6144f9565b61465f6108f66108f6600954610324565b61466a600554610324565b91813b15610341576000918983896146988f9584965198899788968795631e42d69b60e21b87528601612e6d565b03925af180156146bb575b156144b157806109df6146b592610557565b386144b1565b6146c3612e60565b6146a3565b6146df9150833d8511610a2357610a138183610592565b386144aa565b6146ed612e60565b6144a2565b806109df6146ff92610557565b38614464565b61470d612e60565b61445f565b806109df61471f92610557565b3861441b565b61472d612e60565b614416565b806109df61473f92610557565b386143c7565b61474d612e60565b6143c2565b8161476a9293503d8411610a2357610a138183610592565b9038614368565b614779612e60565b614360565b8060001904821181151516614791570290565b614799612d6d565b0290565b81156147a7570490565b634e487b7160e01b600052601260045260246000fdfe526577617264526f757465723a2076776176655665737465722e7472616e7366526577617264526f757465723a207374616b65645677617665547261636b6572526577617264526f757465723a20626f6e75735677617665547261636b65722e6de683ebf068b17af2e0b9ddc53d96e0b1067fbf72d1c9a72ae13a729375c38e7d4cb72ddc7d9d13ec1a23b38ef2d23bd8ec23a8234f0c9ceccaca8783fecb61599051324685a158502b8e35e65079c27c2b8937d3ec37ab0b9907e0725d6cbaa2646970667358221220b95431cf0b8a9f6cae81de96bf9fa2351961ceb168b0535f65af379ce52a24f564736f6c634300080e0033",
  "linkReferences": {},
  "deployedLinkReferences": {}
}