{
  "_format": "hh-sol-artifact-1",
  "contractName": "Vault",
  "sourceName": "contracts/core/Vault.sol",
  "abi": [
    {
      "inputs": [],
      "stateMutability": "nonpayable",
      "type": "constructor"
    },
    {
      "inputs": [],
      "name": "AlreadyInitialized",
      "type": "error"
    },
    {
      "inputs": [],
      "name": "InsufficientAmountOut",
      "type": "error"
    },
    {
      "inputs": [],
      "name": "InsufficientLeverage",
      "type": "error"
    },
    {
      "inputs": [],
      "name": "InsufficientPoolAmount",
      "type": "error"
    },
    {
      "inputs": [],
      "name": "InsufficientReserve",
      "type": "error"
    },
    {
      "inputs": [],
      "name": "InvalidAveragePrice",
      "type": "error"
    },
    {
      "inputs": [],
      "name": "InvalidBasisPoints",
      "type": "error"
    },
    {
      "inputs": [],
      "name": "InvalidCollateral",
      "type": "error"
    },
    {
      "inputs": [],
      "name": "InvalidFundingRate",
      "type": "error"
    },
    {
      "inputs": [],
      "name": "InvalidGasPrice",
      "type": "error"
    },
    {
      "inputs": [],
      "name": "InvalidLiquidationState",
      "type": "error"
    },
    {
      "inputs": [],
      "name": "InvalidLiquidator",
      "type": "error"
    },
    {
      "inputs": [],
      "name": "InvalidPositionSize",
      "type": "error"
    },
    {
      "inputs": [],
      "name": "InvalidTokenAmount",
      "type": "error"
    },
    {
      "inputs": [],
      "name": "InvalidTokens",
      "type": "error"
    },
    {
      "inputs": [],
      "name": "InvalidUsdAmount",
      "type": "error"
    },
    {
      "inputs": [],
      "name": "LeverageDisabled",
      "type": "error"
    },
    {
      "inputs": [],
      "name": "MaxShortsExceeded",
      "type": "error"
    },
    {
      "inputs": [],
      "name": "OnlyManager",
      "type": "error"
    },
    {
      "inputs": [],
      "name": "OnlyOwner",
      "type": "error"
    },
    {
      "inputs": [],
      "name": "OnlyRouter",
      "type": "error"
    },
    {
      "inputs": [],
      "name": "SameToken",
      "type": "error"
    },
    {
      "inputs": [],
      "name": "SwapDisabled",
      "type": "error"
    },
    {
      "inputs": [],
      "name": "TokenNotAllowlisted",
      "type": "error"
    },
    {
      "anonymous": false,
      "inputs": [
        {
          "indexed": false,
          "internalType": "address",
          "name": "token",
          "type": "address"
        },
        {
          "indexed": false,
          "internalType": "uint256",
          "name": "tokenAmount",
          "type": "uint256"
        },
        {
          "indexed": false,
          "internalType": "uint256",
          "name": "usdAmount",
          "type": "uint256"
        },
        {
          "indexed": false,
          "internalType": "uint256",
          "name": "feeBasisPoints",
          "type": "uint256"
        }
      ],
      "name": "Buy",
      "type": "event"
    },
    {
      "anonymous": false,
      "inputs": [
        {
          "indexed": false,
          "internalType": "bytes32",
          "name": "key",
          "type": "bytes32"
        },
        {
          "indexed": false,
          "internalType": "uint256",
          "name": "size",
          "type": "uint256"
        },
        {
          "indexed": false,
          "internalType": "uint256",
          "name": "collateral",
          "type": "uint256"
        },
        {
          "indexed": false,
          "internalType": "uint256",
          "name": "averagePrice",
          "type": "uint256"
        },
        {
          "indexed": false,
          "internalType": "uint256",
          "name": "entryFundingRate",
          "type": "uint256"
        },
        {
          "indexed": false,
          "internalType": "uint256",
          "name": "reserveAmount",
          "type": "uint256"
        },
        {
          "indexed": false,
          "internalType": "int256",
          "name": "realisedPnl",
          "type": "int256"
        }
      ],
      "name": "ClosePosition",
      "type": "event"
    },
    {
      "anonymous": false,
      "inputs": [
        {
          "indexed": false,
          "internalType": "address",
          "name": "token",
          "type": "address"
        },
        {
          "indexed": false,
          "internalType": "uint256",
          "name": "feeUsd",
          "type": "uint256"
        },
        {
          "indexed": false,
          "internalType": "uint256",
          "name": "feeTokens",
          "type": "uint256"
        }
      ],
      "name": "CollectMarginFees",
      "type": "event"
    },
    {
      "anonymous": false,
      "inputs": [
        {
          "indexed": false,
          "internalType": "address",
          "name": "token",
          "type": "address"
        },
        {
          "indexed": false,
          "internalType": "uint256",
          "name": "feeUsd",
          "type": "uint256"
        },
        {
          "indexed": false,
          "internalType": "uint256",
          "name": "feeTokens",
          "type": "uint256"
        }
      ],
      "name": "CollectSwapFees",
      "type": "event"
    },
    {
      "anonymous": false,
      "inputs": [
        {
          "indexed": false,
          "internalType": "address",
          "name": "token",
          "type": "address"
        },
        {
          "indexed": false,
          "internalType": "uint256",
          "name": "amount",
          "type": "uint256"
        }
      ],
      "name": "DecreaseGuaranteedUsd",
      "type": "event"
    },
    {
      "anonymous": false,
      "inputs": [
        {
          "indexed": false,
          "internalType": "address",
          "name": "token",
          "type": "address"
        },
        {
          "indexed": false,
          "internalType": "uint256",
          "name": "amount",
          "type": "uint256"
        }
      ],
      "name": "DecreasePoolAmount",
      "type": "event"
    },
    {
      "anonymous": false,
      "inputs": [
        {
          "indexed": false,
          "internalType": "bytes32",
          "name": "key",
          "type": "bytes32"
        },
        {
          "indexed": false,
          "internalType": "address",
          "name": "account",
          "type": "address"
        },
        {
          "indexed": false,
          "internalType": "address",
          "name": "collateralToken",
          "type": "address"
        },
        {
          "indexed": false,
          "internalType": "address",
          "name": "indexToken",
          "type": "address"
        },
        {
          "indexed": false,
          "internalType": "uint256",
          "name": "collateralDelta",
          "type": "uint256"
        },
        {
          "indexed": false,
          "internalType": "uint256",
          "name": "sizeDelta",
          "type": "uint256"
        },
        {
          "indexed": false,
          "internalType": "bool",
          "name": "isLong",
          "type": "bool"
        },
        {
          "indexed": false,
          "internalType": "uint256",
          "name": "price",
          "type": "uint256"
        },
        {
          "indexed": false,
          "internalType": "uint256",
          "name": "fee",
          "type": "uint256"
        }
      ],
      "name": "DecreasePosition",
      "type": "event"
    },
    {
      "anonymous": false,
      "inputs": [
        {
          "indexed": false,
          "internalType": "address",
          "name": "token",
          "type": "address"
        },
        {
          "indexed": false,
          "internalType": "uint256",
          "name": "amount",
          "type": "uint256"
        }
      ],
      "name": "DecreaseReservedAmount",
      "type": "event"
    },
    {
      "anonymous": false,
      "inputs": [
        {
          "indexed": false,
          "internalType": "address",
          "name": "token",
          "type": "address"
        },
        {
          "indexed": false,
          "internalType": "uint256",
          "name": "amount",
          "type": "uint256"
        }
      ],
      "name": "DirectPoolDeposit",
      "type": "event"
    },
    {
      "anonymous": false,
      "inputs": [
        {
          "indexed": false,
          "internalType": "address",
          "name": "token",
          "type": "address"
        },
        {
          "indexed": false,
          "internalType": "uint256",
          "name": "amount",
          "type": "uint256"
        }
      ],
      "name": "IncreaseGuaranteedUsd",
      "type": "event"
    },
    {
      "anonymous": false,
      "inputs": [
        {
          "indexed": false,
          "internalType": "address",
          "name": "token",
          "type": "address"
        },
        {
          "indexed": false,
          "internalType": "uint256",
          "name": "amount",
          "type": "uint256"
        }
      ],
      "name": "IncreasePoolAmount",
      "type": "event"
    },
    {
      "anonymous": false,
      "inputs": [
        {
          "indexed": false,
          "internalType": "bytes32",
          "name": "key",
          "type": "bytes32"
        },
        {
          "indexed": false,
          "internalType": "address",
          "name": "account",
          "type": "address"
        },
        {
          "indexed": false,
          "internalType": "address",
          "name": "collateralToken",
          "type": "address"
        },
        {
          "indexed": false,
          "internalType": "address",
          "name": "indexToken",
          "type": "address"
        },
        {
          "indexed": false,
          "internalType": "uint256",
          "name": "collateralDelta",
          "type": "uint256"
        },
        {
          "indexed": false,
          "internalType": "uint256",
          "name": "sizeDelta",
          "type": "uint256"
        },
        {
          "indexed": false,
          "internalType": "bool",
          "name": "isLong",
          "type": "bool"
        },
        {
          "indexed": false,
          "internalType": "uint256",
          "name": "price",
          "type": "uint256"
        },
        {
          "indexed": false,
          "internalType": "uint256",
          "name": "fee",
          "type": "uint256"
        }
      ],
      "name": "IncreasePosition",
      "type": "event"
    },
    {
      "anonymous": false,
      "inputs": [
        {
          "indexed": false,
          "internalType": "address",
          "name": "token",
          "type": "address"
        },
        {
          "indexed": false,
          "internalType": "uint256",
          "name": "amount",
          "type": "uint256"
        }
      ],
      "name": "IncreaseReservedAmount",
      "type": "event"
    },
    {
      "anonymous": false,
      "inputs": [
        {
          "indexed": false,
          "internalType": "bytes32",
          "name": "key",
          "type": "bytes32"
        },
        {
          "indexed": false,
          "internalType": "address",
          "name": "account",
          "type": "address"
        },
        {
          "indexed": false,
          "internalType": "address",
          "name": "collateralToken",
          "type": "address"
        },
        {
          "indexed": false,
          "internalType": "address",
          "name": "indexToken",
          "type": "address"
        },
        {
          "indexed": false,
          "internalType": "bool",
          "name": "isLong",
          "type": "bool"
        },
        {
          "indexed": false,
          "internalType": "uint256",
          "name": "size",
          "type": "uint256"
        },
        {
          "indexed": false,
          "internalType": "uint256",
          "name": "collateral",
          "type": "uint256"
        },
        {
          "indexed": false,
          "internalType": "uint256",
          "name": "reserveAmount",
          "type": "uint256"
        },
        {
          "indexed": false,
          "internalType": "int256",
          "name": "realisedPnl",
          "type": "int256"
        },
        {
          "indexed": false,
          "internalType": "uint256",
          "name": "markPrice",
          "type": "uint256"
        }
      ],
      "name": "LiquidatePosition",
      "type": "event"
    },
    {
      "anonymous": false,
      "inputs": [
        {
          "indexed": false,
          "internalType": "address",
          "name": "account",
          "type": "address"
        },
        {
          "indexed": false,
          "internalType": "address",
          "name": "token",
          "type": "address"
        },
        {
          "indexed": false,
          "internalType": "uint256",
          "name": "usdAmount",
          "type": "uint256"
        },
        {
          "indexed": false,
          "internalType": "uint256",
          "name": "tokenAmount",
          "type": "uint256"
        },
        {
          "indexed": false,
          "internalType": "uint256",
          "name": "feeBasisPoints",
          "type": "uint256"
        }
      ],
      "name": "Sell",
      "type": "event"
    },
    {
      "anonymous": false,
      "inputs": [
        {
          "indexed": false,
          "internalType": "address",
          "name": "account",
          "type": "address"
        },
        {
          "indexed": false,
          "internalType": "address",
          "name": "tokenIn",
          "type": "address"
        },
        {
          "indexed": false,
          "internalType": "address",
          "name": "tokenOut",
          "type": "address"
        },
        {
          "indexed": false,
          "internalType": "uint256",
          "name": "amountIn",
          "type": "uint256"
        },
        {
          "indexed": false,
          "internalType": "uint256",
          "name": "amountOut",
          "type": "uint256"
        },
        {
          "indexed": false,
          "internalType": "uint256",
          "name": "amountOutAfterFees",
          "type": "uint256"
        },
        {
          "indexed": false,
          "internalType": "uint256",
          "name": "feeBasisPoints",
          "type": "uint256"
        }
      ],
      "name": "Swap",
      "type": "event"
    },
    {
      "anonymous": false,
      "inputs": [
        {
          "indexed": false,
          "internalType": "address",
          "name": "token",
          "type": "address"
        },
        {
          "indexed": false,
          "internalType": "uint256",
          "name": "fundingRate",
          "type": "uint256"
        }
      ],
      "name": "UpdateFundingRate",
      "type": "event"
    },
    {
      "anonymous": false,
      "inputs": [
        {
          "indexed": false,
          "internalType": "bytes32",
          "name": "key",
          "type": "bytes32"
        },
        {
          "indexed": false,
          "internalType": "bool",
          "name": "hasProfit",
          "type": "bool"
        },
        {
          "indexed": false,
          "internalType": "uint256",
          "name": "delta",
          "type": "uint256"
        }
      ],
      "name": "UpdatePnl",
      "type": "event"
    },
    {
      "anonymous": false,
      "inputs": [
        {
          "indexed": false,
          "internalType": "bytes32",
          "name": "key",
          "type": "bytes32"
        },
        {
          "indexed": false,
          "internalType": "uint256",
          "name": "size",
          "type": "uint256"
        },
        {
          "indexed": false,
          "internalType": "uint256",
          "name": "collateral",
          "type": "uint256"
        },
        {
          "indexed": false,
          "internalType": "uint256",
          "name": "averagePrice",
          "type": "uint256"
        },
        {
          "indexed": false,
          "internalType": "uint256",
          "name": "entryFundingRate",
          "type": "uint256"
        },
        {
          "indexed": false,
          "internalType": "uint256",
          "name": "reserveAmount",
          "type": "uint256"
        },
        {
          "indexed": false,
          "internalType": "int256",
          "name": "realisedPnl",
          "type": "int256"
        },
        {
          "indexed": false,
          "internalType": "uint256",
          "name": "markPrice",
          "type": "uint256"
        }
      ],
      "name": "UpdatePosition",
      "type": "event"
    },
    {
      "inputs": [],
      "name": "BASIS_POINTS_DIVISOR",
      "outputs": [
        {
          "internalType": "uint16",
          "name": "",
          "type": "uint16"
        }
      ],
      "stateMutability": "view",
      "type": "function"
    },
    {
      "inputs": [],
      "name": "FUNDING_RATE_PRECISION",
      "outputs": [
        {
          "internalType": "uint32",
          "name": "",
          "type": "uint32"
        }
      ],
      "stateMutability": "view",
      "type": "function"
    },
    {
      "inputs": [],
      "name": "MAX_FEE_BASIS_POINTS",
      "outputs": [
        {
          "internalType": "uint16",
          "name": "",
          "type": "uint16"
        }
      ],
      "stateMutability": "view",
      "type": "function"
    },
    {
      "inputs": [],
      "name": "MAX_FUNDING_RATE_FACTOR",
      "outputs": [
        {
          "internalType": "uint16",
          "name": "",
          "type": "uint16"
        }
      ],
      "stateMutability": "view",
      "type": "function"
    },
    {
      "inputs": [],
      "name": "MAX_LIQUIDATION_FEE_USD",
      "outputs": [
        {
          "internalType": "uint128",
          "name": "",
          "type": "uint128"
        }
      ],
      "stateMutability": "view",
      "type": "function"
    },
    {
      "inputs": [],
      "name": "MIN_FUNDING_RATE_INTERVAL",
      "outputs": [
        {
          "internalType": "uint16",
          "name": "",
          "type": "uint16"
        }
      ],
      "stateMutability": "view",
      "type": "function"
    },
    {
      "inputs": [],
      "name": "MIN_LEVERAGE",
      "outputs": [
        {
          "internalType": "uint16",
          "name": "",
          "type": "uint16"
        }
      ],
      "stateMutability": "view",
      "type": "function"
    },
    {
      "inputs": [],
      "name": "PRICE_PRECISION",
      "outputs": [
        {
          "internalType": "uint128",
          "name": "",
          "type": "uint128"
        }
      ],
      "stateMutability": "view",
      "type": "function"
    },
    {
      "inputs": [
        {
          "internalType": "address",
          "name": "_router",
          "type": "address"
        }
      ],
      "name": "addRouter",
      "outputs": [],
      "stateMutability": "nonpayable",
      "type": "function"
    },
    {
      "inputs": [
        {
          "internalType": "uint256",
          "name": "",
          "type": "uint256"
        }
      ],
      "name": "allAllowlistedTokens",
      "outputs": [
        {
          "internalType": "address",
          "name": "",
          "type": "address"
        }
      ],
      "stateMutability": "view",
      "type": "function"
    },
    {
      "inputs": [],
      "name": "allAllowlistedTokensLength",
      "outputs": [
        {
          "internalType": "uint256",
          "name": "",
          "type": "uint256"
        }
      ],
      "stateMutability": "view",
      "type": "function"
    },
    {
      "inputs": [],
      "name": "allowlistedTokenCount",
      "outputs": [
        {
          "internalType": "uint256",
          "name": "",
          "type": "uint256"
        }
      ],
      "stateMutability": "view",
      "type": "function"
    },
    {
      "inputs": [
        {
          "internalType": "address",
          "name": "",
          "type": "address"
        }
      ],
      "name": "allowlistedTokens",
      "outputs": [
        {
          "internalType": "bool",
          "name": "",
          "type": "bool"
        }
      ],
      "stateMutability": "view",
      "type": "function"
    },
    {
      "inputs": [
        {
          "internalType": "address",
          "name": "",
          "type": "address"
        },
        {
          "internalType": "address",
          "name": "",
          "type": "address"
        }
      ],
      "name": "approvedRouters",
      "outputs": [
        {
          "internalType": "bool",
          "name": "",
          "type": "bool"
        }
      ],
      "stateMutability": "view",
      "type": "function"
    },
    {
      "inputs": [
        {
          "internalType": "address",
          "name": "",
          "type": "address"
        }
      ],
      "name": "bufferAmounts",
      "outputs": [
        {
          "internalType": "uint256",
          "name": "",
          "type": "uint256"
        }
      ],
      "stateMutability": "view",
      "type": "function"
    },
    {
      "inputs": [
        {
          "internalType": "address",
          "name": "_token",
          "type": "address"
        }
      ],
      "name": "buy",
      "outputs": [
        {
          "internalType": "uint256",
          "name": "",
          "type": "uint256"
        }
      ],
      "stateMutability": "nonpayable",
      "type": "function"
    },
    {
      "inputs": [
        {
          "internalType": "address",
          "name": "_token",
          "type": "address"
        }
      ],
      "name": "clearTokenConfig",
      "outputs": [],
      "stateMutability": "nonpayable",
      "type": "function"
    },
    {
      "inputs": [
        {
          "internalType": "address",
          "name": "",
          "type": "address"
        }
      ],
      "name": "cumulativeFundingRates",
      "outputs": [
        {
          "internalType": "uint256",
          "name": "",
          "type": "uint256"
        }
      ],
      "stateMutability": "view",
      "type": "function"
    },
    {
      "inputs": [
        {
          "internalType": "address",
          "name": "_account",
          "type": "address"
        },
        {
          "internalType": "address",
          "name": "_collateralToken",
          "type": "address"
        },
        {
          "internalType": "address",
          "name": "_indexToken",
          "type": "address"
        },
        {
          "internalType": "uint256",
          "name": "_collateralDelta",
          "type": "uint256"
        },
        {
          "internalType": "uint256",
          "name": "_sizeDelta",
          "type": "uint256"
        },
        {
          "internalType": "bool",
          "name": "_isLong",
          "type": "bool"
        },
        {
          "internalType": "address",
          "name": "_receiver",
          "type": "address"
        }
      ],
      "name": "decreasePosition",
      "outputs": [
        {
          "internalType": "uint256",
          "name": "",
          "type": "uint256"
        }
      ],
      "stateMutability": "nonpayable",
      "type": "function"
    },
    {
      "inputs": [
        {
          "internalType": "address",
          "name": "_token",
          "type": "address"
        }
      ],
      "name": "directPoolDeposit",
      "outputs": [],
      "stateMutability": "nonpayable",
      "type": "function"
    },
    {
      "inputs": [
        {
          "internalType": "address",
          "name": "",
          "type": "address"
        }
      ],
      "name": "feeReserves",
      "outputs": [
        {
          "internalType": "uint256",
          "name": "",
          "type": "uint256"
        }
      ],
      "stateMutability": "view",
      "type": "function"
    },
    {
      "inputs": [],
      "name": "fundingInterval",
      "outputs": [
        {
          "internalType": "uint256",
          "name": "",
          "type": "uint256"
        }
      ],
      "stateMutability": "view",
      "type": "function"
    },
    {
      "inputs": [],
      "name": "fundingRateFactor",
      "outputs": [
        {
          "internalType": "uint256",
          "name": "",
          "type": "uint256"
        }
      ],
      "stateMutability": "view",
      "type": "function"
    },
    {
      "inputs": [
        {
          "internalType": "address",
          "name": "_indexToken",
          "type": "address"
        },
        {
          "internalType": "uint256",
          "name": "_size",
          "type": "uint256"
        },
        {
          "internalType": "uint256",
          "name": "_averagePrice",
          "type": "uint256"
        },
        {
          "internalType": "bool",
          "name": "_isLong",
          "type": "bool"
        },
        {
          "internalType": "uint256",
          "name": "_lastIncreasedTime",
          "type": "uint256"
        }
      ],
      "name": "getDelta",
      "outputs": [
        {
          "internalType": "bool",
          "name": "",
          "type": "bool"
        },
        {
          "internalType": "uint256",
          "name": "",
          "type": "uint256"
        }
      ],
      "stateMutability": "view",
      "type": "function"
    },
    {
      "inputs": [
        {
          "internalType": "address",
          "name": "_collateralToken",
          "type": "address"
        },
        {
          "internalType": "address",
          "name": "_indexToken",
          "type": "address"
        },
        {
          "internalType": "bool",
          "name": "_isLong",
          "type": "bool"
        }
      ],
      "name": "getEntryFundingRate",
      "outputs": [
        {
          "internalType": "uint256",
          "name": "",
          "type": "uint256"
        }
      ],
      "stateMutability": "view",
      "type": "function"
    },
    {
      "inputs": [
        {
          "internalType": "address",
          "name": "_token",
          "type": "address"
        },
        {
          "internalType": "uint256",
          "name": "_usdDelta",
          "type": "uint256"
        },
        {
          "internalType": "uint256",
          "name": "_feeBasisPoints",
          "type": "uint256"
        },
        {
          "internalType": "uint256",
          "name": "_taxBasisPoints",
          "type": "uint256"
        },
        {
          "internalType": "bool",
          "name": "_increment",
          "type": "bool"
        }
      ],
      "name": "getFeeBasisPoints",
      "outputs": [
        {
          "internalType": "uint256",
          "name": "",
          "type": "uint256"
        }
      ],
      "stateMutability": "view",
      "type": "function"
    },
    {
      "inputs": [
        {
          "internalType": "address",
          "name": "_account",
          "type": "address"
        },
        {
          "internalType": "address",
          "name": "_collateralToken",
          "type": "address"
        },
        {
          "internalType": "address",
          "name": "_indexToken",
          "type": "address"
        },
        {
          "internalType": "bool",
          "name": "_isLong",
          "type": "bool"
        },
        {
          "internalType": "uint256",
          "name": "_size",
          "type": "uint256"
        },
        {
          "internalType": "uint256",
          "name": "_entryFundingRate",
          "type": "uint256"
        }
      ],
      "name": "getFundingFee",
      "outputs": [
        {
          "internalType": "uint256",
          "name": "",
          "type": "uint256"
        }
      ],
      "stateMutability": "view",
      "type": "function"
    },
    {
      "inputs": [
        {
          "internalType": "address",
          "name": "_token",
          "type": "address"
        }
      ],
      "name": "getGlobalShortDelta",
      "outputs": [
        {
          "internalType": "bool",
          "name": "",
          "type": "bool"
        },
        {
          "internalType": "uint256",
          "name": "",
          "type": "uint256"
        }
      ],
      "stateMutability": "view",
      "type": "function"
    },
    {
      "inputs": [
        {
          "internalType": "address",
          "name": "_token",
          "type": "address"
        }
      ],
      "name": "getMaxPrice",
      "outputs": [
        {
          "internalType": "uint256",
          "name": "",
          "type": "uint256"
        }
      ],
      "stateMutability": "view",
      "type": "function"
    },
    {
      "inputs": [
        {
          "internalType": "address",
          "name": "_token",
          "type": "address"
        }
      ],
      "name": "getMinPrice",
      "outputs": [
        {
          "internalType": "uint256",
          "name": "",
          "type": "uint256"
        }
      ],
      "stateMutability": "view",
      "type": "function"
    },
    {
      "inputs": [
        {
          "internalType": "address",
          "name": "_indexToken",
          "type": "address"
        },
        {
          "internalType": "uint256",
          "name": "_size",
          "type": "uint256"
        },
        {
          "internalType": "uint256",
          "name": "_averagePrice",
          "type": "uint256"
        },
        {
          "internalType": "bool",
          "name": "_isLong",
          "type": "bool"
        },
        {
          "internalType": "uint256",
          "name": "_nextPrice",
          "type": "uint256"
        },
        {
          "internalType": "uint256",
          "name": "_sizeDelta",
          "type": "uint256"
        },
        {
          "internalType": "uint256",
          "name": "_lastIncreasedTime",
          "type": "uint256"
        }
      ],
      "name": "getNextAveragePrice",
      "outputs": [
        {
          "internalType": "uint256",
          "name": "",
          "type": "uint256"
        }
      ],
      "stateMutability": "view",
      "type": "function"
    },
    {
      "inputs": [
        {
          "internalType": "address",
          "name": "_token",
          "type": "address"
        }
      ],
      "name": "getNextFundingRate",
      "outputs": [
        {
          "internalType": "uint256",
          "name": "",
          "type": "uint256"
        }
      ],
      "stateMutability": "view",
      "type": "function"
    },
    {
      "inputs": [
        {
          "internalType": "address",
          "name": "_indexToken",
          "type": "address"
        },
        {
          "internalType": "uint256",
          "name": "_nextPrice",
          "type": "uint256"
        },
        {
          "internalType": "uint256",
          "name": "_sizeDelta",
          "type": "uint256"
        }
      ],
      "name": "getNextGlobalShortAveragePrice",
      "outputs": [
        {
          "internalType": "uint256",
          "name": "",
          "type": "uint256"
        }
      ],
      "stateMutability": "view",
      "type": "function"
    },
    {
      "inputs": [
        {
          "internalType": "address",
          "name": "_account",
          "type": "address"
        },
        {
          "internalType": "address",
          "name": "_collateralToken",
          "type": "address"
        },
        {
          "internalType": "address",
          "name": "_indexToken",
          "type": "address"
        },
        {
          "internalType": "bool",
          "name": "_isLong",
          "type": "bool"
        }
      ],
      "name": "getPosition",
      "outputs": [
        {
          "internalType": "uint256",
          "name": "",
          "type": "uint256"
        },
        {
          "internalType": "uint256",
          "name": "",
          "type": "uint256"
        },
        {
          "internalType": "uint256",
          "name": "",
          "type": "uint256"
        },
        {
          "internalType": "uint256",
          "name": "",
          "type": "uint256"
        },
        {
          "internalType": "uint256",
          "name": "",
          "type": "uint256"
        },
        {
          "internalType": "uint256",
          "name": "",
          "type": "uint256"
        },
        {
          "internalType": "bool",
          "name": "",
          "type": "bool"
        },
        {
          "internalType": "uint256",
          "name": "",
          "type": "uint256"
        }
      ],
      "stateMutability": "view",
      "type": "function"
    },
    {
      "inputs": [
        {
          "internalType": "address",
          "name": "_account",
          "type": "address"
        },
        {
          "internalType": "address",
          "name": "_collateralToken",
          "type": "address"
        },
        {
          "internalType": "address",
          "name": "_indexToken",
          "type": "address"
        },
        {
          "internalType": "bool",
          "name": "_isLong",
          "type": "bool"
        }
      ],
      "name": "getPositionDelta",
      "outputs": [
        {
          "internalType": "bool",
          "name": "",
          "type": "bool"
        },
        {
          "internalType": "uint256",
          "name": "",
          "type": "uint256"
        }
      ],
      "stateMutability": "view",
      "type": "function"
    },
    {
      "inputs": [
        {
          "internalType": "address",
          "name": "_account",
          "type": "address"
        },
        {
          "internalType": "address",
          "name": "_collateralToken",
          "type": "address"
        },
        {
          "internalType": "address",
          "name": "_indexToken",
          "type": "address"
        },
        {
          "internalType": "bool",
          "name": "_isLong",
          "type": "bool"
        },
        {
          "internalType": "uint256",
          "name": "_sizeDelta",
          "type": "uint256"
        }
      ],
      "name": "getPositionFee",
      "outputs": [
        {
          "internalType": "uint256",
          "name": "",
          "type": "uint256"
        }
      ],
      "stateMutability": "view",
      "type": "function"
    },
    {
      "inputs": [
        {
          "internalType": "address",
          "name": "_account",
          "type": "address"
        },
        {
          "internalType": "address",
          "name": "_collateralToken",
          "type": "address"
        },
        {
          "internalType": "address",
          "name": "_indexToken",
          "type": "address"
        },
        {
          "internalType": "bool",
          "name": "_isLong",
          "type": "bool"
        }
      ],
      "name": "getPositionKey",
      "outputs": [
        {
          "internalType": "bytes32",
          "name": "",
          "type": "bytes32"
        }
      ],
      "stateMutability": "pure",
      "type": "function"
    },
    {
      "inputs": [
        {
          "internalType": "address",
          "name": "_account",
          "type": "address"
        },
        {
          "internalType": "address",
          "name": "_collateralToken",
          "type": "address"
        },
        {
          "internalType": "address",
          "name": "_indexToken",
          "type": "address"
        },
        {
          "internalType": "bool",
          "name": "_isLong",
          "type": "bool"
        }
      ],
      "name": "getPositionLeverage",
      "outputs": [
        {
          "internalType": "uint256",
          "name": "",
          "type": "uint256"
        }
      ],
      "stateMutability": "view",
      "type": "function"
    },
    {
      "inputs": [
        {
          "internalType": "address",
          "name": "_token",
          "type": "address"
        },
        {
          "internalType": "uint256",
          "name": "_usdAmount",
          "type": "uint256"
        }
      ],
      "name": "getRedemptionAmount",
      "outputs": [
        {
          "internalType": "uint256",
          "name": "redemptionAmount",
          "type": "uint256"
        }
      ],
      "stateMutability": "view",
      "type": "function"
    },
    {
      "inputs": [
        {
          "internalType": "address",
          "name": "_token",
          "type": "address"
        }
      ],
      "name": "getRedemptionCollateral",
      "outputs": [
        {
          "internalType": "uint256",
          "name": "",
          "type": "uint256"
        }
      ],
      "stateMutability": "view",
      "type": "function"
    },
    {
      "inputs": [
        {
          "internalType": "address",
          "name": "_token",
          "type": "address"
        }
      ],
      "name": "getRedemptionCollateralUsd",
      "outputs": [
        {
          "internalType": "uint256",
          "name": "",
          "type": "uint256"
        }
      ],
      "stateMutability": "view",
      "type": "function"
    },
    {
      "inputs": [
        {
          "internalType": "address",
          "name": "_token",
          "type": "address"
        }
      ],
      "name": "getTargetUsdAmount",
      "outputs": [
        {
          "internalType": "uint256",
          "name": "",
          "type": "uint256"
        }
      ],
      "stateMutability": "view",
      "type": "function"
    },
    {
      "inputs": [
        {
          "internalType": "address",
          "name": "_token",
          "type": "address"
        }
      ],
      "name": "getTokenAum",
      "outputs": [
        {
          "internalType": "uint256",
          "name": "",
          "type": "uint256"
        }
      ],
      "stateMutability": "view",
      "type": "function"
    },
    {
      "inputs": [
        {
          "internalType": "address",
          "name": "_token",
          "type": "address"
        }
      ],
      "name": "getUtilisation",
      "outputs": [
        {
          "internalType": "uint256",
          "name": "",
          "type": "uint256"
        }
      ],
      "stateMutability": "view",
      "type": "function"
    },
    {
      "inputs": [
        {
          "internalType": "address",
          "name": "",
          "type": "address"
        }
      ],
      "name": "globalShortAveragePrices",
      "outputs": [
        {
          "internalType": "uint256",
          "name": "",
          "type": "uint256"
        }
      ],
      "stateMutability": "view",
      "type": "function"
    },
    {
      "inputs": [
        {
          "internalType": "address",
          "name": "",
          "type": "address"
        }
      ],
      "name": "globalShortSizes",
      "outputs": [
        {
          "internalType": "uint256",
          "name": "",
          "type": "uint256"
        }
      ],
      "stateMutability": "view",
      "type": "function"
    },
    {
      "inputs": [
        {
          "internalType": "address",
          "name": "",
          "type": "address"
        }
      ],
      "name": "guaranteedUsd",
      "outputs": [
        {
          "internalType": "uint256",
          "name": "",
          "type": "uint256"
        }
      ],
      "stateMutability": "view",
      "type": "function"
    },
    {
      "inputs": [],
      "name": "hasDynamicFees",
      "outputs": [
        {
          "internalType": "bool",
          "name": "",
          "type": "bool"
        }
      ],
      "stateMutability": "view",
      "type": "function"
    },
    {
      "inputs": [],
      "name": "inPrivateLiquidationMode",
      "outputs": [
        {
          "internalType": "bool",
          "name": "",
          "type": "bool"
        }
      ],
      "stateMutability": "view",
      "type": "function"
    },
    {
      "inputs": [],
      "name": "includeAmmPrice",
      "outputs": [
        {
          "internalType": "bool",
          "name": "",
          "type": "bool"
        }
      ],
      "stateMutability": "view",
      "type": "function"
    },
    {
      "inputs": [
        {
          "internalType": "address",
          "name": "_account",
          "type": "address"
        },
        {
          "internalType": "address",
          "name": "_collateralToken",
          "type": "address"
        },
        {
          "internalType": "address",
          "name": "_indexToken",
          "type": "address"
        },
        {
          "internalType": "uint256",
          "name": "_sizeDelta",
          "type": "uint256"
        },
        {
          "internalType": "bool",
          "name": "_isLong",
          "type": "bool"
        }
      ],
      "name": "increasePosition",
      "outputs": [],
      "stateMutability": "nonpayable",
      "type": "function"
    },
    {
      "inputs": [
        {
          "internalType": "address",
          "name": "_router",
          "type": "address"
        },
        {
          "internalType": "address",
          "name": "_priceFeed",
          "type": "address"
        },
        {
          "internalType": "uint256",
          "name": "_liquidationFeeUsd",
          "type": "uint256"
        },
        {
          "internalType": "uint256",
          "name": "_fundingRateFactor",
          "type": "uint256"
        },
        {
          "internalType": "uint256",
          "name": "_stableFundingRateFactor",
          "type": "uint256"
        }
      ],
      "name": "initialize",
      "outputs": [],
      "stateMutability": "nonpayable",
      "type": "function"
    },
    {
      "inputs": [],
      "name": "isInitialized",
      "outputs": [
        {
          "internalType": "bool",
          "name": "",
          "type": "bool"
        }
      ],
      "stateMutability": "view",
      "type": "function"
    },
    {
      "inputs": [],
      "name": "isLeverageEnabled",
      "outputs": [
        {
          "internalType": "bool",
          "name": "",
          "type": "bool"
        }
      ],
      "stateMutability": "view",
      "type": "function"
    },
    {
      "inputs": [
        {
          "internalType": "address",
          "name": "",
          "type": "address"
        }
      ],
      "name": "isLiquidator",
      "outputs": [
        {
          "internalType": "bool",
          "name": "",
          "type": "bool"
        }
      ],
      "stateMutability": "view",
      "type": "function"
    },
    {
      "inputs": [
        {
          "internalType": "address",
          "name": "",
          "type": "address"
        }
      ],
      "name": "isManager",
      "outputs": [
        {
          "internalType": "bool",
          "name": "",
          "type": "bool"
        }
      ],
      "stateMutability": "view",
      "type": "function"
    },
    {
      "inputs": [],
      "name": "isSwapEnabled",
      "outputs": [
        {
          "internalType": "bool",
          "name": "",
          "type": "bool"
        }
      ],
      "stateMutability": "view",
      "type": "function"
    },
    {
      "inputs": [
        {
          "internalType": "address",
          "name": "",
          "type": "address"
        }
      ],
      "name": "lastFundingTimes",
      "outputs": [
        {
          "internalType": "uint256",
          "name": "",
          "type": "uint256"
        }
      ],
      "stateMutability": "view",
      "type": "function"
    },
    {
      "inputs": [
        {
          "internalType": "address",
          "name": "_account",
          "type": "address"
        },
        {
          "internalType": "address",
          "name": "_collateralToken",
          "type": "address"
        },
        {
          "internalType": "address",
          "name": "_indexToken",
          "type": "address"
        },
        {
          "internalType": "bool",
          "name": "_isLong",
          "type": "bool"
        },
        {
          "internalType": "address",
          "name": "_feeReceiver",
          "type": "address"
        }
      ],
      "name": "liquidatePosition",
      "outputs": [],
      "stateMutability": "nonpayable",
      "type": "function"
    },
    {
      "inputs": [],
      "name": "liquidationFeeUsd",
      "outputs": [
        {
          "internalType": "uint256",
          "name": "",
          "type": "uint256"
        }
      ],
      "stateMutability": "view",
      "type": "function"
    },
    {
      "inputs": [],
      "name": "marginFeeBasisPoints",
      "outputs": [
        {
          "internalType": "uint256",
          "name": "",
          "type": "uint256"
        }
      ],
      "stateMutability": "view",
      "type": "function"
    },
    {
      "inputs": [],
      "name": "maxGasPrice",
      "outputs": [
        {
          "internalType": "uint256",
          "name": "",
          "type": "uint256"
        }
      ],
      "stateMutability": "view",
      "type": "function"
    },
    {
      "inputs": [
        {
          "internalType": "address",
          "name": "",
          "type": "address"
        }
      ],
      "name": "maxGlobalShortSizes",
      "outputs": [
        {
          "internalType": "uint256",
          "name": "",
          "type": "uint256"
        }
      ],
      "stateMutability": "view",
      "type": "function"
    },
    {
      "inputs": [],
      "name": "maxLeverage",
      "outputs": [
        {
          "internalType": "uint256",
          "name": "",
          "type": "uint256"
        }
      ],
      "stateMutability": "view",
      "type": "function"
    },
    {
      "inputs": [
        {
          "internalType": "address",
          "name": "",
          "type": "address"
        }
      ],
      "name": "maxUsdAmounts",
      "outputs": [
        {
          "internalType": "uint256",
          "name": "",
          "type": "uint256"
        }
      ],
      "stateMutability": "view",
      "type": "function"
    },
    {
      "inputs": [
        {
          "internalType": "address",
          "name": "",
          "type": "address"
        }
      ],
      "name": "minProfitBasisPoints",
      "outputs": [
        {
          "internalType": "uint256",
          "name": "",
          "type": "uint256"
        }
      ],
      "stateMutability": "view",
      "type": "function"
    },
    {
      "inputs": [],
      "name": "minProfitTime",
      "outputs": [
        {
          "internalType": "uint256",
          "name": "",
          "type": "uint256"
        }
      ],
      "stateMutability": "view",
      "type": "function"
    },
    {
      "inputs": [],
      "name": "mintBurnFeeBasisPoints",
      "outputs": [
        {
          "internalType": "uint256",
          "name": "",
          "type": "uint256"
        }
      ],
      "stateMutability": "view",
      "type": "function"
    },
    {
      "inputs": [],
      "name": "owner",
      "outputs": [
        {
          "internalType": "address",
          "name": "",
          "type": "address"
        }
      ],
      "stateMutability": "view",
      "type": "function"
    },
    {
      "inputs": [
        {
          "internalType": "address",
          "name": "",
          "type": "address"
        }
      ],
      "name": "poolAmounts",
      "outputs": [
        {
          "internalType": "uint256",
          "name": "",
          "type": "uint256"
        }
      ],
      "stateMutability": "view",
      "type": "function"
    },
    {
      "inputs": [
        {
          "internalType": "bytes32",
          "name": "",
          "type": "bytes32"
        }
      ],
      "name": "positions",
      "outputs": [
        {
          "internalType": "uint256",
          "name": "size",
          "type": "uint256"
        },
        {
          "internalType": "uint256",
          "name": "collateral",
          "type": "uint256"
        },
        {
          "internalType": "uint256",
          "name": "averagePrice",
          "type": "uint256"
        },
        {
          "internalType": "uint256",
          "name": "entryFundingRate",
          "type": "uint256"
        },
        {
          "internalType": "uint256",
          "name": "reserveAmount",
          "type": "uint256"
        },
        {
          "internalType": "int256",
          "name": "realisedPnl",
          "type": "int256"
        },
        {
          "internalType": "uint256",
          "name": "lastIncreasedTime",
          "type": "uint256"
        }
      ],
      "stateMutability": "view",
      "type": "function"
    },
    {
      "inputs": [],
      "name": "priceFeed",
      "outputs": [
        {
          "internalType": "address",
          "name": "",
          "type": "address"
        }
      ],
      "stateMutability": "view",
      "type": "function"
    },
    {
      "inputs": [
        {
          "internalType": "address",
          "name": "_router",
          "type": "address"
        }
      ],
      "name": "removeRouter",
      "outputs": [],
      "stateMutability": "nonpayable",
      "type": "function"
    },
    {
      "inputs": [
        {
          "internalType": "address",
          "name": "",
          "type": "address"
        }
      ],
      "name": "reservedAmounts",
      "outputs": [
        {
          "internalType": "uint256",
          "name": "",
          "type": "uint256"
        }
      ],
      "stateMutability": "view",
      "type": "function"
    },
    {
      "inputs": [],
      "name": "router",
      "outputs": [
        {
          "internalType": "address",
          "name": "",
          "type": "address"
        }
      ],
      "stateMutability": "view",
      "type": "function"
    },
    {
      "inputs": [
        {
          "internalType": "address",
          "name": "_token",
          "type": "address"
        },
        {
          "internalType": "address",
          "name": "_receiver",
          "type": "address"
        },
        {
          "internalType": "uint256",
          "name": "_usdAmount",
          "type": "uint256"
        }
      ],
      "name": "sell",
      "outputs": [
        {
          "internalType": "uint256",
          "name": "",
          "type": "uint256"
        }
      ],
      "stateMutability": "nonpayable",
      "type": "function"
    },
    {
      "inputs": [
        {
          "internalType": "address",
          "name": "_token",
          "type": "address"
        },
        {
          "internalType": "uint256",
          "name": "_amount",
          "type": "uint256"
        }
      ],
      "name": "setBufferAmount",
      "outputs": [],
      "stateMutability": "nonpayable",
      "type": "function"
    },
    {
      "inputs": [
        {
          "internalType": "uint256",
          "name": "_taxBasisPoints",
          "type": "uint256"
        },
        {
          "internalType": "uint256",
          "name": "_stableTaxBasisPoints",
          "type": "uint256"
        },
        {
          "internalType": "uint256",
          "name": "_mintBurnFeeBasisPoints",
          "type": "uint256"
        },
        {
          "internalType": "uint256",
          "name": "_swapFeeBasisPoints",
          "type": "uint256"
        },
        {
          "internalType": "uint256",
          "name": "_stableSwapFeeBasisPoints",
          "type": "uint256"
        },
        {
          "internalType": "uint256",
          "name": "_marginFeeBasisPoints",
          "type": "uint256"
        },
        {
          "internalType": "uint256",
          "name": "_liquidationFeeUsd",
          "type": "uint256"
        },
        {
          "internalType": "uint256",
          "name": "_minProfitTime",
          "type": "uint256"
        },
        {
          "internalType": "bool",
          "name": "_hasDynamicFees",
          "type": "bool"
        }
      ],
      "name": "setFees",
      "outputs": [],
      "stateMutability": "nonpayable",
      "type": "function"
    },
    {
      "inputs": [
        {
          "internalType": "uint256",
          "name": "_fundingInterval",
          "type": "uint256"
        },
        {
          "internalType": "uint256",
          "name": "_fundingRateFactor",
          "type": "uint256"
        },
        {
          "internalType": "uint256",
          "name": "_stableFundingRateFactor",
          "type": "uint256"
        }
      ],
      "name": "setFundingRate",
      "outputs": [],
      "stateMutability": "nonpayable",
      "type": "function"
    },
    {
      "inputs": [
        {
          "internalType": "bool",
          "name": "_inPrivateLiquidationMode",
          "type": "bool"
        }
      ],
      "name": "setInPrivateLiquidationMode",
      "outputs": [],
      "stateMutability": "nonpayable",
      "type": "function"
    },
    {
      "inputs": [
        {
          "internalType": "bool",
          "name": "_isLeverageEnabled",
          "type": "bool"
        }
      ],
      "name": "setIsLeverageEnabled",
      "outputs": [],
      "stateMutability": "nonpayable",
      "type": "function"
    },
    {
      "inputs": [
        {
          "internalType": "bool",
          "name": "_isSwapEnabled",
          "type": "bool"
        }
      ],
      "name": "setIsSwapEnabled",
      "outputs": [],
      "stateMutability": "nonpayable",
      "type": "function"
    },
    {
      "inputs": [
        {
          "internalType": "address",
          "name": "_liquidator",
          "type": "address"
        },
        {
          "internalType": "bool",
          "name": "_isActive",
          "type": "bool"
        }
      ],
      "name": "setLiquidator",
      "outputs": [],
      "stateMutability": "nonpayable",
      "type": "function"
    },
    {
      "inputs": [
        {
          "internalType": "address",
          "name": "_manager",
          "type": "address"
        },
        {
          "internalType": "bool",
          "name": "_isManager",
          "type": "bool"
        }
      ],
      "name": "setManager",
      "outputs": [],
      "stateMutability": "nonpayable",
      "type": "function"
    },
    {
      "inputs": [
        {
          "internalType": "uint256",
          "name": "_maxGasPrice",
          "type": "uint256"
        }
      ],
      "name": "setMaxGasPrice",
      "outputs": [],
      "stateMutability": "nonpayable",
      "type": "function"
    },
    {
      "inputs": [
        {
          "internalType": "address",
          "name": "_token",
          "type": "address"
        },
        {
          "internalType": "uint256",
          "name": "_amount",
          "type": "uint256"
        }
      ],
      "name": "setMaxGlobalShortSize",
      "outputs": [],
      "stateMutability": "nonpayable",
      "type": "function"
    },
    {
      "inputs": [
        {
          "internalType": "uint256",
          "name": "_maxLeverage",
          "type": "uint256"
        }
      ],
      "name": "setMaxLeverage",
      "outputs": [],
      "stateMutability": "nonpayable",
      "type": "function"
    },
    {
      "inputs": [
        {
          "internalType": "address",
          "name": "_token",
          "type": "address"
        },
        {
          "internalType": "uint256",
          "name": "_amount",
          "type": "uint256"
        }
      ],
      "name": "setMaxUsdAmount",
      "outputs": [],
      "stateMutability": "nonpayable",
      "type": "function"
    },
    {
      "inputs": [
        {
          "internalType": "address",
          "name": "_owner",
          "type": "address"
        }
      ],
      "name": "setOwner",
      "outputs": [],
      "stateMutability": "nonpayable",
      "type": "function"
    },
    {
      "inputs": [
        {
          "internalType": "address",
          "name": "_priceFeed",
          "type": "address"
        }
      ],
      "name": "setPriceFeed",
      "outputs": [],
      "stateMutability": "nonpayable",
      "type": "function"
    },
    {
      "inputs": [
        {
          "internalType": "address",
          "name": "_token",
          "type": "address"
        },
        {
          "internalType": "uint256",
          "name": "_tokenDecimals",
          "type": "uint256"
        },
        {
          "internalType": "uint256",
          "name": "_tokenWeight",
          "type": "uint256"
        },
        {
          "internalType": "uint256",
          "name": "_minProfitBps",
          "type": "uint256"
        },
        {
          "internalType": "bool",
          "name": "_isStable",
          "type": "bool"
        },
        {
          "internalType": "bool",
          "name": "_isShortable",
          "type": "bool"
        }
      ],
      "name": "setTokenConfig",
      "outputs": [],
      "stateMutability": "nonpayable",
      "type": "function"
    },
    {
      "inputs": [
        {
          "internalType": "contract IVaultUtils",
          "name": "_vaultUtils",
          "type": "address"
        }
      ],
      "name": "setVaultUtils",
      "outputs": [],
      "stateMutability": "nonpayable",
      "type": "function"
    },
    {
      "inputs": [
        {
          "internalType": "address",
          "name": "",
          "type": "address"
        }
      ],
      "name": "shortableTokens",
      "outputs": [
        {
          "internalType": "bool",
          "name": "",
          "type": "bool"
        }
      ],
      "stateMutability": "view",
      "type": "function"
    },
    {
      "inputs": [],
      "name": "stableFundingRateFactor",
      "outputs": [
        {
          "internalType": "uint256",
          "name": "",
          "type": "uint256"
        }
      ],
      "stateMutability": "view",
      "type": "function"
    },
    {
      "inputs": [],
      "name": "stableSwapFeeBasisPoints",
      "outputs": [
        {
          "internalType": "uint256",
          "name": "",
          "type": "uint256"
        }
      ],
      "stateMutability": "view",
      "type": "function"
    },
    {
      "inputs": [],
      "name": "stableTaxBasisPoints",
      "outputs": [
        {
          "internalType": "uint256",
          "name": "",
          "type": "uint256"
        }
      ],
      "stateMutability": "view",
      "type": "function"
    },
    {
      "inputs": [
        {
          "internalType": "address",
          "name": "",
          "type": "address"
        }
      ],
      "name": "stableTokens",
      "outputs": [
        {
          "internalType": "bool",
          "name": "",
          "type": "bool"
        }
      ],
      "stateMutability": "view",
      "type": "function"
    },
    {
      "inputs": [
        {
          "internalType": "address",
          "name": "_tokenIn",
          "type": "address"
        },
        {
          "internalType": "address",
          "name": "_tokenOut",
          "type": "address"
        },
        {
          "internalType": "address",
          "name": "_receiver",
          "type": "address"
        }
      ],
      "name": "swap",
      "outputs": [
        {
          "internalType": "uint256",
          "name": "amountOutAfterFees",
          "type": "uint256"
        }
      ],
      "stateMutability": "nonpayable",
      "type": "function"
    },
    {
      "inputs": [],
      "name": "swapFeeBasisPoints",
      "outputs": [
        {
          "internalType": "uint256",
          "name": "",
          "type": "uint256"
        }
      ],
      "stateMutability": "view",
      "type": "function"
    },
    {
      "inputs": [],
      "name": "taxBasisPoints",
      "outputs": [
        {
          "internalType": "uint256",
          "name": "",
          "type": "uint256"
        }
      ],
      "stateMutability": "view",
      "type": "function"
    },
    {
      "inputs": [
        {
          "internalType": "address",
          "name": "",
          "type": "address"
        }
      ],
      "name": "tokenBalances",
      "outputs": [
        {
          "internalType": "uint256",
          "name": "",
          "type": "uint256"
        }
      ],
      "stateMutability": "view",
      "type": "function"
    },
    {
      "inputs": [
        {
          "internalType": "address",
          "name": "",
          "type": "address"
        }
      ],
      "name": "tokenDecimals",
      "outputs": [
        {
          "internalType": "uint256",
          "name": "",
          "type": "uint256"
        }
      ],
      "stateMutability": "view",
      "type": "function"
    },
    {
      "inputs": [
        {
          "internalType": "address",
          "name": "_token",
          "type": "address"
        },
        {
          "internalType": "uint256",
          "name": "_tokenAmount",
          "type": "uint256"
        }
      ],
      "name": "tokenToUsdMin",
      "outputs": [
        {
          "internalType": "uint256",
          "name": "",
          "type": "uint256"
        }
      ],
      "stateMutability": "view",
      "type": "function"
    },
    {
      "inputs": [
        {
          "internalType": "address",
          "name": "",
          "type": "address"
        }
      ],
      "name": "tokenWeights",
      "outputs": [
        {
          "internalType": "uint256",
          "name": "",
          "type": "uint256"
        }
      ],
      "stateMutability": "view",
      "type": "function"
    },
    {
      "inputs": [],
      "name": "totalTokenWeights",
      "outputs": [
        {
          "internalType": "uint256",
          "name": "",
          "type": "uint256"
        }
      ],
      "stateMutability": "view",
      "type": "function"
    },
    {
      "inputs": [
        {
          "internalType": "address",
          "name": "_collateralToken",
          "type": "address"
        },
        {
          "internalType": "address",
          "name": "_indexToken",
          "type": "address"
        }
      ],
      "name": "updateCumulativeFundingRate",
      "outputs": [],
      "stateMutability": "nonpayable",
      "type": "function"
    },
    {
      "inputs": [
        {
          "internalType": "address",
          "name": "_newVault",
          "type": "address"
        },
        {
          "internalType": "address",
          "name": "_token",
          "type": "address"
        },
        {
          "internalType": "uint256",
          "name": "_amount",
          "type": "uint256"
        }
      ],
      "name": "upgradeVault",
      "outputs": [],
      "stateMutability": "nonpayable",
      "type": "function"
    },
    {
      "inputs": [
        {
          "internalType": "address",
          "name": "_token",
          "type": "address"
        },
        {
          "internalType": "uint256",
          "name": "_usdAmount",
          "type": "uint256"
        },
        {
          "internalType": "uint256",
          "name": "_price",
          "type": "uint256"
        }
      ],
      "name": "usdToToken",
      "outputs": [
        {
          "internalType": "uint256",
          "name": "",
          "type": "uint256"
        }
      ],
      "stateMutability": "view",
      "type": "function"
    },
    {
      "inputs": [
        {
          "internalType": "address",
          "name": "_token",
          "type": "address"
        },
        {
          "internalType": "uint256",
          "name": "_usdAmount",
          "type": "uint256"
        }
      ],
      "name": "usdToTokenMax",
      "outputs": [
        {
          "internalType": "uint256",
          "name": "",
          "type": "uint256"
        }
      ],
      "stateMutability": "view",
      "type": "function"
    },
    {
      "inputs": [
        {
          "internalType": "address",
          "name": "_token",
          "type": "address"
        },
        {
          "internalType": "uint256",
          "name": "_usdAmount",
          "type": "uint256"
        }
      ],
      "name": "usdToTokenMin",
      "outputs": [
        {
          "internalType": "uint256",
          "name": "",
          "type": "uint256"
        }
      ],
      "stateMutability": "view",
      "type": "function"
    },
    {
      "inputs": [
        {
          "internalType": "address",
          "name": "_account",
          "type": "address"
        },
        {
          "internalType": "address",
          "name": "_collateralToken",
          "type": "address"
        },
        {
          "internalType": "address",
          "name": "_indexToken",
          "type": "address"
        },
        {
          "internalType": "bool",
          "name": "_isLong",
          "type": "bool"
        },
        {
          "internalType": "bool",
          "name": "_raise",
          "type": "bool"
        }
      ],
      "name": "validateLiquidation",
      "outputs": [
        {
          "internalType": "uint256",
          "name": "",
          "type": "uint256"
        },
        {
          "internalType": "uint256",
          "name": "",
          "type": "uint256"
        }
      ],
      "stateMutability": "view",
      "type": "function"
    },
    {
      "inputs": [],
      "name": "vaultUtils",
      "outputs": [
        {
          "internalType": "contract IVaultUtils",
          "name": "",
          "type": "address"
        }
      ],
      "stateMutability": "view",
      "type": "function"
    },
    {
      "inputs": [
        {
          "internalType": "address",
          "name": "_token",
          "type": "address"
        },
        {
          "internalType": "address",
          "name": "_receiver",
          "type": "address"
        }
      ],
      "name": "withdrawFees",
      "outputs": [
        {
          "internalType": "uint256",
          "name": "",
          "type": "uint256"
        }
      ],
      "stateMutability": "nonpayable",
      "type": "function"
    }
  ],
  "bytecode": "0x608080604052346100755760016000556201010062ffff001960015416176001556207a12060065560326008556014600955601e600a55601e600b556004600c55600a600d55610e10601055600160ff1960145416176014553260018060a01b031960045416176004556152d6908161007b8239f35b600080fdfe6101c0604052600436101561001357600080fd5b600060e08135811c90816304fef1db14612b7957816307c5875214612b505781630a48d5a914612b2857816310eb56c214612b0a578163126082cf146116e3578163134ca63b14612aec57816313af403514612aa7578163174d269414612a89578163181e210e14612a635781631ce9cb8f14612a2a57816324ca984e146129e157816329ff9615146129b35781632c668ec11461298b5781632d4b05761461297757816330455ede1461293b578163318bc6891461291d578163336e94d3146127ae57816334c1557d146116e3578163351a964d14612788578163392e53cd146127655781633de39c11146127475781633e72a2621461272157816340eb38021461261f57816342b60b03146125e05781634453a3741461259957816345a6f3701461251457816348d91abf1461200f5781634a3f088d14611f1a5781634a993ee914611ee15781634befe2ca14611ec45781634d47b30414611ea65781634dc2b33e14611e4a578163514ea4bf14611de057816351723e8214611d3d578163523fba7f14611d04578163529a356f14611cc557816352f55eed14611c8c5781635c07eaab14611c565781635e73fe4914611bc45781635f7bc11914611b265781636092219914611ad25781636274980314611a99578163631aa0dd14611a5a5781636abbe0c814611a2d5781636ae0b154146119e85781636be6026b146119ca57816371089f4d14611971578163724e78da1461192c578163741bef1a146119035781637a210a2b146118e55781637a6b22fc146118c15781637c2eb9f71461188357816381a612d61461185f57816382a08490146117d45781638585f4d21461179557816388b1fbdf1461175c5781638a27d468146116ee5781638a39735a146116e35781638a78daa8146116aa5781638da5cb5b146116815781638ee573ac1461164857816393316212146113c857816395082d25146113a05781639698d25a146113675781639849e412146113495781639899cd02146113215781639d7432ca146113075781639f392eb3146112e4578163a22f2392146112c6578163a42ab3d21461129e578163a5e90eee14611257578163a93acac214611233578163ab08c1c614611210578163ab2f3ad4146111d8578163ae3302c2146111ba578163b136ca4914611196578163b1cc53ab1461115b578163b364accb14611125578163be7951c414611107578163c3c7b9e9146110ce578163c4f718bf146110b0578163c65bc7b114611077578163c7e074c314610fad578163c9f4cbbf14610f8f578163cae270b614610e24578163cea0c32814610dfa578163d13f90b414610d67578163d2fa635e14610d44578163d3127e6314610d06578163d54d5a9f14610c12578163d8f897c314610bd9578163d9ac422514610bbb578163da76524c14610b75578163db3555fb14610b36578163db97495f14610af757508063dc8f5fac14610ad9578063de2ea94814610a6e578063df73a26714610a50578063dfeb464214610a12578063e124e6d2146109ee578063e178084d146109b5578063e67f59a7146108d5578063efa10a6e14610897578063f07456ce1461085e578063f07bbf7714610822578063f088d54714610642578063f255527814610615578063f3ae2415146105d6578063f887ea40146105ad578063fa12dbc014610593578063fbfded6d14610565578063fce28c10146105485763fdaf6ac3146104fd575b600080fd5b346105455760a036600319011261054557602061053d61051b612b9d565b610523612bb3565b61052b612bc9565b610533612c39565b9160843593613dbb565b604051908152f35b80fd5b50346105455780600319360112610545576020604051610e108152f35b503461054557604036600319011261054557610590610582612b9d565b61058a612bb3565b90613581565b80f35b503461054557602061053d6105a736612c92565b9161398b565b50346105455780600319360112610545576002546040516001600160a01b039091168152602090f35b50346105455760203660031901126105455760209060ff906040906001600160a01b03610601612b9d565b168152601884522054166040519015158152f35b503461054557604036600319011261054557602061053d610634612b9d565b61063c612bb3565b90612d32565b503461054557602090816003193601126105455761065e612b9d565b61066c600283541415613050565b6002825561067861517e565b6001600160a01b03818116808452601a8552604084205491939160ff1615610810576106a383614bdc565b9384156107fe576106b48480613581565b6106bd846137ff565b946106e56106cb87836130b3565b848652601b89526106df60408720546130c6565b906130d4565b9182156107ed5761071592889160015460181c166040518080968194637397dead60e11b83528b60048401612d76565b03915afa9182156107e25784926107b0575b509181836107918761078c6107858c601b61077361076c60809b60019f9d7fbeae048c6d270d9469f86cf6e8fedda3c60ad770f16c24c9fc131c8e9a09101d9e614aeb565b9e8f6130b3565b91898d52526106df60408c20546130c6565b9a82614cf9565b615130565b604051928352888301528660408301526060820152a155604051908152f35b9150918682813d83116107db575b6107c88183612dd5565b810103126104f857905190916001610727565b503d6107be565b6040513d86823e3d90fd5b60405162ca38af60e31b8152600490fd5b604051632160733960e01b8152600490fd5b60405163175d4d3160e11b8152600490fd5b50346105455760203660031901126105455761083c612bfd565b610844615158565b61ff0060145491151560081b169061ff0019161760145580f35b5034610545576020366003190112610545576020906040906001600160a01b03610886612b9d565b168152602583522054604051908152f35b5034610545576040366003190112610545576108b1612b9d565b6108b9615158565b6001600160a01b03168152602c60205260408120602435905580f35b5034610545576020806003193601126109b1576108f0612b9d565b6108f8615158565b6001600160a01b0316808352601a8252604083205460ff16156108105761092c601354828552838052604085205490612d02565b6013558252601a8152601e604083209160ff1992838154169055601b81526000604085205580805260006040852055601c8152600060408520556021815260006040852055601d8152604084208381541690555260408220908154169055600554801561099d576000190160055580f35b634e487b7160e01b82526011600452602482fd5b5080fd5b5034610545576020366003190112610545576020906040906001600160a01b036109dd612b9d565b168152602183522054604051908152f35b503461054557602036600319011261054557602061053d610a0d612b9d565b61377b565b503461054557604036600319011261054557610a2c612b9d565b610a34615158565b6001600160a01b03168152602160205260408120602435905580f35b50346105455780600319360112610545576020600c54604051908152f35b50346105455760a036600319011261054557610a88612b9d565b610a90612bb3565b610a98612bc9565b610aa0612c39565b608435929091906001600160a01b03841684036104f857610ad294610ac9600288541415613050565b60028755613212565b6001815580f35b50346105455780600319360112610545576020601354604051908152f35b9050346109b15736600319011261054557602061053d610b15612b9d565b610b1d612c39565b60c4359160a43591608435916044359060243590613ac0565b82346105455760203660031901126105455760209060ff906040906001600160a01b03610b61612b9d565b168152601e84522054166040519015158152f35b82346105455760c036600319011261054557602061053d610b94612b9d565b610b9c612bb3565b90610ba5612bc9565b610bad612c39565b9060a4359360843593613d56565b82346105455780600319360112610545576020600e54604051908152f35b8234610545576020366003190112610545576020906040906001600160a01b03610c01612b9d565b168152602783522054604051908152f35b82346105455760a036600319011261054557610c2c612b9d565b6040610c36612bb3565b9160a4610c41612bc9565b91610c4a612c39565b92610c53612c0c565b600154865163d54d5a9f60e01b81526001600160a01b03948516600482015297841660248901529183166044880152931515606487015292151560848601528492839160189190911c165afa8015610cfa576000908190610cbf575b6040809350519182526020820152f35b50906040813d604011610cf2575b81610cda60409383612dd5565b810103126109b1576040915060208151910151610caf565b3d9150610ccd565b6040513d6000823e3d90fd5b823461054557602036600319011261054557600435610d23615158565b6127108110610d325760065580f35b60405163c63b7d3d60e01b8152600490fd5b823461054557602036600319011261054557610d5e615158565b60043560155580f35b82346105455760a036600319011261054557610d81612b9d565b610d89612bb3565b610d91615158565b60015460ff8116610de95760ff191660019081179055600280546001600160a01b03199081166001600160a01b0394851617909155600380549091169190921617905560443560075560643560115560843560125580f35b60405162dc149f60e41b8152600490fd5b823461054557610590610e0c36612cbc565b9190610e16615158565b6001600160a01b0316612df8565b823461054557610e3336612cbc565b919092610e44600282541415613050565b60028155610e5061517e565b60018060a01b0380831692838352602095601a875260ff604085205416156108105785156107ed57610e828280613581565b610e8c8683613855565b80156107fe57610e9c8184614de8565b8360015460181c1690886040518093632b1080f360e11b82528180610ec58d8a60048401612d76565b03915afa918215610f84578692610f53575b5081610ee39185614aeb565b968715610f41576001967f01fbb57444511e3de5b26ac09ad6bec45c3f9a1e59dd4a0f2b13a240d18476ce95610f1c858b60a098614c74565b604051941684528984015260408301528660608301526080820152a155604051908152f35b604051637294b85560e11b8152600490fd5b9091508881813d8311610f7d575b610f6b8183612dd5565b810103126104f8575190610ee3610ed7565b503d610f61565b6040513d88823e3d90fd5b82346105455780600319360112610545576020600554604051908152f35b82346105455760a036600319011261054557610fc7612b9d565b906020610fd2612c0c565b60015460405163c7e074c360e01b81526001600160a01b03958616600482015260248035908201526044803590820152606480359082015291151560848301529093849160a491839160181c165afa90811561106b5790611039575b602090604051908152f35b506020813d8211611063575b8161105260209383612dd5565b810103126104f8576020905161102e565b3d9150611045565b604051903d90823e3d90fd5b8234610545576020366003190112610545576020906040906001600160a01b0361109f612b9d565b168152602683522054604051908152f35b82346105455780600319360112610545576020601154604051908152f35b8234610545576020366003190112610545576020906040906001600160a01b036110f6612b9d565b168152602383522054604051908152f35b82346105455780600319360112610545576020601954604051908152f35b823461054557602036600319011261054557611147611142612b9d565b613ba9565b604080519215158352602083019190915290f35b823461054557606036600319011261054557611175612b9d565b61117d612bb3565b9060443580151581036104f85760209261053d92613d02565b823461054557602036600319011261054557602061053d6111b5612b9d565b6138ae565b82346105455780600319360112610545576020600654604051908152f35b8234610545576020366003190112610545576020906040906001600160a01b03611200612b9d565b1681528280522054604051908152f35b8234610545578060031936011261054557602060ff601454166040519015158152f35b823461054557602036600319011261054557602061053d611252612b9d565b6139bd565b823461054557604036600319011261054557610590611274612b9d565b61127c612c2a565b90611285615158565b6001600160a01b03168352601860205260408320612cf1565b823461054557604036600319011261054557602061053d6112bd612b9d565b60243590613965565b82346105455780600319360112610545576020600b54604051908152f35b8234610545578060031936011261054557602060ff600f54166040519015158152f35b823461054557602061053d61131b36612c92565b91613b28565b823461054557604036600319011261054557602061053d611340612b9d565b60243590613978565b82346105455780600319360112610545576020601054604051908152f35b8234610545576020366003190112610545576020906040906001600160a01b0361138f612b9d565b168152602c83522054604051908152f35b823461054557806003193601126105455760405168327cb2734119d3b7a9601e1b8152602090f35b9050346109b15760603660031901126109b1576113e3612b9d565b906113ec612bb3565b926113f5612bc9565b93611404600283541415613050565b6002825560ff60015460081c16156116365760018060a01b039283851695868452602096601a885260ff604086205416158015611622575b61081057858416808214611610576114548880613581565b61145e8580613581565b61146788614bdc565b80156107fe5785916114e96114d56114ce8a601b8f8f6114be61149361148d8d936137ff565b9b61377b565b6114b96114a08d8d6130b3565b8b88528686526114b360408920546130c6565b906130b3565b6130d4565b9352526106df60408d20546130c6565b94846130b3565b858a52601b8d526106df60408b20546130c6565b938b8a60015460181c1695606460405180988193636d099c0b60e11b835286600484015287602484015260448301525afa9485156116055789956115d6575b5061154c61153786868b614aeb565b9b6115428582614cf9565b61078c868b614de8565b81895260228c52604089205460248d5260408a2054116115c457600199611595878d7f0874b2d545cb271cdbda4e093020c452328b24af12382ed62c4d00f5c26709db9b614c74565b604051961686528b8601526040850152606084015260808301528660a083015260c0820152a155604051908152f35b604051631b4f851160e11b8152600490fd5b9094508b81813d83116115fe575b6115ee8183612dd5565b810103126104f857519338611528565b503d6115e4565b6040513d8b823e3d90fd5b60405163100dac0560e11b8152600490fd5b50858416855260ff6040862054161561143c565b604051630527cf7960e11b8152600490fd5b8234610545576020366003190112610545576020906040906001600160a01b03611670612b9d565b168152601b83522054604051908152f35b82346105455780600319360112610545576004546040516001600160a01b039091168152602090f35b8234610545576020366003190112610545576020906040906001600160a01b036116d2612b9d565b168152602a83522054604051908152f35b5050506104f8612bdf565b823461054557606036600319011261054557604435602435600435611711615158565b610e1081108015611751575b8015611746575b6117345760105560115560125580f35b6040516319c0070760e01b8152600490fd5b506127108311611724565b50612710821161171d565b8234610545576020366003190112610545576020906040906001600160a01b03611784612b9d565b168152601c83522054604051908152f35b8234610545576040366003190112610545576117af612b9d565b6117b7615158565b6001600160a01b0316815260246020819052604082209035905580f35b9050346109b157366003190112610545576117ed612b9d565b906117f6612bb3565b916117ff612bc9565b611807612c1b565b60c435906001600160a01b03821682036104f85760209560019461185594611833600289541415613050565b6002885561183f6151a9565b61184882614fe0565b60843592606435926144a5565b9155604051908152f35b823461054557602036600319011261054557602061053d61187e612b9d565b6137ff565b82346105455760203660031901126105455761189d612bfd565b6118a5615158565b62ff000060015491151560101b169062ff000019161760015580f35b823461054557602036600319011261054557602061053d6118e0612b9d565b613e1d565b82346105455780600319360112610545576020600854604051908152f35b82346105455780600319360112610545576003546040516001600160a01b039091168152602090f35b823461054557602036600319011261054557611946612b9d565b61194e615158565b600380546001600160a01b0319166001600160a01b039290921691909117905580f35b8234610545576020366003190112610545576004356001600160a01b03811681036109b15761199e615158565b600180546301000000600160b81b03191660189290921b6301000000600160b81b031691909117905580f35b82346105455780600319360112610545576020604051620f42408152f35b823461054557602036600319011261054557611a02612b9d565b3382526016602052604082209060018060a01b0316600052602052604060002060ff19815416905580f35b823461054557806003193601126105455760015460405160189190911c6001600160a01b03168152602090f35b82346105455760203660031901126105455760209060ff906040906001600160a01b03611a85612b9d565b168152601a84522054166040519015158152f35b8234610545576020366003190112610545576020906040906001600160a01b03611ac1612b9d565b168152602b83522054604051908152f35b823461054557604036600319011261054557611aec612b9d565b6040611af6612bb3565b9260018060a01b0380931681526016602052209116600052602052602060ff604060002054166040519015158152f35b823461054557602036600319011261054557611b40612b9d565b611b4e600283541415613050565b600282556001600160a01b0381168252601a602052604082205460ff161561081057611b7981614bdc565b80156107fe5781611bab827fa5a389190ebf6170a133bda5c769b77f4d6715b8aa172ec0ddf8473d0b4944bd94614cf9565b611bba60405192839283612d76565b0390a16001815580f35b8234610545576020908160031936011261054557611be0612b9d565b8260018060a01b0360448160015460181c16936040519485938492633429e25b60e11b84521660048301528660248301525afa91821561106b5791611c29575b50604051908152f35b90508181813d8311611c4f575b611c408183612dd5565b810103126104f8575182611c20565b503d611c36565b82346105455760a036600319011261054557611147611c73612b9d565b611c7b612c39565b608435916044359060243590613c14565b8234610545576020366003190112610545576020906040906001600160a01b03611cb4612b9d565b168152602283522054604051908152f35b82346105455760203660031901126105455760209060ff906040906001600160a01b03611cf0612b9d565b168152601784522054166040519015158152f35b8234610545576020366003190112610545576020906040906001600160a01b03611d2c612b9d565b168152601f83522054604051908152f35b823461054557604090611d5b611d5236612c48565b92919091613ed0565b8152602860205220604051611d6f81612d91565b81548152600182015460066020830193828552600281015460408501526003810154606085015260048101546080850152600581015460a0850152015460c083015215611dce57602091611dc661053d925161309c565b9051906130d4565b6040516368f7a67560e11b8152600490fd5b8234610545576020366003190112610545576040906004358152602860205220805490600181015490600281015460038201546004830154916006600585015494015494604051968752602087015260408601526060850152608084015260a083015260c0820152f35b8234610545576020366003190112610545576004356019548110156109b15760196000527f944998273e477b495144fb8794c914197f3ccb46be2900f4698fd0ef743c969501546040516001600160a01b039091168152602090f35b82346105455780600319360112610545576020600a54604051908152f35b823461054557806003193601126105455760206040516101f48152f35b8234610545576020366003190112610545576020906040906001600160a01b03611f09612b9d565b168152602483522054604051908152f35b9050346109b157611f2d611d5236612c48565b82526028602052604082209060405190611f4682612d91565b82548252600183015492602083019384526002810154926040810193845260038201549160608201928352600481015460808301908152600582015493600660a085019386855201549460c08501958652898113600014611fe35750610100988351945b51985197519151925193511215945196604051988952602089015260408801526060870152608086015260a085015260c0840152820152f35b600160ff1b8114611ffb579861010099810394611faa565b634e487b7160e01b8a52601160045260248afd5b82346105455760a036600319011261054557612029612b9d565b612031612bb3565b9061203a612bc9565b91612043612c0c565b612051600286541415613050565b6002855560015460ff8160101c16156125025761206c6151a9565b61207584614fe0565b612080828685615037565b60181c6001600160a01b031685813b1561054557604051634eae147d60e11b81526001600160a01b0386811660048301528581166024830152871660448201526064803590820152831515608482015291829060a49082905afa8015610f84576124ef575b506120f08483613581565b6120fc81858486613ed0565b9182865260286020526040862093826000146124e05761211b8661377b565b925b61214886548015806124d5575b15806124ca575b6124a6575b600388015490606435848b8888614b76565b9661215284614bdc565b9061215d828661391e565b9161216c8360018b0154612d25565b8a8110611dce578a61217d91612d02565b8060018b015561218e858489613d02565b60038b01556121a06064358b54612d25565b90818b554260068c01558115612494576121b9916151cc565b600180546040805163d54d5a9f60e01b81526001600160a01b0389811660048301528a81166024830152868116604483015288151560648301526084820194909452929091839160a491839160189190911c165afa8015610cfa57612469575b5061222660643587613965565b6122348160048c0154612d25565b60048b01556001600160a01b0387168c52602360205260408c20805461225b908390612d25565b90556001600160a01b0387168c52602360209081526040808e205460229092528d2054106115c4576122b57faa5649d82f5462be9d19b0f2b31a59b2259950a6076550bac9f3a1c07db9f66d916040519182918a83612d76565b0390a18315612365579886611bba979694896000805160206152418339815191529795612337956123146000805160206151e18339815191529f6123046122fe89606435612d25565b8c614f01565b61230e848c614f56565b8a614cf9565b612327612321878b613978565b8a614de8565b604051988998606435948a613146565b0390a18354936001810154906002810154600382015490600560048401549301549360405198899889613193565b506001600160a01b0381168a52602a60205260408a2054612441576001600160a01b0381168a52602b60205260408a208690555b6001600160a01b0381168a52602a60205260408a2080546123bd9060643590612d25565b90556001600160a01b0381168a52602c60205260408a20548061240e575b506000805160206151e18339815191529886611bba97969489600080516020615241833981519152979561233795612327565b602a60209796949593975260408b20541161242f578a9591939294956123db565b604051631cfb746d60e21b8152600490fd5b61244e6064358783613b28565b6001600160a01b0382168b52602b60205260408b2055612399565b604090813d831161248d575b61247f8183612dd5565b810103126104f8578b612219565b503d612475565b604051631ee7bc0160e21b8152600490fd5b600288016124c3898b898760068654940154938760643594613ac0565b9055612136565b506064351515612131565b8660028a015561212a565b6124e9866137ff565b9261211d565b6124fb90959195612dc2565b93856120e5565b604051632733d0d960e01b8152600490fd5b82346105455760c06111479161253b604061252e36612c48565b9592908095928792613ed0565b8152602860205220906040519061255182612d91565b8254918281526001840154602082015260066002850154948560408401526003810154606084015260048101546080840152600581015460a084015201549586910152613c14565b8234610545576040366003190112610545576105906125b6612b9d565b6125be612c2a565b906125c7615158565b6001600160a01b03168352601760205260408320612cf1565b82346105455760203660031901126105455760209060ff906040906001600160a01b0361260b612b9d565b168152601d84522054166040519015158152f35b823461054557610120366003190112610545576004356024356044356064356084359060a4359260c43594610104359687151580980361271d57612661615158565b6101f4808211908115612713575b8115612709575b81156126ff575b81156126f5575b81156126eb575b5080156126d5575b6126c357600855600955600a55600b55600c55600d5560075560e435600e5560ff8019600f5416911617600f5580f35b60405163800c7e9160e01b8152600490fd5b506904ee2d6d415b85acef8160201b8711612693565b905086118a61268b565b8087119150612684565b808611915061267d565b8085119150612676565b808411915061266f565b8880fd5b8234610545578060031936011261054557602060ff60015460101c166040519015158152f35b82346105455780600319360112610545576020601554604051908152f35b8234610545578060031936011261054557602060ff600154166040519015158152f35b8234610545578060031936011261054557602060ff60015460081c166040519015158152f35b82346105455760c0366003190112610545576127c8612b9d565b6044356127d3612c0c565b6127db612c1b565b6127e3615158565b6001600160a01b038416808652601a602090815260408720549193909160ff1615612894575b612890959492601e6128889593612879612883946128358c6040601354918a8152868052205490612d02565b968c52601a835260408c20600160ff19825416179055601b835260243560408d20558280528760408d2055601c835260643560408d2055601d835260408c20612cf1565b5260408820612cf1565b612d25565b60135561377b565b5080f35b600554600019811461290957600101600555601954600160401b8110156128f55760018101806019558110156128e157601988528288200180546001600160a01b03191685179055612809565b634e487b7160e01b88526032600452602488fd5b634e487b7160e01b88526041600452602488fd5b634e487b7160e01b88526011600452602488fd5b82346105455780600319360112610545576020600d54604051908152f35b823461054557602036600319011261054557612955612bfd565b61295d615158565b61ff0060015491151560081b169061ff0019161760015580f35b823461054557602061053d611d5236612c48565b823461054557604036600319011261054557602061053d6129aa612b9d565b60243590613855565b823461054557602036600319011261054557602061053d6129d2612b9d565b6129db816138ae565b9061391e565b8234610545576020366003190112610545576129fb612b9d565b3382526016602090815260408084206001600160a01b0390931684529190528120805460ff1916600117905580f35b8234610545576020366003190112610545576020906040906001600160a01b03612a52612b9d565b168152602983522054604051908152f35b8234610545578060031936011261054557602060ff60145460081c166040519015158152f35b82346105455780600319360112610545576020600754604051908152f35b823461054557602036600319011261054557612ac1612b9d565b612ac9615158565b600480546001600160a01b0319166001600160a01b039290921691909117905580f35b82346105455780600319360112610545576020601254604051908152f35b82346105455780600319360112610545576020600954604051908152f35b823461054557604036600319011261054557602061053d612b47612b9d565b6024359061391e565b82346105455780600319360112610545576040516904ee2d6d415b85acef8160201b8152602090f35b823461054557602036600319011261054557602061053d612b98612b9d565b613a5e565b600435906001600160a01b03821682036104f857565b602435906001600160a01b03821682036104f857565b604435906001600160a01b03821682036104f857565b50346104f85760003660031901126104f85760206040516127108152f35b6004359081151582036104f857565b6084359081151582036104f857565b60a4359081151582036104f857565b6024359081151582036104f857565b6064359081151582036104f857565b60809060031901126104f8576001600160a01b0360043581811681036104f8579160243582811681036104f8579160443590811681036104f8579060643580151581036104f85790565b60609060031901126104f8576004356001600160a01b03811681036104f857906024359060443590565b60609060031901126104f8576001600160a01b039060043582811681036104f8579160243590811681036104f8579060443590565b9060ff801983541691151516179055565b91908203918211612d0f57565b634e487b7160e01b600052601160045260246000fd5b91908201809211612d0f57565b612d3a615158565b6001600160a01b038116600090815260296020526040902054918215612d6e5782612d6b9260006040812055614c74565b90565b505050600090565b6001600160a01b039091168152602081019190915260400190565b60e081019081106001600160401b03821117612dac57604052565b634e487b7160e01b600052604160045260246000fd5b6001600160401b038111612dac57604052565b601f909101601f19168101906001600160401b03821190821017612dac57604052565b92919060409081519485612e1f6020958683019463a9059cbb60e01b865260248401612d76565b0390612e33601f1992838101895288612dd5565b83516001600160401b039790936001600160a01b039290921692919084860189811186821017612dac5786528685527f5361666545524332303a206c6f772d6c6576656c2063616c6c206661696c656487860152833b15612f7957600093849283809351925af1903d15612f66573d978811612f5257859697612ec38697612ed1975193601f8401160183612dd5565b81528092873d92013e612fd5565b80519081612ee0575b50505050565b8380612ef0938301019101612fbd565b15612efc578080612eda565b60849250519062461bcd60e51b82526004820152602a60248201527f5361666545524332303a204552433230206f7065726174696f6e20646964206e6044820152691bdd081cdd58d8d9595960b21b6064820152fd5b634e487b7160e01b83526041600452602483fd5b509050612ed19293949550606090612fd5565b855162461bcd60e51b815260048101889052601d60248201527f416464726573733a2063616c6c20746f206e6f6e2d636f6e74726163740000006044820152606490fd5b908160209103126104f8575180151581036104f85790565b90919015612fe1575090565b815115612ff15750805190602001fd5b6040519062461bcd60e51b82528160208060048301528251908160248401526000935b828510613037575050604492506000838284010152601f80199101168101030190fd5b8481018201518686016044015293810193859350613014565b1561305757565b60405162461bcd60e51b815260206004820152601f60248201527f5265656e7472616e637947756172643a207265656e7472616e742063616c6c006044820152606490fd5b9061271091828102928184041490151715612d0f57565b81810292918115918404141715612d0f57565b604d8111612d0f57600a0a90565b81156130de570490565b634e487b7160e01b600052601260045260246000fd5b9081526001600160a01b039182166020820152918116604083015290911660608201526000608082015260a081019190915290151560c082015260e08101919091526101008101919091526101200190565b959290999897949193610100979461012088019b885260018060a01b03928380921660208a0152166040880152166060860152608085015260a0840152151560c083015260e08201520152565b94919260e0969399989794919961010087019a8752602087015260408601526060850152608084015260a083015260c08201520152565b604091949392606082019560018060a01b0316825260208201520152565b60066000918281558260018201558260028201558260038201558260048201558260058201550155565b939291909160145460ff8160081c16613559575b60ff19166014556132378284613581565b61324381838588613ed0565b918260005260286020526040600020916040519261326084612d91565b600681549182865260018101546020870152600281015460408701526003810154606087015260048101546080870152600581015460a0870152015460c0850152156124945760a460018060a01b039760408960015460181c1681519384809263d54d5a9f60e01b82528d861660048301528d8c1660248301528d891660448301528715156064830152600060848301525afa918215610cfa5760009060009361351f575b50801561350d576002146134e957610140866134539a7f2e1f85a64a2f22cf2f0c42584e7c919ed4abe8d53675cff0f62bf1e95a1c676f93600080516020615261833981519152868c61338461335b8383613978565b86831660005260296020526040600020613376828254612d25565b9055604051938493846131ca565b0390a18661339660808b01518d614e88565b6134b8575b86156134a757888b6133ac8a6137ff565b935b825190806020850151938160a06080880151970151976040519a8b521660208a01521660408801528b166060870152891515608087015260a086015260c085015260e0840152610100830152610120820152a181158061349a575b613474575b5015613462575b5050600052602860205261342c60406000206131e8565b61344161343b60075483613978565b82614de8565b61344d60075482613978565b90614c74565b600160ff196014541617601455565b61346d915190614f9a565b3880613415565b61348e613488613494926020870151612d02565b87613978565b86614cf9565b3861340e565b5060208401518110613409565b888b6134b28a61377b565b936133ae565b6134d16134cb8a5160208c015190612d02565b8c614f56565b6134e46134de878d613978565b8c614de8565b61339b565b965050939250906134fd9550519184613f2c565b50600160ff196014541617601455565b60405163381e4d7d60e01b8152600490fd5b9250506040823d604011613551575b8161353b60409383612dd5565b810103126104f857602082519201519138613305565b3d915061352e565b33600052601760205260ff60406000205416613226576040516387e9041360e01b8152600490fd5b60018060a01b03908160015460181c169260409283519063fbfded6d60e01b82528084169283600484015216602482015260209081816044816000809a5af19081156136c857869161369b575b50156136765781855260278152838520541561367d576135f48486205460105490612d25565b4210613676577fa146fc154e1913322e9817d49f0d5c37466c24326e15de10e739a948be815eab94602685926136719461362d876139bd565b818552838352613641868620918254612d25565b905561365860105461365381426130d4565b6130b3565b9084526027825284842055522054925192839283612d76565b0390a1565b5050505050565b60279194925061369360105461365381426130d4565b948352522055565b6136bb9150823d84116136c1575b6136b38183612dd5565b810190612fbd565b386135ce565b503d6136a9565b85513d88823e3d90fd5b600180546040805163d54d5a9f60e01b81526001600160a01b03948516600482015294841660248601529483166044850152941515606484015260848301529093928291859160a491839160181c165afa92831561377057600091829461373a575b50509190565b90809450813d8311613769575b6137518183612dd5565b81010312610545575060208251920151913880613734565b503d613747565b50513d6000823e3d90fd5b600354601454604051635ae6916360e01b81526001600160a01b0393841660048201526001602482015260ff909116151560448201529160209183916064918391165afa908115610cfa576000916137d1575090565b906020823d82116137f7575b816137ea60209383612dd5565b8101031261054557505190565b3d91506137dd565b600354601454604051635ae6916360e01b81526001600160a01b0393841660048201526000602482015260ff909116151560448201529160209183916064918391165afa908115610cfa576000916137d1575090565b61385e8161377b565b9068327cb2734119d3b7a9601e1b9283810290808204851490151715612d0f576138aa9261388b916130d4565b9060018060a01b0316600052601b6020526114b36040600020546130c6565b0490565b6001600160a01b0381166000818152601d602052604081205490929060ff1661390f57612d6b926138ff6138ed60409360256020528484205490613978565b84835260226020528383205490612d25565b9281526023602052205490612d02565b50506040906022602052205490565b90801561395e576106df61395883613938612d6b956137ff565b6001600160a01b039091166000908152601b6020526040902054936130b3565b916130c6565b5050600090565b811561395e57612d6b916105a7826137ff565b811561395e57612d6b916105a78261377b565b9190918215612d6e576001600160a01b03166000908152601b6020526040902054612d6b926114b9916114b3906130c6565b60018060a01b0316600090808252602760205260408220546139e26010548092612d25565b4210613a5957613a01613a0791838552602760205260408520546130d4565b42612d02565b90825260226020526040822054908115613a59576114b990613653612d6b94601d60205260ff604082205416600014613a4e576040601254915b60236020522054906130b3565b604060115491613a41565b505090565b6001600160a01b03166000908152602260205260408120549091908015613abd5760236020526040832054620f424090818102918183041490151715613aa957612d6b9293506130d4565b634e487b7160e01b84526011600452602484fd5b50565b613ad8612d6b97856114b997989585613ae095613c14565b939092612d25565b9260009015613b0e575015613aff57613af99082612d25565b926130b3565b613b099082612d02565b613af9565b5015613b1e57613af99082612d02565b613b099082612d25565b612d6b926114b99160018060a01b0316600052602a602052604060002054602b602052613b7d60406000205492613b778685119485600014613b97576114b9613b718983612d02565b866130b3565b92612d25565b9115613b8d57613af99082612d02565b613af99082612d25565b6114b9613ba4828a612d02565b613b71565b6001600160a01b0381166000818152602a60205260408120549093929091908215613c0d57612d6b92613bde6114b99261377b565b928652602b60205260408620549280841196508387600014613c0457906114b391612d02565b6114b391612d02565b5050508190565b94939192948315613cf057613c67938615613ce257613c32826137ff565b8082118015613ccc57613c52836114b9613c4c8583612d02565b886130b3565b9815613cc15750119384935b600e5490612d25565b600090421115613ca557505060005b82613c8d575b5050613c86579190565b9150600090565b613c9c919250613af98661309c565b10153880613c7c565b6001600160a01b039091168152601c6020526040902054613c76565b915050938493613c5e565b613c52836114b9613cdd8286612d02565b613c4c565b613ceb8261377b565b613c32565b60405163cb78a88f60e01b8152600490fd5b60015460405163b1cc53ab60e01b81526001600160a01b0392831660048201529282166024840152921515604483015290916020918391606491839160181c165afa908115610cfa576000916137d1575090565b90949160c49260209560018060a01b0395868060015460181c1694816040519b8c9a8b9963369d949360e21b8b521660048a015216602488015216604486015215156064850152608484015260a48301525afa908115610cfa576000916137d1575090565b60015460405163fdaf6ac360e01b81526001600160a01b0392831660048201529282166024840152928116604483015292151560648201526084810193909352602091839160a491839160181c165afa908115610cfa576000916137d1575090565b60015460405163019c8a3b60e11b81526000600482018190529290916020916001600160a01b039183908590602490829060181c86165afa938415613ec5578594613e92575b508315613e8b571683528052604090912054612d6b91613e82916130b3565b601354906130d4565b5050505090565b9093508281813d8311613ebe575b613eaa8183612dd5565b81010312613eba57519238613e63565b8480fd5b503d613ea0565b6040513d87823e3d90fd5b6040516001600160601b0319606092831b81166020830190815293831b8116603483015293821b909316604884015292151560f81b605c830152603d82529181018181106001600160401b03821117612dac5760405251902090565b91909392936101a05260009360018060a01b038060015460181c1690813b156144a157869060e4604051809481936381d11a2360e01b8352808a166004840152806101a05116602484015280891660448401528560648401528760848401528a151560a48401528c1660c48301525afa8015610f845761448e575b50613fb5826101a051613581565b613fc484836101a05186613ed0565b80865260286020526040862080549687158015614485575b61249457600182015490611dce5761401c6114b99861400e6140076004860154926114b989856130b3565b8092612d02565b60048501556101a051614e88565b61402b87866101a05189613ed0565b958660005260286020526040600020916140538354600385015490888c8b6101a05188614b76565b97614078845461406f8a8d60028901548460068b015493613c14565b8a9e919e6130b3565b9860009b808061447c575b61443f575b15948580614436575b6143d7575b888154146143b1575b918c93918c9385908287116000146143635750506060859493926140d3600080516020615201833981519152938e98612d02565b9d8e995b6040519283521560208301526040820152a186548990811461426d579461419f858995858c9a98956141ca9a60036000805160206151e18339815191529f986000805160206152218339815191529a614133916101a051613d02565b9a01998a558d6141566001614149848454612d02565b92838155015480926151cc565b8361416681886101a0518c6136d2565b5050614243575b50505080600014614236578d61418d614185856137ff565b9a8b94612d02565b936040519788976101a05191896130f4565b0390a18454946001810154916002820154905490600560048401549301549360405198899889613193565b0390a15b8315614226575b5050826141e55750505050600090565b612d6b926141fc92614207575b506101a051613978565b91826101a051614c74565b614217614220916101a051613978565b6101a051614de8565b386141f2565b61422f91614f9a565b38806141d5565b8d61418d6141858561377b565b61425361425c9161426594612d02565b6101a051614f01565b6101a051614f56565b388e8161416d565b5060e095506000805160206152218339815191529350879250600080516020615281833981519152969491614343575b508a15614332576142d08c6142bb8c6142b58d6137ff565b92612d02565b908d8b8d6040519788976101a05191896130f4565b0390a18054906001810154906002810154600382015490600560048401549301549360405195898752602087015260408601526060850152608084015260a083015260c0820152a1600052602860205261432d60406000206131e8565b6141ce565b6142d08c6142bb8c6142b58d61377b565b614350906101a051614f01565b61435d886101a051614f56565b3861429d565b92819d60609299600080516020615201833981519152948f999860018199980161438e838254612d02565b905561439b575b506140d7565b6142176143ab916101a051613978565b38614395565b92909b916143c58c93600186015490612d25565b600060018601559c919390925061409f565b600181016143e68c8254612d02565b90558b15614418575b6005810180548c6000811282808381031282169281031390151617612d0f578c90039055614096565b6144316144288c6101a051613978565b6101a051614cf9565b6143ef565b508a1515614091565b9b50899b8a60058701805460008382019384129112908015821691151617612d0f57558b614088576144776142178c6101a051613978565b614088565b508a1515614083565b50838810613fdc565b61449a90959195612dc2565b9338613fa7565b8680fd5b9593919094929460805260e052610140526101205260a05260015460006101005260018060a01b03809160181c16803b156104f857604051916381d11a2360e01b83528085166004840152806080511660248401528060e05116604484015283606484015261014051608484015261012051151560a484015260a0511660c48301528160e48161010051935afa8015614add57614ace575b5061454c60e051608051613581565b61455f6101205160e05160805185613ed0565b9182610100515260286020526040610100512091825480158015614ac2575b61249457600184015490828210611dce576145b9906145ac6140076004880154926114b961014051856130b3565b6004870155608051614e88565b6145cc6101205160e05160805186613ed0565b80610100515260286020526114b96146056040610100512080610180526003815491015490610140516101205160e0516080518b614b76565b6146376101805161462b815491600660028201549101549061012051908460e051613c14565b610140959195516130b3565b91610100518060c0528180614ab9575b614a68575b5015808061016052614a5f575b6149d5575b9160609160008051602061520183398151915293866149ad575b610140516101805190815414614988575b508060c051806101a05211600014614950576146a79060c051612d02565b6101a0525b604051918252610160511560208301526040820152a1610140518454146148455791600080516020615221833981519152614792926000805160206151e183398151915296946147046101205160e051608051613d02565b6003880155614717610140518854612d02565b9081885561472a600189015480936151cc565b61473d6101205160e051608051886136d2565b50506101205161481a575b505061012051156148095761475e60e0516137ff565b925b6123376147726101a05160c051612d02565b85604051948594610120519161014051918c60e05191608051918a613146565b0390a15b61012051156147f5575b60c051806147b057506101005190565b610120516147d8575b506147c96101a051608051613978565b612d6b60a05182608051614c74565b6147e76147ef91608051613978565b608051614de8565b386147b9565b6148046101405160e051614f9a565b6147a0565b61481460e05161377b565b92614760565b61482f9161482791612d02565b608051614f01565b61483e61014051608051614f56565b3880614748565b600080516020615281833981519152939160e093600080516020615221833981519152926101205161492f575b50610120511561491d576148b761488986516137ff565b6148986101a05160c051612d02565b90604051948594610120519161014051918d8c5191608051918a613146565b0390a18054906001810154906002810154600382015490600560048401549301549360405195898752602087015260408601526060850152608084015260a083015260c0820152a161010051526028602052614918604061010051206131e8565b614796565b6148b761492a865161377b565b614889565b61493b90608051614f01565b61494a61014051608051614f56565b38614872565b60016101805101614962828254612d02565b905561012051614973575b506146ac565b6147e761498291608051613978565b3861496d565b600161499891015460c051612d25565b60c05261010051600161018051015538614689565b6149b98760c051612d25565b60c052600161018051016149ce888254612d02565b9055614678565b600161018051016149e7838254612d02565b90556101205115614a43575b6005610180510154610100518084128285810312811690838681031390151617614a2b5750610180519083900360059091015561465e565b634e487b7160e01b9052601160045261010051602490fd5b614a5a614a5283608051613978565b608051614cf9565b6149f3565b50811515614659565b8360c0526005610180510154908480830112818312908015821691151617614a2b5750830160056101805101556101205115614aa5575b3861464c565b614ab46147e784608051613978565b614a9f565b50831515614647565b5061014051811061457e565b614ad790612dc2565b3861453d565b6040513d61010051823e3d90fd5b919091612710918203828111612d0f577f47cd9dda0e50ce30bcaaacd0488452b596221c07ac402a581cfae4d3933cac2b92614b2a614b3292866130b3565b048094612d02565b9060018060a01b03811660005260296020526040600020614b54838254612d25565b9055614b70614b63838361391e565b92604051938493846131ca565b0390a190565b929460008051602061526183398151915295614ba69383614ba0614bac989a959a8484848b613dbb565b96613d56565b90612d25565b82614b70614bbb838096613978565b60018060a01b03831660005260296020526040600020613376828254612d25565b6001600160a01b03166000818152601f602090815260408083205490516370a0823160e01b8152306004820152929493909291908183602481845afa928315610f84578693614c3d575b5085601f8493604093612d6b989952522055612d02565b909180935081813d8311614c6d575b614c568183612dd5565b81010312614c6957519190612d6b614c26565b8580fd5b503d614c4c565b6001600160a01b031691614c89919083612df8565b6040516370a0823160e01b815230600482015290602082602481845afa918215610cfa57600092614cc6575b50600052601f602052604060002055565b90916020823d8211614cf1575b81614ce060209383612dd5565b810103126105455750519038614cb5565b3d9150614cd3565b919060018060a01b0383169260009380855260209460228652604095868220614d23868254612d25565b905586516370a0823160e01b8152306004820152928184602481845afa938415614dde5790839291899495614da2575b50825260229052205411614d91576136717f976177fbe09a15e5e43f848844963a42b41ef919ef17ff21a17a5421de8f473793945192839283612d76565b8351632160733960e01b8152600490fd5b828094955081939296503d8311614dd7575b614dbe8183612dd5565b81010312614dd3575192879291906022614d53565b8280fd5b503d614db4565b88513d85823e3d90fd5b6001600160a01b038116600081815260226020526040808220549095949392908411614e7757815260226020528285822054038582205560236020528480822054916022602052205410614e66576136717f112726233fbeaeed0f5b1dba5cb0b2b81883dee49fb35ff99fd98ed9f6d31eb093945192839283612d76565b8351631b4f851160e11b8152600490fd5b8551631b4f851160e11b8152600490fd5b9060018060a01b038216918260005260236020528160406000205410614eef577f533cb5ed32be6a90284e96b5747a1bfc2d38fdb5768a6b5f67ff7d62144ed67b926000526023602052816040600020540360406000205561367160405192839283612d76565b6040516328b35f2160e01b8152600490fd5b907fd9d4761f75e0d0103b5cbeab941eeb443d7a56a35b5baf2a0787c03f03f4e4749160018060a01b03811660005260256020526040600020614f45838254612d25565b905561367160405192839283612d76565b907f34e07158b9db50df5613e591c44ea2ebc82834eff4a4dc3a46e000e608261d689160018060a01b03811660005260256020526040600020614f45838254612d02565b6001600160a01b03166000818152602a602052604081205491929091808211614fd65760409291614fca91612d02565b928152602a6020522055565b5050604081205550565b6001600160a01b039081169033821461503357600254163314613abd57600052601660205260406000203360005260205260ff604060002054161561502157565b604051639e41bdd760e01b8152600490fd5b5050565b90916150d6576001600160a01b039081166000908152601a602052604081205460ff16159182156150c1575b82156150a8575b821561508d575b5050905061507b57565b6040516333910aef60e11b8152600490fd5b6040925060ff93168152601e60205220541615803880615071565b8381168252601d602052604082205460ff16925061506a565b601d602052604082205460ff16159250615063565b6001600160a01b039081169116811480159190615115575b81156150fc575b5061507b57565b9050600052601d60205260ff60406000205416386150f5565b809150600052601a60205260ff6040600020541615906150ee565b60018060a01b031660005260226020526040600020546021602052604060002054106115c457565b6004546001600160a01b0316330361516c57565b604051635fc483c560e01b8152600490fd5b33600052601860205260ff604060002054161561519757565b60405163605919ad60e11b8152600490fd5b6015548015613abd573a116151ba57565b60405163f3eb44e560e01b8152600490fd5b80156151d9571061249457565b50611dce5756fe20853733b590dce729d9f4628682ebd9a34d2354e72679e66f43a008fc03b7733ff41bdde87755b687ae83d0221a232b6be51a803330ed9661c1b5d0105e0d8a93d75d64d1f84fc6f430a64fc578bdd4c1e090e90ea2d51773e626d19de56d302fe68525253654c21998f35787a8d0f361905ef647c854092430ab65f2f150225d0c0019d3d45fadeb74eff9d2c9924d146d000ac6bcf3c28bf0ac3c9baa011a73af1d417d82c240fdb6d319b34ad884487c6bf2845d98980cc52ad9171cb455a2646970667358221220e029417a85540b5a47b2f85e49c5f92abf586da132a0faba98d8a9283f56ba4a64736f6c63430008110033",
  "linkReferences": {},
  "deployedLinkReferences": {}
}