{
  "_format": "hh-sol-artifact-1",
  "contractName": "Vault",
  "sourceName": "contracts/core/Vault.sol",
  "abi": [
    {
      "inputs": [],
      "stateMutability": "nonpayable",
      "type": "constructor"
    },
    {
      "anonymous": false,
      "inputs": [
        {
          "indexed": false,
          "internalType": "address",
          "name": "account",
          "type": "address"
        },
        {
          "indexed": false,
          "internalType": "address",
          "name": "token",
          "type": "address"
        },
        {
          "indexed": false,
          "internalType": "uint256",
          "name": "tokenAmount",
          "type": "uint256"
        },
        {
          "indexed": false,
          "internalType": "uint256",
          "name": "usdvAmount",
          "type": "uint256"
        },
        {
          "indexed": false,
          "internalType": "uint256",
          "name": "feeBasisPoints",
          "type": "uint256"
        }
      ],
      "name": "BuyUSDV",
      "type": "event"
    },
    {
      "anonymous": false,
      "inputs": [
        {
          "indexed": false,
          "internalType": "bytes32",
          "name": "key",
          "type": "bytes32"
        },
        {
          "indexed": false,
          "internalType": "uint256",
          "name": "size",
          "type": "uint256"
        },
        {
          "indexed": false,
          "internalType": "uint256",
          "name": "collateral",
          "type": "uint256"
        },
        {
          "indexed": false,
          "internalType": "uint256",
          "name": "averagePrice",
          "type": "uint256"
        },
        {
          "indexed": false,
          "internalType": "uint256",
          "name": "entryFundingRate",
          "type": "uint256"
        },
        {
          "indexed": false,
          "internalType": "uint256",
          "name": "reserveAmount",
          "type": "uint256"
        },
        {
          "indexed": false,
          "internalType": "int256",
          "name": "realisedPnl",
          "type": "int256"
        }
      ],
      "name": "ClosePosition",
      "type": "event"
    },
    {
      "anonymous": false,
      "inputs": [
        {
          "indexed": false,
          "internalType": "address",
          "name": "token",
          "type": "address"
        },
        {
          "indexed": false,
          "internalType": "uint256",
          "name": "feeUsd",
          "type": "uint256"
        },
        {
          "indexed": false,
          "internalType": "uint256",
          "name": "feeTokens",
          "type": "uint256"
        }
      ],
      "name": "CollectMarginFees",
      "type": "event"
    },
    {
      "anonymous": false,
      "inputs": [
        {
          "indexed": false,
          "internalType": "address",
          "name": "token",
          "type": "address"
        },
        {
          "indexed": false,
          "internalType": "uint256",
          "name": "feeUsd",
          "type": "uint256"
        },
        {
          "indexed": false,
          "internalType": "uint256",
          "name": "feeTokens",
          "type": "uint256"
        }
      ],
      "name": "CollectSwapFees",
      "type": "event"
    },
    {
      "anonymous": false,
      "inputs": [
        {
          "indexed": false,
          "internalType": "address",
          "name": "token",
          "type": "address"
        },
        {
          "indexed": false,
          "internalType": "uint256",
          "name": "amount",
          "type": "uint256"
        }
      ],
      "name": "DecreaseGuaranteedUsd",
      "type": "event"
    },
    {
      "anonymous": false,
      "inputs": [
        {
          "indexed": false,
          "internalType": "address",
          "name": "token",
          "type": "address"
        },
        {
          "indexed": false,
          "internalType": "uint256",
          "name": "amount",
          "type": "uint256"
        }
      ],
      "name": "DecreasePoolAmount",
      "type": "event"
    },
    {
      "anonymous": false,
      "inputs": [
        {
          "indexed": false,
          "internalType": "bytes32",
          "name": "key",
          "type": "bytes32"
        },
        {
          "indexed": false,
          "internalType": "address",
          "name": "account",
          "type": "address"
        },
        {
          "indexed": false,
          "internalType": "address",
          "name": "collateralToken",
          "type": "address"
        },
        {
          "indexed": false,
          "internalType": "address",
          "name": "indexToken",
          "type": "address"
        },
        {
          "indexed": false,
          "internalType": "uint256",
          "name": "collateralDelta",
          "type": "uint256"
        },
        {
          "indexed": false,
          "internalType": "uint256",
          "name": "sizeDelta",
          "type": "uint256"
        },
        {
          "indexed": false,
          "internalType": "bool",
          "name": "isLong",
          "type": "bool"
        },
        {
          "indexed": false,
          "internalType": "uint256",
          "name": "price",
          "type": "uint256"
        },
        {
          "indexed": false,
          "internalType": "uint256",
          "name": "fee",
          "type": "uint256"
        }
      ],
      "name": "DecreasePosition",
      "type": "event"
    },
    {
      "anonymous": false,
      "inputs": [
        {
          "indexed": false,
          "internalType": "address",
          "name": "token",
          "type": "address"
        },
        {
          "indexed": false,
          "internalType": "uint256",
          "name": "amount",
          "type": "uint256"
        }
      ],
      "name": "DecreaseReservedAmount",
      "type": "event"
    },
    {
      "anonymous": false,
      "inputs": [
        {
          "indexed": false,
          "internalType": "address",
          "name": "token",
          "type": "address"
        },
        {
          "indexed": false,
          "internalType": "uint256",
          "name": "amount",
          "type": "uint256"
        }
      ],
      "name": "DecreaseUsdvAmount",
      "type": "event"
    },
    {
      "anonymous": false,
      "inputs": [
        {
          "indexed": false,
          "internalType": "address",
          "name": "token",
          "type": "address"
        },
        {
          "indexed": false,
          "internalType": "uint256",
          "name": "amount",
          "type": "uint256"
        }
      ],
      "name": "DirectPoolDeposit",
      "type": "event"
    },
    {
      "anonymous": false,
      "inputs": [
        {
          "indexed": false,
          "internalType": "address",
          "name": "token",
          "type": "address"
        },
        {
          "indexed": false,
          "internalType": "uint256",
          "name": "amount",
          "type": "uint256"
        }
      ],
      "name": "IncreaseGuaranteedUsd",
      "type": "event"
    },
    {
      "anonymous": false,
      "inputs": [
        {
          "indexed": false,
          "internalType": "address",
          "name": "token",
          "type": "address"
        },
        {
          "indexed": false,
          "internalType": "uint256",
          "name": "amount",
          "type": "uint256"
        }
      ],
      "name": "IncreasePoolAmount",
      "type": "event"
    },
    {
      "anonymous": false,
      "inputs": [
        {
          "indexed": false,
          "internalType": "bytes32",
          "name": "key",
          "type": "bytes32"
        },
        {
          "indexed": false,
          "internalType": "address",
          "name": "account",
          "type": "address"
        },
        {
          "indexed": false,
          "internalType": "address",
          "name": "collateralToken",
          "type": "address"
        },
        {
          "indexed": false,
          "internalType": "address",
          "name": "indexToken",
          "type": "address"
        },
        {
          "indexed": false,
          "internalType": "uint256",
          "name": "collateralDelta",
          "type": "uint256"
        },
        {
          "indexed": false,
          "internalType": "uint256",
          "name": "sizeDelta",
          "type": "uint256"
        },
        {
          "indexed": false,
          "internalType": "bool",
          "name": "isLong",
          "type": "bool"
        },
        {
          "indexed": false,
          "internalType": "uint256",
          "name": "price",
          "type": "uint256"
        },
        {
          "indexed": false,
          "internalType": "uint256",
          "name": "fee",
          "type": "uint256"
        }
      ],
      "name": "IncreasePosition",
      "type": "event"
    },
    {
      "anonymous": false,
      "inputs": [
        {
          "indexed": false,
          "internalType": "address",
          "name": "token",
          "type": "address"
        },
        {
          "indexed": false,
          "internalType": "uint256",
          "name": "amount",
          "type": "uint256"
        }
      ],
      "name": "IncreaseReservedAmount",
      "type": "event"
    },
    {
      "anonymous": false,
      "inputs": [
        {
          "indexed": false,
          "internalType": "address",
          "name": "token",
          "type": "address"
        },
        {
          "indexed": false,
          "internalType": "uint256",
          "name": "amount",
          "type": "uint256"
        }
      ],
      "name": "IncreaseUsdvAmount",
      "type": "event"
    },
    {
      "anonymous": false,
      "inputs": [
        {
          "indexed": false,
          "internalType": "bytes32",
          "name": "key",
          "type": "bytes32"
        },
        {
          "indexed": false,
          "internalType": "address",
          "name": "account",
          "type": "address"
        },
        {
          "indexed": false,
          "internalType": "address",
          "name": "collateralToken",
          "type": "address"
        },
        {
          "indexed": false,
          "internalType": "address",
          "name": "indexToken",
          "type": "address"
        },
        {
          "indexed": false,
          "internalType": "bool",
          "name": "isLong",
          "type": "bool"
        },
        {
          "indexed": false,
          "internalType": "uint256",
          "name": "size",
          "type": "uint256"
        },
        {
          "indexed": false,
          "internalType": "uint256",
          "name": "collateral",
          "type": "uint256"
        },
        {
          "indexed": false,
          "internalType": "uint256",
          "name": "reserveAmount",
          "type": "uint256"
        },
        {
          "indexed": false,
          "internalType": "int256",
          "name": "realisedPnl",
          "type": "int256"
        },
        {
          "indexed": false,
          "internalType": "uint256",
          "name": "markPrice",
          "type": "uint256"
        }
      ],
      "name": "LiquidatePosition",
      "type": "event"
    },
    {
      "anonymous": false,
      "inputs": [
        {
          "indexed": false,
          "internalType": "address",
          "name": "account",
          "type": "address"
        },
        {
          "indexed": false,
          "internalType": "address",
          "name": "token",
          "type": "address"
        },
        {
          "indexed": false,
          "internalType": "uint256",
          "name": "usdvAmount",
          "type": "uint256"
        },
        {
          "indexed": false,
          "internalType": "uint256",
          "name": "tokenAmount",
          "type": "uint256"
        },
        {
          "indexed": false,
          "internalType": "uint256",
          "name": "feeBasisPoints",
          "type": "uint256"
        }
      ],
      "name": "SellUSDV",
      "type": "event"
    },
    {
      "anonymous": false,
      "inputs": [
        {
          "indexed": false,
          "internalType": "address",
          "name": "account",
          "type": "address"
        },
        {
          "indexed": false,
          "internalType": "address",
          "name": "tokenIn",
          "type": "address"
        },
        {
          "indexed": false,
          "internalType": "address",
          "name": "tokenOut",
          "type": "address"
        },
        {
          "indexed": false,
          "internalType": "uint256",
          "name": "amountIn",
          "type": "uint256"
        },
        {
          "indexed": false,
          "internalType": "uint256",
          "name": "amountOut",
          "type": "uint256"
        },
        {
          "indexed": false,
          "internalType": "uint256",
          "name": "amountOutAfterFees",
          "type": "uint256"
        },
        {
          "indexed": false,
          "internalType": "uint256",
          "name": "feeBasisPoints",
          "type": "uint256"
        }
      ],
      "name": "Swap",
      "type": "event"
    },
    {
      "anonymous": false,
      "inputs": [
        {
          "indexed": false,
          "internalType": "address",
          "name": "token",
          "type": "address"
        },
        {
          "indexed": false,
          "internalType": "uint256",
          "name": "fundingRate",
          "type": "uint256"
        }
      ],
      "name": "UpdateFundingRate",
      "type": "event"
    },
    {
      "anonymous": false,
      "inputs": [
        {
          "indexed": false,
          "internalType": "bytes32",
          "name": "key",
          "type": "bytes32"
        },
        {
          "indexed": false,
          "internalType": "bool",
          "name": "hasProfit",
          "type": "bool"
        },
        {
          "indexed": false,
          "internalType": "uint256",
          "name": "delta",
          "type": "uint256"
        }
      ],
      "name": "UpdatePnl",
      "type": "event"
    },
    {
      "anonymous": false,
      "inputs": [
        {
          "indexed": false,
          "internalType": "bytes32",
          "name": "key",
          "type": "bytes32"
        },
        {
          "indexed": false,
          "internalType": "uint256",
          "name": "size",
          "type": "uint256"
        },
        {
          "indexed": false,
          "internalType": "uint256",
          "name": "collateral",
          "type": "uint256"
        },
        {
          "indexed": false,
          "internalType": "uint256",
          "name": "averagePrice",
          "type": "uint256"
        },
        {
          "indexed": false,
          "internalType": "uint256",
          "name": "entryFundingRate",
          "type": "uint256"
        },
        {
          "indexed": false,
          "internalType": "uint256",
          "name": "reserveAmount",
          "type": "uint256"
        },
        {
          "indexed": false,
          "internalType": "int256",
          "name": "realisedPnl",
          "type": "int256"
        },
        {
          "indexed": false,
          "internalType": "uint256",
          "name": "markPrice",
          "type": "uint256"
        }
      ],
      "name": "UpdatePosition",
      "type": "event"
    },
    {
      "inputs": [],
      "name": "BASIS_POINTS_DIVISOR",
      "outputs": [
        {
          "internalType": "uint256",
          "name": "",
          "type": "uint256"
        }
      ],
      "stateMutability": "view",
      "type": "function"
    },
    {
      "inputs": [],
      "name": "FUNDING_RATE_PRECISION",
      "outputs": [
        {
          "internalType": "uint256",
          "name": "",
          "type": "uint256"
        }
      ],
      "stateMutability": "view",
      "type": "function"
    },
    {
      "inputs": [],
      "name": "MAX_FEE_BASIS_POINTS",
      "outputs": [
        {
          "internalType": "uint256",
          "name": "",
          "type": "uint256"
        }
      ],
      "stateMutability": "view",
      "type": "function"
    },
    {
      "inputs": [],
      "name": "MAX_FUNDING_RATE_FACTOR",
      "outputs": [
        {
          "internalType": "uint256",
          "name": "",
          "type": "uint256"
        }
      ],
      "stateMutability": "view",
      "type": "function"
    },
    {
      "inputs": [],
      "name": "MAX_LIQUIDATION_FEE_USD",
      "outputs": [
        {
          "internalType": "uint256",
          "name": "",
          "type": "uint256"
        }
      ],
      "stateMutability": "view",
      "type": "function"
    },
    {
      "inputs": [],
      "name": "MIN_FUNDING_RATE_INTERVAL",
      "outputs": [
        {
          "internalType": "uint256",
          "name": "",
          "type": "uint256"
        }
      ],
      "stateMutability": "view",
      "type": "function"
    },
    {
      "inputs": [],
      "name": "MIN_LEVERAGE",
      "outputs": [
        {
          "internalType": "uint256",
          "name": "",
          "type": "uint256"
        }
      ],
      "stateMutability": "view",
      "type": "function"
    },
    {
      "inputs": [],
      "name": "PRICE_PRECISION",
      "outputs": [
        {
          "internalType": "uint256",
          "name": "",
          "type": "uint256"
        }
      ],
      "stateMutability": "view",
      "type": "function"
    },
    {
      "inputs": [],
      "name": "USDV_DECIMALS",
      "outputs": [
        {
          "internalType": "uint256",
          "name": "",
          "type": "uint256"
        }
      ],
      "stateMutability": "view",
      "type": "function"
    },
    {
      "inputs": [
        {
          "internalType": "address",
          "name": "_router",
          "type": "address"
        }
      ],
      "name": "addRouter",
      "outputs": [],
      "stateMutability": "nonpayable",
      "type": "function"
    },
    {
      "inputs": [
        {
          "internalType": "uint256",
          "name": "_amount",
          "type": "uint256"
        },
        {
          "internalType": "address",
          "name": "_tokenDiv",
          "type": "address"
        },
        {
          "internalType": "address",
          "name": "_tokenMul",
          "type": "address"
        }
      ],
      "name": "adjustForDecimals",
      "outputs": [
        {
          "internalType": "uint256",
          "name": "",
          "type": "uint256"
        }
      ],
      "stateMutability": "view",
      "type": "function"
    },
    {
      "inputs": [
        {
          "internalType": "uint256",
          "name": "",
          "type": "uint256"
        }
      ],
      "name": "allWhitelistedTokens",
      "outputs": [
        {
          "internalType": "address",
          "name": "",
          "type": "address"
        }
      ],
      "stateMutability": "view",
      "type": "function"
    },
    {
      "inputs": [],
      "name": "allWhitelistedTokensLength",
      "outputs": [
        {
          "internalType": "uint256",
          "name": "",
          "type": "uint256"
        }
      ],
      "stateMutability": "view",
      "type": "function"
    },
    {
      "inputs": [
        {
          "internalType": "address",
          "name": "",
          "type": "address"
        },
        {
          "internalType": "address",
          "name": "",
          "type": "address"
        }
      ],
      "name": "approvedRouters",
      "outputs": [
        {
          "internalType": "bool",
          "name": "",
          "type": "bool"
        }
      ],
      "stateMutability": "view",
      "type": "function"
    },
    {
      "inputs": [
        {
          "internalType": "address",
          "name": "",
          "type": "address"
        }
      ],
      "name": "bufferAmounts",
      "outputs": [
        {
          "internalType": "uint256",
          "name": "",
          "type": "uint256"
        }
      ],
      "stateMutability": "view",
      "type": "function"
    },
    {
      "inputs": [
        {
          "internalType": "address",
          "name": "_token",
          "type": "address"
        },
        {
          "internalType": "address",
          "name": "_receiver",
          "type": "address"
        }
      ],
      "name": "buyUSDV",
      "outputs": [
        {
          "internalType": "uint256",
          "name": "",
          "type": "uint256"
        }
      ],
      "stateMutability": "nonpayable",
      "type": "function"
    },
    {
      "inputs": [
        {
          "internalType": "address",
          "name": "_token",
          "type": "address"
        }
      ],
      "name": "clearTokenConfig",
      "outputs": [],
      "stateMutability": "nonpayable",
      "type": "function"
    },
    {
      "inputs": [
        {
          "internalType": "address",
          "name": "",
          "type": "address"
        }
      ],
      "name": "cumulativeFundingRates",
      "outputs": [
        {
          "internalType": "uint256",
          "name": "",
          "type": "uint256"
        }
      ],
      "stateMutability": "view",
      "type": "function"
    },
    {
      "inputs": [
        {
          "internalType": "address",
          "name": "_account",
          "type": "address"
        },
        {
          "internalType": "address",
          "name": "_collateralToken",
          "type": "address"
        },
        {
          "internalType": "address",
          "name": "_indexToken",
          "type": "address"
        },
        {
          "internalType": "uint256",
          "name": "_collateralDelta",
          "type": "uint256"
        },
        {
          "internalType": "uint256",
          "name": "_sizeDelta",
          "type": "uint256"
        },
        {
          "internalType": "bool",
          "name": "_isLong",
          "type": "bool"
        },
        {
          "internalType": "address",
          "name": "_receiver",
          "type": "address"
        }
      ],
      "name": "decreasePosition",
      "outputs": [
        {
          "internalType": "uint256",
          "name": "",
          "type": "uint256"
        }
      ],
      "stateMutability": "nonpayable",
      "type": "function"
    },
    {
      "inputs": [
        {
          "internalType": "address",
          "name": "_token",
          "type": "address"
        }
      ],
      "name": "directPoolDeposit",
      "outputs": [],
      "stateMutability": "nonpayable",
      "type": "function"
    },
    {
      "inputs": [],
      "name": "errorController",
      "outputs": [
        {
          "internalType": "address",
          "name": "",
          "type": "address"
        }
      ],
      "stateMutability": "view",
      "type": "function"
    },
    {
      "inputs": [
        {
          "internalType": "uint256",
          "name": "",
          "type": "uint256"
        }
      ],
      "name": "errors",
      "outputs": [
        {
          "internalType": "string",
          "name": "",
          "type": "string"
        }
      ],
      "stateMutability": "view",
      "type": "function"
    },
    {
      "inputs": [
        {
          "internalType": "address",
          "name": "",
          "type": "address"
        }
      ],
      "name": "feeReserves",
      "outputs": [
        {
          "internalType": "uint256",
          "name": "",
          "type": "uint256"
        }
      ],
      "stateMutability": "view",
      "type": "function"
    },
    {
      "inputs": [],
      "name": "fundingInterval",
      "outputs": [
        {
          "internalType": "uint256",
          "name": "",
          "type": "uint256"
        }
      ],
      "stateMutability": "view",
      "type": "function"
    },
    {
      "inputs": [],
      "name": "fundingRateFactor",
      "outputs": [
        {
          "internalType": "uint256",
          "name": "",
          "type": "uint256"
        }
      ],
      "stateMutability": "view",
      "type": "function"
    },
    {
      "inputs": [
        {
          "internalType": "address",
          "name": "_indexToken",
          "type": "address"
        },
        {
          "internalType": "uint256",
          "name": "_size",
          "type": "uint256"
        },
        {
          "internalType": "uint256",
          "name": "_averagePrice",
          "type": "uint256"
        },
        {
          "internalType": "bool",
          "name": "_isLong",
          "type": "bool"
        },
        {
          "internalType": "uint256",
          "name": "_lastIncreasedTime",
          "type": "uint256"
        }
      ],
      "name": "getDelta",
      "outputs": [
        {
          "internalType": "bool",
          "name": "",
          "type": "bool"
        },
        {
          "internalType": "uint256",
          "name": "",
          "type": "uint256"
        }
      ],
      "stateMutability": "view",
      "type": "function"
    },
    {
      "inputs": [
        {
          "internalType": "address",
          "name": "_collateralToken",
          "type": "address"
        },
        {
          "internalType": "address",
          "name": "_indexToken",
          "type": "address"
        },
        {
          "internalType": "bool",
          "name": "_isLong",
          "type": "bool"
        }
      ],
      "name": "getEntryFundingRate",
      "outputs": [
        {
          "internalType": "uint256",
          "name": "",
          "type": "uint256"
        }
      ],
      "stateMutability": "view",
      "type": "function"
    },
    {
      "inputs": [
        {
          "internalType": "address",
          "name": "_token",
          "type": "address"
        },
        {
          "internalType": "uint256",
          "name": "_usdvDelta",
          "type": "uint256"
        },
        {
          "internalType": "uint256",
          "name": "_feeBasisPoints",
          "type": "uint256"
        },
        {
          "internalType": "uint256",
          "name": "_taxBasisPoints",
          "type": "uint256"
        },
        {
          "internalType": "bool",
          "name": "_increment",
          "type": "bool"
        }
      ],
      "name": "getFeeBasisPoints",
      "outputs": [
        {
          "internalType": "uint256",
          "name": "",
          "type": "uint256"
        }
      ],
      "stateMutability": "view",
      "type": "function"
    },
    {
      "inputs": [
        {
          "internalType": "address",
          "name": "_account",
          "type": "address"
        },
        {
          "internalType": "address",
          "name": "_collateralToken",
          "type": "address"
        },
        {
          "internalType": "address",
          "name": "_indexToken",
          "type": "address"
        },
        {
          "internalType": "bool",
          "name": "_isLong",
          "type": "bool"
        },
        {
          "internalType": "uint256",
          "name": "_size",
          "type": "uint256"
        },
        {
          "internalType": "uint256",
          "name": "_entryFundingRate",
          "type": "uint256"
        }
      ],
      "name": "getFundingFee",
      "outputs": [
        {
          "internalType": "uint256",
          "name": "",
          "type": "uint256"
        }
      ],
      "stateMutability": "view",
      "type": "function"
    },
    {
      "inputs": [
        {
          "internalType": "address",
          "name": "_token",
          "type": "address"
        }
      ],
      "name": "getGlobalShortDelta",
      "outputs": [
        {
          "internalType": "bool",
          "name": "",
          "type": "bool"
        },
        {
          "internalType": "uint256",
          "name": "",
          "type": "uint256"
        }
      ],
      "stateMutability": "view",
      "type": "function"
    },
    {
      "inputs": [
        {
          "internalType": "address",
          "name": "_token",
          "type": "address"
        }
      ],
      "name": "getMaxPrice",
      "outputs": [
        {
          "internalType": "uint256",
          "name": "",
          "type": "uint256"
        }
      ],
      "stateMutability": "view",
      "type": "function"
    },
    {
      "inputs": [
        {
          "internalType": "address",
          "name": "_token",
          "type": "address"
        }
      ],
      "name": "getMinPrice",
      "outputs": [
        {
          "internalType": "uint256",
          "name": "",
          "type": "uint256"
        }
      ],
      "stateMutability": "view",
      "type": "function"
    },
    {
      "inputs": [
        {
          "internalType": "address",
          "name": "_indexToken",
          "type": "address"
        },
        {
          "internalType": "uint256",
          "name": "_size",
          "type": "uint256"
        },
        {
          "internalType": "uint256",
          "name": "_averagePrice",
          "type": "uint256"
        },
        {
          "internalType": "bool",
          "name": "_isLong",
          "type": "bool"
        },
        {
          "internalType": "uint256",
          "name": "_nextPrice",
          "type": "uint256"
        },
        {
          "internalType": "uint256",
          "name": "_sizeDelta",
          "type": "uint256"
        },
        {
          "internalType": "uint256",
          "name": "_lastIncreasedTime",
          "type": "uint256"
        }
      ],
      "name": "getNextAveragePrice",
      "outputs": [
        {
          "internalType": "uint256",
          "name": "",
          "type": "uint256"
        }
      ],
      "stateMutability": "view",
      "type": "function"
    },
    {
      "inputs": [
        {
          "internalType": "address",
          "name": "_token",
          "type": "address"
        }
      ],
      "name": "getNextFundingRate",
      "outputs": [
        {
          "internalType": "uint256",
          "name": "",
          "type": "uint256"
        }
      ],
      "stateMutability": "view",
      "type": "function"
    },
    {
      "inputs": [
        {
          "internalType": "address",
          "name": "_indexToken",
          "type": "address"
        },
        {
          "internalType": "uint256",
          "name": "_nextPrice",
          "type": "uint256"
        },
        {
          "internalType": "uint256",
          "name": "_sizeDelta",
          "type": "uint256"
        }
      ],
      "name": "getNextGlobalShortAveragePrice",
      "outputs": [
        {
          "internalType": "uint256",
          "name": "",
          "type": "uint256"
        }
      ],
      "stateMutability": "view",
      "type": "function"
    },
    {
      "inputs": [
        {
          "internalType": "address",
          "name": "_account",
          "type": "address"
        },
        {
          "internalType": "address",
          "name": "_collateralToken",
          "type": "address"
        },
        {
          "internalType": "address",
          "name": "_indexToken",
          "type": "address"
        },
        {
          "internalType": "bool",
          "name": "_isLong",
          "type": "bool"
        }
      ],
      "name": "getPosition",
      "outputs": [
        {
          "internalType": "uint256",
          "name": "",
          "type": "uint256"
        },
        {
          "internalType": "uint256",
          "name": "",
          "type": "uint256"
        },
        {
          "internalType": "uint256",
          "name": "",
          "type": "uint256"
        },
        {
          "internalType": "uint256",
          "name": "",
          "type": "uint256"
        },
        {
          "internalType": "uint256",
          "name": "",
          "type": "uint256"
        },
        {
          "internalType": "uint256",
          "name": "",
          "type": "uint256"
        },
        {
          "internalType": "bool",
          "name": "",
          "type": "bool"
        },
        {
          "internalType": "uint256",
          "name": "",
          "type": "uint256"
        }
      ],
      "stateMutability": "view",
      "type": "function"
    },
    {
      "inputs": [
        {
          "internalType": "address",
          "name": "_account",
          "type": "address"
        },
        {
          "internalType": "address",
          "name": "_collateralToken",
          "type": "address"
        },
        {
          "internalType": "address",
          "name": "_indexToken",
          "type": "address"
        },
        {
          "internalType": "bool",
          "name": "_isLong",
          "type": "bool"
        }
      ],
      "name": "getPositionDelta",
      "outputs": [
        {
          "internalType": "bool",
          "name": "",
          "type": "bool"
        },
        {
          "internalType": "uint256",
          "name": "",
          "type": "uint256"
        }
      ],
      "stateMutability": "view",
      "type": "function"
    },
    {
      "inputs": [
        {
          "internalType": "address",
          "name": "_account",
          "type": "address"
        },
        {
          "internalType": "address",
          "name": "_collateralToken",
          "type": "address"
        },
        {
          "internalType": "address",
          "name": "_indexToken",
          "type": "address"
        },
        {
          "internalType": "bool",
          "name": "_isLong",
          "type": "bool"
        },
        {
          "internalType": "uint256",
          "name": "_sizeDelta",
          "type": "uint256"
        }
      ],
      "name": "getPositionFee",
      "outputs": [
        {
          "internalType": "uint256",
          "name": "",
          "type": "uint256"
        }
      ],
      "stateMutability": "view",
      "type": "function"
    },
    {
      "inputs": [
        {
          "internalType": "address",
          "name": "_account",
          "type": "address"
        },
        {
          "internalType": "address",
          "name": "_collateralToken",
          "type": "address"
        },
        {
          "internalType": "address",
          "name": "_indexToken",
          "type": "address"
        },
        {
          "internalType": "bool",
          "name": "_isLong",
          "type": "bool"
        }
      ],
      "name": "getPositionKey",
      "outputs": [
        {
          "internalType": "bytes32",
          "name": "",
          "type": "bytes32"
        }
      ],
      "stateMutability": "pure",
      "type": "function"
    },
    {
      "inputs": [
        {
          "internalType": "address",
          "name": "_account",
          "type": "address"
        },
        {
          "internalType": "address",
          "name": "_collateralToken",
          "type": "address"
        },
        {
          "internalType": "address",
          "name": "_indexToken",
          "type": "address"
        },
        {
          "internalType": "bool",
          "name": "_isLong",
          "type": "bool"
        }
      ],
      "name": "getPositionLeverage",
      "outputs": [
        {
          "internalType": "uint256",
          "name": "",
          "type": "uint256"
        }
      ],
      "stateMutability": "view",
      "type": "function"
    },
    {
      "inputs": [
        {
          "internalType": "address",
          "name": "_token",
          "type": "address"
        },
        {
          "internalType": "uint256",
          "name": "_usdvAmount",
          "type": "uint256"
        }
      ],
      "name": "getRedemptionAmount",
      "outputs": [
        {
          "internalType": "uint256",
          "name": "",
          "type": "uint256"
        }
      ],
      "stateMutability": "view",
      "type": "function"
    },
    {
      "inputs": [
        {
          "internalType": "address",
          "name": "_token",
          "type": "address"
        }
      ],
      "name": "getRedemptionCollateral",
      "outputs": [
        {
          "internalType": "uint256",
          "name": "",
          "type": "uint256"
        }
      ],
      "stateMutability": "view",
      "type": "function"
    },
    {
      "inputs": [
        {
          "internalType": "address",
          "name": "_token",
          "type": "address"
        }
      ],
      "name": "getRedemptionCollateralUsd",
      "outputs": [
        {
          "internalType": "uint256",
          "name": "",
          "type": "uint256"
        }
      ],
      "stateMutability": "view",
      "type": "function"
    },
    {
      "inputs": [
        {
          "internalType": "address",
          "name": "_token",
          "type": "address"
        }
      ],
      "name": "getTargetUsdvAmount",
      "outputs": [
        {
          "internalType": "uint256",
          "name": "",
          "type": "uint256"
        }
      ],
      "stateMutability": "view",
      "type": "function"
    },
    {
      "inputs": [
        {
          "internalType": "address",
          "name": "_token",
          "type": "address"
        }
      ],
      "name": "getUtilisation",
      "outputs": [
        {
          "internalType": "uint256",
          "name": "",
          "type": "uint256"
        }
      ],
      "stateMutability": "view",
      "type": "function"
    },
    {
      "inputs": [
        {
          "internalType": "address",
          "name": "",
          "type": "address"
        }
      ],
      "name": "globalShortAveragePrices",
      "outputs": [
        {
          "internalType": "uint256",
          "name": "",
          "type": "uint256"
        }
      ],
      "stateMutability": "view",
      "type": "function"
    },
    {
      "inputs": [
        {
          "internalType": "address",
          "name": "",
          "type": "address"
        }
      ],
      "name": "globalShortSizes",
      "outputs": [
        {
          "internalType": "uint256",
          "name": "",
          "type": "uint256"
        }
      ],
      "stateMutability": "view",
      "type": "function"
    },
    {
      "inputs": [],
      "name": "gov",
      "outputs": [
        {
          "internalType": "address",
          "name": "",
          "type": "address"
        }
      ],
      "stateMutability": "view",
      "type": "function"
    },
    {
      "inputs": [
        {
          "internalType": "address",
          "name": "",
          "type": "address"
        }
      ],
      "name": "guaranteedUsd",
      "outputs": [
        {
          "internalType": "uint256",
          "name": "",
          "type": "uint256"
        }
      ],
      "stateMutability": "view",
      "type": "function"
    },
    {
      "inputs": [],
      "name": "hasDynamicFees",
      "outputs": [
        {
          "internalType": "bool",
          "name": "",
          "type": "bool"
        }
      ],
      "stateMutability": "view",
      "type": "function"
    },
    {
      "inputs": [],
      "name": "inManagerMode",
      "outputs": [
        {
          "internalType": "bool",
          "name": "",
          "type": "bool"
        }
      ],
      "stateMutability": "view",
      "type": "function"
    },
    {
      "inputs": [],
      "name": "inPrivateLiquidationMode",
      "outputs": [
        {
          "internalType": "bool",
          "name": "",
          "type": "bool"
        }
      ],
      "stateMutability": "view",
      "type": "function"
    },
    {
      "inputs": [],
      "name": "includeAmmPrice",
      "outputs": [
        {
          "internalType": "bool",
          "name": "",
          "type": "bool"
        }
      ],
      "stateMutability": "view",
      "type": "function"
    },
    {
      "inputs": [
        {
          "internalType": "address",
          "name": "_account",
          "type": "address"
        },
        {
          "internalType": "address",
          "name": "_collateralToken",
          "type": "address"
        },
        {
          "internalType": "address",
          "name": "_indexToken",
          "type": "address"
        },
        {
          "internalType": "uint256",
          "name": "_sizeDelta",
          "type": "uint256"
        },
        {
          "internalType": "bool",
          "name": "_isLong",
          "type": "bool"
        }
      ],
      "name": "increasePosition",
      "outputs": [],
      "stateMutability": "nonpayable",
      "type": "function"
    },
    {
      "inputs": [
        {
          "internalType": "address",
          "name": "_router",
          "type": "address"
        },
        {
          "internalType": "address",
          "name": "_usdv",
          "type": "address"
        },
        {
          "internalType": "address",
          "name": "_priceFeed",
          "type": "address"
        },
        {
          "internalType": "uint256",
          "name": "_liquidationFeeUsd",
          "type": "uint256"
        },
        {
          "internalType": "uint256",
          "name": "_fundingRateFactor",
          "type": "uint256"
        },
        {
          "internalType": "uint256",
          "name": "_stableFundingRateFactor",
          "type": "uint256"
        }
      ],
      "name": "initialize",
      "outputs": [],
      "stateMutability": "nonpayable",
      "type": "function"
    },
    {
      "inputs": [],
      "name": "isInitialized",
      "outputs": [
        {
          "internalType": "bool",
          "name": "",
          "type": "bool"
        }
      ],
      "stateMutability": "view",
      "type": "function"
    },
    {
      "inputs": [],
      "name": "isLeverageEnabled",
      "outputs": [
        {
          "internalType": "bool",
          "name": "",
          "type": "bool"
        }
      ],
      "stateMutability": "view",
      "type": "function"
    },
    {
      "inputs": [
        {
          "internalType": "address",
          "name": "",
          "type": "address"
        }
      ],
      "name": "isLiquidator",
      "outputs": [
        {
          "internalType": "bool",
          "name": "",
          "type": "bool"
        }
      ],
      "stateMutability": "view",
      "type": "function"
    },
    {
      "inputs": [
        {
          "internalType": "address",
          "name": "",
          "type": "address"
        }
      ],
      "name": "isManager",
      "outputs": [
        {
          "internalType": "bool",
          "name": "",
          "type": "bool"
        }
      ],
      "stateMutability": "view",
      "type": "function"
    },
    {
      "inputs": [],
      "name": "isSwapEnabled",
      "outputs": [
        {
          "internalType": "bool",
          "name": "",
          "type": "bool"
        }
      ],
      "stateMutability": "view",
      "type": "function"
    },
    {
      "inputs": [
        {
          "internalType": "address",
          "name": "",
          "type": "address"
        }
      ],
      "name": "lastFundingTimes",
      "outputs": [
        {
          "internalType": "uint256",
          "name": "",
          "type": "uint256"
        }
      ],
      "stateMutability": "view",
      "type": "function"
    },
    {
      "inputs": [
        {
          "internalType": "address",
          "name": "_account",
          "type": "address"
        },
        {
          "internalType": "address",
          "name": "_collateralToken",
          "type": "address"
        },
        {
          "internalType": "address",
          "name": "_indexToken",
          "type": "address"
        },
        {
          "internalType": "bool",
          "name": "_isLong",
          "type": "bool"
        },
        {
          "internalType": "address",
          "name": "_feeReceiver",
          "type": "address"
        }
      ],
      "name": "liquidatePosition",
      "outputs": [],
      "stateMutability": "nonpayable",
      "type": "function"
    },
    {
      "inputs": [],
      "name": "liquidationFeeUsd",
      "outputs": [
        {
          "internalType": "uint256",
          "name": "",
          "type": "uint256"
        }
      ],
      "stateMutability": "view",
      "type": "function"
    },
    {
      "inputs": [],
      "name": "marginFeeBasisPoints",
      "outputs": [
        {
          "internalType": "uint256",
          "name": "",
          "type": "uint256"
        }
      ],
      "stateMutability": "view",
      "type": "function"
    },
    {
      "inputs": [],
      "name": "maxGasPrice",
      "outputs": [
        {
          "internalType": "uint256",
          "name": "",
          "type": "uint256"
        }
      ],
      "stateMutability": "view",
      "type": "function"
    },
    {
      "inputs": [
        {
          "internalType": "address",
          "name": "",
          "type": "address"
        }
      ],
      "name": "maxGlobalShortSizes",
      "outputs": [
        {
          "internalType": "uint256",
          "name": "",
          "type": "uint256"
        }
      ],
      "stateMutability": "view",
      "type": "function"
    },
    {
      "inputs": [],
      "name": "maxLeverage",
      "outputs": [
        {
          "internalType": "uint256",
          "name": "",
          "type": "uint256"
        }
      ],
      "stateMutability": "view",
      "type": "function"
    },
    {
      "inputs": [
        {
          "internalType": "address",
          "name": "",
          "type": "address"
        }
      ],
      "name": "maxUsdvAmounts",
      "outputs": [
        {
          "internalType": "uint256",
          "name": "",
          "type": "uint256"
        }
      ],
      "stateMutability": "view",
      "type": "function"
    },
    {
      "inputs": [
        {
          "internalType": "address",
          "name": "",
          "type": "address"
        }
      ],
      "name": "minProfitBasisPoints",
      "outputs": [
        {
          "internalType": "uint256",
          "name": "",
          "type": "uint256"
        }
      ],
      "stateMutability": "view",
      "type": "function"
    },
    {
      "inputs": [],
      "name": "minProfitTime",
      "outputs": [
        {
          "internalType": "uint256",
          "name": "",
          "type": "uint256"
        }
      ],
      "stateMutability": "view",
      "type": "function"
    },
    {
      "inputs": [],
      "name": "mintBurnFeeBasisPoints",
      "outputs": [
        {
          "internalType": "uint256",
          "name": "",
          "type": "uint256"
        }
      ],
      "stateMutability": "view",
      "type": "function"
    },
    {
      "inputs": [
        {
          "internalType": "address",
          "name": "",
          "type": "address"
        }
      ],
      "name": "poolAmounts",
      "outputs": [
        {
          "internalType": "uint256",
          "name": "",
          "type": "uint256"
        }
      ],
      "stateMutability": "view",
      "type": "function"
    },
    {
      "inputs": [
        {
          "internalType": "bytes32",
          "name": "",
          "type": "bytes32"
        }
      ],
      "name": "positions",
      "outputs": [
        {
          "internalType": "uint256",
          "name": "size",
          "type": "uint256"
        },
        {
          "internalType": "uint256",
          "name": "collateral",
          "type": "uint256"
        },
        {
          "internalType": "uint256",
          "name": "averagePrice",
          "type": "uint256"
        },
        {
          "internalType": "uint256",
          "name": "entryFundingRate",
          "type": "uint256"
        },
        {
          "internalType": "uint256",
          "name": "reserveAmount",
          "type": "uint256"
        },
        {
          "internalType": "int256",
          "name": "realisedPnl",
          "type": "int256"
        },
        {
          "internalType": "uint256",
          "name": "lastIncreasedTime",
          "type": "uint256"
        }
      ],
      "stateMutability": "view",
      "type": "function"
    },
    {
      "inputs": [],
      "name": "priceFeed",
      "outputs": [
        {
          "internalType": "address",
          "name": "",
          "type": "address"
        }
      ],
      "stateMutability": "view",
      "type": "function"
    },
    {
      "inputs": [
        {
          "internalType": "address",
          "name": "_router",
          "type": "address"
        }
      ],
      "name": "removeRouter",
      "outputs": [],
      "stateMutability": "nonpayable",
      "type": "function"
    },
    {
      "inputs": [
        {
          "internalType": "address",
          "name": "",
          "type": "address"
        }
      ],
      "name": "reservedAmounts",
      "outputs": [
        {
          "internalType": "uint256",
          "name": "",
          "type": "uint256"
        }
      ],
      "stateMutability": "view",
      "type": "function"
    },
    {
      "inputs": [],
      "name": "router",
      "outputs": [
        {
          "internalType": "address",
          "name": "",
          "type": "address"
        }
      ],
      "stateMutability": "view",
      "type": "function"
    },
    {
      "inputs": [
        {
          "internalType": "address",
          "name": "_token",
          "type": "address"
        },
        {
          "internalType": "address",
          "name": "_receiver",
          "type": "address"
        }
      ],
      "name": "sellUSDV",
      "outputs": [
        {
          "internalType": "uint256",
          "name": "",
          "type": "uint256"
        }
      ],
      "stateMutability": "nonpayable",
      "type": "function"
    },
    {
      "inputs": [
        {
          "internalType": "address",
          "name": "_token",
          "type": "address"
        },
        {
          "internalType": "uint256",
          "name": "_amount",
          "type": "uint256"
        }
      ],
      "name": "setBufferAmount",
      "outputs": [],
      "stateMutability": "nonpayable",
      "type": "function"
    },
    {
      "inputs": [
        {
          "internalType": "uint256",
          "name": "_errorCode",
          "type": "uint256"
        },
        {
          "internalType": "string",
          "name": "_error",
          "type": "string"
        }
      ],
      "name": "setError",
      "outputs": [],
      "stateMutability": "nonpayable",
      "type": "function"
    },
    {
      "inputs": [
        {
          "internalType": "address",
          "name": "_errorController",
          "type": "address"
        }
      ],
      "name": "setErrorController",
      "outputs": [],
      "stateMutability": "nonpayable",
      "type": "function"
    },
    {
      "inputs": [
        {
          "internalType": "uint256",
          "name": "_taxBasisPoints",
          "type": "uint256"
        },
        {
          "internalType": "uint256",
          "name": "_stableTaxBasisPoints",
          "type": "uint256"
        },
        {
          "internalType": "uint256",
          "name": "_mintBurnFeeBasisPoints",
          "type": "uint256"
        },
        {
          "internalType": "uint256",
          "name": "_swapFeeBasisPoints",
          "type": "uint256"
        },
        {
          "internalType": "uint256",
          "name": "_stableSwapFeeBasisPoints",
          "type": "uint256"
        },
        {
          "internalType": "uint256",
          "name": "_marginFeeBasisPoints",
          "type": "uint256"
        },
        {
          "internalType": "uint256",
          "name": "_liquidationFeeUsd",
          "type": "uint256"
        },
        {
          "internalType": "uint256",
          "name": "_minProfitTime",
          "type": "uint256"
        },
        {
          "internalType": "bool",
          "name": "_hasDynamicFees",
          "type": "bool"
        }
      ],
      "name": "setFees",
      "outputs": [],
      "stateMutability": "nonpayable",
      "type": "function"
    },
    {
      "inputs": [
        {
          "internalType": "uint256",
          "name": "_fundingInterval",
          "type": "uint256"
        },
        {
          "internalType": "uint256",
          "name": "_fundingRateFactor",
          "type": "uint256"
        },
        {
          "internalType": "uint256",
          "name": "_stableFundingRateFactor",
          "type": "uint256"
        }
      ],
      "name": "setFundingRate",
      "outputs": [],
      "stateMutability": "nonpayable",
      "type": "function"
    },
    {
      "inputs": [
        {
          "internalType": "address",
          "name": "_gov",
          "type": "address"
        }
      ],
      "name": "setGov",
      "outputs": [],
      "stateMutability": "nonpayable",
      "type": "function"
    },
    {
      "inputs": [
        {
          "internalType": "bool",
          "name": "_inManagerMode",
          "type": "bool"
        }
      ],
      "name": "setInManagerMode",
      "outputs": [],
      "stateMutability": "nonpayable",
      "type": "function"
    },
    {
      "inputs": [
        {
          "internalType": "bool",
          "name": "_inPrivateLiquidationMode",
          "type": "bool"
        }
      ],
      "name": "setInPrivateLiquidationMode",
      "outputs": [],
      "stateMutability": "nonpayable",
      "type": "function"
    },
    {
      "inputs": [
        {
          "internalType": "bool",
          "name": "_isLeverageEnabled",
          "type": "bool"
        }
      ],
      "name": "setIsLeverageEnabled",
      "outputs": [],
      "stateMutability": "nonpayable",
      "type": "function"
    },
    {
      "inputs": [
        {
          "internalType": "bool",
          "name": "_isSwapEnabled",
          "type": "bool"
        }
      ],
      "name": "setIsSwapEnabled",
      "outputs": [],
      "stateMutability": "nonpayable",
      "type": "function"
    },
    {
      "inputs": [
        {
          "internalType": "address",
          "name": "_liquidator",
          "type": "address"
        },
        {
          "internalType": "bool",
          "name": "_isActive",
          "type": "bool"
        }
      ],
      "name": "setLiquidator",
      "outputs": [],
      "stateMutability": "nonpayable",
      "type": "function"
    },
    {
      "inputs": [
        {
          "internalType": "address",
          "name": "_manager",
          "type": "address"
        },
        {
          "internalType": "bool",
          "name": "_isManager",
          "type": "bool"
        }
      ],
      "name": "setManager",
      "outputs": [],
      "stateMutability": "nonpayable",
      "type": "function"
    },
    {
      "inputs": [
        {
          "internalType": "uint256",
          "name": "_maxGasPrice",
          "type": "uint256"
        }
      ],
      "name": "setMaxGasPrice",
      "outputs": [],
      "stateMutability": "nonpayable",
      "type": "function"
    },
    {
      "inputs": [
        {
          "internalType": "address",
          "name": "_token",
          "type": "address"
        },
        {
          "internalType": "uint256",
          "name": "_amount",
          "type": "uint256"
        }
      ],
      "name": "setMaxGlobalShortSize",
      "outputs": [],
      "stateMutability": "nonpayable",
      "type": "function"
    },
    {
      "inputs": [
        {
          "internalType": "uint256",
          "name": "_maxLeverage",
          "type": "uint256"
        }
      ],
      "name": "setMaxLeverage",
      "outputs": [],
      "stateMutability": "nonpayable",
      "type": "function"
    },
    {
      "inputs": [
        {
          "internalType": "address",
          "name": "_priceFeed",
          "type": "address"
        }
      ],
      "name": "setPriceFeed",
      "outputs": [],
      "stateMutability": "nonpayable",
      "type": "function"
    },
    {
      "inputs": [
        {
          "internalType": "address",
          "name": "_token",
          "type": "address"
        },
        {
          "internalType": "uint256",
          "name": "_tokenDecimals",
          "type": "uint256"
        },
        {
          "internalType": "uint256",
          "name": "_tokenWeight",
          "type": "uint256"
        },
        {
          "internalType": "uint256",
          "name": "_minProfitBps",
          "type": "uint256"
        },
        {
          "internalType": "uint256",
          "name": "_maxUsdvAmount",
          "type": "uint256"
        },
        {
          "internalType": "bool",
          "name": "_isStable",
          "type": "bool"
        },
        {
          "internalType": "bool",
          "name": "_isShortable",
          "type": "bool"
        }
      ],
      "name": "setTokenConfig",
      "outputs": [],
      "stateMutability": "nonpayable",
      "type": "function"
    },
    {
      "inputs": [
        {
          "internalType": "address",
          "name": "_token",
          "type": "address"
        },
        {
          "internalType": "uint256",
          "name": "_amount",
          "type": "uint256"
        }
      ],
      "name": "setUsdvAmount",
      "outputs": [],
      "stateMutability": "nonpayable",
      "type": "function"
    },
    {
      "inputs": [
        {
          "internalType": "contract IVaultUtils",
          "name": "_vaultUtils",
          "type": "address"
        }
      ],
      "name": "setVaultUtils",
      "outputs": [],
      "stateMutability": "nonpayable",
      "type": "function"
    },
    {
      "inputs": [
        {
          "internalType": "address",
          "name": "",
          "type": "address"
        }
      ],
      "name": "shortableTokens",
      "outputs": [
        {
          "internalType": "bool",
          "name": "",
          "type": "bool"
        }
      ],
      "stateMutability": "view",
      "type": "function"
    },
    {
      "inputs": [],
      "name": "stableFundingRateFactor",
      "outputs": [
        {
          "internalType": "uint256",
          "name": "",
          "type": "uint256"
        }
      ],
      "stateMutability": "view",
      "type": "function"
    },
    {
      "inputs": [],
      "name": "stableSwapFeeBasisPoints",
      "outputs": [
        {
          "internalType": "uint256",
          "name": "",
          "type": "uint256"
        }
      ],
      "stateMutability": "view",
      "type": "function"
    },
    {
      "inputs": [],
      "name": "stableTaxBasisPoints",
      "outputs": [
        {
          "internalType": "uint256",
          "name": "",
          "type": "uint256"
        }
      ],
      "stateMutability": "view",
      "type": "function"
    },
    {
      "inputs": [
        {
          "internalType": "address",
          "name": "",
          "type": "address"
        }
      ],
      "name": "stableTokens",
      "outputs": [
        {
          "internalType": "bool",
          "name": "",
          "type": "bool"
        }
      ],
      "stateMutability": "view",
      "type": "function"
    },
    {
      "inputs": [
        {
          "internalType": "address",
          "name": "_tokenIn",
          "type": "address"
        },
        {
          "internalType": "address",
          "name": "_tokenOut",
          "type": "address"
        },
        {
          "internalType": "address",
          "name": "_receiver",
          "type": "address"
        }
      ],
      "name": "swap",
      "outputs": [
        {
          "internalType": "uint256",
          "name": "",
          "type": "uint256"
        }
      ],
      "stateMutability": "nonpayable",
      "type": "function"
    },
    {
      "inputs": [],
      "name": "swapFeeBasisPoints",
      "outputs": [
        {
          "internalType": "uint256",
          "name": "",
          "type": "uint256"
        }
      ],
      "stateMutability": "view",
      "type": "function"
    },
    {
      "inputs": [],
      "name": "taxBasisPoints",
      "outputs": [
        {
          "internalType": "uint256",
          "name": "",
          "type": "uint256"
        }
      ],
      "stateMutability": "view",
      "type": "function"
    },
    {
      "inputs": [
        {
          "internalType": "address",
          "name": "",
          "type": "address"
        }
      ],
      "name": "tokenBalances",
      "outputs": [
        {
          "internalType": "uint256",
          "name": "",
          "type": "uint256"
        }
      ],
      "stateMutability": "view",
      "type": "function"
    },
    {
      "inputs": [
        {
          "internalType": "address",
          "name": "",
          "type": "address"
        }
      ],
      "name": "tokenDecimals",
      "outputs": [
        {
          "internalType": "uint256",
          "name": "",
          "type": "uint256"
        }
      ],
      "stateMutability": "view",
      "type": "function"
    },
    {
      "inputs": [
        {
          "internalType": "address",
          "name": "_token",
          "type": "address"
        },
        {
          "internalType": "uint256",
          "name": "_tokenAmount",
          "type": "uint256"
        }
      ],
      "name": "tokenToUsdMin",
      "outputs": [
        {
          "internalType": "uint256",
          "name": "",
          "type": "uint256"
        }
      ],
      "stateMutability": "view",
      "type": "function"
    },
    {
      "inputs": [
        {
          "internalType": "address",
          "name": "",
          "type": "address"
        }
      ],
      "name": "tokenWeights",
      "outputs": [
        {
          "internalType": "uint256",
          "name": "",
          "type": "uint256"
        }
      ],
      "stateMutability": "view",
      "type": "function"
    },
    {
      "inputs": [],
      "name": "totalTokenWeights",
      "outputs": [
        {
          "internalType": "uint256",
          "name": "",
          "type": "uint256"
        }
      ],
      "stateMutability": "view",
      "type": "function"
    },
    {
      "inputs": [
        {
          "internalType": "address",
          "name": "_collateralToken",
          "type": "address"
        },
        {
          "internalType": "address",
          "name": "_indexToken",
          "type": "address"
        }
      ],
      "name": "updateCumulativeFundingRate",
      "outputs": [],
      "stateMutability": "nonpayable",
      "type": "function"
    },
    {
      "inputs": [
        {
          "internalType": "address",
          "name": "_newVault",
          "type": "address"
        },
        {
          "internalType": "address",
          "name": "_token",
          "type": "address"
        },
        {
          "internalType": "uint256",
          "name": "_amount",
          "type": "uint256"
        }
      ],
      "name": "upgradeVault",
      "outputs": [],
      "stateMutability": "nonpayable",
      "type": "function"
    },
    {
      "inputs": [
        {
          "internalType": "address",
          "name": "_token",
          "type": "address"
        },
        {
          "internalType": "uint256",
          "name": "_usdAmount",
          "type": "uint256"
        },
        {
          "internalType": "uint256",
          "name": "_price",
          "type": "uint256"
        }
      ],
      "name": "usdToToken",
      "outputs": [
        {
          "internalType": "uint256",
          "name": "",
          "type": "uint256"
        }
      ],
      "stateMutability": "view",
      "type": "function"
    },
    {
      "inputs": [
        {
          "internalType": "address",
          "name": "_token",
          "type": "address"
        },
        {
          "internalType": "uint256",
          "name": "_usdAmount",
          "type": "uint256"
        }
      ],
      "name": "usdToTokenMax",
      "outputs": [
        {
          "internalType": "uint256",
          "name": "",
          "type": "uint256"
        }
      ],
      "stateMutability": "view",
      "type": "function"
    },
    {
      "inputs": [
        {
          "internalType": "address",
          "name": "_token",
          "type": "address"
        },
        {
          "internalType": "uint256",
          "name": "_usdAmount",
          "type": "uint256"
        }
      ],
      "name": "usdToTokenMin",
      "outputs": [
        {
          "internalType": "uint256",
          "name": "",
          "type": "uint256"
        }
      ],
      "stateMutability": "view",
      "type": "function"
    },
    {
      "inputs": [],
      "name": "usdv",
      "outputs": [
        {
          "internalType": "address",
          "name": "",
          "type": "address"
        }
      ],
      "stateMutability": "view",
      "type": "function"
    },
    {
      "inputs": [
        {
          "internalType": "address",
          "name": "",
          "type": "address"
        }
      ],
      "name": "usdvAmounts",
      "outputs": [
        {
          "internalType": "uint256",
          "name": "",
          "type": "uint256"
        }
      ],
      "stateMutability": "view",
      "type": "function"
    },
    {
      "inputs": [],
      "name": "useSwapPricing",
      "outputs": [
        {
          "internalType": "bool",
          "name": "",
          "type": "bool"
        }
      ],
      "stateMutability": "view",
      "type": "function"
    },
    {
      "inputs": [
        {
          "internalType": "address",
          "name": "_account",
          "type": "address"
        },
        {
          "internalType": "address",
          "name": "_collateralToken",
          "type": "address"
        },
        {
          "internalType": "address",
          "name": "_indexToken",
          "type": "address"
        },
        {
          "internalType": "bool",
          "name": "_isLong",
          "type": "bool"
        },
        {
          "internalType": "bool",
          "name": "_raise",
          "type": "bool"
        }
      ],
      "name": "validateLiquidation",
      "outputs": [
        {
          "internalType": "uint256",
          "name": "",
          "type": "uint256"
        },
        {
          "internalType": "uint256",
          "name": "",
          "type": "uint256"
        }
      ],
      "stateMutability": "view",
      "type": "function"
    },
    {
      "inputs": [],
      "name": "vaultUtils",
      "outputs": [
        {
          "internalType": "contract IVaultUtils",
          "name": "",
          "type": "address"
        }
      ],
      "stateMutability": "view",
      "type": "function"
    },
    {
      "inputs": [],
      "name": "whitelistedTokenCount",
      "outputs": [
        {
          "internalType": "uint256",
          "name": "",
          "type": "uint256"
        }
      ],
      "stateMutability": "view",
      "type": "function"
    },
    {
      "inputs": [
        {
          "internalType": "address",
          "name": "",
          "type": "address"
        }
      ],
      "name": "whitelistedTokens",
      "outputs": [
        {
          "internalType": "bool",
          "name": "",
          "type": "bool"
        }
      ],
      "stateMutability": "view",
      "type": "function"
    },
    {
      "inputs": [
        {
          "internalType": "address",
          "name": "_token",
          "type": "address"
        },
        {
          "internalType": "address",
          "name": "_receiver",
          "type": "address"
        }
      ],
      "name": "withdrawFees",
      "outputs": [
        {
          "internalType": "uint256",
          "name": "",
          "type": "uint256"
        }
      ],
      "stateMutability": "nonpayable",
      "type": "function"
    }
  ],
  "bytecode": "0x60808060405234620000d65760016000556201010062ffff001960015416176001556207a1206008556032600a556014600b55601e600c55601e600d55620000476004600e55565b62000052600a600f55565b6200006260ff1960115416601155565b6200006e617080601255565b62000081600160ff196016541617601655565b6200009261ff001960165416601655565b620000a462ff00001960165416601655565b620000b763ff0000001960165416601655565b600680546001600160a01b03191633179055615ffc9081620000dc8239f35b600080fdfe60806040526004361015610013575b600080fd5b60003560e01c806304fef1db1461099d57806307c58752146109945780630842b0761461098b5780630a48d5a91461098257806310eb56c214610979578063126082cf1461076f57806312d43a5114610970578063134ca63b14610967578063174d26941461095e578063181e210e146109555780631b7f680c1461094c5780631ce9cb8f14610943578063230450851461093a57806324b0c04d1461093157806324ca984e1461092857806328e67be51461091f57806329ff9615146109165780632c668ec11461090d5780632d4b05761461090457806330455ede146108fb578063318bc689146108f257806334c1557d1461076f578063351a964d146108e9578063392e53cd146108e05780633c5a6e35146108d75780633de39c11146108ce5780633e72a262146108c557806340eb3802146108bc57806342152873146108b357806342b60b03146108aa5780634453a374146108a157806345a6f3701461089857806348d91abf1461088f57806348f35cbb146108865780634a3f088d1461087d5780634a993ee9146108745780634befe2ca1461086b5780634d47b30414610862578063514ea4bf1461085957806351723e8214610850578063523fba7f14610847578063529a356f1461083e57806352f55eed146108355780635c07eaab1461082c5780635f7bc11914610823578063609221991461081a57806362287a321461081157806362749803146108085780636abbe0c8146107ff5780636ae0b154146107f65780636be6026b146107ed57806371089f4d146107e4578063724e78da146107db578063728cdbca146107d2578063741bef1a146107c95780637a210a2b146107c05780637c2eb9f7146107b757806381a612d6146107ae57806382a08490146107a55780638585f4d21461079c57806388b1fbdf1461079357806388fff2df1461078a57806389e2d84d146107815780638a27d468146107785780638a39735a1461076f5780638a78daa8146107665780638ee573ac1461075d5780638f7b8404146107545780639060b1ca1461074b5780639213472b1461074257806393316212146107395780639420069c1461073057806395082d25146107275780639698d25a1461071e5780639849e412146107155780639899cd021461070c5780639d7432ca146107035780639f392eb3146106fa578063a22f2392146106f1578063a42ab3d2146106e8578063a5e90eee146106df578063a93acac2146106d6578063ab08c1c6146106cd578063ab2f3ad4146106c4578063ae3302c2146106bb578063b06423f3146106b2578063b136ca49146106a9578063b1cc53ab146106a0578063b364accb14610697578063c3c7b9e91461068e578063c4f718bf14610685578063c65bc7b11461067c578063c7e074c314610673578063cea0c3281461066a578063cfad57a214610661578063d2fa635e14610658578063d3127e631461064f578063d54d5a9f14610646578063d8f897c31461063d578063d9ac422514610634578063da76524c1461062b578063daf9c21014610622578063db3555fb14610619578063db97495f14610610578063dc8f5fac14610607578063de2ea948146105fe578063df73a267146105f5578063e124e6d2146105ec578063e1b58852146105e3578063e468baf0146105da578063e67f59a7146105d1578063e914fbfe146105c8578063efa10a6e146105bf578063f07456ce146105b6578063f07bbf77146105ad578063f2555278146105a4578063f3ae24151461059b578063f887ea4014610592578063fa12dbc014610589578063fbfded6d14610580578063fce28c1014610577578063fdaf6ac31461056e5763fed1a6061461056657600080fd5b61000e6136e9565b5061000e613577565b5061000e613559565b5061000e613541565b5061000e613527565b5061000e6134fd565b5061000e6134ba565b5061000e6134a0565b5061000e61345b565b5061000e61341d565b5061000e6133d9565b5061000e6133af565b5061000e6132eb565b5061000e6132a1565b5061000e613263565b5061000e613240565b5061000e613221565b5061000e6131ae565b5061000e61318f565b5061000e613147565b5061000e613105565b5061000e6130c2565b5061000e61306c565b5061000e61304d565b5061000e61300f565b5061000e612f17565b5061000e612eeb565b5061000e612ec9565b5061000e612e81565b5061000e612e39565b5061000e612d72565b5061000e612d34565b5061000e612d15565b5061000e612cd7565b5061000e612cb1565b5061000e612c70565b5061000e612c48565b5061000e612c21565b5061000e612c02565b5061000e612bc4565b5061000e612ba0565b5061000e612b78565b5061000e612b41565b5061000e612b15565b5061000e612af6565b5061000e612ad2565b5061000e612ab8565b5061000e612a69565b5061000e612a4a565b5061000e612a0c565b5061000e6129e3565b5061000e6129b9565b5061000e612764565b5061000e61257e565b5061000e612557565b5061000e61250f565b5061000e6124d1565b5061000e612493565b5061000e610adf565b5061000e612436565b5061000e6123f8565b5061000e6123d0565b5061000e612392565b5061000e61234e565b5061000e6122af565b5061000e612287565b5061000e612244565b5061000e612225565b5061000e6121fb565b5061000e612144565b5061000e6120fc565b5061000e6120ab565b5061000e61208c565b5061000e612061565b5061000e612033565b5061000e611ff5565b5061000e611fd6565b5061000e611f97565b5061000e611eec565b5061000e611eae565b5061000e611e70565b5061000e611e2d565b5061000e611def565b5061000e611d5f565b5061000e611d0a565b5061000e611cad565b5061000e611c8f565b5061000e611c51565b5061000e611b62565b5061000e611b38565b5061000e61174f565b5061000e6116b5565b5061000e61167e565b5061000e611616565b5061000e6115de565b5061000e6114b2565b5061000e61148b565b5061000e61146c565b5061000e611346565b5061000e611322565b5061000e6112fb565b5061000e6112dc565b5061000e61129b565b5061000e61127e565b5061000e611213565b5061000e6111e1565b5061000e611068565b5061000e611027565b5061000e610fe4565b5061000e610fbd565b5061000e610f7f565b5061000e610bb4565b5061000e610b65565b5061000e610b46565b5061000e610b27565b5061000e610afd565b5061000e610ac0565b5061000e610a94565b5061000e610a75565b5061000e610a4b565b5061000e6109c3565b6001600160a01b031690565b6001600160a01b0381160361000e57565b503461000e57602036600319011261000e5760206109eb6004356109e6816109b2565b6146d2565b604051908152f35b600091031261000e57565b50634e487b7160e01b600052601160045260246000fd5b612710908060001904821181151516610a2c570290565b610a346109fe565b0290565b8060001904821181151516610a2c570290565b503461000e57600036600319011261000e576040516904ee2d6d415b85acef8160201b8152602090f35b503461000e57600036600319011261000e576020601b54604051908152f35b503461000e57604036600319011261000e5760206109eb600435610ab7816109b2565b602435906143a5565b503461000e57600036600319011261000e576020600b54604051908152f35b503461000e57600036600319011261000e5760206040516127108152f35b503461000e57600036600319011261000e576006546040516001600160a01b039091168152602090f35b503461000e57600036600319011261000e576020601454604051908152f35b503461000e57600036600319011261000e576020600954604051908152f35b503461000e57600036600319011261000e57602060ff60165460181c166040519015158152f35b604090600319011261000e57600435610ba4816109b2565b90602435610bb1816109b2565b90565b503461000e57610bc336610b8c565b600091610bd4600284541415613bc5565b60028355610be0615ecd565b610bfb610bf6610bef83610dfd565b5460ff1690565b6137b2565b610c0361381e565b610c0c8161579a565b91610c188315156137b2565b610c2282806144c7565b610c9f610c2e836141f4565b936020610c65610c53610c418885610a38565b68327cb2734119d3b7a9601e1b900490565b86610c5f6005546109a6565b91614330565b610c708115156137b2565b610c83610c7e600154613c11565b6109a6565b6040518080968194634469a3d960e11b83528a600484016139ad565b03915afa918215610df0575b8692610dc0575b50610ce2610cd1610c53610c41610cca86868a615665565b9889610a38565b95610cdc8787615ad6565b856158ef565b610cf3610c7e610c7e6005546109a6565b803b15610dbc579185610d65927fcceffdea42378124e3ece73ba33b4393186dd541462987b978f5c9344de07685969594610d929960405180926340c10f1960e01b8252818381610d48898d600484016139ad565b03925af18015610daf575b610d96575b5060405195869586613c3c565b0390a1610d7861ff001960165416601655565b610d826001600055565b6040519081529081906020820190565b0390f35b80610da3610da992613619565b806109f3565b38610d58565b610db7613c2f565b610d53565b8680fd5b610de291925060203d8111610de9575b610dda818361366f565b810190613c20565b9038610cb2565b503d610dd0565b610df8613c2f565b610cab565b6001600160a01b03166000908152601c6020526040902090565b6001600160a01b0316600090815260226020526040902090565b6001600160a01b03166000908152601d6020526040902090565b6001600160a01b03166000908152601e6020526040902090565b6001600160a01b0316600090815260246020526040902090565b6001600160a01b03166000908152601f6020526040902090565b6001600160a01b03166000908152602080526040902090565b6001600160a01b03166000908152602e6020526040902090565b6001600160a01b03166000908152602c6020526040902090565b6001600160a01b0316600090815260256020526040902090565b6001600160a01b0316600090815260266020526040902090565b6001600160a01b03166000908152602a6020526040902090565b6001600160a01b0316600090815260296020526040902090565b6001600160a01b0316600090815260236020526040902090565b9060018060a01b0316600052602052604060002090565b503461000e57602036600319011261000e57600435610f9d816109b2565b60018060a01b0316600052602c6020526020604060002054604051908152f35b503461000e57600036600319011261000e57602060405160128152f35b8015150361000e57565b503461000e57602036600319011261000e5760043561100281610fda565b61100a615eb9565b6016805462ff0000191691151560101b62ff000016919091179055005b503461000e57602036600319011261000e5761105b600435611048816109b2565b3360005260186020526040600020610f68565b805460ff19166001179055005b503461000e57604036600319011261000e5760246001600160401b03813581811161000e573660238201121561000e57806004013591821161000e573683838301011161000e576002546001600160a01b0316330361119d5760009160043583526020936030855260408420926110e9836110e386546135c8565b866137ca565b8495601f841160011461112a57509484958394959361111d575b5050508160011b916000199060031b1c1916179055604051f35b0101359050388080611103565b91601f1984169661114086600052602060002090565b9387905b89821061118357505084600196979810611167575b50505050811b019055604051f35b60001960f88660031b161c199201013516905538808080611159565b806001849786839596890101358155019601920190611144565b60405162461bcd60e51b815260206004820152601e818501527f5661756c743a20696e76616c6964206572726f72436f6e74726f6c6c657200006044820152606490fd5b503461000e57602036600319011261000e5760206109eb600435611204816109b2565b61120d816142a8565b906143a5565b503461000e57604036600319011261000e5760206109eb600435611236816109b2565b60243590614253565b608090600319011261000e57600435611257816109b2565b90602435611264816109b2565b90604435611271816109b2565b90606435610bb181610fda565b503461000e5760206109eb6112923661123f565b9291909161445d565b503461000e57602036600319011261000e576004356112b981610fda565b6112c1615eb9565b6001805461ff00191691151560081b61ff0016919091179055005b503461000e57600036600319011261000e576020600f54604051908152f35b503461000e57600036600319011261000e57602060ff60015460081c166040519015158152f35b503461000e57600036600319011261000e57602060ff600154166040519015158152f35b503461000e5760e036600319011261000e57611449600435611367816109b2565b61144461143f60443560a43561137c81610fda565b61143a60c43561138b81610fda565b611393615eb9565b6001600160a01b0387166000908152601c602052604090205460ff16156113b9565b1590565b61144b575b6114316113d76015546113d08a610e17565b54906138ea565b936113f16113e48a610dfd565b805460ff19166001179055565b6024356113fd8a610e31565b55856114088a610e17565b556064356114158a610e4b565b556084356114228a610e65565b5561142c89610e7f565b6137b9565b61142c87610e99565b6138c1565b601555565b61416f565b005b61145e6114596007546138a5565b600755565b6114678761382f565b6113be565b503461000e57600036600319011261000e576020601754604051908152f35b503461000e57600036600319011261000e57602060ff60015460101c166040519015158152f35b503461000e5761012036600319011261000e576044356101043560243560e43560043560a4356064356084356114e787610fda565b6114ef615eb9565b846101f49284848711159a61155861157c9a61155361156c9a6114499f806115679b6115629a61155d9961154e946115d3575b836115c8575b836115bd575b836115b2575b836115a7575b5082611599575b8261158e575b50506137b2565b600a55565b600b55565b600c55565b600d55565b600e55565b600f55565b61157760c435600955565b601055565b60ff8019601154169115151617601155565b11159050388f611547565b91508060c435111591611541565b82101592508e61153a565b828e11159350611534565b828c1115935061152e565b828a11159350611528565b828811159350611522565b503461000e57606036600319011261000e5760206109eb602435611601816109b2565b6044359061160e826109b2565b600435614330565b503461000e57602036600319011261000e57600435611634816109b2565b60018060a01b0316600052601f602052602060ff604060002054166040519015158152f35b604090600319011261000e57600435611671816109b2565b90602435610bb181610fda565b503461000e5761144961169036611659565b90611699615eb9565b6001600160a01b031660009081526019602052604090206137b9565b503461000e5761173b60c06116d86116cc3661123f565b9391908491819461445d565b600052602b602052604060002090604051906116f382613639565b8254918281526001840154602082015260066002850154948560408401526003810154606084015260048101546080840152600581015460a0840152015495869101526148e0565b604080519215158352602083019190915290f35b503461000e5760a036600319011261000e5761176c6004356109b2565b6117776024356109b2565b6117826044356109b2565b61178d608435610fda565b600061179d600282541415613bc5565b600281556001546117b360ff8260101c166137b2565b6117bb615ef5565b6117c660043561554a565b6117d760843560443560243561558c565b60181c6001600160a01b0316803b15611b3457604051634eae147d60e11b81526001600160a01b0360048035821690830152602480358216908301526044803591909116908201526064803590820152608480351515908201529082908290818060a4810103915afa8015611b27575b611b14575b5061185b6044356024356144c7565b600080516020615f0783398151915261187e60843560443560243560043561445d565b61188781611ccc565b9060843515611b0157611a5061189e60443561416f565b8354801580611af6575b1580611aeb575b611ac3575b6118d36003860191825490606435608435604435602435600435615716565b947f2fe68525253654c21998f35787a8d0f361905ef647c854092430ab65f2f150228361190160243561579a565b97611a296119118a6024356143a5565b91611977611938826119278660018b01546138c1565b611933828210156137b2565b6138ea565b80600189015561194f6084356044356024356149ae565b895561195e60643589546138c1565b8089554260068a01556119728115156137b2565b615536565b61198b608435604435602435600435614073565b505061199b6064356024356143e6565b9a6119ba600488019c8d6119b08282546138c1565b9055602435615bef565b60843515611a62576119f1906119dd6119d5846064356138c1565b602435615cfc565b6119e985602435615d5e565b6024356158ef565b611a08611a00826024356143f9565b6024356159a8565b60405193849360843590606435908d6044359060243590600435908a613c8e565b0390a180549560018201549260056002840154915492549301549360405198899889613cdb565b0390a1611a5d6001600055565b604051f35b506001600160a01b03604435166000908152602d6020526040902054611aa35783611a8e604435610eb2565b555b611a9e606435604435615dd1565b611a08565b611ab2606435856044356147ac565b611abd604435610eb2565b55611a90565b60028501611ae481546006880154908560643591608435908760443561471f565b90556118b4565b5060643515156118af565b8260028701556118a8565b611a50611b0f6044356141f4565b61189e565b80610da3611b2192613619565b3861184c565b611b2f613c2f565b611847565b5080fd5b503461000e57600036600319011261000e576002546040516001600160a01b039091168152602090f35b503461000e57611b746112923661123f565b600052602b6020526040600020604051611b8d81613639565b81548152610d9260018301549160208101928352600284015493604082019485526003810154916060810192835260048201549160808201928352600581015492600660a084019285845201549360c0840194855260008113600014611c40575060008251935b5197519851955191519251945160408051998a5260208a019a909a52988801959095526060870152608086015260a0850152121560c083015260e0820192909252908190610100820190565b611c4b60009161443e565b93611bf4565b503461000e57602036600319011261000e57600435611c6f816109b2565b60018060a01b031660005260276020526020604060002054604051908152f35b503461000e57600036600319011261000e5760206040516101f48152f35b503461000e57600036600319011261000e576020600c54604051908152f35b600052602b602052604060002090565b93909796959260c0959260e08601998652602086015260408501526060840152608083015260a08201520152565b503461000e57602036600319011261000e57600435600052602b60205260406000208054610d926001830154926002810154906003810154600482015490600660058401549301549360405197889788611cdc565b503461000e57611d716112923661123f565b600052602b602052610d92610d826040600020611de7604051611d9381613639565b611de283549182815260018501549060c060066020830197848952600281015460408501526003810154606085015260048101546080850152600581015460a0850152015491015215156137b2565b610a15565b905190613c6e565b503461000e57602036600319011261000e57600435611e0d816109b2565b60018060a01b031660005260216020526020604060002054604051908152f35b503461000e57602036600319011261000e57600435611e4b816109b2565b60018060a01b03166000526019602052602060ff604060002054166040519015158152f35b503461000e57602036600319011261000e57600435611e8e816109b2565b60018060a01b031660005260256020526020604060002054604051908152f35b503461000e5760a036600319011261000e5761173b600435611ecf816109b2565b606435611edb81610fda565b6084359160443590602435906148e0565b503461000e57602036600319011261000e57600435611f0a816109b2565b600090611f1b600283541415613bc5565b600282556001600160a01b0381168252601c602052604082205460ff1615611b3457611f468161579a565b8015611f935781611f78827fa5a389190ebf6170a133bda5c769b77f4d6715b8aa172ec0ddf8473d0b4944bd946158ef565b611f87604051928392836139ad565b0390a160018155604051f35b8280fd5b503461000e57602060ff611fca611fad36610b8c565b6001600160a01b0390911660009081526018855260409020610f68565b54166040519015158152f35b503461000e57600036600319011261000e576020600754604051908152f35b503461000e57602036600319011261000e57600435612013816109b2565b60018060a01b0316600052602e6020526020604060002054604051908152f35b503461000e57600036600319011261000e5760015460405160189190911c6001600160a01b03168152602090f35b503461000e57602036600319011261000e57612082600435611048816109b2565b805460ff19169055005b503461000e57600036600319011261000e576020604051620f42408152f35b503461000e57602036600319011261000e576004356120c9816109b2565b6120d1615eb9565b600180546301000000600160b81b03191660189290921b6301000000600160b81b0316919091179055005b503461000e57602036600319011261000e5760043561211a816109b2565b612122615eb9565b600480546001600160a01b0319166001600160a01b0392909216919091179055005b503461000e5760c036600319011261000e57600435612162816109b2565b60243561216e816109b2565b6044359061217b826109b2565b612183615eb9565b6001549060ff821661000e57600160ff19929092168217909155600380546001600160a01b039485166001600160a01b0319918216179091556005805492851692821692909217909155600480549290931691161790556121e5606435600955565b6121f0608435601355565b61144960a435601455565b503461000e57600036600319011261000e576004546040516001600160a01b039091168152602090f35b503461000e57600036600319011261000e576020600a54604051908152f35b503461000e57602036600319011261000e5760043561226281610fda565b61226a615eb9565b6001805462ff0000191691151560101b62ff000016919091179055005b503461000e57602036600319011261000e5760206109eb6004356122aa816109b2565b6141f4565b503461000e5760e036600319011261000e57610d926123396004356122d3816109b2565b602435906122e0826109b2565b604435916122ed836109b2565b60a435916122fa83610fda565b60c43593612307856109b2565b61231660026000541415613bc5565b6002600055612323615ef5565b61232c8261554a565b6084359260643592614ed5565b60016000556040519081529081906020820190565b503461000e57604036600319011261000e5760043561236c816109b2565b612374615eb9565b6001600160a01b031660009081526027602052604090206024359055005b503461000e57602036600319011261000e576004356123b0816109b2565b60018060a01b0316600052601e6020526020604060002054604051908152f35b503461000e57602036600319011261000e5760206109eb6004356123f3816109b2565b614ac9565b503461000e57602036600319011261000e57600435612416816109b2565b60018060a01b031660005260246020526020604060002054604051908152f35b503461000e57606036600319011261000e57604435602435600435612459615eb9565b610e1081101580612487575b8061247b575b1561000e57601255601355601455005b5061271083111561246b565b50612710821115612465565b503461000e57602036600319011261000e576004356124b1816109b2565b60018060a01b0316600052602d6020526020604060002054604051908152f35b503461000e57602036600319011261000e576004356124ef816109b2565b60018060a01b0316600052601d6020526020604060002054604051908152f35b503461000e57602036600319011261000e5760043561252d816109b2565b612535615eb9565b600280546001600160a01b0319166001600160a01b0392909216919091179055005b503461000e57600036600319011261000e57602060ff60165460101c166040519015158152f35b503461000e5761258d36610b8c565b60009161259e600284541415613bc5565b600283556125aa615ecd565b6125b9610bf6610bef83610dfd565b6125c161381e565b6125d46125cf6005546109a6565b61579a565b916125e08315156137b2565b6125ea82806144c7565b6125f48383614253565b6125ff8115156137b2565b6126098484615b61565b61261381846159a8565b612624610c7e610c7e6005546109a6565b803b1561276057857fac029174962397c2cdc8645365b5504be154e978429f79dee51a9307bdd918c194939281610d929861267a610d65958a604051948580948193632770a7eb60e21b835230600484016139ad565b03925af18015612753575b612740575b5061269e6126996005546109a6565b6158aa565b6126ac610c7e600154613c11565b6020604051809263bd238c5f60e01b825281806126cd8d8c600484016139ad565b03915afa928315612733575b9261270f575b50816126eb9186615665565b80966126f88215156137b2565b61270385838861582a565b60405195869586613c3c565b6126eb91925061272c9060203d8111610de957610dda818361366f565b91906126df565b61273b613c2f565b6126d9565b80610da361274d92613619565b3861268a565b61275b613c2f565b612685565b8580fd5b503461000e57606036600319011261000e57610d926129207f0874b2d545cb271cdbda4e093020c452328b24af12382ed62c4d00f5c26709db6004356127a9816109b2565b6024356127b5816109b2565b610d656128ed604435926127c8846109b2565b6127d760026000541415613bc5565b60026000556001546127ee9060081c60ff166137b2565b6127fd610bf6610bef87610dfd565b61280c610bf6610bef83610dfd565b6128246001600160a01b0386811690831614156137b2565b61282c61381e565b61283685806144c7565b61284081806144c7565b6128498561579a565b6128548115156137b2565b61285d866141f4565b9061289f612893610c4161288c868b6128876128788361416f565b6128828a8a610a38565b613c6e565b614330565b9484610a38565b88610c5f6005546109a6565b926020846128b1610c7e600154613c11565b604051636d099c0b60e11b81526001600160a01b03808d1660048301528516602482015260448101929092529096879190829081906064820190565b03915afa9485156129ac575b60009561298c575b5061290d858483615665565b998461291a8c968b615ad6565b82615b61565b61292a82896158ef565b61293483826159a8565b61293d81615a6c565b61294887858361582a565b604051978897889390979695929160c0959260e086019960018060a01b03928380921688521660208701521660408501526060840152608083015260a08201520152565b6129a591955060203d8111610de957610dda818361366f565b9338612901565b6129b4613c2f565b6128f9565b503461000e57600036600319011261000e576005546040516001600160a01b039091168152602090f35b503461000e57600036600319011261000e5760405168327cb2734119d3b7a9601e1b8152602090f35b503461000e57602036600319011261000e57600435612a2a816109b2565b60018060a01b0316600052602f6020526020604060002054604051908152f35b503461000e57600036600319011261000e576020601254604051908152f35b503461000e57604036600319011261000e5760206109eb600435612a8c816109b2565b602435906143f9565b606090600319011261000e57600435612aad816109b2565b906024359060443590565b503461000e5760206109eb612acc36612a95565b916147ac565b503461000e57600036600319011261000e57602060ff601154166040519015158152f35b503461000e57600036600319011261000e576020600d54604051908152f35b503461000e57604036600319011261000e5760206109eb600435612b38816109b2565b602435906143e6565b503461000e57611449612b5336611659565b90612b5c615eb9565b6001600160a01b03166000908152601a602052604090206137b9565b503461000e57602036600319011261000e5760206109eb600435612b9b816109b2565b614631565b503461000e57600036600319011261000e57602060ff601654166040519015158152f35b503461000e57602036600319011261000e57600435612be2816109b2565b60018060a01b031660005260226020526020604060002054604051908152f35b503461000e57600036600319011261000e576020600854604051908152f35b503461000e57600036600319011261000e57602060ff60165460081c166040519015158152f35b503461000e57602036600319011261000e5760206109eb600435612c6b816109b2565b6142a8565b503461000e57606036600319011261000e5760206109eb600435612c93816109b2565b602435612c9f816109b2565b60443591612cac83610fda565b6149ae565b503461000e57602036600319011261000e5761173b600435612cd2816109b2565b61484f565b503461000e57602036600319011261000e57600435612cf5816109b2565b60018060a01b031660005260266020526020604060002054604051908152f35b503461000e57600036600319011261000e576020601354604051908152f35b503461000e57602036600319011261000e57600435612d52816109b2565b60018060a01b031660005260296020526020604060002054604051908152f35b503461000e5760a036600319011261000e57610d92600435612d93816109b2565b602060843591612da283610fda565b60a460018060a01b03918260015460181c16604051958694859363c7e074c360e01b8552166004840152602435602484015260443560448401526064356064840152151560848301525afa908115612e2c575b600091612e0e575b506040519081529081906020820190565b612e26915060203d8111610de957610dda818361366f565b38612dfd565b612e34613c2f565b612df5565b503461000e57606036600319011261000e57611449600435612e5a816109b2565b60243590612e67826109b2565b612e6f615eb9565b604435916001600160a01b03166139c8565b503461000e57602036600319011261000e57600435612e9f816109b2565b612ea7615eb9565b600680546001600160a01b0319166001600160a01b0392909216919091179055005b503461000e57602036600319011261000e57612ee3615eb9565b600435601755005b503461000e57602036600319011261000e57600435612f08615eb9565b61271081111561000e57600855005b503461000e5760a036600319011261000e57600435612f35816109b2565b602435612f41816109b2565b604435612f4d816109b2565b60643592612f5a84610fda565b60a460843591612f6983610fda565b60018060a01b039586938460015460181c169160409889978189519a8b998a9863d54d5a9f60e01b8a5216600489015216602487015216604485015215156064840152151560848301525afa8015613002575b6000918291612fd3575b5082519182526020820152f35b9050612ff59150823d8411612ffb575b612fed818361366f565b81019061405d565b38612fc6565b503d612fe3565b61300a613c2f565b612fbc565b503461000e57602036600319011261000e5760043561302d816109b2565b60018060a01b0316600052602a6020526020604060002054604051908152f35b503461000e57600036600319011261000e576020601054604051908152f35b503461000e5760c036600319011261000e5760206109eb60043561308f816109b2565b6024359061309c826109b2565b6044356130a8816109b2565b606435906130b582610fda565b60a4359360843593614a02565b503461000e57602036600319011261000e576004356130e0816109b2565b60018060a01b0316600052601c602052602060ff604060002054166040519015158152f35b503461000e57602036600319011261000e57600435613123816109b2565b60018060a01b031660005260208052602060ff604060002054166040519015158152f35b503461000e5760e036600319011261000e5760206109eb60043561316a816109b2565b60643561317681610fda565b60c4359160a4359160843591604435906024359061471f565b503461000e57600036600319011261000e576020601554604051908152f35b503461000e5760a036600319011261000e5761321a6004356131cf816109b2565b6024356131db816109b2565b6044356131e7816109b2565b606435916131f483610fda565b60843593613201856109b2565b61321060026000541415613bc5565b6002600055613d80565b6001600055005b503461000e57600036600319011261000e576020600e54604051908152f35b503461000e57602036600319011261000e5760206109eb600435611444816109b2565b503461000e57602036600319011261000e57600435613281816109b2565b60018060a01b031660005260236020526020604060002054604051908152f35b503461000e57602036600319011261000e57600435601b5481101561000e57601b600052600080516020615f6783398151915201546040516001600160a01b039091168152602090f35b503461000e57602036600319011261000e57600435613309816109b2565b613311615eb9565b6001600160a01b0381166000908152601c602052604081205490919060ff1615611b345761335a6133a19161334e61143f6015546113d084610e17565b61336461335a82610dfd565b805460ff19169055565b8361336e82610e31565b558361337982610e17565b558361338482610e4b565b558361338f82610e65565b5561339c61335a82610e7f565b610e99565b611a5d6114596007546138cd565b503461000e57604036600319011261000e576114496004356133d0816109b2565b60243590613942565b503461000e57604036600319011261000e576004356133f7816109b2565b6133ff615eb9565b6001600160a01b03166000908152602f602052604090206024359055005b503461000e57602036600319011261000e5760043561343b816109b2565b60018060a01b031660005260286020526020604060002054604051908152f35b503461000e57602036600319011261000e5760043561347981610fda565b613481615eb9565b6016805463ff000000191691151560181b63ff00000016919091179055005b503461000e5760206109eb6134b436610b8c565b90613901565b503461000e57602036600319011261000e576004356134d8816109b2565b60018060a01b0316600052601a602052602060ff604060002054166040519015158152f35b503461000e57600036600319011261000e576003546040516001600160a01b039091168152602090f35b503461000e5760206109eb61353b36612a95565b9161440c565b503461000e5761144961355336610b8c565b906144c7565b503461000e57600036600319011261000e576020604051610e108152f35b503461000e5760a036600319011261000e5760206109eb60043561359a816109b2565b6024356135a6816109b2565b6044356135b2816109b2565b606435916135bf83610fda565b60843593614a67565b90600182811c921680156135f8575b60208310146135e257565b634e487b7160e01b600052602260045260246000fd5b91607f16916135d7565b50634e487b7160e01b600052604160045260246000fd5b6001600160401b03811161362c57604052565b613634613602565b604052565b60e081019081106001600160401b0382111761362c57604052565b604081019081106001600160401b0382111761362c57604052565b601f909101601f19168101906001600160401b0382119082101761362c57604052565b919091602080825283519081818401526000945b8286106136d35750508060409394116136c6575b601f01601f1916010190565b60008382840101526136ba565b85810182015184870160400152948101946136a6565b503461000e5760208060031936011261000e576000906004358252603081526040822090604051918381549061371e826135c8565b8086529260019280841690811561378f5750600114613754575b610d9286613748818a038261366f565b60405191829182613692565b9080949650528483205b82841061377c5750505081610d929361374892820101933880613738565b805485850187015292850192810161375e565b945050505050610d92935060ff1916908201526137488160408101933880613738565b1561000e57565b9060ff801983541691151516179055565b90601f81116137d857505050565b600091825260208220906020601f850160051c83019410613814575b601f0160051c01915b82811061380957505050565b8181556001016137fd565b90925082906137f4565b61010061ff00196016541617601655565b601b54600160401b811015613898575b6001810180601b5581101561388257601b600052600080516020615f678339815191520180546001600160a01b0319166001600160a01b03909216919091179055565b634e487b7160e01b600052603260045260246000fd5b6138a0613602565b61383f565b60019060011981116138b5570190565b6138bd6109fe565b0190565b811981116138b5570190565b600181106138dd575b6000190190565b6138e56109fe565b6138d6565b8181106138f5570390565b6138fd6109fe565b0390565b613909615eb9565b6001600160a01b0381166000908152602c602052604090205491821561393a5782610bb1926000604081205561582a565b505050600090565b61394a615eb9565b6001600160a01b03811660009081526023602052604090205480831161398d5791828161397e9410613980575b0390615b61565b565b6139886109fe565b613977565b828161397e94106139a0575b0390615ad6565b6139a86109fe565b613999565b6001600160a01b039091168152602081019190915260400190565b90604051916139fc836139ee6020968783019563a9059cbb60e01b8752602484016139ad565b03601f19810185528461366f565b60018060a01b03169060405192613a1284613654565b8484527f5361666545524332303a206c6f772d6c6576656c2063616c6c206661696c656485850152823b15613a8357613a5e939260009283809351925af1613a58613b3c565b90613b89565b80519081613a6b57505050565b8261397e93613a7e938301019101613ac8565b613add565b60405162461bcd60e51b815260048101869052601d60248201527f416464726573733a2063616c6c20746f206e6f6e2d636f6e74726163740000006044820152606490fd5b9081602091031261000e5751610bb181610fda565b15613ae457565b60405162461bcd60e51b815260206004820152602a60248201527f5361666545524332303a204552433230206f7065726174696f6e20646964206e6044820152691bdd081cdd58d8d9595960b21b6064820152608490fd5b3d15613b84573d906001600160401b038211613b77575b60405191613b6b601f8201601f19166020018461366f565b82523d6000602084013e565b613b7f613602565b613b53565b606090565b90919015613b95575090565b815115613ba55750805190602001fd5b60405162461bcd60e51b8152908190613bc19060048301613692565b0390fd5b15613bcc57565b60405162461bcd60e51b815260206004820152601f60248201527f5265656e7472616e637947756172643a207265656e7472616e742063616c6c006044820152606490fd5b60181c6001600160a01b031690565b9081602091031261000e575190565b506040513d6000823e3d90fd5b6001600160a01b0391821681529116602082015260408101919091526060810191909152608081019190915260a00190565b8115613c78570490565b634e487b7160e01b600052601260045260246000fd5b959290999897949193610100979461012088019b885260018060a01b03928380921660208a0152166040880152166060860152608085015260a0840152151560c083015260e08201520152565b94919260e0969399989794919961010087019a8752602087015260408601526060850152608084015260a083015260c08201520152565b90604051613d1f81613639565b60c0600682948054845260018101546020850152600281015460408501526003810154606085015260048101546080850152600581015460a08501520154910152565b604091949392606082019560018060a01b0316825260208201520152565b9091939293613d9560165460ff9060181c1690565b61403c575b613da960ff1960165416601655565b613db381846144c7565b6002613dc18683868661445d565b92613dd3613dce85611ccc565b613d12565b96613de0885115156137b2565b613dec81858885614107565b9390613df98115156137b2565b14614017579282613f829892613f3195600080516020615f87833981519152838a613e54613e2b613f5b9c9a836143f9565b613e3e81613e3885610ecc565b546138c1565b613e4784610ecc565b5560405193849384613d62565b0390a17f2e1f85a64a2f22cf2f0c42584e7c919ed4abe8d53675cff0f62bf1e95a1c676f608086019282613e8985518d615c65565b613fe6575b8215613fd45787613f12613ea1886141f4565b8d8a8051986020820199898d60a08d519451950151956040519a8b9a8b96936101209895929b9a999693919b61014089019c895260018060a01b03928380921660208b01521660408901521660608701521515608086015260a085015260c084015260e08301526101008201520152565b0390a115918280613fca575b613fa6575b5050613f94575b5050611ccc565b60066000918281558260018201558260028201558260038201558260048201558260058201550155565b613f70613f6a600954836143f9565b826159a8565b613f7c600954826143f9565b9061582a565b61397e600160ff196016541617601655565b613f9f915190615e68565b3880613f2a565b613fb7613fbd91613fc393516138ea565b896143f9565b886158ef565b3880613f23565b5081518110613f1e565b87613f12613fe18861416f565b613ea1565b613fff613ff9885160208a0151906138ea565b8c615d5e565b61401261400c868d6143f9565b8c6159a8565b613e8e565b94935094505061402994519184614b53565b5061397e600160ff196016541617601655565b33600090815260196020526040902061405890610bf690610bef565b613d9a565b919082604091031261000e576020825192015190565b600180546040805163d54d5a9f60e01b81526001600160a01b0394851660048201529484166024860152948316604485015294151560648401526084830152909392849160a491839160189190911c165afa9182156140fa575b60009081936140db57509190565b90506140f691925060403d8111612ffb57612fed818361366f565b9091565b614102613c2f565b6140cd565b6001546040805163d54d5a9f60e01b81526001600160a01b03938416600482015293831660248501529382166044840152931515606483015260006084830152909392849160a491839160189190911c165afa9182156140fa5760009081936140db57509190565b602060018060a01b0360848160045416936016549460ff60405196879586946317e1d38560e11b8652166004850152600160248501528181161515604485015260081c16151560648301525afa9081156141e7575b6000916141cf575090565b610bb1915060203d8111610de957610dda818361366f565b6141ef613c2f565b6141c4565b602060018060a01b0360848160045416936016549460ff60405196879586946317e1d38560e11b8652166004850152600060248501528181161515604485015260081c16151560648301525afa9081156141e7576000916141cf575090565b614289610bb1926142638361416f565b9068327cb2734119d3b7a9601e1b9080151560001982900483111661429b575b02613c6e565b6005546001600160a01b031690614330565b6142a36109fe565b614283565b6001600160a01b0381166000908152601f602052604090205460ff166143055760286020526142f86142f26142e2604060002054846143f9565b6142eb84610ee6565b54906138c1565b91610f00565b54908181106138f5570390565b50602560205260406000205490565b604d8111614323575b600a0a90565b61432b6109fe565b61431d565b61437561437b91610bb19460018060a01b0394858060055416911660008282146000146143935750506012955b821603614381575061436f6012614314565b90610a38565b91614314565b90613c6e565b61438d61436f91610e31565b54614314565b6040918152601d60205220549561435d565b9080156143df5761437b614375836143bf610bb1956141f4565b6001600160a01b039091166000908152601d602052604090205493610a38565b5050600090565b81156143df57610bb19161353b826141f4565b81156143df57610bb19161353b8261416f565b919091821561393a576001600160a01b03166000908152601d6020526040902054610bb1926128829161436f90614314565b600160ff1b8114614450575b60000390565b6144586109fe565b61444a565b6040516001600160601b0319606092831b81166020830190815293831b8116603483015293821b909316604884015292151560f81b605c830152603d82529181018181106001600160401b038211176144ba575b60405251902090565b6144c2613602565b6144b1565b9060206145136000926144de610c7e600154613c11565b60405163fbfded6d60e01b81526001600160a01b03808816600483015290921660248301529093849283919082906044820190565b03925af1908115614624575b6000916145f6575b50156145d75761453681610f1a565b54156145da5761455261454882610f1a565b54601254906138c1565b42106145d7578061458f6145867fa146fc154e1913322e9817d49f0d5c37466c24326e15de10e739a948be815eab93614631565b613e3883610f34565b61459882610f34565b556145ae6012546145a98142613c6e565b610a38565b6145b782610f1a565b556145c181610f34565b54906145d2604051928392836139ad565b0390a1565b50565b6145f36145ed6012546145a98142613c6e565b91610f1a565b55565b614617915060203d811161461d575b61460f818361366f565b810190613ac8565b38614527565b503d614605565b61462c613c2f565b61451f565b60018060a01b038116600052602a60205260406000205461465560125480926138c1565b42106143df576146789061466883610f1a565b548042106146c5575b4203613c6e565b9061468281610ee6565b5490811561393a57610bb1926145a9826146a1610bef61288295610e7f565b156146b9576146b260145491610f00565b5490610a38565b6146b260135491610f00565b6146cd6109fe565b614671565b6001600160a01b0316600090815260256020526040902054801561471957610bb1906026602052604060002054620f424090806000190482118115151661429b5702613c6e565b50600090565b614737610bb197856128829798958561473f956148e0565b9390926138c1565b926000901561477a57501561475e5761475890826138c1565b92610a38565b80821061476d575b8103614758565b6147756109fe565b614766565b501561479d57808210614790575b810392610a38565b6147986109fe565b614788565b6147a790826138c1565b614758565b610bb1926128829160018060a01b0316600052602d602052604060002054602e602052614803604060002054926147fd868511948560001461482f57878110614822575b6128828882035b86610a38565b926138c1565b91156148185780821061479057810392610a38565b61475890826138c1565b61482a6109fe565b6147f0565b808810614842575b6128828189036147f7565b61484a6109fe565b614837565b6001600160a01b0381166000818152602d602052604081205490939290919082156148d957610bb1926148846128829261416f565b928652602e602052604086205492808411965083876000146148bc5781116148af575b830390610a38565b6148b76109fe565b6148a7565b908181106148cc575b0390610a38565b6148d46109fe565b6148c5565b5050508190565b614936939594926148f28115156137b2565b86156149a057614901826141f4565b808211801561498a576149218361288261491b85836138ea565b88610a38565b981561497f5750119384935b601054906138c1565b421115614970575060005b82614958575b5050614951579190565b9150600090565b61496791925061475886610a15565b10153880614947565b61497990610e4b565b54614941565b91505093849361492d565b6149218361288261499b82866138ea565b61491b565b6149a98261416f565b614901565b60015460405163b1cc53ab60e01b81526001600160a01b0392831660048201529282166024840152921515604483015290916020918391606491839160181c165afa9081156141e7576000916141cf575090565b90949160c49260209560018060a01b0395868060015460181c1694816040519b8c9a8b9963369d949360e21b8b521660048a015216602488015216604486015215156064850152608484015260a48301525afa9081156141e7576000916141cf575090565b60015460405163fdaf6ac360e01b81526001600160a01b0392831660048201529282166024840152928116604483015292151560648201526084810193909352602091839160a491839160181c165afa9081156141e7576000916141cf575090565b6005546040516318160ddd60e01b81529190602090839060049082906001600160a01b03165afa918215614b46575b600092614b26575b5081156143df57610bb191614b17614b1d92610e17565b54610a38565b60155490613c6e565b614b3f91925060203d8111610de957610dda818361366f565b9038614b00565b614b4e613c2f565b614af8565b9094929391614b66610c7e600154613c11565b94853b1561000e576040516381d11a2360e01b81526001600160a01b038481166004830152888116602483015283811660448301526000606483018190526084830184905286151560a484015290871660c483015288978695859390929091829060e49082905afa8015614ec8575b614eb5575b50614be582896144c7565b614bf185838a8461445d565b614bfa81611ccc565b91825492614c098415156137b2565b614c15868510156137b2565b60018101938b614c548a8989895494614c4e6004890197614c46614c3f8a54926128828885610a38565b80926138ea565b895582615c65565b8861521b565b9a819e8c96928b8088541415600014614e095792828a92828d9b9a98968f9a9896828c614c80926149ae565b9a60038b019b8c5582828c5490614c96916138ea565b9e8f8d55549e8f614ca691615536565b614cb191868a614073565b5050600080516020615f078339815191529f614d799d600080516020615f4783398151915299614d5697614de5575b50508215614dd957614cfc614cf4826141f4565b9d8e956138ea565b94604051988998899081526001600160a01b039182166020820152918116604083015290911660608201526000608082015260a081019190915290151560c082015260e08101919091526101008101919091526101200190565b0390a1815496549260056002840154915492549301549360405198899889613cdb565b0390a15b8315614dc9575b505083614d95575050505050600090565b610bb193614da992614db0575b50846143f9565b809361582a565b614dbd614dc391876143f9565b866159a8565b38614da2565b614dd291615e68565b3880614d84565b614cfc614cf48261416f565b614df891614df2916138ea565b86615cfc565b614e028286615d5e565b3880614ce0565b613f319a9694928a9285614e5d93614e8d9f614cfc600080516020615fa78339815191529e614e859c600080516020615f478339815191529b614e9b575b508415614e9257614e57836141f4565b956138ea565b0390a18354925493600281015491600560038301549154920154926040519687968a88611cdc565b0390a1611ccc565b614d7d565b614e578361416f565b614ea59088615cfc565b614eaf8488615d5e565b38614e47565b80610da3614ec292613619565b38614bda565b614ed0613c2f565b614bd5565b90959394929194614eea610c7e600154613c11565b803b1561000e576040516381d11a2360e01b81526001600160a01b03848116600483015289811660248301528881166044830152606482018690526084820184905286151560a4830152871660c482015287938392909190600090829060e49082905afa801561519e575b61518b575b50614f65848a6144c7565b614f7186858b8461445d565b614f7a81611ccc565b918a8354614f898115156137b2565b614f95868210156137b2565b614fcb600186015491614faa8b8410156137b2565b614fc0614c3f6004890154926128828b85610a38565b600488015583615c65565b89614fda81888c8c87896153df565b9a819e8992948d9a8a5414156000146150e6579484899461508894848d600080516020615f078339815191529f9b969a85615058614d799f9c85600080516020615f478339815191529f8f615031848f93846149ae565b600389015561505360016150468d8b546138ea565b998a815501548099615536565b614073565b50506150c2575b505083156150b65761507b615073826141f4565b9b8c966138ea565b95604051998a998a613c8e565b0390a18354936001810154906002810154600382015490600560048401549301549360405198899889613cdb565b61507b6150738261416f565b6150d5916150cf916138ea565b87615cfc565b6150df8387615d5e565b388061505f565b9484899461513794613f319c999461507b614e8d9f600080516020615f478339815191529b600080516020615fa78339815191529e9b615171575b50851561516857615131836141f4565b966138ea565b0390a18054614e85600183015492600281015490600381015460056004830154920154926040519687968a88611cdc565b6151318361416f565b61517b9089615cfc565b6151858589615d5e565b38615121565b80610da361519892613619565b38614f5a565b6151a6613c2f565b614f55565b6000811280156001600160ff1b038390038413166151d7575b600160ff1b8290038312166138b5570190565b6151df6109fe565b6151c4565b600082128015600160ff1b840183121661520e575b6001600160ff1b0383018213166138f5570390565b6152166109fe565b6151f9565b916128829295949561522f8783858461445d565b9261527361525161523f86611ccc565b938454898c888760038a015495615716565b9361526a8454918b6002870154846006890154936148e0565b89989198610a38565b9760009686806153d6575b6153a4575b86158061539b575b615355575b83541461533c575b8692848411156152ec5750505050906152e56152c4600080516020615f278339815191529493866138ea565b965b6040519384938460409194939260608201958252151560208201520152565b0390a19190565b91600080516020615f278339815191529695949160016152e5959b94016153148482546138ea565b9055615322575b50506152c6565b61532f61533592826143f9565b906159a8565b388061531b565b600061534e60018501988954906138c1565b9755615298565b600184016153648b82546138ea565b90558115615383575b6005840161537c8b82546151e4565b9055615290565b6153966153908b856143f9565b846158ef565b61536d565b5089151561528b565b96508896600584016153b78b82546151ab565b905581615283576153d16153cb8b856143f9565b846159a8565b615283565b5089151561527e565b6128829394969592916153f48484838561445d565b9361543861541661540487611ccc565b9485548c85898860038b015495615716565b9461542f8554918460028801548460068a0154936148e0565b8c999199610a38565b98600097878061552d575b6154fb575b8715806154f2575b6154b2575b8061548f575b5083541461533c578692848411156152ec5750505050906152e56152c4600080516020615f278339815191529493866138ea565b978861549a916138c1565b976154aa600186019182546138ea565b90553861545b565b600185016154c18c82546138ea565b905582156154e0575b600585016154d98c82546151e4565b9055615455565b6154ed610cdc8c866143f9565b6154ca565b508a1515615450565b975089976005850161550e8c82546151ab565b905582615448576155286155228c866143f9565b856159a8565b615448565b508a1515615443565b8015615543571061000e57565b5061000e57565b6001600160a01b0390811690338214615588576003541633146145d757600052601860205260ff61557f336040600020610f68565b54161561000e57565b5050565b909161560f5761397e916155a2610bef83610dfd565b91826155f9575b50816155e2575b816155bc575b506137b2565b6001600160a01b0316600090815260208052604090206155dc9150610bef565b386155b6565b90506155f36113b5610bef83610e7f565b906155b0565b615608919250610bef90610e7f565b90386155a9565b6001600160a01b0381811692168214918261564a575b5081615634575b501561000e57565b60ff915061564190610e7f565b5416153861562c565b909150600052601c60205260ff604060002054169038615625565b7f47cd9dda0e50ce30bcaaacd0488452b596221c07ac402a581cfae4d3933cac2b919261569f61271091808310615709575b820385610a38565b0483818095106156fc575b039060018060a01b03811680600052602c6020526156cd836040600020546138c1565b90600052602c6020526040600020556156f66156e983836143a5565b9260405193849384613d62565b0390a190565b6157046109fe565b6156aa565b6157116109fe565b615697565b9294600080516020615f8783398151915295615746938361574061574c989a959a8484848b614a67565b96614a02565b906138c1565b826156f661575b8380966143f9565b6001600160a01b0383166000818152602c602052604090205461577f9083906138c1565b90600052602c60205260406000205560405193849384613d62565b6001600160a01b03166000818152602160209081526040918290205491516370a0823160e01b815230600482015291929082602481845afa91821561581d575b6000926157fd575b506000526021602052806040600020558181106138f5570390565b61581691925060203d8111610de957610dda818361366f565b90386157e2565b615825613c2f565b6157da565b6001600160a01b03169161583f9190836139c8565b6040516370a0823160e01b815230600482015290602082602481845afa91821561589d575b60009261587d575b506000526021602052604060002055565b61589691925060203d8111610de957610dda818361366f565b903861586c565b6158a5613c2f565b615864565b6040516370a0823160e01b8152306004820152906001600160a01b0316602082602481845afa91821561589d5760009261587d57506000526021602052604060002055565b906158fd81613e3884610ee6565b61590683610ee6565b556040516370a0823160e01b81523060048201526020816024816001600160a01b0387165afa90811561599b575b60009161597d575b5061594683610ee6565b541161000e577f976177fbe09a15e5e43f848844963a42b41ef919ef17ff21a17a5421de8f4737916145d2604051928392836139ad565b615995915060203d8111610de957610dda818361366f565b3861593c565b6159a3613c2f565b615934565b919060018060a01b038316926000938085526025602052615a01604086205484604051916159d583613654565b601a83527915985d5b1d0e881c1bdbdb105b5bdd5b9d08195e18d95959195960321b6020840152615a5e565b90855260256020526040852055615a1781610f00565b54615a2182610ee6565b5410615a5a577f112726233fbeaeed0f5b1dba5cb0b2b81883dee49fb35ff99fd98ed9f6d31eb09293506145d2604051928392836139ad565b8380fd5b9091818311613ba557500390565b60018060a01b03166000526025602052604060002054602760205260406000205411615a9457565b60405162461bcd60e51b815260206004820152601a6024820152792b30bab63a1d103837b7b620b6b7bab73a101e10313ab33332b960311b6044820152606490fd5b919060018060a01b038316926000938085526023602052615afb8360408720546138c1565b908552602360205260408520556024602052604084205480615b4c575b507f3d77fb61147c3b99639aed73a5a671c45af9d0c5bc4c588b4ad5d3506b740bf59293506145d2604051928392836139ad565b615b5582610f4e565b5411615a5a5783615b18565b6001600160a01b0381166000908152602360205260409020547f82e2e79cdb5cfe46e317bb27fdf6f27e1ae66431b3a4b4dd93d20b8d3fb9572c92919082811115615bd7578083809210615bca575b03615bba82610f4e565b556145d2604051928392836139ad565b615bd26109fe565b615bb0565b9150600060408120556145d2604051928392836139ad565b919060018060a01b038316926000938085526026602052615c148360408720546138c1565b908552602660205260408520819055615c2c82610ee6565b5410615a5a577faa5649d82f5462be9d19b0f2b31a59b2259950a6076550bac9f3a1c07db9f66d9293506145d2604051928392836139ad565b907f533cb5ed32be6a90284e96b5747a1bfc2d38fdb5768a6b5f67ff7d62144ed67b9160018060a01b038116806000526026602052615cde6040600020548460405191615cb183613654565b601b83527a5661756c743a20696e73756666696369656e74207265736572766560281b6020840152615a5e565b9060005260266020526040600020556145d2604051928392836139ad565b907fd9d4761f75e0d0103b5cbeab941eeb443d7a56a35b5baf2a0787c03f03f4e4749160018060a01b038116806000526028602052615d40836040600020546138c1565b9060005260286020526040600020556145d2604051928392836139ad565b6001600160a01b0381166000818152602860205260409020547f34e07158b9db50df5613e591c44ea2ebc82834eff4a4dc3a46e000e608261d68939291839190828210615dc4575b6000526028602052036040600020556145d2604051928392836139ad565b615dcc6109fe565b615da6565b6001600160a01b03166000818152602d60205260408120549092615df4916138c1565b908252602d6020526040822055602f60205260408120549081615e15575050565b604090602d602052205411615e2657565b60405162461bcd60e51b815260206004820152601a60248201527915985d5b1d0e881b585e081cda1bdc9d1cc8195e18d95959195960321b6044820152606490fd5b6001600160a01b03166000818152602d6020526040812054909290808211615eaf57604092828210615ea2575b8452602d60205203912055565b615eaa6109fe565b615e95565b5050506040812055565b6006546001600160a01b0316330361000e57565b60ff60165460101c16615edc57565b33600052601a60205260ff604060002054161561000e57565b60175480156145d7573a1161000e5756fe20853733b590dce729d9f4628682ebd9a34d2354e72679e66f43a008fc03b7733ff41bdde87755b687ae83d0221a232b6be51a803330ed9661c1b5d0105e0d8a93d75d64d1f84fc6f430a64fc578bdd4c1e090e90ea2d51773e626d19de56d303ad8aa4f87544323a9d1e5dd902f40c356527a7955687113db5f9a85ad579dc15d0c0019d3d45fadeb74eff9d2c9924d146d000ac6bcf3c28bf0ac3c9baa011a73af1d417d82c240fdb6d319b34ad884487c6bf2845d98980cc52ad9171cb455a26469706673582212209fcae90f3c33e34393e09cd3e12901911001eff27b5acfa78f98d4be2ae3ee3464736f6c634300080e0033",
  "linkReferences": {},
  "deployedLinkReferences": {}
}