{
  "_format": "hh-sol-artifact-1",
  "contractName": "VlpManager",
  "sourceName": "contracts/core/VlpManager.sol",
  "abi": [
    {
      "inputs": [
        {
          "internalType": "address",
          "name": "_vault",
          "type": "address"
        },
        {
          "internalType": "address",
          "name": "_vlp",
          "type": "address"
        },
        {
          "internalType": "uint256",
          "name": "_cooldownDuration",
          "type": "uint256"
        }
      ],
      "stateMutability": "nonpayable",
      "type": "constructor"
    },
    {
      "inputs": [],
      "name": "Cooldown",
      "type": "error"
    },
    {
      "inputs": [],
      "name": "InsufficientOutput",
      "type": "error"
    },
    {
      "inputs": [],
      "name": "InvalidAmount",
      "type": "error"
    },
    {
      "inputs": [],
      "name": "InvalidCooldownDuration",
      "type": "error"
    },
    {
      "inputs": [],
      "name": "InvalidHandler",
      "type": "error"
    },
    {
      "inputs": [],
      "name": "PrivateMode",
      "type": "error"
    },
    {
      "anonymous": false,
      "inputs": [
        {
          "indexed": false,
          "internalType": "address",
          "name": "account",
          "type": "address"
        },
        {
          "indexed": false,
          "internalType": "address",
          "name": "token",
          "type": "address"
        },
        {
          "indexed": false,
          "internalType": "uint256",
          "name": "amount",
          "type": "uint256"
        },
        {
          "indexed": false,
          "internalType": "uint256",
          "name": "aumInUsd",
          "type": "uint256"
        },
        {
          "indexed": false,
          "internalType": "uint256",
          "name": "vlpSupply",
          "type": "uint256"
        },
        {
          "indexed": false,
          "internalType": "uint256",
          "name": "usdAmount",
          "type": "uint256"
        },
        {
          "indexed": false,
          "internalType": "uint256",
          "name": "mintAmount",
          "type": "uint256"
        }
      ],
      "name": "AddLiquidity",
      "type": "event"
    },
    {
      "anonymous": false,
      "inputs": [
        {
          "indexed": true,
          "internalType": "address",
          "name": "previousOwner",
          "type": "address"
        },
        {
          "indexed": true,
          "internalType": "address",
          "name": "newOwner",
          "type": "address"
        }
      ],
      "name": "OwnershipTransferred",
      "type": "event"
    },
    {
      "anonymous": false,
      "inputs": [
        {
          "indexed": false,
          "internalType": "address",
          "name": "account",
          "type": "address"
        },
        {
          "indexed": false,
          "internalType": "address",
          "name": "token",
          "type": "address"
        },
        {
          "indexed": false,
          "internalType": "uint256",
          "name": "vlpAmount",
          "type": "uint256"
        },
        {
          "indexed": false,
          "internalType": "uint256",
          "name": "aumInUsd",
          "type": "uint256"
        },
        {
          "indexed": false,
          "internalType": "uint256",
          "name": "vlpSupply",
          "type": "uint256"
        },
        {
          "indexed": false,
          "internalType": "uint256",
          "name": "usdAmount",
          "type": "uint256"
        },
        {
          "indexed": false,
          "internalType": "uint256",
          "name": "amountOut",
          "type": "uint256"
        }
      ],
      "name": "RemoveLiquidity",
      "type": "event"
    },
    {
      "inputs": [],
      "name": "MAX_COOLDOWN_DURATION",
      "outputs": [
        {
          "internalType": "uint32",
          "name": "",
          "type": "uint32"
        }
      ],
      "stateMutability": "view",
      "type": "function"
    },
    {
      "inputs": [],
      "name": "PRICE_PRECISION",
      "outputs": [
        {
          "internalType": "uint128",
          "name": "",
          "type": "uint128"
        }
      ],
      "stateMutability": "view",
      "type": "function"
    },
    {
      "inputs": [],
      "name": "USD_DECIMALS",
      "outputs": [
        {
          "internalType": "uint8",
          "name": "",
          "type": "uint8"
        }
      ],
      "stateMutability": "view",
      "type": "function"
    },
    {
      "inputs": [
        {
          "internalType": "address",
          "name": "_token",
          "type": "address"
        },
        {
          "internalType": "uint256",
          "name": "_amount",
          "type": "uint256"
        },
        {
          "internalType": "uint256",
          "name": "_minUsd",
          "type": "uint256"
        },
        {
          "internalType": "uint256",
          "name": "_minVlp",
          "type": "uint256"
        }
      ],
      "name": "addLiquidity",
      "outputs": [
        {
          "internalType": "uint256",
          "name": "",
          "type": "uint256"
        }
      ],
      "stateMutability": "nonpayable",
      "type": "function"
    },
    {
      "inputs": [
        {
          "internalType": "address",
          "name": "_fundingAccount",
          "type": "address"
        },
        {
          "internalType": "address",
          "name": "_account",
          "type": "address"
        },
        {
          "internalType": "address",
          "name": "_token",
          "type": "address"
        },
        {
          "internalType": "uint256",
          "name": "_amount",
          "type": "uint256"
        },
        {
          "internalType": "uint256",
          "name": "_minUsd",
          "type": "uint256"
        },
        {
          "internalType": "uint256",
          "name": "_minVlp",
          "type": "uint256"
        }
      ],
      "name": "addLiquidityForAccount",
      "outputs": [
        {
          "internalType": "uint256",
          "name": "",
          "type": "uint256"
        }
      ],
      "stateMutability": "nonpayable",
      "type": "function"
    },
    {
      "inputs": [],
      "name": "aumAddition",
      "outputs": [
        {
          "internalType": "uint256",
          "name": "",
          "type": "uint256"
        }
      ],
      "stateMutability": "view",
      "type": "function"
    },
    {
      "inputs": [],
      "name": "aumDeduction",
      "outputs": [
        {
          "internalType": "uint256",
          "name": "",
          "type": "uint256"
        }
      ],
      "stateMutability": "view",
      "type": "function"
    },
    {
      "inputs": [],
      "name": "cooldownDuration",
      "outputs": [
        {
          "internalType": "uint256",
          "name": "",
          "type": "uint256"
        }
      ],
      "stateMutability": "view",
      "type": "function"
    },
    {
      "inputs": [
        {
          "internalType": "bool",
          "name": "maximise",
          "type": "bool"
        }
      ],
      "name": "getAum",
      "outputs": [
        {
          "internalType": "uint256",
          "name": "",
          "type": "uint256"
        }
      ],
      "stateMutability": "view",
      "type": "function"
    },
    {
      "inputs": [],
      "name": "getAums",
      "outputs": [
        {
          "internalType": "uint256[]",
          "name": "",
          "type": "uint256[]"
        }
      ],
      "stateMutability": "view",
      "type": "function"
    },
    {
      "inputs": [
        {
          "internalType": "address",
          "name": "_token",
          "type": "address"
        },
        {
          "internalType": "bool",
          "name": "_maximise",
          "type": "bool"
        }
      ],
      "name": "getTokenAum",
      "outputs": [
        {
          "internalType": "uint256",
          "name": "",
          "type": "uint256"
        }
      ],
      "stateMutability": "view",
      "type": "function"
    },
    {
      "inputs": [],
      "name": "inPrivateMode",
      "outputs": [
        {
          "internalType": "bool",
          "name": "",
          "type": "bool"
        }
      ],
      "stateMutability": "view",
      "type": "function"
    },
    {
      "inputs": [
        {
          "internalType": "address",
          "name": "",
          "type": "address"
        }
      ],
      "name": "isHandler",
      "outputs": [
        {
          "internalType": "bool",
          "name": "",
          "type": "bool"
        }
      ],
      "stateMutability": "view",
      "type": "function"
    },
    {
      "inputs": [
        {
          "internalType": "address",
          "name": "",
          "type": "address"
        }
      ],
      "name": "lastAddedAt",
      "outputs": [
        {
          "internalType": "uint256",
          "name": "",
          "type": "uint256"
        }
      ],
      "stateMutability": "view",
      "type": "function"
    },
    {
      "inputs": [],
      "name": "owner",
      "outputs": [
        {
          "internalType": "address",
          "name": "",
          "type": "address"
        }
      ],
      "stateMutability": "view",
      "type": "function"
    },
    {
      "inputs": [
        {
          "internalType": "address",
          "name": "_tokenOut",
          "type": "address"
        },
        {
          "internalType": "uint256",
          "name": "_vlpAmount",
          "type": "uint256"
        },
        {
          "internalType": "uint256",
          "name": "_minOut",
          "type": "uint256"
        },
        {
          "internalType": "address",
          "name": "_receiver",
          "type": "address"
        }
      ],
      "name": "removeLiquidity",
      "outputs": [
        {
          "internalType": "uint256",
          "name": "",
          "type": "uint256"
        }
      ],
      "stateMutability": "nonpayable",
      "type": "function"
    },
    {
      "inputs": [
        {
          "internalType": "address",
          "name": "_account",
          "type": "address"
        },
        {
          "internalType": "address",
          "name": "_tokenOut",
          "type": "address"
        },
        {
          "internalType": "uint256",
          "name": "_vlpAmount",
          "type": "uint256"
        },
        {
          "internalType": "uint256",
          "name": "_minOut",
          "type": "uint256"
        },
        {
          "internalType": "address",
          "name": "_receiver",
          "type": "address"
        }
      ],
      "name": "removeLiquidityForAccount",
      "outputs": [
        {
          "internalType": "uint256",
          "name": "",
          "type": "uint256"
        }
      ],
      "stateMutability": "nonpayable",
      "type": "function"
    },
    {
      "inputs": [],
      "name": "renounceOwnership",
      "outputs": [],
      "stateMutability": "nonpayable",
      "type": "function"
    },
    {
      "inputs": [
        {
          "internalType": "uint256",
          "name": "_aumAddition",
          "type": "uint256"
        },
        {
          "internalType": "uint256",
          "name": "_aumDeduction",
          "type": "uint256"
        }
      ],
      "name": "setAumAdjustment",
      "outputs": [],
      "stateMutability": "nonpayable",
      "type": "function"
    },
    {
      "inputs": [
        {
          "internalType": "uint256",
          "name": "_cooldownDuration",
          "type": "uint256"
        }
      ],
      "name": "setCooldownDuration",
      "outputs": [],
      "stateMutability": "nonpayable",
      "type": "function"
    },
    {
      "inputs": [
        {
          "internalType": "address",
          "name": "_handler",
          "type": "address"
        },
        {
          "internalType": "bool",
          "name": "_isActive",
          "type": "bool"
        }
      ],
      "name": "setHandler",
      "outputs": [],
      "stateMutability": "nonpayable",
      "type": "function"
    },
    {
      "inputs": [
        {
          "internalType": "bool",
          "name": "_inPrivateMode",
          "type": "bool"
        }
      ],
      "name": "setInPrivateMode",
      "outputs": [],
      "stateMutability": "nonpayable",
      "type": "function"
    },
    {
      "inputs": [
        {
          "internalType": "address",
          "name": "newOwner",
          "type": "address"
        }
      ],
      "name": "transferOwnership",
      "outputs": [],
      "stateMutability": "nonpayable",
      "type": "function"
    },
    {
      "inputs": [],
      "name": "vault",
      "outputs": [
        {
          "internalType": "contract IVault",
          "name": "",
          "type": "address"
        }
      ],
      "stateMutability": "view",
      "type": "function"
    },
    {
      "inputs": [],
      "name": "vlp",
      "outputs": [
        {
          "internalType": "address",
          "name": "",
          "type": "address"
        }
      ],
      "stateMutability": "view",
      "type": "function"
    }
  ],
  "bytecode": "0x60c0346200014757601f6200249438819003918201601f19168301916001600160401b038311848410176200014c5780849260609460405283398101031262000147576200004d8162000162565b9060406200005e6020830162000162565b9101519060016000556001543360018060a01b03198216176001556040519360018060a01b0391823391167f8be0079c531659141344cd1fd0a4f28419497f9722a3daafe3b4186f6b6457e0600080a31660805260a05260025561231c908162000178823960805181818161014b0152818161028701528181610b6801528181610f040152818161137d015281816114c901528181611725015281816117ec0152818161191a01528181611cb601528181611d180152611f32015260a0518181816108410152818161179401528181611966015281816119d101528181611a220152611f8e0152f35b600080fd5b634e487b7160e01b600052604160045260246000fd5b51906001600160a01b0382168203620001475756fe608060408181526004918236101561001657600080fd5b600092833560e01c9182630339147614610b3657508163070eacee14610b1257816317eb2a1514610aa5578163196b68cb14610a875781631e9049cf14610a695781631ece366a14610a075781632f6ee695146109eb57816335269315146109cc57816346ea87af1461098e5781636853c4b6146109595781636a86da1914610924578163715018a6146108d957816371d597ad14610870578163832119e01461082c5781638b770e11146107f45781638da5cb5b146107cb5781638fed0b2c1461074e5781639116c4ae1461072757816395082d2514610700578163966be075146106c35781639cb7de4b14610674578163b172bb0c14610655578163ed0d1c0414610236578163f2fde38b1461017e575063fbfa77cf1461013857600080fd5b3461017a578160031936011261017a57517f00000000000000000000000000000000000000000000000000000000000000006001600160a01b03168152602090f35b5080fd5b90503461023257602036600319011261023257610199610d39565b906101a2610d65565b6001600160a01b039182169283156101e0575050600180546001600160a01b031981168417909155166000805160206122c78339815191528380a380f35b906020608492519162461bcd60e51b8352820152602660248201527f4f776e61626c653a206e6577206f776e657220697320746865207a65726f206160448201526564647265737360d01b6064820152fd5b8280fd5b8284346106525780600319360112610652578151606081016001600160401b0381118282101761063f57835260028152602080820192843685378451632f9e547160e21b8082526001600160a01b037f0000000000000000000000000000000000000000000000000000000000000000811692919085838b81875afa928315610635578593610602575b50895492839086905b8082106105035750506005549384818111156104f5575050855b8851156104e2578952895192835286838c81885afa9283156104d85786936104a5575b5093919085925b82841061038d57505050508181111561037f575050805b83519660019788101561036c5750858401528451828152925183830181905283860194879390925b8281106103595785870386f35b835187529581019592810192840161034c565b634e487b7160e01b835260329052602482fd5b61038891610e90565b610324565b909192948a516326e1599f60e11b8152868d820152602489828281875afa91821561045b578e8e8c928c95610465575b505192839163631aa0dd60e01b83528886169083015281875afa90811561045b57899161042e575b501561042757906103f86103fe92611357565b90610e6d565b945b60001981146104145760010192919061030d565b634e487b7160e01b875260118c52602487fd5b5094610400565b61044e91508a3d8c11610454575b6104468183610e32565b810190610e55565b8e6103e5565b503d61043c565b8d513d8b823e3d90fd5b939450505081813d831161049e575b61047e8183610e32565b8101031261049a5751848116810361049a5790898e8e386103bd565b8880fd5b503d610474565b9092508681813d83116104d1575b6104bd8183610e32565b810103126104cd5751918b610306565b8580fd5b503d6104b3565b8a513d88823e3d90fd5b634e487b7160e01b875260328c52602487fd5b6104fe91610e90565b6102e3565b90948c868d51916326e1599f60e11b835282015260248a8282818c5afa9182156105b8578f8f8d928d956105c2575b505192839163631aa0dd60e01b835289861690830152818c5afa9081156105b8578a9161059b575b501561059457906103f861056d92610ede565b945b600019811461058157600101906102c9565b634e487b7160e01b885260118d52602488fd5b509461056f565b6105b291508b3d8d11610454576104468183610e32565b8f61055a565b8e513d8c823e3d90fd5b939450505081813d83116105fb575b6105db8183610e32565b810103126105f7575185811681036105f757908a8f8f38610532565b8980fd5b503d6105d1565b9092508581813d831161062e575b61061a8183610e32565b8101031261062a5751918a6102c0565b8480fd5b503d610610565b89513d87823e3d90fd5b634e487b7160e01b835260418552602483fd5b80fd5b50503461017a578160031936011261017a576020906005549051908152f35b50503461017a578060031936011261017a5761068e610d39565b90610697610d2a565b916106a0610d65565b60018060a01b03168352600760205282209060ff80198354169115151617905580f35b905034610232576020366003190112610232578035916106e1610d65565b6202a30083116106f357505060025580f35b516342f1df7560e11b8152fd5b50503461017a578160031936011261017a575168327cb2734119d3b7a9601e1b8152602090f35b919050346102325736600319011261017a57610741610d65565b8035905560243560055580f35b83833461017a57608036600319011261017a57610769610d39565b606435936001600160a01b03851685036107c75761078b600285541415610dbd565b6002845560ff600654166107b957506107b1602094600192604435906024359033611ee8565b925551908152f35b8251638338525560e01b8152fd5b8380fd5b50503461017a578160031936011261017a5760015490516001600160a01b039091168152602090f35b50503461017a57602036600319011261017a5760209181906001600160a01b0361081c610d39565b1681526003845220549051908152f35b50503461017a578160031936011261017a57517f00000000000000000000000000000000000000000000000000000000000000006001600160a01b03168152602090f35b8284346106525760a03660031901126106525761088b610d39565b91610894610d4f565b608435936001600160a01b03851685036107c7576020946001926107b1926108c0600288541415610dbd565b600287556108cc61229b565b6064359160443591611ee8565b83346106525780600319360112610652576108f2610d65565b600180546001600160a01b0319811690915581906001600160a01b03166000805160206122c78339815191528280a380f35b83346106525760203660031901126106525761093e610d16565b610946610d65565b60ff801960065416911515161760065580f35b50503461017a578060031936011261017a57602090610987610979610d39565b610981610d2a565b906114a3565b9051908152f35b50503461017a57602036600319011261017a5760209160ff9082906001600160a01b036109b9610d39565b1681526007855220541690519015158152f35b50503461017a578160031936011261017a576020906002549051908152f35b50503461017a578160031936011261017a5760209051601e8152f35b83833461017a57608036600319011261017a57610a22610d39565b92610a31600284541415610dbd565b6002835560ff60065416610a5b575060016107b16020946064359060443590602435903333611700565b9051638338525560e01b8152fd5b50503461017a578160031936011261017a57602090516202a3008152f35b90503461023257826003193601126102325760209250549051908152f35b8284346106525760c036600319011261065257610ac0610d39565b91610ac9610d4f565b604435936001600160a01b03851685036107c7576020946001926107b192610af5600288541415610dbd565b60028755610b0161229b565b60a435926084359260643592611700565b50503461017a578160031936011261017a5760209060ff6006541690519015158152f35b9391503461017a576020938460031936011261023257610b54610d16565b632f9e547160e21b82526001600160a01b037f0000000000000000000000000000000000000000000000000000000000000000811693919087848481885afa938415610d0c578694610cdd575b509392919081549486945b848610610be15750505050505060055490808211600014610bd1575050905b51908152f35b610bdb9250610e90565b90610bcb565b90919293949588516326e1599f60e11b8152878682015260248b828281875afa918215610c9b578a92610ca5575b508b8b51809263631aa0dd60e01b82528785168a83015281875afa908115610c9b578a91610c7e575b5015610c7757906103f885610c4c936114a3565b955b6000198114610c64576001019493929190610bac565b634e487b7160e01b885260118552602488fd5b5095610c4e565b610c9591508c8d3d10610454576104468183610e32565b38610c38565b8b513d8c823e3d90fd5b9091508b81813d8311610cd6575b610cbd8183610e32565b810103126105f7575184811681036105f7579038610c0f565b503d610cb3565b9093508781813d8311610d05575b610cf58183610e32565b810103126104cd57519238610ba1565b503d610ceb565b87513d88823e3d90fd5b600435908115158203610d2557565b600080fd5b602435908115158203610d2557565b600435906001600160a01b0382168203610d2557565b602435906001600160a01b0382168203610d2557565b6001546001600160a01b03163303610d7957565b606460405162461bcd60e51b815260206004820152602060248201527f4f776e61626c653a2063616c6c6572206973206e6f7420746865206f776e65726044820152fd5b15610dc457565b60405162461bcd60e51b815260206004820152601f60248201527f5265656e7472616e637947756172643a207265656e7472616e742063616c6c006044820152606490fd5b6001600160401b038111610e1c57604052565b634e487b7160e01b600052604160045260246000fd5b601f909101601f19168101906001600160401b03821190821017610e1c57604052565b90816020910312610d2557518015158103610d255790565b91908201809211610e7a57565b634e487b7160e01b600052601160045260246000fd5b91908203918211610e7a57565b81810292918115918404141715610e7a57565b8115610eba570490565b634e487b7160e01b600052601260045260246000fd5b604d8111610e7a57600a0a90565b6040805163631aa0dd60e01b81526001600160a01b0392831660048083018290526024947f000000000000000000000000000000000000000000000000000000000000000016939192602092919083818881895afa9081156112b05760009161133a575b501561132f578151637092736960e11b81528181018590529183838881895afa928315611324576000936112f5575b5080516352f55eed60e01b81528281018690529584878981845afa9687156112ea576000976112bb575b5081516323b95ceb60e21b81528381018790529480868a81855afa9586156112b057600096611281575b50600096879984516342b60b0360e01b8152828782015283818381885afa908115611277578a9161125a575b501561103a57505050505050906110176110116103f89361101d96610e9d565b91610ed0565b90610eb0565b905b8181111561102e575050600090565b61103791610e90565b90565b90919293949897855163114f1b5560e31b8152838b82015284818481895afa908115611250578291611223575b5080611173575b50855163783a2b6760e11b81528a81018490529084828481895afa91821561116857908594939291600092611132575b50906110a991610e6d565b998651958693849263c3c7b9e960e01b84528301525afa92831561112857506000926110f7575b50506103f8926110176110116110f19796946110eb94610e9d565b90610e90565b9061101f565b81819392933d8311611121575b61110e8183610e32565b81010312610652575051826110176110d0565b503d611104565b513d6000823e3d90fd5b919092939482813d8311611161575b61114b8183610e32565b81010312610652575051849392916110a961109e565b503d611141565b87513d6000823e3d90fd5b8651636274980360e01b81528b81018590529190858385818a5afa9283156112195782936111e6575b50826111bf6111c4928b83116000146111dc576111b98c84610e90565b90610e9d565b610eb0565b918811156111d457505b3861106e565b9a50996111ce565b6111b9838d610e90565b909192508581813d8311611212575b6111ff8183610e32565b81010312610232575191906111c461119c565b503d6111f5565b88513d84823e3d90fd5b90508481813d8311611249575b61123a8183610e32565b8101031261017a575138611067565b503d611230565b87513d84823e3d90fd5b6112719150843d8611610454576104468183610e32565b38610ff1565b86513d8c823e3d90fd5b90958682813d83116112a9575b6112988183610e32565b810103126106525750519438610fc5565b503d61128e565b83513d6000823e3d90fd5b90968582813d83116112e3575b6112d28183610e32565b810103126106525750519538610f9b565b503d6112c8565b82513d6000823e3d90fd5b90928482813d831161131d575b61130c8183610e32565b810103126106525750519138610f71565b503d611302565b50513d6000823e3d90fd5b505050505050600090565b6113519150843d8611610454576104468183610e32565b38610f42565b6040805163631aa0dd60e01b81526001600160a01b0392831660048083018290526024947f000000000000000000000000000000000000000000000000000000000000000016939192602092919083818881895afa9081156112b057600091611486575b501561132f5781516340d3096b60e11b81528181018590529183838881895afa928315611324576000936112f5575080516352f55eed60e01b81528281018690529584878981845afa9687156112ea576000976112bb575081516323b95ceb60e21b81528381018790529480868a81855afa9586156112b0576000966112815750600096879984516342b60b0360e01b8152828782015283818381885afa908115611277578a9161125a57501561103a57505050505050906110176110116103f89361101d96610e9d565b61149d9150843d8611610454576104468183610e32565b386113bb565b6040805163631aa0dd60e01b81526001600160a01b0392831660048083018290526024957f0000000000000000000000000000000000000000000000000000000000000000909516949193602093909290848189818a5afa9081156116a057600091611683575b5015611677576000901561160d57508151637092736960e11b815281810185905283818881895afa9081156112b0576000916115e0575b50915b80516352f55eed60e01b81528281018690529584878981845afa9687156112ea576000976112bb575081516323b95ceb60e21b81528381018790529480868a81855afa9586156112b0576000966112815750600096879984516342b60b0360e01b8152828782015283818381885afa908115611277578a9161125a57501561103a57505050505050906110176110116103f89361101d96610e9d565b908482813d8311611606575b6115f68183610e32565b8101031261065257505138611541565b503d6115ec565b82516340d3096b60e11b8152828101869052848189818a5afa91821561166c57809261163c575b505091611544565b9091508482813d8311611665575b6116548183610e32565b810103126106525750513880611634565b503d61164a565b8451903d90823e3d90fd5b50505050505050600090565b61169a9150853d8711610454576104468183610e32565b3861150a565b84513d6000823e3d90fd5b6001600160a01b039091168152602081019190915260400190565b93909260c095929897969360e086019960018060a01b03809216875216602086015260408501526060840152608083015260a08201520152565b959493909192956000968015611e3957604051632f9e547160e21b81526020816004817f00000000000000000000000000000000000000000000000000000000000000006001600160a01b03165afa908115611e2e578991611dfc575b506004549089905b808210611c9557505060055481811115611c8657505087905b6040516318160ddd60e01b8152926020846004817f00000000000000000000000000000000000000000000000000000000000000006001600160a01b03165afa938415611abf578a94611c50575b506040516323b872dd60e01b60208201529061182c90829061181e9085907f00000000000000000000000000000000000000000000000000000000000000006001600160a01b03169060248501611e4b565b03601f198101835282610e32565b60408051919082018083116001600160401b0390911117611c3c576040828101905260208083527f5361666545524332303a206c6f772d6c6576656c2063616c6c206661696c6564908301526001600160a01b0388163b15611bf75780518b91829190602001826001600160a01b038c165af13d15611bea573d906001600160401b038211611bd657906118e19291604051916118d36020601f19601f8401160184610e32565b82523d8d602084013e611e6d565b80519081611b61575b505060405163f088d54760e01b81526001600160a01b038781166004830152909490602090869060249082908e907f0000000000000000000000000000000000000000000000000000000000000000165af1948515611abf578a95611b2d575b508410611aca5760405163313ce56760e01b81526020816004817f00000000000000000000000000000000000000000000000000000000000000006001600160a01b03165afa908115611abf578a91611af1575b5082611adc576119c66119c060ff68327cb2734119d3b7a9601e1b9316610ed0565b86610e9d565b04965b8710611aca577f00000000000000000000000000000000000000000000000000000000000000006001600160a01b03163b1561049a576040516340c10f1960e01b8152898180611a1d8b8a600484016116ab565b0381837f00000000000000000000000000000000000000000000000000000000000000006001600160a01b03165af18015611abf579188999a611aaa9694927f38dc38b96482be64113daffd8d464ebda93e856b70ccfc605e69ccf892ab981e9a9694611ab0575b506001600160a01b0388168152600360205260409081902042905551978897886116c6565b0390a190565b611ab990610e09565b38611a85565b6040513d8c823e3d90fd5b60405163bb2875c360e01b8152600490fd5b50611aeb826111bf8587610e9d565b966119c9565b90506020813d602011611b25575b81611b0c60209383610e32565b810103126105f7575160ff811681036105f7573861199e565b3d9150611aff565b9094506020813d602011611b59575b81611b4960209383610e32565b810103126105f75751933861194a565b3d9150611b3c565b602080611b72938301019101610e55565b15611b7e5738806118ea565b60405162461bcd60e51b815260206004820152602a60248201527f5361666545524332303a204552433230206f7065726174696f6e20646964206e6044820152691bdd081cdd58d8d9595960b21b6064820152608490fd5b634e487b7160e01b8c52604160045260248cfd5b906118e191606090611e6d565b60405162461bcd60e51b815260206004820152601d60248201527f416464726573733a2063616c6c20746f206e6f6e2d636f6e74726163740000006044820152606490fd5b634e487b7160e01b8b52604160045260248bfd5b9093506020813d602011611c7e575b81611c6c60209383610e32565b810103126105f757519261182c6117cc565b3d9150611c5f565b611c8f91610e90565b9061177e565b6040516326e1599f60e11b81526004810183905291929091602460208282817f00000000000000000000000000000000000000000000000000000000000000006001600160a01b03165afa918215611da9578d92611db4575b5060405163631aa0dd60e01b81526001600160a01b038381166004830152909160209183919082907f0000000000000000000000000000000000000000000000000000000000000000165afa908115611da9578d91611d8a575b5015611d8357906103f8611d5b92610ede565b915b6000198114611d6f5760010190611765565b634e487b7160e01b8b52601160045260248bfd5b5091611d5d565b611da3915060203d602011610454576104468183610e32565b38611d48565b6040513d8f823e3d90fd5b9091506020813d602011611df4575b81611dd060209383610e32565b81010312611df057516001600160a01b0381168103611df0579038611cee565b8c80fd5b3d9150611dc3565b90506020813d602011611e26575b81611e1760209383610e32565b8101031261049a57513861175d565b3d9150611e0a565b6040513d8b823e3d90fd5b60405163162908e360e11b8152600490fd5b6001600160a01b03918216815291166020820152604081019190915260600190565b90919015611e79575090565b815115611e895750805190602001fd5b6040519062461bcd60e51b82528160208060048301528251908160248401526000935b828510611ecf575050604492506000838284010152601f80199101168101030190fd5b8481018201518686016044015293810193859350611eac565b91939290926000948015611e395760018060a01b0390818516875260209360038552604090611f1d828a205460025490610e6d565b42101561228a578151632f9e547160e21b81527f00000000000000000000000000000000000000000000000000000000000000008516969081816004818b5afa908115612280578b9161224f575b50600454908b905b8082106121465750506005548181111561213757505089945b7f000000000000000000000000000000000000000000000000000000000000000016968351966318160ddd60e01b885282886004818c5afa97881561212d578c986120fa575b50611fe1886111bf8989610e9d565b98803b15611df0578c8761200c928d838a51809681958294632770a7eb60e21b8452600484016116ab565b03925af180156120f0576120d1575b5091888192612042948e8e895197889586948593636571385b60e11b855260048501611e4b565b03925af19a8b1561166c579a6120a1575b50508810612091579287927f87b9679bb9a4944bafa98c267e7cd4a00ab29fed48afdefae25f0fca5da2794097969592611aaa9551978897886116c6565b5163bb2875c360e01b8152600490fd5b9080929a50813d83116120ca575b6120b98183610e32565b81010312610d255751973880612053565b503d6120af565b839261204294928d9e6120e48d94610e09565b9e50925092935061201b565b86513d8f823e3d90fd5b9097508281813d8311612126575b6121128183610e32565b8101031261212257519638611fd2565b8b80fd5b503d612108565b85513d8e823e3d90fd5b61214091610e90565b94611f8c565b85516326e1599f60e11b8152600481018390529192909184816024818e5afa908115612243578e91612209575b50865163631aa0dd60e01b8152818a16600482015285816024818f5afa9081156121fd578f916121e0575b50156121d957906103f86121b192611357565b915b60001981146121c55760010190611f73565b634e487b7160e01b8d52601160045260248dfd5b50916121b3565b6121f79150863d8811610454576104468183610e32565b3861219e565b8f8951903d90823e3d90fd5b90508481813d831161223c575b6122208183610e32565b81010312612238575188811681036122385738612173565b8d80fd5b503d612216565b8e8851903d90823e3d90fd5b90508181813d8311612279575b6122668183610e32565b81010312612275575138611f6b565b8a80fd5b503d61225c565b84513d8d823e3d90fd5b815163b0782df760e01b8152600490fd5b33600052600760205260ff60406000205416156122b457565b60405163d8f59fa560e01b8152600490fdfe8be0079c531659141344cd1fd0a4f28419497f9722a3daafe3b4186f6b6457e0a2646970667358221220041d9ab36837e51ccd3d040f7b00a9840da4513ed0dcf8790603da39480b467d64736f6c63430008110033",
  "linkReferences": {},
  "deployedLinkReferences": {}
}