{
  "_format": "hh-sol-artifact-1",
  "contractName": "VlpManager",
  "sourceName": "contracts/core/VlpManager.sol",
  "abi": [
    {
      "inputs": [
        {
          "internalType": "address",
          "name": "_vault",
          "type": "address"
        },
        {
          "internalType": "address",
          "name": "_usdv",
          "type": "address"
        },
        {
          "internalType": "address",
          "name": "_vlp",
          "type": "address"
        },
        {
          "internalType": "uint256",
          "name": "_cooldownDuration",
          "type": "uint256"
        }
      ],
      "stateMutability": "nonpayable",
      "type": "constructor"
    },
    {
      "inputs": [],
      "name": "InvalidCooldownDuration",
      "type": "error"
    },
    {
      "inputs": [],
      "name": "PrivateMode",
      "type": "error"
    },
    {
      "anonymous": false,
      "inputs": [
        {
          "indexed": false,
          "internalType": "address",
          "name": "account",
          "type": "address"
        },
        {
          "indexed": false,
          "internalType": "address",
          "name": "token",
          "type": "address"
        },
        {
          "indexed": false,
          "internalType": "uint256",
          "name": "amount",
          "type": "uint256"
        },
        {
          "indexed": false,
          "internalType": "uint256",
          "name": "aumInUsdv",
          "type": "uint256"
        },
        {
          "indexed": false,
          "internalType": "uint256",
          "name": "vlpSupply",
          "type": "uint256"
        },
        {
          "indexed": false,
          "internalType": "uint256",
          "name": "usdvAmount",
          "type": "uint256"
        },
        {
          "indexed": false,
          "internalType": "uint256",
          "name": "mintAmount",
          "type": "uint256"
        }
      ],
      "name": "AddLiquidity",
      "type": "event"
    },
    {
      "anonymous": false,
      "inputs": [
        {
          "indexed": false,
          "internalType": "address",
          "name": "account",
          "type": "address"
        },
        {
          "indexed": false,
          "internalType": "address",
          "name": "token",
          "type": "address"
        },
        {
          "indexed": false,
          "internalType": "uint256",
          "name": "vlpAmount",
          "type": "uint256"
        },
        {
          "indexed": false,
          "internalType": "uint256",
          "name": "aumInUsdv",
          "type": "uint256"
        },
        {
          "indexed": false,
          "internalType": "uint256",
          "name": "vlpSupply",
          "type": "uint256"
        },
        {
          "indexed": false,
          "internalType": "uint256",
          "name": "usdvAmount",
          "type": "uint256"
        },
        {
          "indexed": false,
          "internalType": "uint256",
          "name": "amountOut",
          "type": "uint256"
        }
      ],
      "name": "RemoveLiquidity",
      "type": "event"
    },
    {
      "inputs": [],
      "name": "MAX_COOLDOWN_DURATION",
      "outputs": [
        {
          "internalType": "uint256",
          "name": "",
          "type": "uint256"
        }
      ],
      "stateMutability": "view",
      "type": "function"
    },
    {
      "inputs": [],
      "name": "PRICE_PRECISION",
      "outputs": [
        {
          "internalType": "uint256",
          "name": "",
          "type": "uint256"
        }
      ],
      "stateMutability": "view",
      "type": "function"
    },
    {
      "inputs": [],
      "name": "USDV_DECIMALS",
      "outputs": [
        {
          "internalType": "uint256",
          "name": "",
          "type": "uint256"
        }
      ],
      "stateMutability": "view",
      "type": "function"
    },
    {
      "inputs": [
        {
          "internalType": "address",
          "name": "_token",
          "type": "address"
        },
        {
          "internalType": "uint256",
          "name": "_amount",
          "type": "uint256"
        },
        {
          "internalType": "uint256",
          "name": "_minUsdv",
          "type": "uint256"
        },
        {
          "internalType": "uint256",
          "name": "_minVlp",
          "type": "uint256"
        }
      ],
      "name": "addLiquidity",
      "outputs": [
        {
          "internalType": "uint256",
          "name": "",
          "type": "uint256"
        }
      ],
      "stateMutability": "nonpayable",
      "type": "function"
    },
    {
      "inputs": [
        {
          "internalType": "address",
          "name": "_fundingAccount",
          "type": "address"
        },
        {
          "internalType": "address",
          "name": "_account",
          "type": "address"
        },
        {
          "internalType": "address",
          "name": "_token",
          "type": "address"
        },
        {
          "internalType": "uint256",
          "name": "_amount",
          "type": "uint256"
        },
        {
          "internalType": "uint256",
          "name": "_minUsdv",
          "type": "uint256"
        },
        {
          "internalType": "uint256",
          "name": "_minVlp",
          "type": "uint256"
        }
      ],
      "name": "addLiquidityForAccount",
      "outputs": [
        {
          "internalType": "uint256",
          "name": "",
          "type": "uint256"
        }
      ],
      "stateMutability": "nonpayable",
      "type": "function"
    },
    {
      "inputs": [],
      "name": "aumAddition",
      "outputs": [
        {
          "internalType": "uint256",
          "name": "",
          "type": "uint256"
        }
      ],
      "stateMutability": "view",
      "type": "function"
    },
    {
      "inputs": [],
      "name": "aumDeduction",
      "outputs": [
        {
          "internalType": "uint256",
          "name": "",
          "type": "uint256"
        }
      ],
      "stateMutability": "view",
      "type": "function"
    },
    {
      "inputs": [],
      "name": "cooldownDuration",
      "outputs": [
        {
          "internalType": "uint256",
          "name": "",
          "type": "uint256"
        }
      ],
      "stateMutability": "view",
      "type": "function"
    },
    {
      "inputs": [
        {
          "internalType": "bool",
          "name": "maximise",
          "type": "bool"
        }
      ],
      "name": "getAum",
      "outputs": [
        {
          "internalType": "uint256",
          "name": "",
          "type": "uint256"
        }
      ],
      "stateMutability": "view",
      "type": "function"
    },
    {
      "inputs": [
        {
          "internalType": "bool",
          "name": "maximise",
          "type": "bool"
        }
      ],
      "name": "getAumInUsdv",
      "outputs": [
        {
          "internalType": "uint256",
          "name": "",
          "type": "uint256"
        }
      ],
      "stateMutability": "view",
      "type": "function"
    },
    {
      "inputs": [],
      "name": "getAums",
      "outputs": [
        {
          "internalType": "uint256[]",
          "name": "",
          "type": "uint256[]"
        }
      ],
      "stateMutability": "view",
      "type": "function"
    },
    {
      "inputs": [],
      "name": "gov",
      "outputs": [
        {
          "internalType": "address",
          "name": "",
          "type": "address"
        }
      ],
      "stateMutability": "view",
      "type": "function"
    },
    {
      "inputs": [],
      "name": "inPrivateMode",
      "outputs": [
        {
          "internalType": "bool",
          "name": "",
          "type": "bool"
        }
      ],
      "stateMutability": "view",
      "type": "function"
    },
    {
      "inputs": [
        {
          "internalType": "address",
          "name": "",
          "type": "address"
        }
      ],
      "name": "isHandler",
      "outputs": [
        {
          "internalType": "bool",
          "name": "",
          "type": "bool"
        }
      ],
      "stateMutability": "view",
      "type": "function"
    },
    {
      "inputs": [
        {
          "internalType": "address",
          "name": "",
          "type": "address"
        }
      ],
      "name": "lastAddedAt",
      "outputs": [
        {
          "internalType": "uint256",
          "name": "",
          "type": "uint256"
        }
      ],
      "stateMutability": "view",
      "type": "function"
    },
    {
      "inputs": [
        {
          "internalType": "address",
          "name": "_tokenOut",
          "type": "address"
        },
        {
          "internalType": "uint256",
          "name": "_vlpAmount",
          "type": "uint256"
        },
        {
          "internalType": "uint256",
          "name": "_minOut",
          "type": "uint256"
        },
        {
          "internalType": "address",
          "name": "_receiver",
          "type": "address"
        }
      ],
      "name": "removeLiquidity",
      "outputs": [
        {
          "internalType": "uint256",
          "name": "",
          "type": "uint256"
        }
      ],
      "stateMutability": "nonpayable",
      "type": "function"
    },
    {
      "inputs": [
        {
          "internalType": "address",
          "name": "_account",
          "type": "address"
        },
        {
          "internalType": "address",
          "name": "_tokenOut",
          "type": "address"
        },
        {
          "internalType": "uint256",
          "name": "_vlpAmount",
          "type": "uint256"
        },
        {
          "internalType": "uint256",
          "name": "_minOut",
          "type": "uint256"
        },
        {
          "internalType": "address",
          "name": "_receiver",
          "type": "address"
        }
      ],
      "name": "removeLiquidityForAccount",
      "outputs": [
        {
          "internalType": "uint256",
          "name": "",
          "type": "uint256"
        }
      ],
      "stateMutability": "nonpayable",
      "type": "function"
    },
    {
      "inputs": [
        {
          "internalType": "uint256",
          "name": "_aumAddition",
          "type": "uint256"
        },
        {
          "internalType": "uint256",
          "name": "_aumDeduction",
          "type": "uint256"
        }
      ],
      "name": "setAumAdjustment",
      "outputs": [],
      "stateMutability": "nonpayable",
      "type": "function"
    },
    {
      "inputs": [
        {
          "internalType": "uint256",
          "name": "_cooldownDuration",
          "type": "uint256"
        }
      ],
      "name": "setCooldownDuration",
      "outputs": [],
      "stateMutability": "nonpayable",
      "type": "function"
    },
    {
      "inputs": [
        {
          "internalType": "address",
          "name": "_gov",
          "type": "address"
        }
      ],
      "name": "setGov",
      "outputs": [],
      "stateMutability": "nonpayable",
      "type": "function"
    },
    {
      "inputs": [
        {
          "internalType": "address",
          "name": "_handler",
          "type": "address"
        },
        {
          "internalType": "bool",
          "name": "_isActive",
          "type": "bool"
        }
      ],
      "name": "setHandler",
      "outputs": [],
      "stateMutability": "nonpayable",
      "type": "function"
    },
    {
      "inputs": [
        {
          "internalType": "bool",
          "name": "_inPrivateMode",
          "type": "bool"
        }
      ],
      "name": "setInPrivateMode",
      "outputs": [],
      "stateMutability": "nonpayable",
      "type": "function"
    },
    {
      "inputs": [],
      "name": "usdv",
      "outputs": [
        {
          "internalType": "address",
          "name": "",
          "type": "address"
        }
      ],
      "stateMutability": "view",
      "type": "function"
    },
    {
      "inputs": [],
      "name": "vault",
      "outputs": [
        {
          "internalType": "contract IVault",
          "name": "",
          "type": "address"
        }
      ],
      "stateMutability": "view",
      "type": "function"
    },
    {
      "inputs": [],
      "name": "vlp",
      "outputs": [
        {
          "internalType": "address",
          "name": "",
          "type": "address"
        }
      ],
      "stateMutability": "view",
      "type": "function"
    }
  ],
  "bytecode": "0x608034620000d157601f62002c2038819003918201601f19168301916001600160401b03831184841017620000d657808492608094604052833981010312620000d1578062000052620000c192620000ec565b906200006160208201620000ec565b60606200007160408401620000ec565b9201519291600160005560018060a01b03199283600154163390853316171760015560018060a01b0392838092168560025416176002551683600354161760035516906004541617600455600555565b604051612b1e9081620001028239f35b600080fd5b634e487b7160e01b600052604160045260246000fd5b51906001600160a01b0382168203620000d15756fe60806040526004361015610013575b600080fd5b60003560e01c80630339147614610207578063070eacee146101fe57806309dc9e5e146101f557806312d43a51146101ec57806317eb2a15146101e3578063196b68cb146101da5780631e9049cf146101d15780631ece366a146101c857806323045085146101bf57806335269315146101b657806346ea87af146101ad5780636a86da19146101a457806371d597ad1461019b578063832119e0146101925780638b770e11146101895780638fed0b2c146101805780639116c4ae146101775780639420069c1461016e57806395082d2514610165578063966be0751461015c5780639cb7de4b14610153578063b172bb0c1461014a578063cfad57a214610141578063ed0d1c04146101385763fbfa77cf1461013057600080fd5b61000e610896565b5061000e610805565b5061000e6107b9565b5061000e61079a565b5061000e610731565b5061000e6106e6565b5061000e6106bd565b5061000e610693565b5061000e61065e565b5061000e6105ff565b5061000e6105c1565b5061000e610597565b5061000e610532565b5061000e6104e8565b5061000e6104a5565b5061000e61046c565b5061000e61044f565b5061000e6103ce565b5061000e6103af565b5061000e610390565b5061000e61031a565b5061000e6102df565b5061000e610279565b5061000e610255565b5061000e61021a565b8015150361000e57565b503461000e57602036600319011261000e57602061024260043561023d81610210565b611a9d565b604051908152f35b600091031261000e57565b503461000e57600036600319011261000e57602060ff600954166040519015158152f35b503461000e57602036600319011261000e57602060043561029981610210565b6102b76102b268327cb2734119d3b7a9601e1b92611a9d565b610a61565b04604051908152f35b6001600160a01b031690565b6001600160a01b03909116815260200190565b503461000e57600036600319011261000e576001546040516001600160a01b039091168152602090f35b6001600160a01b0381160361000e57565b503461000e5760c036600319011261000e57602061038360043561033d81610309565b60243561034981610309565b6044359161035683610309565b61036560026000541415610904565b6002600055610372612a72565b60a4359260843592606435926121b9565b6001600055604051908152f35b503461000e57600036600319011261000e576020600754604051908152f35b503461000e57600036600319011261000e5760206040516202a3008152f35b503461000e57608036600319011261000e576004356103ec81610309565b6103fb60026000541415610904565b600260005560ff6009541661043d576104246104399160643590604435906024359033336121b9565b60016000556040519081529081906020820190565b0390f35b604051638338525560e01b8152600490fd5b503461000e57600036600319011261000e57602060405160128152f35b503461000e57600036600319011261000e576020600554604051908152f35b6001600160a01b0316600090815260066020526040902090565b503461000e57602036600319011261000e576004356104c381610309565b60018060a01b0316600052600a602052602060ff604060002054166040519015158152f35b503461000e57602036600319011261000e5760043561050681610210565b61051b60018060a01b036001541633146108c0565b60ff80196009541691151516176009556000604051f35b503461000e5760a036600319011261000e57602061038360043561055581610309565b60243561056181610309565b6084359161056e83610309565b61057d60026000541415610904565b600260005561058a612a72565b606435916044359161271e565b503461000e57600036600319011261000e576004546040516001600160a01b039091168152602090f35b503461000e57602036600319011261000e576004356105df81610309565b60018060a01b031660005260066020526020604060002054604051908152f35b503461000e57608036600319011261000e5760043561061d81610309565b6064359061062a82610309565b61063960026000541415610904565b600260005560ff6009541661043d57610439916104249160443590602435903361271e565b503461000e57604036600319011261000e5761068560018060a01b036001541633146108c0565b600435600755602435600855005b503461000e57600036600319011261000e576003546040516001600160a01b039091168152602090f35b503461000e57600036600319011261000e5760405168327cb2734119d3b7a9601e1b8152602090f35b503461000e57602036600319011261000e5760043561071060018060a01b036001541633146108c0565b6202a300811161071f57600555005b6040516342f1df7560e11b8152600490fd5b503461000e57604036600319011261000e5760043561074f81610309565b6024359061075c82610210565b6001546001600160a01b03919061077690831633146108c0565b16600052600a60205260406000209060ff8019835416911515161790556000604051f35b503461000e57600036600319011261000e576020600854604051908152f35b503461000e57602036600319011261000e576004356107d781610309565b600154906001600160a01b03906107f133838516146108c0565b6001600160a01b0319909216911617600155005b503461000e57600036600319011261000e5760405161082381610987565b60028152602090818101604036823761083a610b22565b610843836109fb565b5261084c61110f565b61085583610a1e565b52604051928392818401908285525180915260408401929160005b82811061087f57505050500390f35b835185528695509381019392810192600101610870565b503461000e57600036600319011261000e576002546040516001600160a01b039091168152602090f35b156108c757565b60405162461bcd60e51b815260206004820152601560248201527423b7bb32b93730b136329d103337b93134b23232b760591b6044820152606490fd5b1561090b57565b60405162461bcd60e51b815260206004820152601f60248201527f5265656e7472616e637947756172643a207265656e7472616e742063616c6c006044820152606490fd5b50634e487b7160e01b600052604160045260246000fd5b6001600160401b03811161097a57604052565b610982610950565b604052565b606081019081106001600160401b0382111761097a57604052565b60a081019081106001600160401b0382111761097a57604052565b604081019081106001600160401b0382111761097a57604052565b601f909101601f19168101906001600160401b0382119082101761097a57604052565b805115610a085760200190565b634e487b7160e01b600052603260045260246000fd5b805160011015610a085760400190565b50634e487b7160e01b600052601160045260246000fd5b604d8111610a54575b600a0a90565b610a5c610a2e565b610a4e565b670de0b6b3a7640000908060001904821181151516610a7e570290565b610a86610a2e565b0290565b8060001904821181151516610a7e570290565b8115610aa7570490565b634e487b7160e01b600052601260045260246000fd5b9081602091031261000e575190565b506040513d6000823e3d90fd5b6001906000198114610ae9570190565b610af1610a2e565b0190565b9081602091031261000e5751610b0a81610309565b90565b9081602091031261000e5751610b0a81610210565b610b35610b306002546102c0565b6102c0565b60408051630421583b60e11b81526004926020929083838681845afa928315611102575b6000936110e3575b50939291906007549460009485945b848610610bb557505050505050818111600014610ba757505060005b60085481811115610b9e575050600090565b610b0a91612039565b610bb091612039565b610b8c565b909192939496845190630e468baf60e41b8252828280610bdc8c8883019190602083019252565b0381885afa9182156110d6575b6000926110a7575b508551630daf9c2160e41b8152838180610c0d868983016102cc565b0381895afa90811561109a575b60009161107d575b5015611072578551637092736960e11b8152838180610c43868983016102cc565b0381895afa908115611065575b600091611048575b5086516352f55eed60e01b8152848180610c74878a83016102cc565b03818a5afa90811561103b575b60009161101e575b5087858151956323b95ceb60e21b8752818780610ca8848d83016102cc565b03818d5afa968715611011575b600097610ff2575b50898984516342b60b0360e01b8152848180610cdb878683016102cc565b0381865afa908115610fe5575b600091610fb8575b5015610d35575050505050610d2b93610d19610d13610d259594610d1f94610a8a565b91610a45565b90610a9d565b9061202d565b97610ad9565b9493929190610b70565b9091929396875163114f1b5560e31b8152858180610d55888783016102cc565b0381875afa908115610fab575b600091610f8e575b5080610e6a575b50610de3610d1f96610d2b9a96610d1996610d13968c9b96610dca610dfd97610d259f519063783a2b6760e11b8252868280610daf898883016102cc565b0381885afa918215610e5d575b600092610e3e575b5061202d565b9c5180968194829363c3c7b9e960e01b845283016102cc565b03915afa918215610e31575b600092610e02575b50612039565b610a8a565b610e239192508c8d3d10610e2a575b610e1b81836109d8565b810190610abd565b9038610df7565b503d610e11565b610e39610acc565b610def565b610e56919250873d8911610e2a57610e1b81836109d8565b9038610dc4565b610e65610acc565b610dbc565b9450929495969150505191636274980360e01b8352878380610e8e878d83016102cc565b03818d5afa928315610f81575b600093610f5a575b5082610ec6610ecb92888311600014610f5057610ec08984612039565b90610a8a565b610a9d565b91851115610f1757610d13610d2595610dfd610de38d978b610d1f988f8f610dca610d2b9f9b610eff8f91610d199d61202d565b905b50975050969b9c5096509650969a509650610d71565b8787958a92610f2b8d9f958e989a9661202d565b9e610d2b99610d2599610d1f98610d1997610d1397610dca610dfd97610de397610f01565b610ec0838a612039565b610ec6935090610f79610ecb928a3d8c11610e2a57610e1b81836109d8565b935090610ea3565b610f89610acc565b610e9b565b610fa59150863d8811610e2a57610e1b81836109d8565b38610d6a565b610fb3610acc565b610d62565b610fd89150853d8711610fde575b610fd081836109d8565b810190610b0d565b38610cf0565b503d610fc6565b610fed610acc565b610ce8565b61100a919750823d8411610e2a57610e1b81836109d8565b9538610cbd565b611019610acc565b610cb5565b6110359150853d8711610e2a57610e1b81836109d8565b38610c89565b611043610acc565b610c81565b61105f9150843d8611610e2a57610e1b81836109d8565b38610c58565b61106d610acc565b610c50565b97610d2b9150610ad9565b6110949150843d8611610fde57610fd081836109d8565b38610c22565b6110a2610acc565b610c1a565b6110c8919250833d85116110cf575b6110c081836109d8565b810190610af5565b9038610bf1565b503d6110b6565b6110de610acc565b610be9565b6110fb919350843d8611610e2a57610e1b81836109d8565b9138610b61565b61110a610acc565b610b59565b61111d610b306002546102c0565b60408051630421583b60e11b81526004926020929083838681845afa9283156115c9575b6000936115aa575b50939291906007549460009485945b84861061118457505050505050818111600014610ba75750506008546000908015610b9e575050600090565b909192939496845190630e468baf60e41b82528282806111ab8c8883019190602083019252565b0381885afa91821561159d575b60009261157e575b508551630daf9c2160e41b81528381806111dc868983016102cc565b0381895afa908115611571575b600091611554575b50156115495785516340d3096b60e11b8152838180611212868983016102cc565b0381895afa90811561153c575b60009161151f575b5086516352f55eed60e01b8152848180611243878a83016102cc565b03818a5afa908115611512575b6000916114f5575b5087858151956323b95ceb60e21b8752818780611277848d83016102cc565b03818d5afa9687156114e8575b6000976114c9575b50898984516342b60b0360e01b81528481806112aa878683016102cc565b0381865afa9081156114bc575b60009161149f575b50156112ec5750505050506112e293610d19610d13610d259594610d1f94610a8a565b9493929190611158565b9091929396875163114f1b5560e31b815285818061130c888783016102cc565b0381875afa908115611492575b600091611475575b5080611366575b50610de3610d1f966112e29a96610d1996610d13968c9b96610dca610dfd97610d259f519063783a2b6760e11b8252868280610daf898883016102cc565b9450929495969150505191636274980360e01b835287838061138a878d83016102cc565b03818d5afa928315611468575b600093611441575b5082610ec66113bc92888311600014610f5057610ec08984612039565b9185111561140857610d13610d2595610dfd610de38d978b610d1f988f8f610dca6112e29f9b6113f08f91610d199d61202d565b905b50975050969b9c5096509650969a509650611328565b8787958a9261141c8d9f958e989a9661202d565b9e6112e299610d2599610d1f98610d1997610d1397610dca610dfd97610de3976113f2565b610ec69350906114606113bc928a3d8c11610e2a57610e1b81836109d8565b93509061139f565b611470610acc565b611397565b61148c9150863d8811610e2a57610e1b81836109d8565b38611321565b61149a610acc565b611319565b6114b69150853d8711610fde57610fd081836109d8565b386112bf565b6114c4610acc565b6112b7565b6114e1919750823d8411610e2a57610e1b81836109d8565b953861128c565b6114f0610acc565b611284565b61150c9150853d8711610e2a57610e1b81836109d8565b38611258565b61151a610acc565b611250565b6115369150843d8611610e2a57610e1b81836109d8565b38611227565b611544610acc565b61121f565b976112e29150610ad9565b61156b9150843d8611610fde57610fd081836109d8565b386111f1565b611579610acc565b6111e9565b611596919250833d85116110cf576110c081836109d8565b90386111c0565b6115a5610acc565b6111b8565b6115c2919350843d8611610e2a57610e1b81836109d8565b9138611149565b6115d1610acc565b611141565b6115e4610b306002546102c0565b60408051630421583b60e11b81526004926020929083838681845afa928315611a90575b600093611a71575b50939291906007549460009485945b84861061164b57505050505050818111600014610ba75750506008546000908015610b9e575050600090565b909192939496845190630e468baf60e41b82528282806116728c8883019190602083019252565b0381885afa918215611a64575b600092611a45575b508551630daf9c2160e41b81528381806116a3868983016102cc565b0381895afa908115611a38575b600091611a1b575b5015611a105785516340d3096b60e11b81528381806116d9868983016102cc565b0381895afa908115611a03575b6000916119e6575b5086516352f55eed60e01b815284818061170a878a83016102cc565b03818a5afa9081156119d9575b6000916119bc575b5087858151956323b95ceb60e21b875281878061173e848d83016102cc565b03818d5afa9687156119af575b600097611990575b50898984516342b60b0360e01b8152848180611771878683016102cc565b0381865afa908115611983575b600091611966575b50156117b35750505050506117a993610d19610d13610d259594610d1f94610a8a565b949392919061161f565b9091929396875163114f1b5560e31b81528581806117d3888783016102cc565b0381875afa908115611959575b60009161193c575b508061182d575b50610de3610d1f966117a99a96610d1996610d13968c9b96610dca610dfd97610d259f519063783a2b6760e11b8252868280610daf898883016102cc565b9450929495969150505191636274980360e01b8352878380611851878d83016102cc565b03818d5afa92831561192f575b600093611908575b5082610ec661188392888311600014610f5057610ec08984612039565b918511156118cf57610d13610d2595610dfd610de38d978b610d1f988f8f610dca6117a99f9b6118b78f91610d199d61202d565b905b50975050969b9c5096509650969a5096506117ef565b8787958a926118e38d9f958e989a9661202d565b9e6117a999610d2599610d1f98610d1997610d1397610dca610dfd97610de3976118b9565b610ec6935090611927611883928a3d8c11610e2a57610e1b81836109d8565b935090611866565b611937610acc565b61185e565b6119539150863d8811610e2a57610e1b81836109d8565b386117e8565b611961610acc565b6117e0565b61197d9150853d8711610fde57610fd081836109d8565b38611786565b61198b610acc565b61177e565b6119a8919750823d8411610e2a57610e1b81836109d8565b9538611753565b6119b7610acc565b61174b565b6119d39150853d8711610e2a57610e1b81836109d8565b3861171f565b6119e1610acc565b611717565b6119fd9150843d8611610e2a57610e1b81836109d8565b386116ee565b611a0b610acc565b6116e6565b976117a99150610ad9565b611a329150843d8611610fde57610fd081836109d8565b386116b8565b611a40610acc565b6116b0565b611a5d919250833d85116110cf576110c081836109d8565b9038611687565b611a6c610acc565b61167f565b611a89919350843d8611610e2a57610e1b81836109d8565b9138611610565b611a98610acc565b611608565b611aab610b306002546102c0565b906040805190630421583b60e11b8252602093600485848281855afa938415612020575b600094612001575b5094939291906007549560009586955b858710611b145750505050505050818111600014610ba75750506008546000908015610b9e575050600090565b909192939495978551630e468baf60e41b8152838180611b3b8d8983019190602083019252565b0381895afa908115611ff4575b600091611fd7575b508651630daf9c2160e41b8152848180611b6c858a83016102cc565b03818a5afa908115611fca575b600091611fad575b5015611fa257611c219190600088868615611f3b57611bef9250611bbb81858c8c8651809581948293637092736960e11b845283016102cc565b03915afa908115611f2e575b600091611f11575b50935b81818c8c86518098819482936352f55eed60e01b845283016102cc565b03915afa938415611f04575b600094611ee5575b5081818c8c8651809b819482936323b95ceb60e21b845283016102cc565b03915afa968715611ed8575b600097611eb9575b508a8a84516342b60b0360e01b8152848180611c53878683016102cc565b0381865afa908115611eac575b600091611e8f575b5015611c9c575050505050611c9193610d19610d13611c8b9594610d1f94610a8a565b98610ad9565b959493929190611ae7565b9091929396875163114f1b5560e31b8152858180611cbc888783016102cc565b0381875afa908115611e82575b600091611e65575b5080611d54575b50611d16610d1f96611c919a96610d1996610d13968c9b96610dca610dfd97611c8b9f519063783a2b6760e11b8252868280610daf898883016102cc565b03915afa918215611d47575b600092611d2f5750612039565b610e239192508d803d10610e2a57610e1b81836109d8565b611d4f610acc565b611d22565b92611d7995928597989995929551809781948293636274980360e01b845283016102cc565b03915afa928315611e58575b600093611e31575b5082610ec6611daa92888311600014610f5057610ec08984612039565b91851115611df857610d13611c8b95610dfd611d168e978c8f988f99610d1f9a610dca611c919f9b611de08f91610d199d61202d565b905b50975050969b9c5096509650969a509650611cd8565b8888958b928d9f8e979995611e0c9161202d565b9f611c9199611c8b99610d1f98610d1997610d1397610dca610dfd97611d1697611de2565b610ec6935090611e50611daa928b3d8d11610e2a57610e1b81836109d8565b935090611d8d565b611e60610acc565b611d85565b611e7c9150863d8811610e2a57610e1b81836109d8565b38611cd1565b611e8a610acc565b611cc9565b611ea69150853d8711610fde57610fd081836109d8565b38611c68565b611eb4610acc565b611c60565b611ed1919750823d8411610e2a57610e1b81836109d8565b9538611c35565b611ee0610acc565b611c2d565b611efd919450823d8411610e2a57610e1b81836109d8565b9238611c03565b611f0c610acc565b611bfb565b611f289150823d8411610e2a57610e1b81836109d8565b38611bcf565b611f36610acc565b611bc7565b611bef92611f5f82868d8d87518095819482936340d3096b60e11b845283016102cc565b03915afa918215611f95575b91611f78575b5093611bd2565b611f8f9150823d8411610e2a57610e1b81836109d8565b38611f71565b611f9d610acc565b611f6b565b5097611c9190610ad9565b611fc49150853d8711610fde57610fd081836109d8565b38611b81565b611fd2610acc565b611b79565b611fee9150843d86116110cf576110c081836109d8565b38611b50565b611ffc610acc565b611b48565b612019919450863d8811610e2a57610e1b81836109d8565b9238611ad7565b612028610acc565b611acf565b81198111610ae9570190565b818110612044570390565b61204c610a2e565b0390565b1561205757565b60405162461bcd60e51b815260206004820152601b60248201527a159b1c13585b9859d95c8e881a5b9d985b1a590817d85b5bdd5b9d602a1b6044820152606490fd5b6001600160a01b0391821681529116602082015260400190565b156120bb57565b60405162461bcd60e51b8152602060048201526024808201527f566c704d616e616765723a20696e73756666696369656e742055534456206f756044820152631d1c1d5d60e21b6064820152608490fd5b1561211357565b60405162461bcd60e51b815260206004820152602360248201527f566c704d616e616765723a20696e73756666696369656e7420564c50206f75746044820152621c1d5d60ea1b6064820152608490fd5b6001600160a01b039091168152602081019190915260400190565b93909260c095929897969360e086019960018060a01b03809216875216602086015260408501526060840152608083015260a08201520152565b929091926121c8821515612050565b68327cb2734119d3b7a9601e1b6121e06102b2610b22565b04946121f3610b30610b306004546102c0565b90836040519384936318160ddd60e01b855284600460209687935afa9485156123d1575b6000956123ac575b509061224391612233610b306002546102c0565b906001600160a01b038a166123de565b612251610b306002546102c0565b6040516306dfda0360e21b8152908390829081600081612275308e6004840161209a565b03925af192831561239f575b60009361237a575b5050612297908210156120b4565b85612363576122aa81975b88101561210c565b6122bb610b30610b306004546102c0565b91823b1561000e577f38dc38b96482be64113daffd8d464ebda93e856b70ccfc605e69ccf892ab981e966123379461230f60008b80978a836040518096819582946340c10f1960e01b845260048401612164565b03925af18015612356575b61233d575b504261232a8861048b565b556040519788978861217f565b0390a190565b8061234a61235092610967565b8061024a565b3861231f565b61235e610acc565b61231a565b6122aa61237487610ec68585610a8a565b976122a2565b612297929350908161239792903d10610e2a57610e1b81836109d8565b919038612289565b6123a7610acc565b612281565b612243929195506123c990853d8711610e2a57610e1b81836109d8565b94909161221f565b6123d9610acc565b612217565b6040516323b872dd60e01b602082019081526001600160a01b039384166024830152938316604482015260648082019590955293845261247f93926000928392612427866109a2565b16908260405195612437876109bd565b602087527f5361666545524332303a206c6f772d6c6576656c2063616c6c206661696c6564602088015261246d843b1515612505565b51925af1612479612551565b9061259e565b80518061248a575050565b8160208061249f936124a49501019101610b0d565b6124a6565b565b156124ad57565b60405162461bcd60e51b815260206004820152602a60248201527f5361666545524332303a204552433230206f7065726174696f6e20646964206e6044820152691bdd081cdd58d8d9595960b21b6064820152608490fd5b1561250c57565b60405162461bcd60e51b815260206004820152601d60248201527f416464726573733a2063616c6c20746f206e6f6e2d636f6e74726163740000006044820152606490fd5b3d15612599573d906001600160401b03821161258c575b60405191612580601f8201601f1916602001846109d8565b82523d6000602084013e565b612594610950565b612568565b606090565b909190156125aa575090565b8151156125ba5750805190602001fd5b6040519062461bcd60e51b82528160208060048301528251928360248401526000915b84831061260c5750509180604493116125ff575b601f01601f19168101030190fd5b60008382840101526125f1565b81830181015186840160440152859350918201916125dd565b1561262c57565b60405162461bcd60e51b815260206004820152601e60248201527f566c704d616e616765723a20696e76616c6964205f766c70416d6f756e7400006044820152606490fd5b1561267857565b60405162461bcd60e51b815260206004820152602c60248201527f566c704d616e616765723a20636f6f6c646f776e206475726174696f6e206e6f60448201526b1d081e595d081c185cdcd95960a21b6064820152608490fd5b156126d957565b60405162461bcd60e51b815260206004820152601f60248201527f566c704d616e616765723a20696e73756666696369656e74206f7574707574006044820152606490fd5b90919361272c851515612625565b61274d61274561273b8461048b565b546005549061202d565b421015612671565b68327cb2734119d3b7a9601e1b6127656102b26115d6565b049360049461277a610b30610b3088546102c0565b9160409081519788946318160ddd60e01b8652858260209b8c935afa948515612a65575b600095612a46575b506127b585610ec6868d610a8a565b956127c7610b30610b306003546102c0565b84516370a0823160e01b81528b81806127e2308883016102cc565b0381855afa908115612a39575b600091612a1c575b508089116129af575b5050612812610b30610b3084546102c0565b90813b1561000e576128d09261284260008e8e958d838b51809681958294632770a7eb60e21b84528a8401612164565b03925af180156129a2575b61298f575b50612893838a612869610b30610b306003546102c0565b612877610b306002546102c0565b60008b5180968195829463a9059cbb60e01b84528a8401612164565b03925af18015612982575b612965575b508a60006128b5610b306002546102c0565b92885196879586948593639213472b60e01b8552840161209a565b03925af1988915612958575b600099612915575b505091879888949261290b6123379795600080516020612ac98339815191529b10156126d2565b519788978861217f565b600080516020612ac983398151915299509261294961290b9b92856123379997959896903d10610e2a57610e1b81836109d8565b99509294919395819a506128e4565b612960610acc565b6128dc565b61297b90843d8611610fde57610fd081836109d8565b50386128a3565b61298a610acc565b61289e565b8061234a61299c92610967565b38612852565b6129aa610acc565b61284d565b6129b99089612039565b90803b1561000e5785516340c10f1960e01b81529160009183918290849082906129e690308b8401612164565b03925af18015612a0f575b6129fc575b80612800565b8061234a612a0992610967565b386129f6565b612a17610acc565b6129f1565b612a3391508c8d3d10610e2a57610e1b81836109d8565b386127f7565b612a41610acc565b6127ef565b612a5e919550893d8b11610e2a57610e1b81836109d8565b93386127a6565b612a6d610acc565b61279e565b33600052600a60205260ff6040600020541615612a8b57565b60405162461bcd60e51b81526020600482015260156024820152742b363826b0b730b3b2b91d103337b93134b23232b760591b6044820152606490fdfe87b9679bb9a4944bafa98c267e7cd4a00ab29fed48afdefae25f0fca5da27940a264697066735822122012ee8d9ed5acb0793eed8b6dd7c893967c5838e0804c14c5976a1b1dc06fd9a764736f6c634300080e0033",
  "linkReferences": {},
  "deployedLinkReferences": {}
}