{
  "_format": "hh-sol-artifact-1",
  "contractName": "BatchSender",
  "sourceName": "contracts/peripherals/BatchSender.sol",
  "abi": [
    {
      "inputs": [],
      "stateMutability": "nonpayable",
      "type": "constructor"
    },
    {
      "anonymous": false,
      "inputs": [
        {
          "indexed": true,
          "internalType": "uint256",
          "name": "typeId",
          "type": "uint256"
        },
        {
          "indexed": true,
          "internalType": "address",
          "name": "token",
          "type": "address"
        },
        {
          "indexed": false,
          "internalType": "address[]",
          "name": "accounts",
          "type": "address[]"
        },
        {
          "indexed": false,
          "internalType": "uint256[]",
          "name": "amounts",
          "type": "uint256[]"
        }
      ],
      "name": "BatchSend",
      "type": "event"
    },
    {
      "anonymous": false,
      "inputs": [
        {
          "indexed": true,
          "internalType": "address",
          "name": "previousOwner",
          "type": "address"
        },
        {
          "indexed": true,
          "internalType": "address",
          "name": "newOwner",
          "type": "address"
        }
      ],
      "name": "OwnershipTransferred",
      "type": "event"
    },
    {
      "inputs": [
        {
          "internalType": "address",
          "name": "",
          "type": "address"
        }
      ],
      "name": "isHandler",
      "outputs": [
        {
          "internalType": "bool",
          "name": "",
          "type": "bool"
        }
      ],
      "stateMutability": "view",
      "type": "function"
    },
    {
      "inputs": [],
      "name": "owner",
      "outputs": [
        {
          "internalType": "address",
          "name": "",
          "type": "address"
        }
      ],
      "stateMutability": "view",
      "type": "function"
    },
    {
      "inputs": [],
      "name": "renounceOwnership",
      "outputs": [],
      "stateMutability": "nonpayable",
      "type": "function"
    },
    {
      "inputs": [
        {
          "internalType": "contract IERC20",
          "name": "_token",
          "type": "address"
        },
        {
          "internalType": "address[]",
          "name": "_accounts",
          "type": "address[]"
        },
        {
          "internalType": "uint256[]",
          "name": "_amounts",
          "type": "uint256[]"
        }
      ],
      "name": "send",
      "outputs": [],
      "stateMutability": "nonpayable",
      "type": "function"
    },
    {
      "inputs": [
        {
          "internalType": "contract IERC20",
          "name": "_token",
          "type": "address"
        },
        {
          "internalType": "address[]",
          "name": "_accounts",
          "type": "address[]"
        },
        {
          "internalType": "uint256[]",
          "name": "_amounts",
          "type": "uint256[]"
        },
        {
          "internalType": "uint256",
          "name": "_typeId",
          "type": "uint256"
        }
      ],
      "name": "sendAndEmit",
      "outputs": [],
      "stateMutability": "nonpayable",
      "type": "function"
    },
    {
      "inputs": [
        {
          "internalType": "address",
          "name": "_handler",
          "type": "address"
        },
        {
          "internalType": "bool",
          "name": "_isActive",
          "type": "bool"
        }
      ],
      "name": "setHandler",
      "outputs": [],
      "stateMutability": "nonpayable",
      "type": "function"
    },
    {
      "inputs": [
        {
          "internalType": "address",
          "name": "newOwner",
          "type": "address"
        }
      ],
      "name": "transferOwnership",
      "outputs": [],
      "stateMutability": "nonpayable",
      "type": "function"
    }
  ],
  "bytecode": "0x6080806040523461006f5760008054336001600160a01b0319821681178355604092916001600160a01b03167f8be0079c531659141344cd1fd0a4f28419497f9722a3daafe3b4186f6b6457e08380a3338152600160205220600160ff1982541617905561087b90816100758239f35b600080fdfe608060408181526004908136101561001657600080fd5b600092833560e01c90816346ea87af146105cc57508063715018a614610581578063745ae40b146103b85780638da5cb5b146103905780639cb7de4b14610336578063f2fde38b146102855763f8129cd21461007157600080fd5b346102815760603660031901126102815761008a610607565b6001600160401b0392909190602490813585811161027d576100af9036908301610672565b90604495863590811161027957916100ce8896949793369084016106e0565b9333875260019788936020958587526100ec60ff8a8c205416610796565b6001600160a01b039384169a8a908c905b610191575b50505050508551958087019087528251809152846060880193019188905b828210610177575050505084810383860152828085519283815201940192865b828110610161578789816000805160206108268339815191528a8a038ba380f35b8451865289975094810194938101938301610140565b8351811685528b9950938601939286019290850190610120565b90919293949a978698878b8e849b9d9e9a5187101561026657866101c3916101bb826064966107db565b5116926107db565b51928a5195869485936323b872dd60e01b8552338c8601528c850152898401525af1801561025c57610221575b50600019811461020f57908780949392018b8d9b959798969a996100fd565b634e487b7160e01b8c5260118352838cfd5b8681813d8311610255575b6102368183610622565b8101031261025157518015150361024d57386101f0565b8b80fd5b8c80fd5b503d61022c565b86513d8f823e3d90fd5b5050509b95505080999896979599610102565b8780fd5b8680fd5b8280fd5b509034610281576020366003190112610281576102a0610607565b906102a961073e565b6001600160a01b039182169283156102e457505082546001600160a01b0319811683178455166000805160206108068339815191528380a380f35b906020608492519162461bcd60e51b8352820152602660248201527f4f776e61626c653a206e6577206f776e657220697320746865207a65726f206160448201526564647265737360d01b6064820152fd5b83823461038c578060031936011261038c57610350610607565b90602435918215158093036103885761036761073e565b60018060a01b03168352600160205282209060ff8019835416911617905580f35b8380fd5b5080fd5b83823461038c578160031936011261038c57905490516001600160a01b039091168152602090f35b5034610281576080366003190112610281576103d2610607565b6001600160401b0392602490813585811161027d576103f49036908301610672565b9060449586359081116102795791610414889793969496369084016106e0565b94338852600196879360209585875261043260ff898d205416610796565b6001600160a01b03938416998b905b6104d0575b505050508451948086019086528251809152846060870193019189905b8282106104b9575050505083810383850152828086519283815201950192875b8281106104a6578888606435600080516020610826833981519152898b038aa380f35b8451875295810195938101938301610483565b835181168552938601939286019290850190610463565b8a888d888d89829c9d9b9e9a9e5187101561056f57866104f6916101bb826064966107db565b51928a5195869485936323b872dd60e01b8552338c8601528c850152898401525af1801561025c5761053c575b50600019811461020f5793979496959493860186610441565b8681813d8311610568575b6105518183610622565b8101031261025157518015150361024d578c610523565b503d610547565b50505050505097939796959496610446565b83346105c957806003193601126105c95761059a61073e565b80546001600160a01b03198116825581906001600160a01b03166000805160206108068339815191528280a380f35b80fd5b925050346102815760203660031901126102815760209260ff91906001600160a01b036105f7610607565b1681526001855220541615158152f35b600435906001600160a01b038216820361061d57565b600080fd5b601f909101601f19168101906001600160401b0382119082101761064557604052565b634e487b7160e01b600052604160045260246000fd5b6001600160401b0381116106455760051b60200190565b81601f8201121561061d578035916106898361065b565b926106976040519485610622565b808452602092838086019260051b82010192831161061d578301905b8282106106c1575050505090565b81356001600160a01b038116810361061d5781529083019083016106b3565b81601f8201121561061d578035916106f78361065b565b926107056040519485610622565b808452602092838086019260051b82010192831161061d578301905b82821061072f575050505090565b81358152908301908301610721565b6000546001600160a01b0316330361075257565b606460405162461bcd60e51b815260206004820152602060248201527f4f776e61626c653a2063616c6c6572206973206e6f7420746865206f776e65726044820152fd5b1561079d57565b60405162461bcd60e51b81526020600482015260166024820152752130ba31b429b2b73232b91d103337b93134b23232b760511b6044820152606490fd5b80518210156107ef5760209160051b010190565b634e487b7160e01b600052603260045260246000fdfe8be0079c531659141344cd1fd0a4f28419497f9722a3daafe3b4186f6b6457e0a1552778fd4edc5098fd82f614c100bf0f42c781e7926907643e2894679da0f3a26469706673582212207e347858b980b67f1e6012ecfc3f5a84ffd6180bbf045e2dada15d1f2a2a0c0c64736f6c63430008110033",
  "linkReferences": {},
  "deployedLinkReferences": {}
}