{
  "_format": "hh-sol-artifact-1",
  "contractName": "BatchSender",
  "sourceName": "contracts/peripherals/BatchSender.sol",
  "abi": [
    {
      "inputs": [],
      "stateMutability": "nonpayable",
      "type": "constructor"
    },
    {
      "anonymous": false,
      "inputs": [
        {
          "indexed": true,
          "internalType": "uint256",
          "name": "typeId",
          "type": "uint256"
        },
        {
          "indexed": true,
          "internalType": "address",
          "name": "token",
          "type": "address"
        },
        {
          "indexed": false,
          "internalType": "address[]",
          "name": "accounts",
          "type": "address[]"
        },
        {
          "indexed": false,
          "internalType": "uint256[]",
          "name": "amounts",
          "type": "uint256[]"
        }
      ],
      "name": "BatchSend",
      "type": "event"
    },
    {
      "inputs": [],
      "name": "gov",
      "outputs": [
        {
          "internalType": "address",
          "name": "",
          "type": "address"
        }
      ],
      "stateMutability": "view",
      "type": "function"
    },
    {
      "inputs": [
        {
          "internalType": "address",
          "name": "",
          "type": "address"
        }
      ],
      "name": "isHandler",
      "outputs": [
        {
          "internalType": "bool",
          "name": "",
          "type": "bool"
        }
      ],
      "stateMutability": "view",
      "type": "function"
    },
    {
      "inputs": [
        {
          "internalType": "contract IERC20",
          "name": "_token",
          "type": "address"
        },
        {
          "internalType": "address[]",
          "name": "_accounts",
          "type": "address[]"
        },
        {
          "internalType": "uint256[]",
          "name": "_amounts",
          "type": "uint256[]"
        }
      ],
      "name": "send",
      "outputs": [],
      "stateMutability": "nonpayable",
      "type": "function"
    },
    {
      "inputs": [
        {
          "internalType": "contract IERC20",
          "name": "_token",
          "type": "address"
        },
        {
          "internalType": "address[]",
          "name": "_accounts",
          "type": "address[]"
        },
        {
          "internalType": "uint256[]",
          "name": "_amounts",
          "type": "uint256[]"
        },
        {
          "internalType": "uint256",
          "name": "_typeId",
          "type": "uint256"
        }
      ],
      "name": "sendAndEmit",
      "outputs": [],
      "stateMutability": "nonpayable",
      "type": "function"
    },
    {
      "inputs": [
        {
          "internalType": "address",
          "name": "_gov",
          "type": "address"
        }
      ],
      "name": "setGov",
      "outputs": [],
      "stateMutability": "nonpayable",
      "type": "function"
    },
    {
      "inputs": [
        {
          "internalType": "address",
          "name": "_handler",
          "type": "address"
        },
        {
          "internalType": "bool",
          "name": "_isActive",
          "type": "bool"
        }
      ],
      "name": "setHandler",
      "outputs": [],
      "stateMutability": "nonpayable",
      "type": "function"
    }
  ],
  "bytecode": "0x60808060405234610040573360018060a01b031960005416176000553360005260016020526040600020600160ff1982541617905561078b90816100468239f35b600080fdfe6080604081815260048036101561001557600080fd5b600092833560e01c90816312d43a51146105275750806346ea87af146104e9578063745ae40b1461031f5780639cb7de4b146102bf578063cfad57a2146102735763f8129cd21461006557600080fd5b3461026f57606036600319011261026f5761007e61054b565b6001600160401b03916024803584811161026b5761009f90369084016105b6565b604494853590811161026757928695916100be89969536908401610624565b933387526001926020948486526100da60ff8b8b2054166106c6565b6001600160a01b039788169989908b90875b610183575b94505050505051948886018987528251809152846060880193019188905b828210610169575050505084810383860152828085519283815201940192865b8281106101535750505050509080600080516020610736833981519152920390a351f35b845186528a97509481019493810193830161012f565b8351811685528c995093860193928601929085019061010f565b868a8c9d8b9a9c9d839c95969798999a5188101561025557876101b4916101ac8260649761070b565b51169361070b565b51935195869485936323b872dd60e01b8552338c8601528c850152898401525af1801561024b57610210575b5060001981146101fe578b98979694959392919085018a8c876100ec565b634e487b7160e01b8c5260118352838cfd5b8581813d8311610244575b6102258183610566565b8101031261024057518015150361023c57386101e0565b8b80fd5b8c80fd5b503d61021b565b8c513d8f823e3d90fd5b509d9c509a98505082919896506100f1565b8780fd5b8680fd5b8280fd5b5050346102bb5760203660031901126102bb5761028e61054b565b8254906001600160a01b03906102a73383851614610682565b6001600160a01b0319909216911617825551f35b5080fd5b5050346102bb57806003193601126102bb576102d961054b565b6024359081151580920361031b5783546001600160a01b0391906103009083163314610682565b16835260016020528183209060ff8019835416911617905551f35b8380fd5b503461026f57608036600319011261026f5761033961054b565b6001600160401b0391906024803584811161026b5761035b90369085016105b6565b60449485359081116102675790610379889693959236908401610624565b9433875260019260209484865261039560ff8b8b2054166106c6565b6001600160a01b0396871698898b8a83895b61043d575b50509450505050505193878501888652825180915284606087019301918a905b828210610426575050505083810383850152828086519283815201950192885b8281106104135750505050508060008051602061073683398151915291606435930390a351f35b84518752958101959381019383016103ec565b8351811685529386019392860192908501906103cc565b978a9891819a9b93928d83518810156104da5787610461916101ac8260649761070b565b51935195869485936323b872dd60e01b8552338c8601528c850152898401525af1801561024b576104a7575b5060001981146101fe57939594938501898b8a8e896103a7565b8581813d83116104d3575b6104bc8183610566565b8101031261024057518015150361023c573861048d565b503d6104b2565b509150919250999897996103ac565b5050346102bb5760203660031901126102bb5760209160ff9082906001600160a01b0361051461054b565b1681526001855220541690519015158152f35b8490346102bb57816003193601126102bb5790546001600160a01b03168152602090f35b600435906001600160a01b038216820361056157565b600080fd5b601f909101601f19168101906001600160401b0382119082101761058957604052565b634e487b7160e01b600052604160045260246000fd5b6001600160401b0381116105895760051b60200190565b81601f82011215610561578035916105cd8361059f565b926105db6040519485610566565b808452602092838086019260051b820101928311610561578301905b828210610605575050505090565b81356001600160a01b03811681036105615781529083019083016105f7565b81601f820112156105615780359161063b8361059f565b926106496040519485610566565b808452602092838086019260051b820101928311610561578301905b828210610673575050505090565b81358152908301908301610665565b1561068957565b60405162461bcd60e51b815260206004820152601560248201527423b7bb32b93730b136329d103337b93134b23232b760591b6044820152606490fd5b156106cd57565b60405162461bcd60e51b81526020600482015260166024820152752130ba31b429b2b73232b91d103337b93134b23232b760511b6044820152606490fd5b805182101561071f5760209160051b010190565b634e487b7160e01b600052603260045260246000fdfea1552778fd4edc5098fd82f614c100bf0f42c781e7926907643e2894679da0f3a2646970667358221220149e847ec684445718e79b468d58cdbc8c211e5a0bb0ea4d696f9899bf10688964736f6c634300080f0033",
  "linkReferences": {},
  "deployedLinkReferences": {}
}