{
  "_format": "hh-sol-artifact-1",
  "contractName": "OrderBook",
  "sourceName": "contracts/core/OrderBook.sol",
  "abi": [
    {
      "inputs": [],
      "stateMutability": "nonpayable",
      "type": "constructor"
    },
    {
      "inputs": [],
      "name": "AlreadyInitialized",
      "type": "error"
    },
    {
      "inputs": [],
      "name": "InsufficientFee",
      "type": "error"
    },
    {
      "inputs": [],
      "name": "InvalidAmount",
      "type": "error"
    },
    {
      "inputs": [],
      "name": "InvalidPath",
      "type": "error"
    },
    {
      "inputs": [],
      "name": "InvalidSender",
      "type": "error"
    },
    {
      "inputs": [],
      "name": "OrderBookForbidden",
      "type": "error"
    },
    {
      "anonymous": false,
      "inputs": [
        {
          "indexed": true,
          "internalType": "address",
          "name": "account",
          "type": "address"
        },
        {
          "indexed": false,
          "internalType": "uint256",
          "name": "orderIndex",
          "type": "uint256"
        },
        {
          "indexed": false,
          "internalType": "address",
          "name": "collateralToken",
          "type": "address"
        },
        {
          "indexed": false,
          "internalType": "uint256",
          "name": "collateralDelta",
          "type": "uint256"
        },
        {
          "indexed": false,
          "internalType": "address",
          "name": "indexToken",
          "type": "address"
        },
        {
          "indexed": false,
          "internalType": "uint256",
          "name": "sizeDelta",
          "type": "uint256"
        },
        {
          "indexed": false,
          "internalType": "bool",
          "name": "isLong",
          "type": "bool"
        },
        {
          "indexed": false,
          "internalType": "uint256",
          "name": "triggerPrice",
          "type": "uint256"
        },
        {
          "indexed": false,
          "internalType": "bool",
          "name": "triggerAboveThreshold",
          "type": "bool"
        },
        {
          "indexed": false,
          "internalType": "uint256",
          "name": "executionFee",
          "type": "uint256"
        }
      ],
      "name": "CancelDecreaseOrder",
      "type": "event"
    },
    {
      "anonymous": false,
      "inputs": [
        {
          "indexed": true,
          "internalType": "address",
          "name": "account",
          "type": "address"
        },
        {
          "indexed": false,
          "internalType": "uint256",
          "name": "orderIndex",
          "type": "uint256"
        },
        {
          "indexed": false,
          "internalType": "address",
          "name": "purchaseToken",
          "type": "address"
        },
        {
          "indexed": false,
          "internalType": "uint256",
          "name": "purchaseTokenAmount",
          "type": "uint256"
        },
        {
          "indexed": false,
          "internalType": "address",
          "name": "collateralToken",
          "type": "address"
        },
        {
          "indexed": false,
          "internalType": "address",
          "name": "indexToken",
          "type": "address"
        },
        {
          "indexed": false,
          "internalType": "uint256",
          "name": "sizeDelta",
          "type": "uint256"
        },
        {
          "indexed": false,
          "internalType": "bool",
          "name": "isLong",
          "type": "bool"
        },
        {
          "indexed": false,
          "internalType": "uint256",
          "name": "triggerPrice",
          "type": "uint256"
        },
        {
          "indexed": false,
          "internalType": "bool",
          "name": "triggerAboveThreshold",
          "type": "bool"
        },
        {
          "indexed": false,
          "internalType": "uint256",
          "name": "executionFee",
          "type": "uint256"
        }
      ],
      "name": "CancelIncreaseOrder",
      "type": "event"
    },
    {
      "anonymous": false,
      "inputs": [
        {
          "indexed": true,
          "internalType": "address",
          "name": "account",
          "type": "address"
        },
        {
          "indexed": false,
          "internalType": "uint256",
          "name": "orderIndex",
          "type": "uint256"
        },
        {
          "indexed": false,
          "internalType": "address[]",
          "name": "path",
          "type": "address[]"
        },
        {
          "indexed": false,
          "internalType": "uint256",
          "name": "amountIn",
          "type": "uint256"
        },
        {
          "indexed": false,
          "internalType": "uint256",
          "name": "minOut",
          "type": "uint256"
        },
        {
          "indexed": false,
          "internalType": "uint256",
          "name": "triggerRatio",
          "type": "uint256"
        },
        {
          "indexed": false,
          "internalType": "bool",
          "name": "triggerAboveThreshold",
          "type": "bool"
        },
        {
          "indexed": false,
          "internalType": "bool",
          "name": "shouldUnwrap",
          "type": "bool"
        },
        {
          "indexed": false,
          "internalType": "uint256",
          "name": "executionFee",
          "type": "uint256"
        }
      ],
      "name": "CancelSwapOrder",
      "type": "event"
    },
    {
      "anonymous": false,
      "inputs": [
        {
          "indexed": true,
          "internalType": "address",
          "name": "account",
          "type": "address"
        },
        {
          "indexed": false,
          "internalType": "uint256",
          "name": "orderIndex",
          "type": "uint256"
        },
        {
          "indexed": false,
          "internalType": "address",
          "name": "collateralToken",
          "type": "address"
        },
        {
          "indexed": false,
          "internalType": "uint256",
          "name": "collateralDelta",
          "type": "uint256"
        },
        {
          "indexed": false,
          "internalType": "address",
          "name": "indexToken",
          "type": "address"
        },
        {
          "indexed": false,
          "internalType": "uint256",
          "name": "sizeDelta",
          "type": "uint256"
        },
        {
          "indexed": false,
          "internalType": "bool",
          "name": "isLong",
          "type": "bool"
        },
        {
          "indexed": false,
          "internalType": "uint256",
          "name": "triggerPrice",
          "type": "uint256"
        },
        {
          "indexed": false,
          "internalType": "bool",
          "name": "triggerAboveThreshold",
          "type": "bool"
        },
        {
          "indexed": false,
          "internalType": "uint256",
          "name": "executionFee",
          "type": "uint256"
        }
      ],
      "name": "CreateDecreaseOrder",
      "type": "event"
    },
    {
      "anonymous": false,
      "inputs": [
        {
          "indexed": true,
          "internalType": "address",
          "name": "account",
          "type": "address"
        },
        {
          "indexed": false,
          "internalType": "uint256",
          "name": "orderIndex",
          "type": "uint256"
        },
        {
          "indexed": false,
          "internalType": "address",
          "name": "purchaseToken",
          "type": "address"
        },
        {
          "indexed": false,
          "internalType": "uint256",
          "name": "purchaseTokenAmount",
          "type": "uint256"
        },
        {
          "indexed": false,
          "internalType": "address",
          "name": "collateralToken",
          "type": "address"
        },
        {
          "indexed": false,
          "internalType": "address",
          "name": "indexToken",
          "type": "address"
        },
        {
          "indexed": false,
          "internalType": "uint256",
          "name": "sizeDelta",
          "type": "uint256"
        },
        {
          "indexed": false,
          "internalType": "bool",
          "name": "isLong",
          "type": "bool"
        },
        {
          "indexed": false,
          "internalType": "uint256",
          "name": "triggerPrice",
          "type": "uint256"
        },
        {
          "indexed": false,
          "internalType": "bool",
          "name": "triggerAboveThreshold",
          "type": "bool"
        },
        {
          "indexed": false,
          "internalType": "uint256",
          "name": "executionFee",
          "type": "uint256"
        }
      ],
      "name": "CreateIncreaseOrder",
      "type": "event"
    },
    {
      "anonymous": false,
      "inputs": [
        {
          "indexed": true,
          "internalType": "address",
          "name": "account",
          "type": "address"
        },
        {
          "indexed": false,
          "internalType": "uint256",
          "name": "orderIndex",
          "type": "uint256"
        },
        {
          "indexed": false,
          "internalType": "address[]",
          "name": "path",
          "type": "address[]"
        },
        {
          "indexed": false,
          "internalType": "uint256",
          "name": "amountIn",
          "type": "uint256"
        },
        {
          "indexed": false,
          "internalType": "uint256",
          "name": "minOut",
          "type": "uint256"
        },
        {
          "indexed": false,
          "internalType": "uint256",
          "name": "triggerRatio",
          "type": "uint256"
        },
        {
          "indexed": false,
          "internalType": "bool",
          "name": "triggerAboveThreshold",
          "type": "bool"
        },
        {
          "indexed": false,
          "internalType": "bool",
          "name": "shouldUnwrap",
          "type": "bool"
        },
        {
          "indexed": false,
          "internalType": "uint256",
          "name": "executionFee",
          "type": "uint256"
        }
      ],
      "name": "CreateSwapOrder",
      "type": "event"
    },
    {
      "anonymous": false,
      "inputs": [
        {
          "indexed": true,
          "internalType": "address",
          "name": "account",
          "type": "address"
        },
        {
          "indexed": false,
          "internalType": "uint256",
          "name": "orderIndex",
          "type": "uint256"
        },
        {
          "indexed": false,
          "internalType": "address",
          "name": "collateralToken",
          "type": "address"
        },
        {
          "indexed": false,
          "internalType": "uint256",
          "name": "collateralDelta",
          "type": "uint256"
        },
        {
          "indexed": false,
          "internalType": "address",
          "name": "indexToken",
          "type": "address"
        },
        {
          "indexed": false,
          "internalType": "uint256",
          "name": "sizeDelta",
          "type": "uint256"
        },
        {
          "indexed": false,
          "internalType": "bool",
          "name": "isLong",
          "type": "bool"
        },
        {
          "indexed": false,
          "internalType": "uint256",
          "name": "triggerPrice",
          "type": "uint256"
        },
        {
          "indexed": false,
          "internalType": "bool",
          "name": "triggerAboveThreshold",
          "type": "bool"
        },
        {
          "indexed": false,
          "internalType": "uint256",
          "name": "executionFee",
          "type": "uint256"
        },
        {
          "indexed": false,
          "internalType": "uint256",
          "name": "executionPrice",
          "type": "uint256"
        }
      ],
      "name": "ExecuteDecreaseOrder",
      "type": "event"
    },
    {
      "anonymous": false,
      "inputs": [
        {
          "indexed": true,
          "internalType": "address",
          "name": "account",
          "type": "address"
        },
        {
          "indexed": false,
          "internalType": "uint256",
          "name": "orderIndex",
          "type": "uint256"
        },
        {
          "indexed": false,
          "internalType": "address",
          "name": "purchaseToken",
          "type": "address"
        },
        {
          "indexed": false,
          "internalType": "uint256",
          "name": "purchaseTokenAmount",
          "type": "uint256"
        },
        {
          "indexed": false,
          "internalType": "address",
          "name": "collateralToken",
          "type": "address"
        },
        {
          "indexed": false,
          "internalType": "address",
          "name": "indexToken",
          "type": "address"
        },
        {
          "indexed": false,
          "internalType": "uint256",
          "name": "sizeDelta",
          "type": "uint256"
        },
        {
          "indexed": false,
          "internalType": "bool",
          "name": "isLong",
          "type": "bool"
        },
        {
          "indexed": false,
          "internalType": "uint256",
          "name": "triggerPrice",
          "type": "uint256"
        },
        {
          "indexed": false,
          "internalType": "bool",
          "name": "triggerAboveThreshold",
          "type": "bool"
        },
        {
          "indexed": false,
          "internalType": "uint256",
          "name": "executionFee",
          "type": "uint256"
        },
        {
          "indexed": false,
          "internalType": "uint256",
          "name": "executionPrice",
          "type": "uint256"
        }
      ],
      "name": "ExecuteIncreaseOrder",
      "type": "event"
    },
    {
      "anonymous": false,
      "inputs": [
        {
          "indexed": true,
          "internalType": "address",
          "name": "account",
          "type": "address"
        },
        {
          "indexed": false,
          "internalType": "uint256",
          "name": "orderIndex",
          "type": "uint256"
        },
        {
          "indexed": false,
          "internalType": "address[]",
          "name": "path",
          "type": "address[]"
        },
        {
          "indexed": false,
          "internalType": "uint256",
          "name": "amountIn",
          "type": "uint256"
        },
        {
          "indexed": false,
          "internalType": "uint256",
          "name": "minOut",
          "type": "uint256"
        },
        {
          "indexed": false,
          "internalType": "uint256",
          "name": "amountOut",
          "type": "uint256"
        },
        {
          "indexed": false,
          "internalType": "uint256",
          "name": "triggerRatio",
          "type": "uint256"
        },
        {
          "indexed": false,
          "internalType": "bool",
          "name": "triggerAboveThreshold",
          "type": "bool"
        },
        {
          "indexed": false,
          "internalType": "bool",
          "name": "shouldUnwrap",
          "type": "bool"
        },
        {
          "indexed": false,
          "internalType": "uint256",
          "name": "executionFee",
          "type": "uint256"
        }
      ],
      "name": "ExecuteSwapOrder",
      "type": "event"
    },
    {
      "anonymous": false,
      "inputs": [
        {
          "indexed": false,
          "internalType": "address",
          "name": "router",
          "type": "address"
        },
        {
          "indexed": false,
          "internalType": "address",
          "name": "vault",
          "type": "address"
        },
        {
          "indexed": false,
          "internalType": "address",
          "name": "weth",
          "type": "address"
        },
        {
          "indexed": false,
          "internalType": "address",
          "name": "usdv",
          "type": "address"
        },
        {
          "indexed": false,
          "internalType": "uint256",
          "name": "minExecutionFee",
          "type": "uint256"
        },
        {
          "indexed": false,
          "internalType": "uint256",
          "name": "minPurchaseTokenAmountUsd",
          "type": "uint256"
        }
      ],
      "name": "Initialize",
      "type": "event"
    },
    {
      "anonymous": false,
      "inputs": [
        {
          "indexed": true,
          "internalType": "address",
          "name": "account",
          "type": "address"
        },
        {
          "indexed": false,
          "internalType": "uint256",
          "name": "orderIndex",
          "type": "uint256"
        },
        {
          "indexed": false,
          "internalType": "address",
          "name": "collateralToken",
          "type": "address"
        },
        {
          "indexed": false,
          "internalType": "uint256",
          "name": "collateralDelta",
          "type": "uint256"
        },
        {
          "indexed": false,
          "internalType": "address",
          "name": "indexToken",
          "type": "address"
        },
        {
          "indexed": false,
          "internalType": "uint256",
          "name": "sizeDelta",
          "type": "uint256"
        },
        {
          "indexed": false,
          "internalType": "bool",
          "name": "isLong",
          "type": "bool"
        },
        {
          "indexed": false,
          "internalType": "uint256",
          "name": "triggerPrice",
          "type": "uint256"
        },
        {
          "indexed": false,
          "internalType": "bool",
          "name": "triggerAboveThreshold",
          "type": "bool"
        }
      ],
      "name": "UpdateDecreaseOrder",
      "type": "event"
    },
    {
      "anonymous": false,
      "inputs": [
        {
          "indexed": false,
          "internalType": "address",
          "name": "gov",
          "type": "address"
        }
      ],
      "name": "UpdateGov",
      "type": "event"
    },
    {
      "anonymous": false,
      "inputs": [
        {
          "indexed": true,
          "internalType": "address",
          "name": "account",
          "type": "address"
        },
        {
          "indexed": false,
          "internalType": "uint256",
          "name": "orderIndex",
          "type": "uint256"
        },
        {
          "indexed": false,
          "internalType": "address",
          "name": "collateralToken",
          "type": "address"
        },
        {
          "indexed": false,
          "internalType": "address",
          "name": "indexToken",
          "type": "address"
        },
        {
          "indexed": false,
          "internalType": "bool",
          "name": "isLong",
          "type": "bool"
        },
        {
          "indexed": false,
          "internalType": "uint256",
          "name": "sizeDelta",
          "type": "uint256"
        },
        {
          "indexed": false,
          "internalType": "uint256",
          "name": "triggerPrice",
          "type": "uint256"
        },
        {
          "indexed": false,
          "internalType": "bool",
          "name": "triggerAboveThreshold",
          "type": "bool"
        }
      ],
      "name": "UpdateIncreaseOrder",
      "type": "event"
    },
    {
      "anonymous": false,
      "inputs": [
        {
          "indexed": false,
          "internalType": "uint256",
          "name": "minExecutionFee",
          "type": "uint256"
        }
      ],
      "name": "UpdateMinExecutionFee",
      "type": "event"
    },
    {
      "anonymous": false,
      "inputs": [
        {
          "indexed": false,
          "internalType": "uint256",
          "name": "minPurchaseTokenAmountUsd",
          "type": "uint256"
        }
      ],
      "name": "UpdateMinPurchaseTokenAmountUsd",
      "type": "event"
    },
    {
      "anonymous": false,
      "inputs": [
        {
          "indexed": true,
          "internalType": "address",
          "name": "account",
          "type": "address"
        },
        {
          "indexed": false,
          "internalType": "uint256",
          "name": "ordexIndex",
          "type": "uint256"
        },
        {
          "indexed": false,
          "internalType": "address[]",
          "name": "path",
          "type": "address[]"
        },
        {
          "indexed": false,
          "internalType": "uint256",
          "name": "amountIn",
          "type": "uint256"
        },
        {
          "indexed": false,
          "internalType": "uint256",
          "name": "minOut",
          "type": "uint256"
        },
        {
          "indexed": false,
          "internalType": "uint256",
          "name": "triggerRatio",
          "type": "uint256"
        },
        {
          "indexed": false,
          "internalType": "bool",
          "name": "triggerAboveThreshold",
          "type": "bool"
        },
        {
          "indexed": false,
          "internalType": "bool",
          "name": "shouldUnwrap",
          "type": "bool"
        },
        {
          "indexed": false,
          "internalType": "uint256",
          "name": "executionFee",
          "type": "uint256"
        }
      ],
      "name": "UpdateSwapOrder",
      "type": "event"
    },
    {
      "inputs": [],
      "name": "PRICE_PRECISION",
      "outputs": [
        {
          "internalType": "uint256",
          "name": "",
          "type": "uint256"
        }
      ],
      "stateMutability": "view",
      "type": "function"
    },
    {
      "inputs": [],
      "name": "USDV_PRECISION",
      "outputs": [
        {
          "internalType": "uint256",
          "name": "",
          "type": "uint256"
        }
      ],
      "stateMutability": "view",
      "type": "function"
    },
    {
      "inputs": [
        {
          "internalType": "uint256",
          "name": "_orderIndex",
          "type": "uint256"
        }
      ],
      "name": "cancelDecreaseOrder",
      "outputs": [],
      "stateMutability": "nonpayable",
      "type": "function"
    },
    {
      "inputs": [
        {
          "internalType": "uint256",
          "name": "_orderIndex",
          "type": "uint256"
        }
      ],
      "name": "cancelIncreaseOrder",
      "outputs": [],
      "stateMutability": "nonpayable",
      "type": "function"
    },
    {
      "inputs": [
        {
          "internalType": "uint256[]",
          "name": "_swapOrderIndexes",
          "type": "uint256[]"
        },
        {
          "internalType": "uint256[]",
          "name": "_increaseOrderIndexes",
          "type": "uint256[]"
        },
        {
          "internalType": "uint256[]",
          "name": "_decreaseOrderIndexes",
          "type": "uint256[]"
        }
      ],
      "name": "cancelMultiple",
      "outputs": [],
      "stateMutability": "nonpayable",
      "type": "function"
    },
    {
      "inputs": [
        {
          "internalType": "uint256",
          "name": "_orderIndex",
          "type": "uint256"
        }
      ],
      "name": "cancelSwapOrder",
      "outputs": [],
      "stateMutability": "nonpayable",
      "type": "function"
    },
    {
      "inputs": [
        {
          "internalType": "address",
          "name": "_indexToken",
          "type": "address"
        },
        {
          "internalType": "uint256",
          "name": "_sizeDelta",
          "type": "uint256"
        },
        {
          "internalType": "address",
          "name": "_collateralToken",
          "type": "address"
        },
        {
          "internalType": "uint256",
          "name": "_collateralDelta",
          "type": "uint256"
        },
        {
          "internalType": "bool",
          "name": "_isLong",
          "type": "bool"
        },
        {
          "internalType": "uint256",
          "name": "_triggerPrice",
          "type": "uint256"
        },
        {
          "internalType": "bool",
          "name": "_triggerAboveThreshold",
          "type": "bool"
        }
      ],
      "name": "createDecreaseOrder",
      "outputs": [],
      "stateMutability": "payable",
      "type": "function"
    },
    {
      "inputs": [
        {
          "internalType": "address[]",
          "name": "_path",
          "type": "address[]"
        },
        {
          "internalType": "uint256",
          "name": "_amountIn",
          "type": "uint256"
        },
        {
          "internalType": "address",
          "name": "_indexToken",
          "type": "address"
        },
        {
          "internalType": "uint256",
          "name": "_minOut",
          "type": "uint256"
        },
        {
          "internalType": "uint256",
          "name": "_sizeDelta",
          "type": "uint256"
        },
        {
          "internalType": "address",
          "name": "_collateralToken",
          "type": "address"
        },
        {
          "internalType": "bool",
          "name": "_isLong",
          "type": "bool"
        },
        {
          "internalType": "uint256",
          "name": "_triggerPrice",
          "type": "uint256"
        },
        {
          "internalType": "bool",
          "name": "_triggerAboveThreshold",
          "type": "bool"
        },
        {
          "internalType": "uint256",
          "name": "_executionFee",
          "type": "uint256"
        },
        {
          "internalType": "bool",
          "name": "_shouldWrap",
          "type": "bool"
        }
      ],
      "name": "createIncreaseOrder",
      "outputs": [],
      "stateMutability": "payable",
      "type": "function"
    },
    {
      "inputs": [
        {
          "internalType": "address[]",
          "name": "_path",
          "type": "address[]"
        },
        {
          "internalType": "uint256",
          "name": "_amountIn",
          "type": "uint256"
        },
        {
          "internalType": "uint256",
          "name": "_minOut",
          "type": "uint256"
        },
        {
          "internalType": "uint256",
          "name": "_triggerRatio",
          "type": "uint256"
        },
        {
          "internalType": "bool",
          "name": "_triggerAboveThreshold",
          "type": "bool"
        },
        {
          "internalType": "uint256",
          "name": "_executionFee",
          "type": "uint256"
        },
        {
          "internalType": "bool",
          "name": "_shouldWrap",
          "type": "bool"
        },
        {
          "internalType": "bool",
          "name": "_shouldUnwrap",
          "type": "bool"
        }
      ],
      "name": "createSwapOrder",
      "outputs": [],
      "stateMutability": "payable",
      "type": "function"
    },
    {
      "inputs": [
        {
          "internalType": "address",
          "name": "",
          "type": "address"
        },
        {
          "internalType": "uint256",
          "name": "",
          "type": "uint256"
        }
      ],
      "name": "decreaseOrders",
      "outputs": [
        {
          "internalType": "address",
          "name": "account",
          "type": "address"
        },
        {
          "internalType": "address",
          "name": "collateralToken",
          "type": "address"
        },
        {
          "internalType": "uint256",
          "name": "collateralDelta",
          "type": "uint256"
        },
        {
          "internalType": "address",
          "name": "indexToken",
          "type": "address"
        },
        {
          "internalType": "uint256",
          "name": "sizeDelta",
          "type": "uint256"
        },
        {
          "internalType": "bool",
          "name": "isLong",
          "type": "bool"
        },
        {
          "internalType": "uint256",
          "name": "triggerPrice",
          "type": "uint256"
        },
        {
          "internalType": "bool",
          "name": "triggerAboveThreshold",
          "type": "bool"
        },
        {
          "internalType": "uint256",
          "name": "executionFee",
          "type": "uint256"
        }
      ],
      "stateMutability": "view",
      "type": "function"
    },
    {
      "inputs": [
        {
          "internalType": "address",
          "name": "",
          "type": "address"
        }
      ],
      "name": "decreaseOrdersIndex",
      "outputs": [
        {
          "internalType": "uint256",
          "name": "",
          "type": "uint256"
        }
      ],
      "stateMutability": "view",
      "type": "function"
    },
    {
      "inputs": [
        {
          "internalType": "address",
          "name": "_address",
          "type": "address"
        },
        {
          "internalType": "uint256",
          "name": "_orderIndex",
          "type": "uint256"
        },
        {
          "internalType": "address payable",
          "name": "_feeReceiver",
          "type": "address"
        }
      ],
      "name": "executeDecreaseOrder",
      "outputs": [],
      "stateMutability": "nonpayable",
      "type": "function"
    },
    {
      "inputs": [
        {
          "internalType": "address",
          "name": "_address",
          "type": "address"
        },
        {
          "internalType": "uint256",
          "name": "_orderIndex",
          "type": "uint256"
        },
        {
          "internalType": "address payable",
          "name": "_feeReceiver",
          "type": "address"
        }
      ],
      "name": "executeIncreaseOrder",
      "outputs": [],
      "stateMutability": "nonpayable",
      "type": "function"
    },
    {
      "inputs": [
        {
          "internalType": "address",
          "name": "_account",
          "type": "address"
        },
        {
          "internalType": "uint256",
          "name": "_orderIndex",
          "type": "uint256"
        },
        {
          "internalType": "address payable",
          "name": "_feeReceiver",
          "type": "address"
        }
      ],
      "name": "executeSwapOrder",
      "outputs": [],
      "stateMutability": "nonpayable",
      "type": "function"
    },
    {
      "inputs": [
        {
          "internalType": "address",
          "name": "_account",
          "type": "address"
        },
        {
          "internalType": "uint256",
          "name": "_orderIndex",
          "type": "uint256"
        }
      ],
      "name": "getDecreaseOrder",
      "outputs": [
        {
          "internalType": "address",
          "name": "collateralToken",
          "type": "address"
        },
        {
          "internalType": "uint256",
          "name": "collateralDelta",
          "type": "uint256"
        },
        {
          "internalType": "address",
          "name": "indexToken",
          "type": "address"
        },
        {
          "internalType": "uint256",
          "name": "sizeDelta",
          "type": "uint256"
        },
        {
          "internalType": "bool",
          "name": "isLong",
          "type": "bool"
        },
        {
          "internalType": "uint256",
          "name": "triggerPrice",
          "type": "uint256"
        },
        {
          "internalType": "bool",
          "name": "triggerAboveThreshold",
          "type": "bool"
        },
        {
          "internalType": "uint256",
          "name": "executionFee",
          "type": "uint256"
        }
      ],
      "stateMutability": "view",
      "type": "function"
    },
    {
      "inputs": [
        {
          "internalType": "address",
          "name": "_account",
          "type": "address"
        },
        {
          "internalType": "uint256",
          "name": "_orderIndex",
          "type": "uint256"
        }
      ],
      "name": "getIncreaseOrder",
      "outputs": [
        {
          "internalType": "address",
          "name": "purchaseToken",
          "type": "address"
        },
        {
          "internalType": "uint256",
          "name": "purchaseTokenAmount",
          "type": "uint256"
        },
        {
          "internalType": "address",
          "name": "collateralToken",
          "type": "address"
        },
        {
          "internalType": "address",
          "name": "indexToken",
          "type": "address"
        },
        {
          "internalType": "uint256",
          "name": "sizeDelta",
          "type": "uint256"
        },
        {
          "internalType": "bool",
          "name": "isLong",
          "type": "bool"
        },
        {
          "internalType": "uint256",
          "name": "triggerPrice",
          "type": "uint256"
        },
        {
          "internalType": "bool",
          "name": "triggerAboveThreshold",
          "type": "bool"
        },
        {
          "internalType": "uint256",
          "name": "executionFee",
          "type": "uint256"
        }
      ],
      "stateMutability": "view",
      "type": "function"
    },
    {
      "inputs": [
        {
          "internalType": "address",
          "name": "_account",
          "type": "address"
        },
        {
          "internalType": "uint256",
          "name": "_orderIndex",
          "type": "uint256"
        }
      ],
      "name": "getSwapOrder",
      "outputs": [
        {
          "internalType": "address",
          "name": "path0",
          "type": "address"
        },
        {
          "internalType": "address",
          "name": "path1",
          "type": "address"
        },
        {
          "internalType": "address",
          "name": "path2",
          "type": "address"
        },
        {
          "internalType": "uint256",
          "name": "amountIn",
          "type": "uint256"
        },
        {
          "internalType": "uint256",
          "name": "minOut",
          "type": "uint256"
        },
        {
          "internalType": "uint256",
          "name": "triggerRatio",
          "type": "uint256"
        },
        {
          "internalType": "bool",
          "name": "triggerAboveThreshold",
          "type": "bool"
        },
        {
          "internalType": "bool",
          "name": "shouldUnwrap",
          "type": "bool"
        },
        {
          "internalType": "uint256",
          "name": "executionFee",
          "type": "uint256"
        }
      ],
      "stateMutability": "view",
      "type": "function"
    },
    {
      "inputs": [
        {
          "internalType": "address",
          "name": "_otherToken",
          "type": "address"
        }
      ],
      "name": "getUsdvMinPrice",
      "outputs": [
        {
          "internalType": "uint256",
          "name": "",
          "type": "uint256"
        }
      ],
      "stateMutability": "view",
      "type": "function"
    },
    {
      "inputs": [],
      "name": "gov",
      "outputs": [
        {
          "internalType": "address",
          "name": "",
          "type": "address"
        }
      ],
      "stateMutability": "view",
      "type": "function"
    },
    {
      "inputs": [
        {
          "internalType": "address",
          "name": "",
          "type": "address"
        },
        {
          "internalType": "uint256",
          "name": "",
          "type": "uint256"
        }
      ],
      "name": "increaseOrders",
      "outputs": [
        {
          "internalType": "address",
          "name": "account",
          "type": "address"
        },
        {
          "internalType": "address",
          "name": "purchaseToken",
          "type": "address"
        },
        {
          "internalType": "uint256",
          "name": "purchaseTokenAmount",
          "type": "uint256"
        },
        {
          "internalType": "address",
          "name": "collateralToken",
          "type": "address"
        },
        {
          "internalType": "address",
          "name": "indexToken",
          "type": "address"
        },
        {
          "internalType": "uint256",
          "name": "sizeDelta",
          "type": "uint256"
        },
        {
          "internalType": "bool",
          "name": "isLong",
          "type": "bool"
        },
        {
          "internalType": "uint256",
          "name": "triggerPrice",
          "type": "uint256"
        },
        {
          "internalType": "bool",
          "name": "triggerAboveThreshold",
          "type": "bool"
        },
        {
          "internalType": "uint256",
          "name": "executionFee",
          "type": "uint256"
        }
      ],
      "stateMutability": "view",
      "type": "function"
    },
    {
      "inputs": [
        {
          "internalType": "address",
          "name": "",
          "type": "address"
        }
      ],
      "name": "increaseOrdersIndex",
      "outputs": [
        {
          "internalType": "uint256",
          "name": "",
          "type": "uint256"
        }
      ],
      "stateMutability": "view",
      "type": "function"
    },
    {
      "inputs": [
        {
          "internalType": "address",
          "name": "_router",
          "type": "address"
        },
        {
          "internalType": "address",
          "name": "_vault",
          "type": "address"
        },
        {
          "internalType": "address",
          "name": "_weth",
          "type": "address"
        },
        {
          "internalType": "address",
          "name": "_usdv",
          "type": "address"
        },
        {
          "internalType": "uint256",
          "name": "_minExecutionFee",
          "type": "uint256"
        },
        {
          "internalType": "uint256",
          "name": "_minPurchaseTokenAmountUsd",
          "type": "uint256"
        }
      ],
      "name": "initialize",
      "outputs": [],
      "stateMutability": "nonpayable",
      "type": "function"
    },
    {
      "inputs": [],
      "name": "isInitialized",
      "outputs": [
        {
          "internalType": "bool",
          "name": "",
          "type": "bool"
        }
      ],
      "stateMutability": "view",
      "type": "function"
    },
    {
      "inputs": [],
      "name": "minExecutionFee",
      "outputs": [
        {
          "internalType": "uint256",
          "name": "",
          "type": "uint256"
        }
      ],
      "stateMutability": "view",
      "type": "function"
    },
    {
      "inputs": [],
      "name": "minPurchaseTokenAmountUsd",
      "outputs": [
        {
          "internalType": "uint256",
          "name": "",
          "type": "uint256"
        }
      ],
      "stateMutability": "view",
      "type": "function"
    },
    {
      "inputs": [],
      "name": "router",
      "outputs": [
        {
          "internalType": "address",
          "name": "",
          "type": "address"
        }
      ],
      "stateMutability": "view",
      "type": "function"
    },
    {
      "inputs": [
        {
          "internalType": "address",
          "name": "_gov",
          "type": "address"
        }
      ],
      "name": "setGov",
      "outputs": [],
      "stateMutability": "nonpayable",
      "type": "function"
    },
    {
      "inputs": [
        {
          "internalType": "uint256",
          "name": "_minExecutionFee",
          "type": "uint256"
        }
      ],
      "name": "setMinExecutionFee",
      "outputs": [],
      "stateMutability": "nonpayable",
      "type": "function"
    },
    {
      "inputs": [
        {
          "internalType": "uint256",
          "name": "_minPurchaseTokenAmountUsd",
          "type": "uint256"
        }
      ],
      "name": "setMinPurchaseTokenAmountUsd",
      "outputs": [],
      "stateMutability": "nonpayable",
      "type": "function"
    },
    {
      "inputs": [
        {
          "internalType": "address",
          "name": "",
          "type": "address"
        },
        {
          "internalType": "uint256",
          "name": "",
          "type": "uint256"
        }
      ],
      "name": "swapOrders",
      "outputs": [
        {
          "internalType": "address",
          "name": "account",
          "type": "address"
        },
        {
          "internalType": "uint256",
          "name": "amountIn",
          "type": "uint256"
        },
        {
          "internalType": "uint256",
          "name": "minOut",
          "type": "uint256"
        },
        {
          "internalType": "uint256",
          "name": "triggerRatio",
          "type": "uint256"
        },
        {
          "internalType": "bool",
          "name": "triggerAboveThreshold",
          "type": "bool"
        },
        {
          "internalType": "bool",
          "name": "shouldUnwrap",
          "type": "bool"
        },
        {
          "internalType": "uint256",
          "name": "executionFee",
          "type": "uint256"
        }
      ],
      "stateMutability": "view",
      "type": "function"
    },
    {
      "inputs": [
        {
          "internalType": "address",
          "name": "",
          "type": "address"
        }
      ],
      "name": "swapOrdersIndex",
      "outputs": [
        {
          "internalType": "uint256",
          "name": "",
          "type": "uint256"
        }
      ],
      "stateMutability": "view",
      "type": "function"
    },
    {
      "inputs": [
        {
          "internalType": "uint256",
          "name": "_orderIndex",
          "type": "uint256"
        },
        {
          "internalType": "uint256",
          "name": "_collateralDelta",
          "type": "uint256"
        },
        {
          "internalType": "uint256",
          "name": "_sizeDelta",
          "type": "uint256"
        },
        {
          "internalType": "uint256",
          "name": "_triggerPrice",
          "type": "uint256"
        },
        {
          "internalType": "bool",
          "name": "_triggerAboveThreshold",
          "type": "bool"
        }
      ],
      "name": "updateDecreaseOrder",
      "outputs": [],
      "stateMutability": "nonpayable",
      "type": "function"
    },
    {
      "inputs": [
        {
          "internalType": "uint256",
          "name": "_orderIndex",
          "type": "uint256"
        },
        {
          "internalType": "uint256",
          "name": "_sizeDelta",
          "type": "uint256"
        },
        {
          "internalType": "uint256",
          "name": "_triggerPrice",
          "type": "uint256"
        },
        {
          "internalType": "bool",
          "name": "_triggerAboveThreshold",
          "type": "bool"
        }
      ],
      "name": "updateIncreaseOrder",
      "outputs": [],
      "stateMutability": "nonpayable",
      "type": "function"
    },
    {
      "inputs": [
        {
          "internalType": "uint256",
          "name": "_orderIndex",
          "type": "uint256"
        },
        {
          "internalType": "uint256",
          "name": "_minOut",
          "type": "uint256"
        },
        {
          "internalType": "uint256",
          "name": "_triggerRatio",
          "type": "uint256"
        },
        {
          "internalType": "bool",
          "name": "_triggerAboveThreshold",
          "type": "bool"
        }
      ],
      "name": "updateSwapOrder",
      "outputs": [],
      "stateMutability": "nonpayable",
      "type": "function"
    },
    {
      "inputs": [],
      "name": "usdv",
      "outputs": [
        {
          "internalType": "address",
          "name": "",
          "type": "address"
        }
      ],
      "stateMutability": "view",
      "type": "function"
    },
    {
      "inputs": [
        {
          "internalType": "bool",
          "name": "_triggerAboveThreshold",
          "type": "bool"
        },
        {
          "internalType": "uint256",
          "name": "_triggerPrice",
          "type": "uint256"
        },
        {
          "internalType": "address",
          "name": "_indexToken",
          "type": "address"
        },
        {
          "internalType": "bool",
          "name": "_maximizePrice",
          "type": "bool"
        },
        {
          "internalType": "bool",
          "name": "_raise",
          "type": "bool"
        }
      ],
      "name": "validatePositionOrderPrice",
      "outputs": [
        {
          "internalType": "uint256",
          "name": "",
          "type": "uint256"
        },
        {
          "internalType": "bool",
          "name": "",
          "type": "bool"
        }
      ],
      "stateMutability": "view",
      "type": "function"
    },
    {
      "inputs": [
        {
          "internalType": "address[]",
          "name": "_path",
          "type": "address[]"
        },
        {
          "internalType": "uint256",
          "name": "_triggerRatio",
          "type": "uint256"
        }
      ],
      "name": "validateSwapOrderPriceWithTriggerAboveThreshold",
      "outputs": [
        {
          "internalType": "bool",
          "name": "",
          "type": "bool"
        }
      ],
      "stateMutability": "view",
      "type": "function"
    },
    {
      "inputs": [],
      "name": "vault",
      "outputs": [
        {
          "internalType": "address",
          "name": "",
          "type": "address"
        }
      ],
      "stateMutability": "view",
      "type": "function"
    },
    {
      "inputs": [],
      "name": "weth",
      "outputs": [
        {
          "internalType": "address",
          "name": "",
          "type": "address"
        }
      ],
      "stateMutability": "view",
      "type": "function"
    },
    {
      "stateMutability": "payable",
      "type": "receive"
    }
  ],
  "bytecode": "0x60808060405234610037576001600055600e805460ff19169055600780546001600160a01b0319163317905561454a908161003d8239f35b600080fdfe60806040526004361015610023575b361561001957600080fd5b610021612958565b005b60003560e01c8062cf066b1461032e578063026032ee1461032557806307c7edc31461031c5780630d5cc9381461031357806311d9444a1461030a57806312d43a5114610301578063269ae6c2146102f85780632b7d6290146102ef578063392e53cd146102e65780633fc8cef3146102dd57806347e0bbd0146102d45780634c54f0b0146102cb57806363ae2103146102c257806379221fa2146102b95780638009702a146102b0578063807c5600146102a75780638de10c2e1461029e5780639420069c1461029557806395082d251461028c578063985ce31c146102835780639983ee1b1461027a5780639e71b0f014610271578063a397ea5414610268578063aec224551461025f578063b142a4b014610256578063c16cde8a1461024d578063c4a1821b14610244578063c86b0f7d1461023b578063cfad57a214610232578063d0d40cd614610229578063d38ab51914610220578063d3bab1d114610217578063d566d0ca1461020e578063d7c41c7914610205578063f2d2e01b146101fc578063f882ac07146101f3578063f887ea40146101ea578063fbfa77cf146101e15763fc2cee620361000e576101dc6128cf565b61000e565b506101dc6128a5565b506101dc61287b565b506101dc612764565b506101dc612678565b506101dc61250c565b506101dc6124ce565b506101dc6123d6565b506101dc6120b3565b506101dc611f7e565b506101dc611f0a565b506101dc611e51565b506101dc611e08565b506101dc611cd7565b506101dc611c4b565b506101dc611c0d565b506101dc611ae3565b506101dc6119ff565b506101dc6118fd565b506101dc611734565b506101dc61170b565b506101dc6116e1565b506101dc6116c2565b506101dc6114cc565b506101dc61144a565b506101dc6113a8565b506101dc611389565b506101dc61121c565b506101dc61108f565b506101dc611065565b506101dc611041565b506101dc610f3c565b506101dc610ce3565b506101dc610b38565b506101dc610812565b506101dc6107a7565b506101dc6105bc565b506101dc610419565b506101dc6103db565b6001600160a01b031690565b6001600160a01b0381160361035457565b600080fd5b6001600160a01b0316600090815260056020526040902090565b6001600160a01b0316600090815260036020526040902090565b6001600160a01b0316600090815260016020526040902090565b6001600160a01b0316600090815260046020526040902090565b6001600160a01b0316600090815260026020526040902090565b5034610354576020366003190112610354576004356103f981610343565b60018060a01b031660005260066020526020604060002054604051908152f35b50346103545760403660031901126103545760043561043781610343565b60018060a01b0316600052600360205260406000206024356000526020526040600020610462610c0f565b906104766104708254610337565b8361297e565b61058c6101006104896001840154610337565b61049760208601918261297e565b600284015493604086019485526104b16003820154610337565b956104c060608201978861297e565b6004820154926080820193845261054061053761052e6105256104e7600588015460ff1690565b151560a087019081529460068801549660c08101978852600861050e60078b015460ff1690565b151560e083019081529901549a8b91015251610337565b99519a51610337565b95519251151590565b92519351151590565b93604051988998899491989796939060e0969361010087019a60018060a01b038093168852602088015216604086015260608501521515608084015260a0830152151560c08201520152565b0390f35b6060906003190112610354576004356105a881610343565b90602435906044356105b981610343565b90565b5034610354577f7e1fe496989eea92b738a562dbf9c0ae6aa6fcf3f1ef09e95ee4f7603721706b6105ec36610590565b9092916105fe60026000541415612ad3565b600260005561074d61062061061b8661061685610359565b610f2d565b6129e5565b60018060a01b039361063e856106368451610337565b161515612bbf565b60a082019161064d8351151590565b610787575b6106676106628961061688610359565b612c4c565b602081019261068e61068961067c8651612a75565b516001600160a01b031690565b610337565b936106ab61069d600b54610337565b956040850196875191612d3e565b6106c361067c82516106bd8151612b36565b90612ab1565b886106d2610689600854610337565b9116148061077a575b1561075a576106f1815160608501513091614141565b906107086107026106898651610337565b83613f74565b61071760e08501958651613f74565b51945160608401519061073c60c061073460808801519651151590565b960151151590565b9551966040519a8b9a169c8a61328f565b0390a26100216001600055565b6107748151606085015161076e8651610337565b91614141565b90610708565b5060c083015115156106db565b6107a261079d602083015160808401519061302d565b613234565b610652565b503461035457602036600319011261035457600754600435906001600160a01b03163303610800576020817fe46d9daf6d25f7615efa1d0183b90ac6759d85014b598e409aadf0fd918d59a692600d55604051908152a1005b604051631b72354960e01b8152600490fd5b5034610354577f9a382661d6573da86db000471303be6f0b2b1bb66089b08e3c16a85d7b6e94f861084236610590565b90929161085460026000541415612ad3565b600260005561074d61087161086c8661061685610373565b6133bb565b9161088660018060a01b036106368551610337565b61090a6108d4876106166108cd6108a060e0890151151590565b60c08901516108b260608b0151610337565b906108c76108c360a08d0151151590565b1590565b926132da565b5094610373565b60086000918281558260018201558260028201558260038201558260048201558260058201558260068201558260078201550155565b61091b610689610689600a54610337565b60206109278551610337565b9161093482870151610337565b906109426060880151610337565b60006040890151936109b860808b01519761096060a08d0151151590565b604051632662166b60e01b81526001600160a01b0392831660048201529382166024850152941660448301526064820195909552608481019690965290151560a48601523060c48601528492839190829060e4820190565b03925af1908115610b0d575b600091610adf575b506109da6020850151610337565b906109e9610689600854610337565b6001600160a01b03909216918203610ac657610a139150610a0d6106898651610337565b90613f74565b610a236101008401948551613f74565b610a2d8351610337565b92610a3b6020820151610337565b94604082015191610a4f6060820151610337565b608082015160a0830151151591610a6e60e060c0860151950151151590565b9451604080519d8e526001600160a01b039b8c1660208f01528d0196909652891660608c015260808b0152151560a08a015260c0890152151560e0880152610100870152610120860152911692908190610140820190565b610ada91610ad48651610337565b90612d3e565b610a13565b610b00915060203d8111610b06575b610af88183610bec565b810190612f86565b386109cc565b503d610aee565b610b15612b7e565b6109c4565b600091031261035457565b6001600160a01b03909116815260200190565b5034610354576000366003190112610354576007546040516001600160a01b039091168152602090f35b50634e487b7160e01b600052604160045260246000fd5b6001600160401b038111610b8c57604052565b610b94610b62565b604052565b61010081019081106001600160401b03821117610b8c57604052565b61014081019081106001600160401b03821117610b8c57604052565b604081019081106001600160401b03821117610b8c57604052565b601f909101601f19168101906001600160401b03821190821017610b8c57604052565b6040519061012082016001600160401b03811183821017610b8c57604052565b60405190610c3c82610b99565b565b60405190610c3c82610bb5565b6020906001600160401b038111610c64575b60051b0190565b610c6c610b62565b610c5d565b81601f8201121561035457803591610c8883610c4b565b92610c966040519485610bec565b808452602092838086019260051b820101928311610354578301905b828210610cc0575050505090565b8380918335610cce81610343565b815201910190610cb2565b8015150361035457565b5061010036600319011261035457600480356001600160401b03811161035457610d109036908301610c71565b6024359060843590610d2182610cd9565b60a4359160c43593610d3285610cd9565b60e43592610d3f84610cd9565b600095610d50600288541415612ad3565b60028755815160028114159081610f21575b50610f1057610d7361067c83612a75565b90610d8d61068961067c610d878651612b36565b86612ab1565b6001600160a01b0392831614610eff578315610eee57600c548710610ede57610db4613f1c565b15610e3157610dc561067c83612a75565b90610dd4610689600854610337565b911603610e2057610de58286612ba3565b3403610e0f57610e009596505b606435916044359133613c21565b610e0a6001600055565b604051f35b60405163162908e360e11b81528790fd5b6040516320db826760e01b81528790fd5b50849695963403610ecd57610e4d610689610689600a54610337565b9587610e5b61067c84612a75565b91883b15610ec957610e0098610e8d93838793604051968795869485936303704f0f60e31b8552309133918601612b53565b03925af18015610ebc575b610ea3575b50610df2565b80610eb0610eb692610b79565b80610b1a565b38610e9d565b610ec4612b7e565b610e98565b5080fd5b60405163162908e360e11b81528690fd5b60405162976f7560e21b81528990fd5b60405163162908e360e11b81528990fd5b6040516320db826760e01b81528990fd5b6040516320db826760e01b81528890fd5b60039150141538610d62565b90600052602052604060002090565b503461035457604036600319011261035457600435610f5a81610343565b60018060a01b0316600052600160205260406000206024356000526020526040600020610f878154610337565b61058c610f976001840154610337565b92600281015490610fab6003820154610337565b610fb86004830154610337565b6005830154600684015460ff16916007850154936009610fdc600888015460ff1690565b960154604080516001600160a01b039b8c1681529b8b1660208d01528b0197909752881660608a0152909616608088015260a087019590955293151560c086015260e08501939093529115156101008401526101208301919091528190610140820190565b503461035457600036600319011261035457602060ff600e54166040519015158152f35b5034610354576000366003190112610354576008546040516001600160a01b039091168152602090f35b5034610354576020366003190112610354576004356110b360026000541415612ad3565b60026000556000805160206144f58339815191526110dc6110d7836106163361038d565b613462565b60018060a01b03906110f2826106368351610337565b61113e611102856106163361038d565b60096000918281558260018201558260028201558260038201558260048201558260058201558260068201558260078201558260088201550155565b61074d60208201916111508351610337565b8461115f610689600854610337565b91169081036111f857506111876101208201516111823391604085015190612ba3565b613f74565b61119b6111948251610337565b9351610337565b9060408101516111ae6060830151610337565b6111bb6080840151610337565b60a0840151906111ce60c0860151151590565b9260e0860151946101206111e6610100890151151590565b970151976040519b8c9b169d8b6139ad565b6040820151611208913390612d3e565b61121733610120830151613f74565b611187565b50346103545760a036600319011261035457604060043561123c81610cd9565b60443560243561124b82610343565b6064359161125883610cd9565b6084359261126584610cd9565b600090156113135750602061129f91611285610689610689600b54610337565b87518080958194637092736960e11b835260048301610b25565b03915afa908115611306575b6000916112e8575b50925b156112e0578211905b6112d2575b825191825215156020820152f35b6112db81613234565b6112c4565b8210906112bf565b611300915060203d8111610b0657610af88183610bec565b386112b3565b61130e612b7e565b6112ab565b9060206113459161132b610689610689600b54610337565b885180809581946340d3096b60e11b835260048301610b25565b03915afa91821561137c575b9161135e575b50926112b6565b611376915060203d8111610b0657610af88183610bec565b38611357565b611384612b7e565b611351565b5034610354576000366003190112610354576020600c54604051908152f35b5034610354576040366003190112610354576004356113c681610343565b6001600160a01b039081166000908152600560208181526040808420602435855282529283902080546002820154600383015460048401549584015460069094015487519390981683529382015293840191909152606083019190915260ff8082161515608084015260089190911c16151560a082015260c081019190915260e090f35b5034610354576000366003190112610354576020604051670de0b6b3a76400008152f35b81601f820112156103545780359161148583610c4b565b926114936040519485610bec565b808452602092838086019260051b820101928311610354578301905b8282106114bd575050505090565b813581529083019083016114af565b503461035457606080600319360112610354576001600160401b03600435818111610354576114ff90369060040161146e565b916024358281116103545761151890369060040161146e565b916044359081116103545761153190369060040161146e565b9160005b845181101561166f578061154c6116379287612ab1565b51600261155d816000541415612ad3565b6000556000805160206144d583398151915261157f61061b8361061633610359565b60018060a01b03611594816106368451610337565b6115a46106628561061633610359565b60208201906115b661067c8351612a75565b906115c5610689600854610337565b91160361163c576115e460e08301516111823391604086015190612ba3565b51611625604080840151938a810151608082015161160560a0840151151590565b9160e061161560c0860151151590565b9401519451978897339b89612cdf565b0390a26116326001600055565b612baf565b611535565b61165c61164f61068961067c8451612a75565b6040840151903390612d3e565b61166a3360e0840151613f74565b6115e4565b508260005b8251811015611699578061163261168e6116949386612ab1565b51613935565b611674565b5060005b815181101561002157806116326116b76116bd9385612ab1565b51613a3d565b61169d565b5034610354576000366003190112610354576020600d54604051908152f35b5034610354576000366003190112610354576009546040516001600160a01b039091168152602090f35b50346103545760003660031901126103545760405168327cb2734119d3b7a9601e1b8152602090f35b5034610354576020806003193601126103545761183761058c9160043561175a81610343565b61176b610689610689600b54610337565b604051632c668ec160e01b81526001600160a01b0383166004820152670de0b6b3a764000060248201529091908381604481865afa9081156118cc575b6000916118af575b506040516340d3096b60e11b81529184908184806117d18460048301610b25565b0381885afa9384156118a2575b60009461187f575b5061180892939460405180809581946323b95ceb60e21b835260048301610b25565b03915afa938415611872575b600094611847575b50506118319161182b91612c39565b91612f95565b90612fb1565b6040519081529081906020820190565b61182b92945061183193918161186892903d10610b0657610af88183610bec565b939181935061181c565b61187a612b7e565b611814565b61180893945061189b90833d8511610b0657610af88183610bec565b93926117e6565b6118aa612b7e565b6117de565b6118c69150843d8611610b0657610af88183610bec565b386117b0565b6118d4612b7e565b6117a8565b6080906003190112610354576004359060243590604435906064356105b981610cd9565b50346103545761074d7f0a0360dd5c354235bbf8d386ba3b24ef8134088e0785677de1504df219d9149a611930366118d9565b6119436002600097939597541415612ad3565b600260005533600052600160205261195f866040600020610f2d565b9361197460018060a01b036106368754610337565b8060078601556119878260088701612928565b83600586015561199a6003860154610337565b936119b660066119ad6004890154610337565b97015460ff1690565b604051968796339a8895929160c09592989794919860e0880199885260018060a01b03809216602089015216604087015215156060860152608085015260a08401521515910152565b503461035457602036600319011261035457600435611a2360026000541415612ad3565b60026000556000805160206144b5833981519152611a4761086c8361061633610373565b60018060a01b0390611a5d826106368351610337565b611a6d6108d48561061633610373565b61074d610100820191611a81338451613f74565b611a8b8151610337565b92611a996020830151610337565b916040810151611aac6060830151610337565b608083015190611abf60a0850151151590565b92611ad260e060c0870151960151151590565b9551966040519a8b9a169c8a613aaa565b50346103545760a0366003190112610354576004357f75781255bc71c83f89f29e5a2599f2c174a562d2cd8f2e818a47f132e728049860243560443561074d608435606435611b3182610cd9565b611b4060026000541415612ad3565b6002600055336000526003602052611b5c876040600020610f2d565b8054611b74906001600160a01b039061063690610337565b816006820155611b878360078301612928565b846004820155856002820155611ba06001820154610337565b94611bbc6005611bb36003850154610337565b93015460ff1690565b604080519a8b526001600160a01b0397881660208c01528a019790975294166060880152608087019390935292151560a086015260c085019190915290151560e08401523392908190610100820190565b503461035457602036600319011261035457600435611c2b81610343565b60018060a01b031660005260026020526020604060002054604051908152f35b50610160366003190112610354576004356001600160401b03811161035457611c7b610021913690600401610c71565b604435611c8781610343565b60a43591611c9483610343565b60c43590611ca182610cd9565b6101043591611caf83610cd9565b6101443594611cbd86610cd9565b610124359460e43593608435916064359160243590613511565b5060e036600319011261035457600435611cf081610343565b7f48ee333d2a65cc45fdb83bc012920d89181c3377390cd239d2b63f2bef67a02d6024359160443592611d2284610343565b61074d60643591608435611d3581610cd9565b60a43560c43591611d4583610cd9565b611d5460026000541415612ad3565b6002600055611d61613f1c565b611d6e600c543411613725565b611d77336103a7565b5493611df8611d84610c0f565b611d8e338261297e565b611d9b8c6020830161297e565b886040820152611dae8a6060830161297e565b6080810183905283151560a082015260c0810185905285151560e082015234610100820152611ddc87612b8b565b611de5336103a7565b55611df38761061633610373565b613e98565b604051978897339b34978a613aaa565b5034610354576040366003190112610354576004356001600160401b03811161035457611e47611e3e6020923690600401610c71565b6024359061302d565b6040519015158152f35b50346103545761074d7fa7f9f4a25eb76f5ec01b1a429d95d6a00833f0f137c88827c58799a1c1ff0dfe611e84366118d9565b9291611e9860026000979397541415612ad3565b6002600055336000526005602052611eb4836040600020610f2d565b95611ec960018060a01b036106368954610337565b8160038801558060048801556005870194611ee48187612928565b6002880154955460081c60ff16916006890154936040519788976001339c0190896131b1565b503461035457602036600319011261035457600435611f2881610343565b6007546001600160a01b0391908281163303610800576001600160a01b03191691169081176007556040519081527fe24c39186e9137521953beaa8446e71f55b8f12296984f9d4273ceb1af728d9090602090a1005b503461035457604036600319011261035457611fae61061b600435611fa281610343565b61061660243591610359565b602081019061058c8251805115156000906000146120ab575061067c611fd391612a75565b915b835160018151116000906000146120a3575061067c611ff391612a8f565b935b51600281511160009060001461209b575061067c61201291612aa0565b905b6040810151606082015160808301519061203160a0850151151590565b9260e061204160c0870151151590565b95015195604051998a998a9592916101009794919a9998959261012088019b60018060a01b0392838092168a521660208901521660408701526060860152608085015260a0840152151560c0830152151560e08201520152565b905090612014565b905093611ff5565b905091611fd5565b5034610354576120c236610590565b6120d460026000949394541415612ad3565b60026000556120e96110d7846106168561038d565b8051612101906001600160a01b039061063690610337565b6121436111028561061661213c61211c610100870151151590565b60e087015161212e6080890151610337565b906108c760c08a0151151590565b509661038d565b61216c6121566106896020840151610337565b612161600b54610337565b604084015191612d3e565b6121796020820151610337565b6121896106896060840151610337565b6001600160a01b039091160361236a575b6121ab610689610689600a54610337565b6121b58251610337565b936121c36060840151610337565b946121d16080850151610337565b9060a0850151916121e560c0870151151590565b94803b1561035457604051630f8ee8bb60e11b81526001600160a01b03938416600482015298831660248a015291166044880152606487019190915291151560848601527f7fb1c74d1ea6aa1c9c585e17ce8274c8ff98745e85e7459b73f87d784494f58e9461074d92600090829060a490829084905af1801561235d575b61234a575b5061227a6101208401948551613f74565b6122848351610337565b926122926020820151610337565b946040820151916122a66060820151610337565b6122b36080830151610337565b60a0830151906122c660c0850151151590565b926122da61010060e0870151960151151590565b9551966040519b8c9b60018060a01b03169e8c9794909b9a99969391610140999693926101608a019d8a5260018060a01b03938480931660208c015260408b015216606089015216608087015260a0860152151560c085015260e084015215156101008301526101208201520152565b80610eb061235792610b79565b38612269565b612365612b7e565b612264565b6123d16123b6612378613a03565b6123966123886020860151610337565b61239183612a75565b61297e565b6123af6123a66060860151610337565b61239183612a8f565b30906140a3565b6123c66106896060850151610337565b610ad4600b54610337565b61219a565b5034610354576040366003190112610354576004356123f481610343565b60018060a01b03166000526001602052604060002060243560005260205261241f6040600020613462565b61242c6020820151610337565b61058c6040830151926124426060820151610337565b906124506080820151610337565b60a082015160c083015115159060e084015192610120612474610100870151151590565b95015195604051998a998a959299989794919093610100979461012088019b60018060a01b0393848093168a5260208a01521660408801521660608601526080850152151560a084015260c0830152151560e08201520152565b5034610354576020366003190112610354576004356124ec81610343565b60018060a01b031660005260046020526020604060002054604051908152f35b50346103545760c03660031901126103545760043561252a81610343565b60243561253681610343565b6044359161254383610343565b6064359261255084610343565b6007546001600160a01b039460a4359160843591908716330361080057600e549360ff85166126675760ff19909416600117600e55600a80546001600160a01b0319908116988716989098179055600b80549097166001600160a01b038716179096557fcfb7ef8749fafc8da2af1ba3d025479ffc4e58f7dc420113e112512a3bda59639561266293600880546001600160a01b0319166001600160a01b038316179055600980546001600160a01b0319166001600160a01b03841617905561261883600c55565b61262184600d55565b604080516001600160a01b0397881681529787166020890152908616908701529093166060850152608084019290925260a0830191909152819060c0820190565b0390a1005b60405162dc149f60e41b8152600490fd5b50346103545760403660031901126103545760043561269681610343565b60018060a01b038091166000526003602052604060002060243560005260205260406000209081541661058c6126cf6001840154610337565b926002810154906126e36003820154610337565b6004820154600583015460ff16906006840154926008612707600787015460ff1690565b950154604080516001600160a01b039a8b1681529a8a1660208c01528a01969096529096166060880152608087019590955293151560a086015260c085019390935291151560e08401526101008301919091528190610120820190565b50346103545760203660031901126103545760043561278860026000541415612ad3565b60026000556000805160206144d58339815191526127ac61061b8361061633610359565b60018060a01b036127c1816106368451610337565b6127d16106628561061633610359565b60208201906127e361067c8351612a75565b906127f2610689600854610337565b9116036128555761281160e08301516111823391604086015190612ba3565b5161074d604083015192606081015190608081015161283360a0830151151590565b9060e061284360c0850151151590565b93015193604051978897339b89612cdf565b61286861164f61068961067c8451612a75565b6128763360e0840151613f74565b612811565b503461035457600036600319011261035457600a546040516001600160a01b039091168152602090f35b503461035457600036600319011261035457600b546040516001600160a01b039091168152602090f35b503461035457602036600319011261035457600754600435906001600160a01b03163303610800576020817fbde5eafdc37b81830d70124cddccaaa6d034e71dda3c8fc18a959ca76a7cbcfc92600c55604051908152a1005b9060ff801983541691151516179055565b80546001600160a01b0319166001600160a01b03909216919091179055565b6008546001600160a01b0316330361296c57565b604051636edaef2f60e11b8152600490fd5b6001600160a01b039091169052565b9060405191828154918282526020928383019160005283600020936000905b8282106129c257505050610c3c92500383610bec565b85546001600160a01b0316845260019586019588955093810193909101906129ac565b9060066129f0610c2f565b92612a046129fe8254610337565b8561297e565b612a106001820161298d565b6020850152600281015460408501526003810154606085015260048101546080850152600581015460ff818116151560a0870152612a559160081c16151560c0860152565b015460e0830152565b50634e487b7160e01b600052603260045260246000fd5b602090805115612a83570190565b612a8b612a5e565b0190565b604090805160011015612a83570190565b606090805160021015612a83570190565b6020918151811015612ac6575b60051b010190565b612ace612a5e565b612abe565b15612ada57565b60405162461bcd60e51b815260206004820152601f60248201527f5265656e7472616e637947756172643a207265656e7472616e742063616c6c006044820152606490fd5b50634e487b7160e01b600052601160045260246000fd5b60018110612b46575b6000190190565b612b4e612b1f565b612b3f565b6001600160a01b03918216815291811660208301529091166040820152606081019190915260800190565b506040513d6000823e3d90fd5b6001906001198111612b9b570190565b612a8b612b1f565b81198111612b9b570190565b6001906000198114612b9b570190565b15612bc657565b60405162461bcd60e51b815260206004820152601d60248201527f4f72646572426f6f6b3a206e6f6e2d6578697374656e74206f726465720000006044820152606490fd5b68327cb2734119d3b7a9601e1b90801515600019829004831116612c2d570290565b612c35612b1f565b0290565b8060001904821181151516612c2d570290565b600090818155600180820180549084815581612c85575b5050508082600260069301558260038201558260048201558260058201550155565b845260208420908101905b81811015612c63578481558201612c90565b90815180825260208080930193019160005b828110612cc2575050505090565b83516001600160a01b031685529381019392810192600101612cb4565b9491612d019060e097949a999895928752610100806020890152870190612ca2565b98604086015260608501526080840152151560a0830152151560c08201520152565b6001600160a01b039091168152602081019190915260400190565b9060405191612d7283612d646020968783019563a9059cbb60e01b875260248401612d23565b03601f198101855284610bec565b60018060a01b03169060405192612d8884610bd1565b8484527f5361666545524332303a206c6f772d6c6576656c2063616c6c206661696c656485850152823b15612df957612dd4939260009283809351925af1612dce612eb2565b90612eff565b80519081612de157505050565b82610c3c93612df4938301019101612e3e565b612e53565b60405162461bcd60e51b815260048101869052601d60248201527f416464726573733a2063616c6c20746f206e6f6e2d636f6e74726163740000006044820152606490fd5b9081602091031261035457516105b981610cd9565b15612e5a57565b60405162461bcd60e51b815260206004820152602a60248201527f5361666545524332303a204552433230206f7065726174696f6e20646964206e6044820152691bdd081cdd58d8d9595960b21b6064820152608490fd5b3d15612efa573d906001600160401b038211612eed575b60405191612ee1601f8201601f191660200184610bec565b82523d6000602084013e565b612ef5610b62565b612ec9565b606090565b90919015612f0b575090565b815115612f1b5750805190602001fd5b6040519062461bcd60e51b82528160208060048301528251928360248401526000915b848310612f6d575050918060449311612f60575b601f01601f19168101030190fd5b6000838284010152612f52565b8183018101518684016044015285935091820191612f3e565b90816020910312610354575190565b604d8111612fa4575b600a0a90565b612fac612b1f565b612f9e565b8115612fbb570490565b634e487b7160e01b600052601260045260246000fd5b60609060208152601f60208201527f4f72646572426f6f6b3a20696e76616c6964205f706174682e6c656e6774680060408201520190565b1561301057565b60405162461bcd60e51b81528061302960048201612fd1565b0390fd5b6130b2906130488151600281149081156131a6575b50613009565b61306561067c61305a61067c84612a75565b926106bd8151612b36565b6000613075610689600954610337565b6001600160a01b039390919080851683036131305750506000925b8216036130b657506130ad68327cb2734119d3b7a9601e1b612c0b565b612fb1565b1190565b6130eb60206130ad926130d0610689610689600b54610337565b6040518080958194637092736960e11b835260048301610b25565b03915afa908115613123575b600091613105575b50612c0b565b61311d915060203d8111610b0657610af88183610bec565b386130ff565b61312b612b7e565b6130f7565b602061316291613147610689610689600b54610337565b60405180809581946340d3096b60e11b835260048301610b25565b03915afa918215613199575b9161317b575b5092613090565b613193915060203d8111610b0657610af88183610bec565b38613174565b6131a1612b7e565b61316e565b600391501438613042565b959391909897969492986101009081880190885260209182890152825480915261012088019260005281600020916000905b8282106132145750505050604086019890985260608501526080840152151560a0830152151560c082015260e00152565b83546001600160a01b0316855293840193600193840193909101906131e3565b1561323b57565b60405162461bcd60e51b815260206004820152602660248201527f4f72646572426f6f6b3a20696e76616c696420707269636520666f722065786560448201526531baba34b7b760d11b6064820152608490fd5b959299989794916132b39061010098959288526101208060208a0152880190612ca2565b9960408701526060860152608085015260a0840152151560c0830152151560e08201520152565b93929091906000901561335f575060206132ff916130d0610689610689600b54610337565b03915afa908115613352575b600091613334575b50925b1561332c578211915b61332883613234565b9190565b82109161331f565b61334c915060203d8111610b0657610af88183610bec565b38613313565b61335a612b7e565b61330b565b90602061337791613147610689610689600b54610337565b03915afa9182156133ae575b91613390575b5092613316565b6133a8915060203d8111610b0657610af88183610bec565b38613389565b6133b6612b7e565b613383565b9060086133c6610c0f565b926133d46129fe8254610337565b6133ed6133e46001830154610337565b6020860161297e565b600281015460408501526134106134076003830154610337565b6060860161297e565b6004810154608085015261343461342b600583015460ff1690565b151560a0860152565b600681015460c085015261345861344f600783015460ff1690565b151560e0860152565b0154610100830152565b90600961346d610c3e565b9261347b6129fe8254610337565b61348b6133e46001830154610337565b600281015460408501526134a56134076003830154610337565b6134be6134b56004830154610337565b6080860161297e565b600581015460a08501526134e26134d9600683015460ff1690565b151560c0860152565b600781015460e08501526135076134fd600883015460ff1690565b1515610100860152565b0154610120830152565b9a9991939492909a60009261352a600285541415612ad3565b60028455613536613f1c565b613544600c548c1015613725565b1561368b578b8161359461358d61364e9e9f8e61358861356961067c61364899612a75565b613577610689600854610337565b6001600160a01b03909116146137e2565b612ba3565b341461383c565b6135aa61067c6135a48351612b36565b83612ab1565b936001825111600014613683576135f06135f7936135e16135cd61067c86612a75565b6001600160a01b0389811691161415613897565b6123c661068961067c86612a75565b3091614141565b925b61360a610689610689600b54610337565b60206040518092630a48d5a960e01b8252818061362b8a8a60048401612d23565b03915afa918215613676575b91613658575b50600d5411156138de565b33613da4565b610c3c6001600055565b613670915060203d8111610b0657610af88183610bec565b3861363d565b61367e612b7e565b613637565b5050926135f9565b6136968a341461377f565b6136a7610689610689600a54610337565b6136b361067c83612a75565b813b1561372157916136eb8561364e9e9f809461364896836040518096819582946303704f0f60e31b84523090339060048601612b53565b03925af18015613714575b613701575b50613594565b80610eb061370e92610b79565b386136fb565b61371c612b7e565b6136f6565b8480fd5b1561372c57565b60405162461bcd60e51b815260206004820152602560248201527f4f72646572426f6f6b3a20696e73756666696369656e7420657865637574696f6044820152646e2066656560d81b6064820152608490fd5b1561378657565b60405162461bcd60e51b815260206004820152602e60248201527f4f72646572426f6f6b3a20696e636f727265637420657865637574696f6e206660448201526d1959481d1c985b9cd9995c9c995960921b6064820152608490fd5b156137e957565b60405162461bcd60e51b815260206004820152602560248201527f4f72646572426f6f6b3a206f6e6c79207765746820636f756c64206265207772604482015264185c1c195960da1b6064820152608490fd5b1561384357565b60405162461bcd60e51b815260206004820152602660248201527f4f72646572426f6f6b3a20696e636f72726563742076616c7565207472616e7360448201526519995c9c995960d21b6064820152608490fd5b1561389e57565b60405162461bcd60e51b815260206004820152601860248201527709ee4c8cae484deded67440d2dcecc2d8d2c840bee0c2e8d60431b6044820152606490fd5b156138e557565b60405162461bcd60e51b815260206004820152602260248201527f4f72646572426f6f6b3a20696e73756666696369656e7420636f6c6c61746572604482015261185b60f21b6064820152608490fd5b61394460026000541415612ad3565b60026000556000805160206144f58339815191526139686110d7836106163361038d565b60018060a01b039061397e826106368351610337565b61398e611102856106163361038d565b6139a060208201916111508351610337565b0390a2610c3c6001600055565b9693916101209895919b9a9996939261014089019c895260018060a01b03938480931660208b015260408a015216606088015216608086015260a0850152151560c084015260e083015215156101008201520152565b60405190606082016001600160401b03811183821017613a30575b60405260028252604082602036910137565b613a38610b62565b613a1e565b613a4c60026000541415612ad3565b60026000556000805160206144b5833981519152613a7061086c8361061633610373565b60018060a01b0390613a86826106368351610337565b613a966108d48561061633610373565b6139a0610100820191611a81338451613f74565b95929361010097949a99989592919a61012088019b885260018060a01b03809316602089015260408801521660608601526080850152151560a084015260c0830152151560e08201520152565b815191600160401b8311613b8b575b8154838355808410613b62575b50602080910191600052806000206000925b848410613b33575050505050565b805182546001600160a01b0319166001600160a01b039190911617825560019384019391909101908201613b25565b6000838152846020822092830192015b828110613b80575050613b13565b818155600101613b72565b613b93610b62565b613b06565b9060e0600691613bb160018060a01b0382511685612939565b613bc2602082015160018601613af7565b604081015160028501556060810151600385015560808101516004850155613c1a60058501613bfd613bf760a0850151151590565b82612928565b60c08301511515815461ff00191690151560081b61ff0016179055565b0151910155565b93947fdf06bb56ffc4029dc0b62b68bb5bbadea93a38b530cefc9b81afb742a6555d88969195613ce99498939860018060a01b038716998a6000526006602052613cdd8b613cd88b6106166040600020549c8d9260405195613c8287610b99565b8652602086015286604086015287606086015288608086015289151560a08601528a151560c08601528b60e0860152613cba83612b8b565b6001600160a01b038216600090815260066020526040902055610359565b613b98565b60405198899889612cdf565b0390a2565b90610120600991613d08613d028251610337565b85612939565b613d21613d186020830151610337565b60018601612939565b60408101516002850155613d44613d3b6060830151610337565b60038601612939565b613d5d613d546080830151610337565b60048601612939565b60a08101516005850155613d80613d7760c0830151151590565b60068601612928565b60e08101516007850155613c1a613d9b610100830151151590565b60088601612928565b9692959197939894909833613db8906103c1565b5496604051613dc681610bb5565b613dd08a8261297e565b613ddd8c6020830161297e565b604081018b9052613df1826060830161297e565b613dfe836080830161297e565b60a0810184905284151560c082015260e0810186905286151561010082015287610120820152613e2d89612b8b565b613e368b6103c1565b5588613e418b61038d565b90613e4b91610f2d565b90613e5591613cee565b6040516001600160a01b039099169a98998a99613e72998b6139ad565b037fb27b9afe3043b93788c40cfc3cc73f5d928a2e40f3ba01820b246426de8fa1b991a2565b90610100600891613eac613d028251610337565b613ebc613d186020830151610337565b60408101516002850155613ed6613d3b6060830151610337565b60808101516004850155613ef9613ef060a0830151151590565b60058601612928565b60c08101516006850155613c1a613f1360e0830151151590565b60078601612928565b34613f2357565b6008546001600160a01b0316803b1561035457600060049160405192838092630d0e30db60e41b825234905af18015613f67575b613f5e5750565b610c3c90610b79565b613f6f612b7e565b613f57565b6008546001600160a01b03908116803b156103545760008091602460405180948193632e1a7d4d60e01b83528860048401525af18015614096575b614087575b50814710614042576000928392839260405192165af1613fd2612eb2565b5015613fda57565b60405162461bcd60e51b815260206004820152603a60248201527f416464726573733a20756e61626c6520746f2073656e642076616c75652c20726044820152791958da5c1a595b9d081b585e481a185d99481c995d995c9d195960321b6064820152608490fd5b60405162461bcd60e51b815260206004820152601d60248201527f416464726573733a20696e73756666696369656e742062616c616e63650000006044820152606490fd5b61409090610b79565b38613fb4565b61409e612b7e565b613faf565b9060028251146141255760038251146140cf5760405162461bcd60e51b81528061302960048201612fd1565b816141076140f86140e561067c6105b996612a75565b6140f161067c85612a8f565b3091614222565b6123c661068961067c85612a8f565b61411f61067c61411961067c84612a8f565b92612aa0565b90614222565b8161411f61067c61413b61067c6105b996612a75565b92612a8f565b9190600283511461419c57600383511461416e5760405162461bcd60e51b81528061302960048201612fd1565b826141846140f86140e561067c6105b997612a75565b61419661067c61411961067c84612a8f565b9061437a565b8261419661067c61413b61067c6105b997612a75565b6001600160a01b0391821681529116602082015260400190565b156141d357565b60405162461bcd60e51b815260206004820152602160248201527f4f72646572426f6f6b3a20696e73756666696369656e7420616d6f756e744f756044820152601d60fa1b6064820152608490fd5b906000614233610689600954610337565b6001600160a01b0383811682036142bb575050505061427f91602091614260610689610689600b54610337565b9060006040518096819582946306dfda0360e21b8452600484016141b2565b03925af19081156142ae575b600091614296575090565b6105b9915060203d8111610b0657610af88183610bec565b6142b6612b7e565b61428b565b84929394161460001461430157505061427f916020916142e2610689610689600b54610337565b906000604051809681958294639213472b60e01b8452600484016141b2565b9281936143589360209361431c610689610689600b54610337565b604051634998b10960e11b81526001600160a01b0394851660048201529284166024840152929093166044820152938492839182906064820190565b03925af191821561436d575b91614296575090565b614375612b7e565b614364565b6105b99293916000614390610689600954610337565b6001600160a01b03838116820361440757505050506143bd91602091614260610689610689600b54610337565b03925af19081156143fa575b6000916143dc575b50915b8210156141cc565b6143f4915060203d8111610b0657610af88183610bec565b386143d1565b614402612b7e565b6143c9565b84929394161460001461447457505061442e916020916142e2610689610689600b54610337565b03925af1908115614467575b600091614449575b50916143d4565b614461915060203d8111610b0657610af88183610bec565b38614442565b61446f612b7e565b61443a565b92819361448f9360209361431c610689610689600b54610337565b03925af19182156144a7575b916144495750916143d4565b6144af612b7e565b61449b56fe1154174c82984656b028c8021671988f60a346497e56fe02554761184f82a075efd66d4f9c2f880c70aedeb5b26a44fb474cea07e5d6c533f2d27c303d5d9453d500f34e0ec655b7614ae42e1d9c666d5e4dde909a1297829f8c5ecf00805d32a26469706673582212203a0e62913598e4eeb81d624338dca1c9fdb0f4df9f83b03b086eff3a9434531464736f6c634300080e0033",
  "linkReferences": {},
  "deployedLinkReferences": {}
}