{
  "_format": "hh-sol-artifact-1",
  "contractName": "PositionManager",
  "sourceName": "contracts/core/PositionManager.sol",
  "abi": [
    {
      "inputs": [
        {
          "internalType": "address",
          "name": "_vault",
          "type": "address"
        },
        {
          "internalType": "address",
          "name": "_router",
          "type": "address"
        },
        {
          "internalType": "address",
          "name": "_weth",
          "type": "address"
        },
        {
          "internalType": "uint256",
          "name": "_depositFee",
          "type": "uint256"
        },
        {
          "internalType": "address",
          "name": "_orderBook",
          "type": "address"
        }
      ],
      "stateMutability": "nonpayable",
      "type": "constructor"
    },
    {
      "inputs": [],
      "name": "Forbidden",
      "type": "error"
    },
    {
      "inputs": [],
      "name": "InsufficientAmountOut",
      "type": "error"
    },
    {
      "inputs": [],
      "name": "InvalidCollateralToken",
      "type": "error"
    },
    {
      "inputs": [
        {
          "internalType": "uint8",
          "name": "index",
          "type": "uint8"
        }
      ],
      "name": "InvalidPath",
      "type": "error"
    },
    {
      "inputs": [],
      "name": "InvalidPathLength",
      "type": "error"
    },
    {
      "inputs": [],
      "name": "InvalidSender",
      "type": "error"
    },
    {
      "inputs": [],
      "name": "LongDeposit",
      "type": "error"
    },
    {
      "inputs": [],
      "name": "LongLeverageDecrease",
      "type": "error"
    },
    {
      "inputs": [],
      "name": "MaxLongsExceeded",
      "type": "error"
    },
    {
      "inputs": [],
      "name": "MaxShortsExceeded",
      "type": "error"
    },
    {
      "inputs": [],
      "name": "OnlyAdmin",
      "type": "error"
    },
    {
      "inputs": [],
      "name": "PriceTooHigh",
      "type": "error"
    },
    {
      "inputs": [],
      "name": "PriceTooLow",
      "type": "error"
    },
    {
      "anonymous": false,
      "inputs": [
        {
          "indexed": false,
          "internalType": "address",
          "name": "account",
          "type": "address"
        },
        {
          "indexed": false,
          "internalType": "uint256",
          "name": "sizeDelta",
          "type": "uint256"
        },
        {
          "indexed": false,
          "internalType": "uint256",
          "name": "marginFeeBasisPoints",
          "type": "uint256"
        },
        {
          "indexed": false,
          "internalType": "bytes32",
          "name": "referralCode",
          "type": "bytes32"
        },
        {
          "indexed": false,
          "internalType": "address",
          "name": "referrer",
          "type": "address"
        }
      ],
      "name": "DecreasePositionReferral",
      "type": "event"
    },
    {
      "anonymous": false,
      "inputs": [
        {
          "indexed": false,
          "internalType": "address",
          "name": "account",
          "type": "address"
        },
        {
          "indexed": false,
          "internalType": "uint256",
          "name": "sizeDelta",
          "type": "uint256"
        },
        {
          "indexed": false,
          "internalType": "uint256",
          "name": "marginFeeBasisPoints",
          "type": "uint256"
        },
        {
          "indexed": false,
          "internalType": "bytes32",
          "name": "referralCode",
          "type": "bytes32"
        },
        {
          "indexed": false,
          "internalType": "address",
          "name": "referrer",
          "type": "address"
        }
      ],
      "name": "IncreasePositionReferral",
      "type": "event"
    },
    {
      "anonymous": false,
      "inputs": [
        {
          "indexed": true,
          "internalType": "address",
          "name": "previousOwner",
          "type": "address"
        },
        {
          "indexed": true,
          "internalType": "address",
          "name": "newOwner",
          "type": "address"
        }
      ],
      "name": "OwnershipTransferred",
      "type": "event"
    },
    {
      "anonymous": false,
      "inputs": [
        {
          "indexed": false,
          "internalType": "address",
          "name": "admin",
          "type": "address"
        }
      ],
      "name": "SetAdmin",
      "type": "event"
    },
    {
      "anonymous": false,
      "inputs": [
        {
          "indexed": false,
          "internalType": "uint256",
          "name": "depositFee",
          "type": "uint256"
        }
      ],
      "name": "SetDepositFee",
      "type": "event"
    },
    {
      "anonymous": false,
      "inputs": [
        {
          "indexed": false,
          "internalType": "bool",
          "name": "inLegacyMode",
          "type": "bool"
        }
      ],
      "name": "SetInLegacyMode",
      "type": "event"
    },
    {
      "anonymous": false,
      "inputs": [
        {
          "indexed": false,
          "internalType": "uint256",
          "name": "increasePositionBufferBps",
          "type": "uint256"
        }
      ],
      "name": "SetIncreasePositionBufferBps",
      "type": "event"
    },
    {
      "anonymous": false,
      "inputs": [
        {
          "indexed": true,
          "internalType": "address",
          "name": "account",
          "type": "address"
        },
        {
          "indexed": false,
          "internalType": "bool",
          "name": "isActive",
          "type": "bool"
        }
      ],
      "name": "SetLiquidator",
      "type": "event"
    },
    {
      "anonymous": false,
      "inputs": [
        {
          "indexed": false,
          "internalType": "address[]",
          "name": "tokens",
          "type": "address[]"
        },
        {
          "indexed": false,
          "internalType": "uint256[]",
          "name": "longSizes",
          "type": "uint256[]"
        },
        {
          "indexed": false,
          "internalType": "uint256[]",
          "name": "shortSizes",
          "type": "uint256[]"
        }
      ],
      "name": "SetMaxGlobalSizes",
      "type": "event"
    },
    {
      "anonymous": false,
      "inputs": [
        {
          "indexed": true,
          "internalType": "address",
          "name": "account",
          "type": "address"
        },
        {
          "indexed": false,
          "internalType": "bool",
          "name": "isActive",
          "type": "bool"
        }
      ],
      "name": "SetOrderKeeper",
      "type": "event"
    },
    {
      "anonymous": false,
      "inputs": [
        {
          "indexed": false,
          "internalType": "address",
          "name": "account",
          "type": "address"
        },
        {
          "indexed": false,
          "internalType": "bool",
          "name": "isActive",
          "type": "bool"
        }
      ],
      "name": "SetPartner",
      "type": "event"
    },
    {
      "anonymous": false,
      "inputs": [
        {
          "indexed": false,
          "internalType": "address",
          "name": "referralStorage",
          "type": "address"
        }
      ],
      "name": "SetReferralStorage",
      "type": "event"
    },
    {
      "anonymous": false,
      "inputs": [
        {
          "indexed": false,
          "internalType": "bool",
          "name": "shouldValidateIncreaseOrder",
          "type": "bool"
        }
      ],
      "name": "SetShouldValidateIncreaseOrder",
      "type": "event"
    },
    {
      "anonymous": false,
      "inputs": [
        {
          "indexed": false,
          "internalType": "address",
          "name": "token",
          "type": "address"
        },
        {
          "indexed": false,
          "internalType": "address",
          "name": "receiver",
          "type": "address"
        },
        {
          "indexed": false,
          "internalType": "uint256",
          "name": "amount",
          "type": "uint256"
        }
      ],
      "name": "WithdrawFees",
      "type": "event"
    },
    {
      "inputs": [],
      "name": "BASIS_POINTS_DIVISOR",
      "outputs": [
        {
          "internalType": "uint16",
          "name": "",
          "type": "uint16"
        }
      ],
      "stateMutability": "view",
      "type": "function"
    },
    {
      "inputs": [],
      "name": "admin",
      "outputs": [
        {
          "internalType": "address",
          "name": "",
          "type": "address"
        }
      ],
      "stateMutability": "view",
      "type": "function"
    },
    {
      "inputs": [
        {
          "internalType": "address",
          "name": "_token",
          "type": "address"
        },
        {
          "internalType": "address",
          "name": "_spender",
          "type": "address"
        },
        {
          "internalType": "uint256",
          "name": "_amount",
          "type": "uint256"
        }
      ],
      "name": "approve",
      "outputs": [],
      "stateMutability": "nonpayable",
      "type": "function"
    },
    {
      "inputs": [
        {
          "internalType": "address",
          "name": "_collateralToken",
          "type": "address"
        },
        {
          "internalType": "address",
          "name": "_indexToken",
          "type": "address"
        },
        {
          "internalType": "uint256",
          "name": "_collateralDelta",
          "type": "uint256"
        },
        {
          "internalType": "uint256",
          "name": "_sizeDelta",
          "type": "uint256"
        },
        {
          "internalType": "bool",
          "name": "_isLong",
          "type": "bool"
        },
        {
          "internalType": "address",
          "name": "_receiver",
          "type": "address"
        },
        {
          "internalType": "uint256",
          "name": "_price",
          "type": "uint256"
        }
      ],
      "name": "decreasePosition",
      "outputs": [],
      "stateMutability": "nonpayable",
      "type": "function"
    },
    {
      "inputs": [
        {
          "internalType": "address[]",
          "name": "_path",
          "type": "address[]"
        },
        {
          "internalType": "address",
          "name": "_indexToken",
          "type": "address"
        },
        {
          "internalType": "uint256",
          "name": "_collateralDelta",
          "type": "uint256"
        },
        {
          "internalType": "uint256",
          "name": "_sizeDelta",
          "type": "uint256"
        },
        {
          "internalType": "bool",
          "name": "_isLong",
          "type": "bool"
        },
        {
          "internalType": "address",
          "name": "_receiver",
          "type": "address"
        },
        {
          "internalType": "uint256",
          "name": "_price",
          "type": "uint256"
        },
        {
          "internalType": "uint256",
          "name": "_minOut",
          "type": "uint256"
        }
      ],
      "name": "decreasePositionAndSwap",
      "outputs": [],
      "stateMutability": "nonpayable",
      "type": "function"
    },
    {
      "inputs": [
        {
          "internalType": "address[]",
          "name": "_path",
          "type": "address[]"
        },
        {
          "internalType": "address",
          "name": "_indexToken",
          "type": "address"
        },
        {
          "internalType": "uint256",
          "name": "_collateralDelta",
          "type": "uint256"
        },
        {
          "internalType": "uint256",
          "name": "_sizeDelta",
          "type": "uint256"
        },
        {
          "internalType": "bool",
          "name": "_isLong",
          "type": "bool"
        },
        {
          "internalType": "address payable",
          "name": "_receiver",
          "type": "address"
        },
        {
          "internalType": "uint256",
          "name": "_price",
          "type": "uint256"
        },
        {
          "internalType": "uint256",
          "name": "_minOut",
          "type": "uint256"
        }
      ],
      "name": "decreasePositionAndSwapETH",
      "outputs": [],
      "stateMutability": "nonpayable",
      "type": "function"
    },
    {
      "inputs": [
        {
          "internalType": "address",
          "name": "_collateralToken",
          "type": "address"
        },
        {
          "internalType": "address",
          "name": "_indexToken",
          "type": "address"
        },
        {
          "internalType": "uint256",
          "name": "_collateralDelta",
          "type": "uint256"
        },
        {
          "internalType": "uint256",
          "name": "_sizeDelta",
          "type": "uint256"
        },
        {
          "internalType": "bool",
          "name": "_isLong",
          "type": "bool"
        },
        {
          "internalType": "address payable",
          "name": "_receiver",
          "type": "address"
        },
        {
          "internalType": "uint256",
          "name": "_price",
          "type": "uint256"
        }
      ],
      "name": "decreasePositionETH",
      "outputs": [],
      "stateMutability": "nonpayable",
      "type": "function"
    },
    {
      "inputs": [],
      "name": "depositFee",
      "outputs": [
        {
          "internalType": "uint256",
          "name": "",
          "type": "uint256"
        }
      ],
      "stateMutability": "view",
      "type": "function"
    },
    {
      "inputs": [
        {
          "internalType": "address",
          "name": "_account",
          "type": "address"
        },
        {
          "internalType": "uint256",
          "name": "_orderIndex",
          "type": "uint256"
        },
        {
          "internalType": "address payable",
          "name": "_feeReceiver",
          "type": "address"
        }
      ],
      "name": "executeDecreaseOrder",
      "outputs": [],
      "stateMutability": "nonpayable",
      "type": "function"
    },
    {
      "inputs": [
        {
          "internalType": "address",
          "name": "_account",
          "type": "address"
        },
        {
          "internalType": "uint256",
          "name": "_orderIndex",
          "type": "uint256"
        },
        {
          "internalType": "address payable",
          "name": "_feeReceiver",
          "type": "address"
        }
      ],
      "name": "executeIncreaseOrder",
      "outputs": [],
      "stateMutability": "nonpayable",
      "type": "function"
    },
    {
      "inputs": [
        {
          "internalType": "address",
          "name": "_account",
          "type": "address"
        },
        {
          "internalType": "uint256",
          "name": "_orderIndex",
          "type": "uint256"
        },
        {
          "internalType": "address payable",
          "name": "_feeReceiver",
          "type": "address"
        }
      ],
      "name": "executeSwapOrder",
      "outputs": [],
      "stateMutability": "nonpayable",
      "type": "function"
    },
    {
      "inputs": [
        {
          "internalType": "address",
          "name": "",
          "type": "address"
        }
      ],
      "name": "feeReserves",
      "outputs": [
        {
          "internalType": "uint256",
          "name": "",
          "type": "uint256"
        }
      ],
      "stateMutability": "view",
      "type": "function"
    },
    {
      "inputs": [],
      "name": "inLegacyMode",
      "outputs": [
        {
          "internalType": "bool",
          "name": "",
          "type": "bool"
        }
      ],
      "stateMutability": "view",
      "type": "function"
    },
    {
      "inputs": [
        {
          "internalType": "address[]",
          "name": "_path",
          "type": "address[]"
        },
        {
          "internalType": "address",
          "name": "_indexToken",
          "type": "address"
        },
        {
          "internalType": "uint256",
          "name": "_amountIn",
          "type": "uint256"
        },
        {
          "internalType": "uint256",
          "name": "_minOut",
          "type": "uint256"
        },
        {
          "internalType": "uint256",
          "name": "_sizeDelta",
          "type": "uint256"
        },
        {
          "internalType": "bool",
          "name": "_isLong",
          "type": "bool"
        },
        {
          "internalType": "uint256",
          "name": "_price",
          "type": "uint256"
        }
      ],
      "name": "increasePosition",
      "outputs": [],
      "stateMutability": "nonpayable",
      "type": "function"
    },
    {
      "inputs": [],
      "name": "increasePositionBufferBps",
      "outputs": [
        {
          "internalType": "uint256",
          "name": "",
          "type": "uint256"
        }
      ],
      "stateMutability": "view",
      "type": "function"
    },
    {
      "inputs": [
        {
          "internalType": "address[]",
          "name": "_path",
          "type": "address[]"
        },
        {
          "internalType": "address",
          "name": "_indexToken",
          "type": "address"
        },
        {
          "internalType": "uint256",
          "name": "_minOut",
          "type": "uint256"
        },
        {
          "internalType": "uint256",
          "name": "_sizeDelta",
          "type": "uint256"
        },
        {
          "internalType": "bool",
          "name": "_isLong",
          "type": "bool"
        },
        {
          "internalType": "uint256",
          "name": "_price",
          "type": "uint256"
        }
      ],
      "name": "increasePositionETH",
      "outputs": [],
      "stateMutability": "payable",
      "type": "function"
    },
    {
      "inputs": [
        {
          "internalType": "address",
          "name": "",
          "type": "address"
        }
      ],
      "name": "isLiquidator",
      "outputs": [
        {
          "internalType": "bool",
          "name": "",
          "type": "bool"
        }
      ],
      "stateMutability": "view",
      "type": "function"
    },
    {
      "inputs": [
        {
          "internalType": "address",
          "name": "",
          "type": "address"
        }
      ],
      "name": "isOrderKeeper",
      "outputs": [
        {
          "internalType": "bool",
          "name": "",
          "type": "bool"
        }
      ],
      "stateMutability": "view",
      "type": "function"
    },
    {
      "inputs": [
        {
          "internalType": "address",
          "name": "",
          "type": "address"
        }
      ],
      "name": "isPartner",
      "outputs": [
        {
          "internalType": "bool",
          "name": "",
          "type": "bool"
        }
      ],
      "stateMutability": "view",
      "type": "function"
    },
    {
      "inputs": [
        {
          "internalType": "address",
          "name": "_account",
          "type": "address"
        },
        {
          "internalType": "address",
          "name": "_collateralToken",
          "type": "address"
        },
        {
          "internalType": "address",
          "name": "_indexToken",
          "type": "address"
        },
        {
          "internalType": "bool",
          "name": "_isLong",
          "type": "bool"
        },
        {
          "internalType": "address",
          "name": "_feeReceiver",
          "type": "address"
        }
      ],
      "name": "liquidatePosition",
      "outputs": [],
      "stateMutability": "nonpayable",
      "type": "function"
    },
    {
      "inputs": [
        {
          "internalType": "address",
          "name": "",
          "type": "address"
        }
      ],
      "name": "maxGlobalLongSizes",
      "outputs": [
        {
          "internalType": "uint256",
          "name": "",
          "type": "uint256"
        }
      ],
      "stateMutability": "view",
      "type": "function"
    },
    {
      "inputs": [
        {
          "internalType": "address",
          "name": "",
          "type": "address"
        }
      ],
      "name": "maxGlobalShortSizes",
      "outputs": [
        {
          "internalType": "uint256",
          "name": "",
          "type": "uint256"
        }
      ],
      "stateMutability": "view",
      "type": "function"
    },
    {
      "inputs": [],
      "name": "orderBook",
      "outputs": [
        {
          "internalType": "address",
          "name": "",
          "type": "address"
        }
      ],
      "stateMutability": "view",
      "type": "function"
    },
    {
      "inputs": [],
      "name": "owner",
      "outputs": [
        {
          "internalType": "address",
          "name": "",
          "type": "address"
        }
      ],
      "stateMutability": "view",
      "type": "function"
    },
    {
      "inputs": [],
      "name": "referralStorage",
      "outputs": [
        {
          "internalType": "address",
          "name": "",
          "type": "address"
        }
      ],
      "stateMutability": "view",
      "type": "function"
    },
    {
      "inputs": [],
      "name": "renounceOwnership",
      "outputs": [],
      "stateMutability": "nonpayable",
      "type": "function"
    },
    {
      "inputs": [],
      "name": "router",
      "outputs": [
        {
          "internalType": "address",
          "name": "",
          "type": "address"
        }
      ],
      "stateMutability": "view",
      "type": "function"
    },
    {
      "inputs": [
        {
          "internalType": "address payable",
          "name": "_receiver",
          "type": "address"
        },
        {
          "internalType": "uint256",
          "name": "_amount",
          "type": "uint256"
        }
      ],
      "name": "sendValue",
      "outputs": [],
      "stateMutability": "nonpayable",
      "type": "function"
    },
    {
      "inputs": [
        {
          "internalType": "address",
          "name": "_admin",
          "type": "address"
        }
      ],
      "name": "setAdmin",
      "outputs": [],
      "stateMutability": "nonpayable",
      "type": "function"
    },
    {
      "inputs": [
        {
          "internalType": "uint256",
          "name": "_depositFee",
          "type": "uint256"
        }
      ],
      "name": "setDepositFee",
      "outputs": [],
      "stateMutability": "nonpayable",
      "type": "function"
    },
    {
      "inputs": [
        {
          "internalType": "bool",
          "name": "_inLegacyMode",
          "type": "bool"
        }
      ],
      "name": "setInLegacyMode",
      "outputs": [],
      "stateMutability": "nonpayable",
      "type": "function"
    },
    {
      "inputs": [
        {
          "internalType": "uint256",
          "name": "_increasePositionBufferBps",
          "type": "uint256"
        }
      ],
      "name": "setIncreasePositionBufferBps",
      "outputs": [],
      "stateMutability": "nonpayable",
      "type": "function"
    },
    {
      "inputs": [
        {
          "internalType": "address",
          "name": "_account",
          "type": "address"
        },
        {
          "internalType": "bool",
          "name": "_isActive",
          "type": "bool"
        }
      ],
      "name": "setLiquidator",
      "outputs": [],
      "stateMutability": "nonpayable",
      "type": "function"
    },
    {
      "inputs": [
        {
          "internalType": "address[]",
          "name": "_tokens",
          "type": "address[]"
        },
        {
          "internalType": "uint256[]",
          "name": "_longSizes",
          "type": "uint256[]"
        },
        {
          "internalType": "uint256[]",
          "name": "_shortSizes",
          "type": "uint256[]"
        }
      ],
      "name": "setMaxGlobalSizes",
      "outputs": [],
      "stateMutability": "nonpayable",
      "type": "function"
    },
    {
      "inputs": [
        {
          "internalType": "address",
          "name": "_account",
          "type": "address"
        },
        {
          "internalType": "bool",
          "name": "_isActive",
          "type": "bool"
        }
      ],
      "name": "setOrderKeeper",
      "outputs": [],
      "stateMutability": "nonpayable",
      "type": "function"
    },
    {
      "inputs": [
        {
          "internalType": "address",
          "name": "_account",
          "type": "address"
        },
        {
          "internalType": "bool",
          "name": "_isActive",
          "type": "bool"
        }
      ],
      "name": "setPartner",
      "outputs": [],
      "stateMutability": "nonpayable",
      "type": "function"
    },
    {
      "inputs": [
        {
          "internalType": "address",
          "name": "_referralStorage",
          "type": "address"
        }
      ],
      "name": "setReferralStorage",
      "outputs": [],
      "stateMutability": "nonpayable",
      "type": "function"
    },
    {
      "inputs": [
        {
          "internalType": "bool",
          "name": "_shouldValidateIncreaseOrder",
          "type": "bool"
        }
      ],
      "name": "setShouldValidateIncreaseOrder",
      "outputs": [],
      "stateMutability": "nonpayable",
      "type": "function"
    },
    {
      "inputs": [],
      "name": "shouldValidateIncreaseOrder",
      "outputs": [
        {
          "internalType": "bool",
          "name": "",
          "type": "bool"
        }
      ],
      "stateMutability": "view",
      "type": "function"
    },
    {
      "inputs": [
        {
          "internalType": "address",
          "name": "newOwner",
          "type": "address"
        }
      ],
      "name": "transferOwnership",
      "outputs": [],
      "stateMutability": "nonpayable",
      "type": "function"
    },
    {
      "inputs": [],
      "name": "vault",
      "outputs": [
        {
          "internalType": "address",
          "name": "",
          "type": "address"
        }
      ],
      "stateMutability": "view",
      "type": "function"
    },
    {
      "inputs": [],
      "name": "weth",
      "outputs": [
        {
          "internalType": "address",
          "name": "",
          "type": "address"
        }
      ],
      "stateMutability": "view",
      "type": "function"
    },
    {
      "inputs": [
        {
          "internalType": "address",
          "name": "_token",
          "type": "address"
        },
        {
          "internalType": "address",
          "name": "_receiver",
          "type": "address"
        }
      ],
      "name": "withdrawFees",
      "outputs": [],
      "stateMutability": "nonpayable",
      "type": "function"
    },
    {
      "stateMutability": "payable",
      "type": "receive"
    }
  ],
  "bytecode": "0x6080346200012b57601f620034d238819003918201601f19168301916001600160401b03831184841017620001305780849260a0946040528339810103126200012b576200004d8162000146565b906200005c6020820162000146565b6200006a6040830162000146565b6200007d60806060850151940162000146565b9260016000556001549460018060a01b03199233848816176001556040519660018060a01b03958680948193823391167f8be0079c531659141344cd1fd0a4f28419497f9722a3daafe3b4186f6b6457e0600080a3606460075516866003541617600355168460045416176004551682600554161760055560065533906002541617600255600c5490600160a81b921690600161ff0160a01b0319161717600c5561337690816200015c8239f35b600080fd5b634e487b7160e01b600052604160045260246000fd5b51906001600160a01b03821682036200012b5756fe608060408181526004918236101561003f575b50361561001e57600080fd5b6005546001600160a01b0316330361003257005b51636edaef2f60e11b8152fd5b600090813560e01c9081626cc35e14611bee5750806307c7edc314611b615780631045c74e14611b2957806311d9444a146118ed578063126082cf146118d05780631b904359146118565780631ce9cb8f1461181e5780631e261538146117a757806321acf65914611715578063233bfe3b146116b957806324a084df1461168c5780633039e37f146115525780633833f5f5146115145780633fc8cef3146114eb578063430ed37c146114365780634453a374146113a75780634584bd4b14611380578063490ae21014611316578063529a356f146112d85780635fc8500e146111df57806367a52793146111c0578063704b6c0214611151578063715018a614611105578063776af5ba146110dc5780638c0f9aac1461109e5780638da5cb5b1461107557806390205d8c14610fe25780639698d25a14610faa57806398d1e03a14610f8b5780639c95332f14610f03578063ae4d7f9a14610e7f578063b32755de14610c87578063b7ddc992146109d5578063d38ab51914610819578063d4ca83f9146107f2578063de2ea948146105e4578063e1f21c6714610539578063ef12c67e146103aa578063f255527814610356578063f2fde38b146102a1578063f851a44014610278578063f887ea401461024c5763fbfa77cf0361001257903461024857816003193601126102485760035490516001600160a01b039091168152602090f35b5080fd5b5091346102745782600319360112610274575490516001600160a01b03909116815260209150f35b8280fd5b50903461024857816003193601126102485760025490516001600160a01b039091168152602090f35b509134610274576020366003190112610274576102bc611c13565b906102c5611de5565b6001600160a01b03918216928315610304575050600180546001600160a01b03198116841790915516600080516020613321833981519152600080a380f35b906020608492519162461bcd60e51b8352820152602660248201527f4f776e61626c653a206e6577206f776e657220697320746865207a65726f206160448201526564647265737360d01b6064820152fd5b509034610248578060031936011261024857610370611c13565b610378611c29565b6002549092906001600160a01b0316330361039b57509061039891611ea8565b80f35b51634755657960e01b81528490fd5b50829034610536576060366003190112610536576001600160401b03918035838111610274576103dd9036908301611d19565b926024948535828111610532576103f79036908501611d87565b916044359081116105325761040f9036908501611d87565b6002546001600160a01b03908116330361052257855b875181101561048c5781610439828a611e60565b5116600b6104478388611e60565b51828a52602090600a8252878b20556104608487611e60565b51928a525284882055600019811461047a57600101610425565b634e487b7160e01b8752601186528887fd5b5086939594508251936060850191606086528151809352608086019260208093019188905b8282106105095750505050916104f6827fae32d569b058895b9620d6552b09aaffedc9a6f396be4d595a224ad09f8b2139979861050395888098960390880152611e74565b9184830390850152611e74565b0390a180f35b83518116865294840194928401926001909101906104b1565b8251634755657960e01b81528590fd5b8480fd5b80fd5b509190346102745760603660031901126102745760206105899261055b611c13565b610563611c29565b61056b611de5565b86855180978195829463095ea7b360e01b8452604435918401611f1c565b03926001600160a01b03165af19081156105db57506105a6575080f35b6020813d82116105d3575b816105be60209383611cdf565b81010312610248576105cf906120a9565b5080f35b3d91506105b1565b513d84823e3d90fd5b5082346102485760a0366003190112610248576105ff611c13565b92610608611c29565b6001600160a01b0360443581811696929492908790036107ed576064358015158091036107ed57608435908382168092036107ed5761064b600289541415612259565b60028855338852600f60205260ff8689205416156107dd5787988460035416948751638da5cb5b60e01b815260208189818a5afa9081156107d3579082918c91610798575b501698893b156107765788516306d63c1d60e41b81528089018890528b81602481838f5af1801561078e57908c9161077a575b5050863b15610776578851631bc5d52960e31b815295821688870152166024850152604484015260648301526084820152858160a48183865af1801561076c57908691610758575b5050833b156105325760248592838551968794859363d3c87bbb60e01b85528401525af19081156105db5750610744575b506001905580f35b61074d90611cb6565b61053657808261073c565b61076190611cb6565b61053257848761070b565b84513d88823e3d90fd5b8a80fd5b61078390611cb6565b610776578a8d6106c3565b8a513d8e823e3d90fd5b9150506020813d82116107cb575b816107b360209383611cdf565b81010312610776576107c582916122f3565b8d610690565b3d91506107a6565b89513d8d823e3d90fd5b8551631dd2188d60e31b81528590fd5b600080fd5b50903461024857816003193601126102485760209060ff600c5460a01c1690519015158152f35b5091346102745761082936611c55565b91939092338652600d60205260ff8287205416156109c7579085929161084f85876130bd565b6003548351638da5cb5b60e01b815291966001600160a01b0395918616926020818681875afa9081156109bd579087918991610982575b501695863b156109605785516306d63c1d60e41b81528581018590528881602481838c5af1801561097857908991610964575b5050600c541691823b15610960576108ea928892838c89519687958694859363d38ab51960e01b85528c850161309a565b03925af1801561076c5790869161094c575b5050833b156105325760248592838551968794859363d3c87bbb60e01b85528401525af19081156105db5750610938575b505061039891612766565b61094190611cb6565b61027457823861092d565b61095590611cb6565b6105325784386108fc565b8780fd5b61096d90611cb6565b6109605787386108b9565b87513d8b823e3d90fd5b9150506020813d82116109b5575b8161099d60209383611cdf565b81010312610960576109af87916122f3565b38610886565b3d9150610990565b86513d8a823e3d90fd5b9051631dd2188d60e31b8152fd5b5090346102485760e03660031901126102485782356001600160401b03811161027457610a059036908501611d19565b90610a0e611c29565b604435906084359160a4359384151585036107ed57610a31600288541415612259565b60028755338752600e60205260ff81882054161580610c77575b610c685781865160018114159081610c5c575b50610c4c5780610abb575b5050845160001981019591508511610aa857949550610aa19460c435946001600160a01b0391610a999190611e60565b511633612307565b6001815580f35b634e487b7160e01b865260118752602486fd5b8651600103610baf575087546001600160a01b0390811690610adc88611e3d565b5116813b15610bab578383928a92838d610b0d9751978895869485936303704f0f60e31b85523091339186016122a5565b03925af1908115610ba25750838886938893610b82575b5050610b32935b88336129db565b84516000198101908111610b6f57610b6791906001600160a01b03908190610b5a9089611e60565b5116906003541690611f37565b388080610a69565b634e487b7160e01b875260118852602487fd5b91509250610b909150611cb6565b610b9e578284838838610b24565b8580fd5b513d89823e3d90fd5b8880fd5b88549092506001600160a01b0390811681610bc989611e3d565b5116916003541691813b15610c4857908a8a809493610bfd8751988996879586946303704f0f60e31b8652339186016122a5565b03925af1908115610c3f5750908691610c2b575b5050610b32828483610c26306064358a612898565b610b2b565b610c3490611cb6565b610532578438610c11565b513d88823e3d90fd5b8980fd5b81516366b045ff60e11b81528990fd5b60029150141538610a5e565b51631dd2188d60e31b81528790fd5b5060ff600c5460a01c1615610a4b565b509060c03660031901126102485782356001600160401b03811161027457610cb29036908501611d19565b90610cbb611c29565b60643590610cc7611ca7565b92610cd6600287541415612259565b60028655338652600e60205260ff81872054161580610e6f575b610e6057845160018114159081610e54575b50610e45576001600160a01b039081610d1a87611e3d565b51168260055416809103610e2e5734151580610d55575b50508551600019810191508111610b6f57610aa1969750610a999060a43596611e60565b610deb575b5050348385846001895111610dba575b610d759389336129db565b85516000198101908111610da7579082610d92610d9f9389611e60565b5116836003541690611f37565b388080610d31565b634e487b7160e01b885260118952602488fd5b505050610dd1908260055416836003541690611f37565b610d75838584610de4306044358b612898565b9350610d6a565b803b156109605790878992825193848092630d0e30db60e41b825234905af1908115610ba2575090879115610d5a57610e2390611cb6565b610b9e578538610d5a565b815163130dcd6560e01b8152808a01899052602490fd5b516366b045ff60e11b81528690fd5b60029150141538610d02565b51631dd2188d60e31b81528690fd5b5060ff600c5460a01c1615610cf0565b50913461027457602036600319011261027457610e9a611c13565b6002546001600160a01b03929083163303610ef55750600880546001600160a01b03191692909116918217905590519081527f828abcccea18192c21d645e575652c49e20b986dab777906fc473d056b01b6a890602090a180f35b8351634755657960e01b8152fd5b50913461027457602036600319011261027457610f1e611c89565b6002549091906001600160a01b03163303610f7d57507feac6b3611e79ff0d8ea5daa8439f6b1ab7eea4ebf95f1dd360417f712c3fc30491602091151590600c5460ff60a01b8360a01b169060ff60a01b191617600c5551908152a180f35b8251634755657960e01b8152fd5b5090346102485781600319360112610248576020906007549051908152f35b5090346102485760203660031901126102485760209181906001600160a01b03610fd2611c13565b168152600b845220549051908152f35b5090346102485760e036600319011261024857610ffd611c13565b90611006611c29565b61100e611ca7565b90611017611c3f565b92611026600287541415612259565b60028655338652600e60205260ff81872054161580611065575b610e60575061105d94955060c43593606435916044359133612c6b565b506001815580f35b5060ff600c5460a01c1615611040565b50903461024857816003193601126102485760015490516001600160a01b039091168152602090f35b5090346102485760203660031901126102485760209160ff9082906001600160a01b036110c9611c13565b168152600e855220541690519015158152f35b509034610248578160031936011261024857600c5490516001600160a01b039091168152602090f35b503461053657806003193601126105365761111e611de5565b600180546001600160a01b031981169091556000906001600160a01b03166000805160206133218339815191528280a380f35b5090346102485760203660031901126102485760207f5a272403b402d892977df56625f4164ccaf70ca3863991c43ecfe76a6905b0a191611190611c13565b611198611de5565b600280546001600160a01b0319166001600160a01b039290921691821790559051908152a180f35b5090346102485781600319360112610248576020906006549051908152f35b509034610248576101003660031901126102485782356001600160401b038111610274576112109036908501611d19565b611218611c29565b611220611ca7565b94611229611c3f565b93611238600287541415612259565b60028655338652600e60205260ff818720541615806112c8575b6112bb5760028451036112ae5750939461105d94506112a5916001600160a01b039161129a91908361128387611e3d565b51169060c435923092606435916044359133612c6b565b9080610b5a85611e3d565b60e43590612898565b516366b045ff60e11b8152fd5b51631dd2188d60e31b8152fd5b5060ff600c5460a01c1615611252565b5090346102485760203660031901126102485760209160ff9082906001600160a01b03611303611c13565b168152600f855220541690519015158152f35b5091903461027457602036600319011261027457600254823592906001600160a01b031633036113725750816020917f974fd3c1fcb4653dfc4fb740c4c692cd212d55c28f163f310128cb64d83006759360065551908152a180f35b9051634755657960e01b8152fd5b50903461024857816003193601126102485760209060ff600c5460a81c1690519015158152f35b5091346102745781600319360112610274576113c1611c13565b906113ca611c98565b60025490926001600160a01b03929091831633036114285750916020917f8c0d56805c3b43d441481229dc64bee168253ffe4305f37ab7cfe63b1c4268c6931693848652600f835261141e82828820612248565b519015158152a280f35b8451634755657960e01b8152fd5b5091346102745760e036600319011261027457611451611c13565b611459611c29565b91611462611ca7565b9061146b611c3f565b9461147a600288541415612259565b60028755338752600e60205260ff818820541615806114db575b6112bb576005546001600160a01b03908116908516036114ce5786610aa1876114c960c43530886064356044358d8d33612c6b565b613042565b51633a001e0560e11b8152fd5b5060ff600c5460a01c1615611494565b50903461024857816003193601126102485760055490516001600160a01b039091168152602090f35b5090346102485760203660031901126102485760209160ff9082906001600160a01b0361153f611c13565b168152600d855220541690519015158152f35b5034610536576101003660031901126105365782356001600160401b038111610248576115829036908501611d19565b9161158b611c29565b611593611ca7565b61159b611c3f565b926115aa600286541415612259565b60028555338552600e60205260ff8186205416158061167c575b610e60576002865103610e45578551600019919082810190811161166957906115fb959697989160018060a01b039687918b611e60565b511686600554160361162e5787610aa1886114c98c6116238b61129a8c8c8361128387611e3d565b309060e43590612898565b6024935087895193840193841161165757505163130dcd6560e01b815260ff9290921690820152fd5b634e487b7160e01b8152601183528490fd5b634e487b7160e01b875260118952602487fd5b5060ff600c5460a01c16156115c4565b50903461024857366003190112610536576103986116a8611c13565b6116b0611de5565b60243590612170565b5091903461027457602036600319011261027457600254823592906001600160a01b031633036113725750816020917f21167d0d4661af93817ebce920f18986eed3d75d5e1c03f2aed05efcbafbc4529360075551908152a180f35b50903461024857806003193601126102485761172f611c13565b611737611c98565b60025490916001600160a01b039182163303611797577fa4e46c70ff429a91de7d1716d736e877c7cca1c22ac850b23d242530dd95e4749495501690818552600e60205261178781848720612248565b825191825215156020820152a180f35b8351634755657960e01b81528690fd5b5091346102745781600319360112610274576117c1611c13565b906117ca611c98565b60025490926001600160a01b03929091831633036114285750916020917f1d5bc0255b943d6a5b5279e8a55d74d620baccbceecb25e87a3558f14c4c118e931693848652600d835261141e82828820612248565b5090346102485760203660031901126102485760209181906001600160a01b03611846611c13565b1681526009845220549051908152f35b50913461027457602036600319011261027457611871611c89565b6002549091906001600160a01b03163303610f7d57507fa956222e37fe025ff51e5440ac729a9bd417ff91e485e14dcffa2c0ba8894f4091602091151590600c5460ff60a81b8360a81b169060ff60a81b191617600c5551908152a180f35b509034610248578160031936011261024857602090516127108152f35b50919034610274576118fe36611c55565b91929093338652600d60205260ff8287205416156109c7576003548251638da5cb5b60e01b81529587946001600160a01b039493928516916020898581865afa8015611b1f5788998891611ae0575b5086600c54168651998a8092630130197760e11b8252816101009d8e94888c83019161197892611f1c565b03915afa998a1561097857899a611a7a575b5050861695863b156109605785516306d63c1d60e41b81528581018590528881602481838c5af1801561097857908991611a66575b5050600c541691823b15610960576119f0928892838c8951968795869485936308eca22560e11b85528c850161309a565b03925af1801561076c57908691611a52575b5050833b156105325760248592838551968794859363d3c87bbb60e01b85528401525af19081156105db5750611a3e575b505061039891612f2f565b611a4790611cb6565b610274578238611a33565b611a5b90611cb6565b610532578438611a02565b611a6f90611cb6565b6109605787386119bf565b9080929a50813d8311611ad9575b611a928183611cdf565b810103126109605780611aa588926122f3565b50611ab18782016122f3565b50611ad060c0606083015192611ac9608082016120a9565b50016120a9565b5098903861198a565b503d611a88565b9850506020883d8211611b17575b81611afb60209383611cdf565b81010312611b1357611b0d89986122f3565b3861194d565b8680fd5b3d9150611aee565b85513d89823e3d90fd5b5090346102485760203660031901126102485760209181906001600160a01b03611b51611c13565b168152600a845220549051908152f35b5091903461027457611b7236611c55565b939091338652600d60205260ff848720541615611bdf57600c548693926001600160a01b039091169190823b15610532578490611bc28751988996879586946307c7edc360e01b8652850161309a565b03925af19081156105db5750611bd6575080f35b61039890611cb6565b508251631dd2188d60e31b8152fd5b9050346102485781600319360112610248576008546001600160a01b03168152602090f35b600435906001600160a01b03821682036107ed57565b602435906001600160a01b03821682036107ed57565b60a435906001600160a01b03821682036107ed57565b60609060031901126107ed576001600160a01b0360043581811681036107ed57916024359160443590811681036107ed5790565b6004359081151582036107ed57565b6024359081151582036107ed57565b6084359081151582036107ed57565b6001600160401b038111611cc957604052565b634e487b7160e01b600052604160045260246000fd5b601f909101601f19168101906001600160401b03821190821017611cc957604052565b6001600160401b038111611cc95760051b60200190565b81601f820112156107ed57803591611d3083611d02565b92611d3e6040519485611cdf565b808452602092838086019260051b8201019283116107ed578301905b828210611d68575050505090565b81356001600160a01b03811681036107ed578152908301908301611d5a565b81601f820112156107ed57803591611d9e83611d02565b92611dac6040519485611cdf565b808452602092838086019260051b8201019283116107ed578301905b828210611dd6575050505090565b81358152908301908301611dc8565b6001546001600160a01b03163303611df957565b606460405162461bcd60e51b815260206004820152602060248201527f4f776e61626c653a2063616c6c6572206973206e6f7420746865206f776e65726044820152fd5b805115611e4a5760200190565b634e487b7160e01b600052603260045260246000fd5b8051821015611e4a5760209160051b010190565b90815180825260208080930193019160005b828110611e94575050505090565b835185529381019392810192600101611e86565b6001600160a01b039081166000818152600960205260409020549192918015611f16577f4f1b51dd7a2fcb861aa2670f668be66835c4ee12b4bbbf037e4d0018f39819e49360609360006040812055611f02838286611f37565b6040519384521660208301526040820152a1565b50505050565b6001600160a01b039091168152602081019190915260400190565b604091825191611f6c83611f5e6020978883019563a9059cbb60e01b875260248401611f1c565b03601f198101855284611cdf565b8351926001600160a01b039190911691908385016001600160401b03811185821017611cc95785528584527f5361666545524332303a206c6f772d6c6576656c2063616c6c206661696c656486850152823b1561206557611fe0939260009283809351925af1611fda6120b6565b906120f5565b805180611fed5750505050565b818491810103126107ed578261200391016120a9565b1561200f578080611f16565b60849250519062461bcd60e51b82526004820152602a60248201527f5361666545524332303a204552433230206f7065726174696f6e20646964206e6044820152691bdd081cdd58d8d9595960b21b6064820152fd5b845162461bcd60e51b815260048101879052601d60248201527f416464726573733a2063616c6c20746f206e6f6e2d636f6e74726163740000006044820152606490fd5b519081151582036107ed57565b3d156120f0573d906001600160401b038211611cc957604051916120e4601f8201601f191660200184611cdf565b82523d6000602084013e565b606090565b90919015612101575090565b8151156121115750805190602001fd5b6040519062461bcd60e51b82528160208060048301528251908160248401526000935b828510612157575050604492506000838284010152601f80199101168101030190fd5b8481018201518686016044015293810193859350612134565b814710612203576000918291829182916001600160a01b03165af16121936120b6565b501561219b57565b60405162461bcd60e51b815260206004820152603a60248201527f416464726573733a20756e61626c6520746f2073656e642076616c75652c20726044820152791958da5c1a595b9d081b585e481a185d99481c995d995c9d195960321b6064820152608490fd5b60405162461bcd60e51b815260206004820152601d60248201527f416464726573733a20696e73756666696369656e742062616c616e63650000006044820152606490fd5b9060ff801983541691151516179055565b1561226057565b60405162461bcd60e51b815260206004820152601f60248201527f5265656e7472616e637947756172643a207265656e7472616e742063616c6c006044820152606490fd5b6001600160a01b03918216815291811660208301529091166040820152606081019190915260800190565b919082018092116122dd57565b634e487b7160e01b600052601160045260246000fd5b51906001600160a01b03821682036107ed57565b600354949660009690959193926001600160a01b03928316929189156126a057604051637092736960e11b81528584166004820152602081602481885afa9081156125aa578a9161266f575b501161265d575b88156125b557818416808952600a60205260408920548015159182612535575b5050612523575b6040938451638da5cb5b60e01b8152602081600481885afa908115612519579084918b916124de575b501692833b15610c485785516306d63c1d60e41b8152600481018690529a8a8c60248183895af180156124d4576124ba575b8a9b508160049b98999a9b541690813b15610bab578860a4928b92858397818d519a8b998a98630f8ee8bb60e11b8a521660048901521660248701521660448501528d6064850152151560848401525af180156124b05790859161249c575b5050803b1561248f57602484928451958693849263d3c87bbb60e01b845260048401525af1908115612493575061247b575b50612479929350612766565b565b6124858591611cb6565b61248f578361246d565b8380fd5b513d87823e3d90fd5b6124a590611cb6565b61248f57833861243b565b84513d87823e3d90fd5b96979899909a6124c990611cb6565b989796958a906123dc565b87513d8d823e3d90fd5b9150506020813d8211612511575b816124f960209383611cdf565b81010312610c485761250b84916122f3565b386123aa565b3d91506124ec565b86513d8c823e3d90fd5b6040516327e1f89160e11b8152600490fd5b9091506040519063783a2b6760e11b82526004820152602081602481885afa80156125aa5788908b90612575575b61256d92506122d0565b11388061237a565b50506020813d82116125a2575b8161258f60209383611cdf565b81010312610c48578761256d9151612563565b3d9150612582565b6040513d8c823e3d90fd5b818416808952600b602052604089205480151591826125e8575b50501561238157604051631cfb746d60e21b8152600490fd5b9091506040519063114f1b5560e31b82526004820152602081602481885afa80156125aa5788908b90612628575b61262092506122d0565b1138806125cf565b50506020813d8211612655575b8161264260209383611cdf565b81010312610c4857876126209151612616565b3d9150612635565b604051636dddf41160e11b8152600490fd5b90506020813d8211612698575b8161268960209383611cdf565b81010312610c48575138612353565b3d915061267c565b6040516340d3096b60e11b81528584166004820152602081602481885afa9081156125aa578a916126e5575b50101561235a5760405163127f08c960e11b8152600490fd5b90506020813d821161270e575b816126ff60209383611cdf565b81010312610c485751386126cc565b3d91506126f2565b91908260409103126107ed576127306020835193016122f3565b90565b6001600160a01b039182168152602081019290925260408201929092526060810192909252909116608082015260a00190565b6008546001600160a01b039392919084168015612891576040805163534ef88360e01b81528387166004820152918190839060249082905afa95861561284a576000928397612855575b509060206004926003541682519384809263318bc68960e01b82525afa91821561284a57600092612815575b50917fc2414023ce7002ee98557d1e7be21e5559073336f2217ee5f9b2e50fd85f71ee959691612810935195869586612733565b0390a1565b90916020823d8211612842575b8161282f60209383611cdf565b81010312610536575051906128106127dc565b3d9150612822565b50513d6000823e3d90fd5b829197506020935061287e906004933d841161288a575b6128768183611cdf565b810190612716565b939093979192506127b0565b503d61286c565b5050509050565b9160009260028151146128b7576040516366b045ff60e11b8152600490fd5b6001600160a01b0390816128ca82611e3d565b51169080516001101561297d578291866020946040606494015116938060035416906040519788968795634998b10960e11b8752600487015260248601521660448401525af192831561297157809361293b575b505081106129295790565b604051637294b85560e11b8152600490fd5b909192506020823d8211612969575b8161295760209383611cdf565b8101031261053657505190388061291e565b3d915061294a565b604051903d90823e3d90fd5b634e487b7160e01b86526032600452602486fd5b90612710918281029281840414901517156122dd57565b818102929181159184041417156122dd57565b81156129c5570490565b634e487b7160e01b600052601260045260246000fd5b9282826129ed95979497969396612ad8565b6129f5575090565b906006546127109081038181116122dd57612a1090836129a8565b04918282039182116122dd5780516000198101919082116122dd57612a59916001600160a01b0391612a429190611e60565b5116918260005260096020526040600020546122d0565b90600052600960205260406000205590565b9190826101009103126107ed5781519160208101519160408201519160608101519160808201519160a08101519160e0612aa760c084016120a9565b92015190565b6001600160a01b03918216815291811660208301529091166040820152901515606082015260800190565b93949092918515612c18578115612c605783516000198101959086116122dd576001600160a01b0395612b3b958791612b1091611e60565b511696879660035416946040519687928392634a3f088d60e01b84526101009b8c9660048601612aad565b0381865afa938415612c0c576000968795612c23575b50508515612c1857612b8692612b69602093886122d0565b95604051809581948293630a48d5a960e01b845260048401611f1c565b03915afa908115612c0c57600091612bd9575b5090612bb1612bab612bb693836122d0565b94612991565b6129bb565b91600754916127109283018093116122dd57612bd592612bb1916129a8565b1090565b906020823d8211612c04575b81612bf260209383611cdf565b81010312610536575051612bb1612b99565b3d9150612be5565b6040513d6000823e3d90fd5b505050505050600090565b612c489397508091929550903d10612c59575b612c408183611cdf565b810190612a6b565b505050505050949094923880612b51565b503d612c36565b505050505050600190565b60035493979496909560009590946001600160a01b03908116939290918615612eb957604051637092736960e11b81528684166004820152602081602481895afa908115612eae578991612e7d575b501161265d575b60409586519a638da5cb5b60e01b8c5260209b8c816004818a5afa908115612e73579085918b91612e3b575b501696873b15610c485788516306d63c1d60e41b8152600481018890528a81602481838d5af18015612e3157928c94928f979694928f93612e0c575b50600480548d51632662166b60e01b81529789169188019190915298871660248701528616604486015260648501526084840152151560a4830152821660c482015292839160e49183918a91165af19788156124b0578598612ddc575b5050813b1561248f5782916024859492859351958693849263d3c87bbb60e01b845260048401525af19081156105db5750612dc8575b50509061273091612f2f565b612dd28291611cb6565b6105365780612dbc565b9080929850813d8311612e05575b612df48183611cdf565b810103126107ed5751953880612d86565b503d612dea565b938c9388959e86949f612e229099989499611cb6565b9e935093509395909495612d29565b8a513d8d823e3d90fd5b8092508e8092503d8311612e6c575b612e548183611cdf565b81010312610c4857612e6685916122f3565b38612ced565b503d612e4a565b89513d8c823e3d90fd5b90506020813d8211612ea6575b81612e9760209383611cdf565b81010312610bab575138612cba565b3d9150612e8a565b6040513d8b823e3d90fd5b6040516340d3096b60e11b81528684166004820152602081602481895afa908115612eae578991612efe575b501015612cc15760405163127f08c960e11b8152600490fd5b90506020813d8211612f27575b81612f1860209383611cdf565b81010312610bab575138612ee5565b3d9150612f0b565b6008546001600160a01b039392919084168015612891576040805163534ef88360e01b81528387166004820152918190839060249082905afa95861561284a57600092839761301d575b508215613014579060206004926003541682519384809263318bc68960e01b82525afa91821561284a57600092612fdf575b50917f474c763ff84bf2c2039a6d9fea955ecd0f724030e3c365b91169c6a16fe751b7959691612810935195869586612733565b90916020823d821161300c575b81612ff960209383611cdf565b8101031261053657505190612810612fab565b3d9150612fec565b50505050509050565b909650816130389293503d841161288a576128768183611cdf565b9190919538612f79565b6005546001600160a01b031691823b156107ed5760008093602460405180968193632e1a7d4d60e01b83528760048401525af1928315612c0c576124799361308b575b50612170565b61309490611cb6565b38613085565b6001600160a01b0391821681526020810192909252909116604082015260600190565b600c5490604091825163d3bab1d160e01b8152806130e2610120968560048401611f1c565b6001600160a01b039291879183919003818686165afa93841561323257600094859386958794889a899461329a575b505060a81c60ff161561328f57811561328f57881561327e579061315794939291600354169288519586928392634a3f088d60e01b8452610100998a9660048601612aad565b0381845afa928315613273576000948594613246575b5050831561323d576131a29160209161318689876122d0565b968851809581948293630a48d5a960e01b845260048401611f1c565b03915afa908115613232576000916131ff575b506131d7612bab83612bb16131d16131e0956131e698976122d0565b95612991565b916007546129bb565b906122d0565b106131ef575090565b51633b8ce3df60e11b8152600490fd5b906020823d821161322a575b8161321860209383611cdf565b810103126105365750516131d76131b5565b3d915061320b565b85513d6000823e3d90fd5b50505050505090565b6132629395508091929450903d10612c5957612c408183611cdf565b50505050505092909291388061316d565b86513d6000823e3d90fd5b875163b068a21960e01b8152600490fd5b505050505050505090565b949750995096935093505086813d8311613319575b6132b98183611cdf565b810103126105365750846132cc816122f3565b926020820151946132de8784016122f3565b9360ff6132ed606086016122f3565b9661330b60e061330460a060808a015199016120a9565b9c016120a9565b509795969499929038613111565b503d6132af56fe8be0079c531659141344cd1fd0a4f28419497f9722a3daafe3b4186f6b6457e0a264697066735822122085754e64e3c913f53a3fc3282a4beeba37cf2d6386baf1e96cfc892ab906565964736f6c63430008110033",
  "linkReferences": {},
  "deployedLinkReferences": {}
}