{
  "_format": "hh-sol-artifact-1",
  "contractName": "PositionManager",
  "sourceName": "contracts/core/PositionManager.sol",
  "abi": [
    {
      "inputs": [
        {
          "internalType": "address",
          "name": "_vault",
          "type": "address"
        },
        {
          "internalType": "address",
          "name": "_router",
          "type": "address"
        },
        {
          "internalType": "address",
          "name": "_weth",
          "type": "address"
        },
        {
          "internalType": "uint256",
          "name": "_depositFee",
          "type": "uint256"
        },
        {
          "internalType": "address",
          "name": "_orderBook",
          "type": "address"
        }
      ],
      "stateMutability": "nonpayable",
      "type": "constructor"
    },
    {
      "inputs": [],
      "name": "AdminRestricted",
      "type": "error"
    },
    {
      "inputs": [],
      "name": "Forbidden",
      "type": "error"
    },
    {
      "inputs": [],
      "name": "InvalidSender",
      "type": "error"
    },
    {
      "anonymous": false,
      "inputs": [
        {
          "indexed": false,
          "internalType": "address",
          "name": "account",
          "type": "address"
        },
        {
          "indexed": false,
          "internalType": "uint256",
          "name": "sizeDelta",
          "type": "uint256"
        },
        {
          "indexed": false,
          "internalType": "uint256",
          "name": "marginFeeBasisPoints",
          "type": "uint256"
        },
        {
          "indexed": false,
          "internalType": "bytes32",
          "name": "referralCode",
          "type": "bytes32"
        },
        {
          "indexed": false,
          "internalType": "address",
          "name": "referrer",
          "type": "address"
        }
      ],
      "name": "DecreasePositionReferral",
      "type": "event"
    },
    {
      "anonymous": false,
      "inputs": [
        {
          "indexed": false,
          "internalType": "address",
          "name": "account",
          "type": "address"
        },
        {
          "indexed": false,
          "internalType": "uint256",
          "name": "sizeDelta",
          "type": "uint256"
        },
        {
          "indexed": false,
          "internalType": "uint256",
          "name": "marginFeeBasisPoints",
          "type": "uint256"
        },
        {
          "indexed": false,
          "internalType": "bytes32",
          "name": "referralCode",
          "type": "bytes32"
        },
        {
          "indexed": false,
          "internalType": "address",
          "name": "referrer",
          "type": "address"
        }
      ],
      "name": "IncreasePositionReferral",
      "type": "event"
    },
    {
      "anonymous": false,
      "inputs": [
        {
          "indexed": false,
          "internalType": "address",
          "name": "admin",
          "type": "address"
        }
      ],
      "name": "SetAdmin",
      "type": "event"
    },
    {
      "anonymous": false,
      "inputs": [
        {
          "indexed": false,
          "internalType": "uint256",
          "name": "depositFee",
          "type": "uint256"
        }
      ],
      "name": "SetDepositFee",
      "type": "event"
    },
    {
      "anonymous": false,
      "inputs": [
        {
          "indexed": false,
          "internalType": "bool",
          "name": "inLegacyMode",
          "type": "bool"
        }
      ],
      "name": "SetInLegacyMode",
      "type": "event"
    },
    {
      "anonymous": false,
      "inputs": [
        {
          "indexed": false,
          "internalType": "uint256",
          "name": "increasePositionBufferBps",
          "type": "uint256"
        }
      ],
      "name": "SetIncreasePositionBufferBps",
      "type": "event"
    },
    {
      "anonymous": false,
      "inputs": [
        {
          "indexed": true,
          "internalType": "address",
          "name": "account",
          "type": "address"
        },
        {
          "indexed": false,
          "internalType": "bool",
          "name": "isActive",
          "type": "bool"
        }
      ],
      "name": "SetLiquidator",
      "type": "event"
    },
    {
      "anonymous": false,
      "inputs": [
        {
          "indexed": false,
          "internalType": "address[]",
          "name": "tokens",
          "type": "address[]"
        },
        {
          "indexed": false,
          "internalType": "uint256[]",
          "name": "longSizes",
          "type": "uint256[]"
        },
        {
          "indexed": false,
          "internalType": "uint256[]",
          "name": "shortSizes",
          "type": "uint256[]"
        }
      ],
      "name": "SetMaxGlobalSizes",
      "type": "event"
    },
    {
      "anonymous": false,
      "inputs": [
        {
          "indexed": true,
          "internalType": "address",
          "name": "account",
          "type": "address"
        },
        {
          "indexed": false,
          "internalType": "bool",
          "name": "isActive",
          "type": "bool"
        }
      ],
      "name": "SetOrderKeeper",
      "type": "event"
    },
    {
      "anonymous": false,
      "inputs": [
        {
          "indexed": false,
          "internalType": "address",
          "name": "account",
          "type": "address"
        },
        {
          "indexed": false,
          "internalType": "bool",
          "name": "isActive",
          "type": "bool"
        }
      ],
      "name": "SetPartner",
      "type": "event"
    },
    {
      "anonymous": false,
      "inputs": [
        {
          "indexed": false,
          "internalType": "address",
          "name": "referralStorage",
          "type": "address"
        }
      ],
      "name": "SetReferralStorage",
      "type": "event"
    },
    {
      "anonymous": false,
      "inputs": [
        {
          "indexed": false,
          "internalType": "bool",
          "name": "shouldValidateIncreaseOrder",
          "type": "bool"
        }
      ],
      "name": "SetShouldValidateIncreaseOrder",
      "type": "event"
    },
    {
      "anonymous": false,
      "inputs": [
        {
          "indexed": false,
          "internalType": "address",
          "name": "token",
          "type": "address"
        },
        {
          "indexed": false,
          "internalType": "address",
          "name": "receiver",
          "type": "address"
        },
        {
          "indexed": false,
          "internalType": "uint256",
          "name": "amount",
          "type": "uint256"
        }
      ],
      "name": "WithdrawFees",
      "type": "event"
    },
    {
      "inputs": [],
      "name": "BASIS_POINTS_DIVISOR",
      "outputs": [
        {
          "internalType": "uint256",
          "name": "",
          "type": "uint256"
        }
      ],
      "stateMutability": "view",
      "type": "function"
    },
    {
      "inputs": [],
      "name": "admin",
      "outputs": [
        {
          "internalType": "address",
          "name": "",
          "type": "address"
        }
      ],
      "stateMutability": "view",
      "type": "function"
    },
    {
      "inputs": [
        {
          "internalType": "address",
          "name": "_token",
          "type": "address"
        },
        {
          "internalType": "address",
          "name": "_spender",
          "type": "address"
        },
        {
          "internalType": "uint256",
          "name": "_amount",
          "type": "uint256"
        }
      ],
      "name": "approve",
      "outputs": [],
      "stateMutability": "nonpayable",
      "type": "function"
    },
    {
      "inputs": [
        {
          "internalType": "address",
          "name": "_collateralToken",
          "type": "address"
        },
        {
          "internalType": "address",
          "name": "_indexToken",
          "type": "address"
        },
        {
          "internalType": "uint256",
          "name": "_collateralDelta",
          "type": "uint256"
        },
        {
          "internalType": "uint256",
          "name": "_sizeDelta",
          "type": "uint256"
        },
        {
          "internalType": "bool",
          "name": "_isLong",
          "type": "bool"
        },
        {
          "internalType": "address",
          "name": "_receiver",
          "type": "address"
        },
        {
          "internalType": "uint256",
          "name": "_price",
          "type": "uint256"
        }
      ],
      "name": "decreasePosition",
      "outputs": [],
      "stateMutability": "nonpayable",
      "type": "function"
    },
    {
      "inputs": [
        {
          "internalType": "address[]",
          "name": "_path",
          "type": "address[]"
        },
        {
          "internalType": "address",
          "name": "_indexToken",
          "type": "address"
        },
        {
          "internalType": "uint256",
          "name": "_collateralDelta",
          "type": "uint256"
        },
        {
          "internalType": "uint256",
          "name": "_sizeDelta",
          "type": "uint256"
        },
        {
          "internalType": "bool",
          "name": "_isLong",
          "type": "bool"
        },
        {
          "internalType": "address",
          "name": "_receiver",
          "type": "address"
        },
        {
          "internalType": "uint256",
          "name": "_price",
          "type": "uint256"
        },
        {
          "internalType": "uint256",
          "name": "_minOut",
          "type": "uint256"
        }
      ],
      "name": "decreasePositionAndSwap",
      "outputs": [],
      "stateMutability": "nonpayable",
      "type": "function"
    },
    {
      "inputs": [
        {
          "internalType": "address[]",
          "name": "_path",
          "type": "address[]"
        },
        {
          "internalType": "address",
          "name": "_indexToken",
          "type": "address"
        },
        {
          "internalType": "uint256",
          "name": "_collateralDelta",
          "type": "uint256"
        },
        {
          "internalType": "uint256",
          "name": "_sizeDelta",
          "type": "uint256"
        },
        {
          "internalType": "bool",
          "name": "_isLong",
          "type": "bool"
        },
        {
          "internalType": "address payable",
          "name": "_receiver",
          "type": "address"
        },
        {
          "internalType": "uint256",
          "name": "_price",
          "type": "uint256"
        },
        {
          "internalType": "uint256",
          "name": "_minOut",
          "type": "uint256"
        }
      ],
      "name": "decreasePositionAndSwapETH",
      "outputs": [],
      "stateMutability": "nonpayable",
      "type": "function"
    },
    {
      "inputs": [
        {
          "internalType": "address",
          "name": "_collateralToken",
          "type": "address"
        },
        {
          "internalType": "address",
          "name": "_indexToken",
          "type": "address"
        },
        {
          "internalType": "uint256",
          "name": "_collateralDelta",
          "type": "uint256"
        },
        {
          "internalType": "uint256",
          "name": "_sizeDelta",
          "type": "uint256"
        },
        {
          "internalType": "bool",
          "name": "_isLong",
          "type": "bool"
        },
        {
          "internalType": "address payable",
          "name": "_receiver",
          "type": "address"
        },
        {
          "internalType": "uint256",
          "name": "_price",
          "type": "uint256"
        }
      ],
      "name": "decreasePositionETH",
      "outputs": [],
      "stateMutability": "nonpayable",
      "type": "function"
    },
    {
      "inputs": [],
      "name": "depositFee",
      "outputs": [
        {
          "internalType": "uint256",
          "name": "",
          "type": "uint256"
        }
      ],
      "stateMutability": "view",
      "type": "function"
    },
    {
      "inputs": [
        {
          "internalType": "address",
          "name": "_account",
          "type": "address"
        },
        {
          "internalType": "uint256",
          "name": "_orderIndex",
          "type": "uint256"
        },
        {
          "internalType": "address payable",
          "name": "_feeReceiver",
          "type": "address"
        }
      ],
      "name": "executeDecreaseOrder",
      "outputs": [],
      "stateMutability": "nonpayable",
      "type": "function"
    },
    {
      "inputs": [
        {
          "internalType": "address",
          "name": "_account",
          "type": "address"
        },
        {
          "internalType": "uint256",
          "name": "_orderIndex",
          "type": "uint256"
        },
        {
          "internalType": "address payable",
          "name": "_feeReceiver",
          "type": "address"
        }
      ],
      "name": "executeIncreaseOrder",
      "outputs": [],
      "stateMutability": "nonpayable",
      "type": "function"
    },
    {
      "inputs": [
        {
          "internalType": "address",
          "name": "_account",
          "type": "address"
        },
        {
          "internalType": "uint256",
          "name": "_orderIndex",
          "type": "uint256"
        },
        {
          "internalType": "address payable",
          "name": "_feeReceiver",
          "type": "address"
        }
      ],
      "name": "executeSwapOrder",
      "outputs": [],
      "stateMutability": "nonpayable",
      "type": "function"
    },
    {
      "inputs": [
        {
          "internalType": "address",
          "name": "",
          "type": "address"
        }
      ],
      "name": "feeReserves",
      "outputs": [
        {
          "internalType": "uint256",
          "name": "",
          "type": "uint256"
        }
      ],
      "stateMutability": "view",
      "type": "function"
    },
    {
      "inputs": [],
      "name": "gov",
      "outputs": [
        {
          "internalType": "address",
          "name": "",
          "type": "address"
        }
      ],
      "stateMutability": "view",
      "type": "function"
    },
    {
      "inputs": [],
      "name": "inLegacyMode",
      "outputs": [
        {
          "internalType": "bool",
          "name": "",
          "type": "bool"
        }
      ],
      "stateMutability": "view",
      "type": "function"
    },
    {
      "inputs": [
        {
          "internalType": "address[]",
          "name": "_path",
          "type": "address[]"
        },
        {
          "internalType": "address",
          "name": "_indexToken",
          "type": "address"
        },
        {
          "internalType": "uint256",
          "name": "_amountIn",
          "type": "uint256"
        },
        {
          "internalType": "uint256",
          "name": "_minOut",
          "type": "uint256"
        },
        {
          "internalType": "uint256",
          "name": "_sizeDelta",
          "type": "uint256"
        },
        {
          "internalType": "bool",
          "name": "_isLong",
          "type": "bool"
        },
        {
          "internalType": "uint256",
          "name": "_price",
          "type": "uint256"
        }
      ],
      "name": "increasePosition",
      "outputs": [],
      "stateMutability": "nonpayable",
      "type": "function"
    },
    {
      "inputs": [],
      "name": "increasePositionBufferBps",
      "outputs": [
        {
          "internalType": "uint256",
          "name": "",
          "type": "uint256"
        }
      ],
      "stateMutability": "view",
      "type": "function"
    },
    {
      "inputs": [
        {
          "internalType": "address[]",
          "name": "_path",
          "type": "address[]"
        },
        {
          "internalType": "address",
          "name": "_indexToken",
          "type": "address"
        },
        {
          "internalType": "uint256",
          "name": "_minOut",
          "type": "uint256"
        },
        {
          "internalType": "uint256",
          "name": "_sizeDelta",
          "type": "uint256"
        },
        {
          "internalType": "bool",
          "name": "_isLong",
          "type": "bool"
        },
        {
          "internalType": "uint256",
          "name": "_price",
          "type": "uint256"
        }
      ],
      "name": "increasePositionETH",
      "outputs": [],
      "stateMutability": "payable",
      "type": "function"
    },
    {
      "inputs": [
        {
          "internalType": "address",
          "name": "",
          "type": "address"
        }
      ],
      "name": "isLiquidator",
      "outputs": [
        {
          "internalType": "bool",
          "name": "",
          "type": "bool"
        }
      ],
      "stateMutability": "view",
      "type": "function"
    },
    {
      "inputs": [
        {
          "internalType": "address",
          "name": "",
          "type": "address"
        }
      ],
      "name": "isOrderKeeper",
      "outputs": [
        {
          "internalType": "bool",
          "name": "",
          "type": "bool"
        }
      ],
      "stateMutability": "view",
      "type": "function"
    },
    {
      "inputs": [
        {
          "internalType": "address",
          "name": "",
          "type": "address"
        }
      ],
      "name": "isPartner",
      "outputs": [
        {
          "internalType": "bool",
          "name": "",
          "type": "bool"
        }
      ],
      "stateMutability": "view",
      "type": "function"
    },
    {
      "inputs": [
        {
          "internalType": "address",
          "name": "_account",
          "type": "address"
        },
        {
          "internalType": "address",
          "name": "_collateralToken",
          "type": "address"
        },
        {
          "internalType": "address",
          "name": "_indexToken",
          "type": "address"
        },
        {
          "internalType": "bool",
          "name": "_isLong",
          "type": "bool"
        },
        {
          "internalType": "address",
          "name": "_feeReceiver",
          "type": "address"
        }
      ],
      "name": "liquidatePosition",
      "outputs": [],
      "stateMutability": "nonpayable",
      "type": "function"
    },
    {
      "inputs": [
        {
          "internalType": "address",
          "name": "",
          "type": "address"
        }
      ],
      "name": "maxGlobalLongSizes",
      "outputs": [
        {
          "internalType": "uint256",
          "name": "",
          "type": "uint256"
        }
      ],
      "stateMutability": "view",
      "type": "function"
    },
    {
      "inputs": [
        {
          "internalType": "address",
          "name": "",
          "type": "address"
        }
      ],
      "name": "maxGlobalShortSizes",
      "outputs": [
        {
          "internalType": "uint256",
          "name": "",
          "type": "uint256"
        }
      ],
      "stateMutability": "view",
      "type": "function"
    },
    {
      "inputs": [],
      "name": "orderBook",
      "outputs": [
        {
          "internalType": "address",
          "name": "",
          "type": "address"
        }
      ],
      "stateMutability": "view",
      "type": "function"
    },
    {
      "inputs": [],
      "name": "referralStorage",
      "outputs": [
        {
          "internalType": "address",
          "name": "",
          "type": "address"
        }
      ],
      "stateMutability": "view",
      "type": "function"
    },
    {
      "inputs": [],
      "name": "router",
      "outputs": [
        {
          "internalType": "address",
          "name": "",
          "type": "address"
        }
      ],
      "stateMutability": "view",
      "type": "function"
    },
    {
      "inputs": [
        {
          "internalType": "address payable",
          "name": "_receiver",
          "type": "address"
        },
        {
          "internalType": "uint256",
          "name": "_amount",
          "type": "uint256"
        }
      ],
      "name": "sendValue",
      "outputs": [],
      "stateMutability": "nonpayable",
      "type": "function"
    },
    {
      "inputs": [
        {
          "internalType": "address",
          "name": "_admin",
          "type": "address"
        }
      ],
      "name": "setAdmin",
      "outputs": [],
      "stateMutability": "nonpayable",
      "type": "function"
    },
    {
      "inputs": [
        {
          "internalType": "uint256",
          "name": "_depositFee",
          "type": "uint256"
        }
      ],
      "name": "setDepositFee",
      "outputs": [],
      "stateMutability": "nonpayable",
      "type": "function"
    },
    {
      "inputs": [
        {
          "internalType": "address",
          "name": "_gov",
          "type": "address"
        }
      ],
      "name": "setGov",
      "outputs": [],
      "stateMutability": "nonpayable",
      "type": "function"
    },
    {
      "inputs": [
        {
          "internalType": "bool",
          "name": "_inLegacyMode",
          "type": "bool"
        }
      ],
      "name": "setInLegacyMode",
      "outputs": [],
      "stateMutability": "nonpayable",
      "type": "function"
    },
    {
      "inputs": [
        {
          "internalType": "uint256",
          "name": "_increasePositionBufferBps",
          "type": "uint256"
        }
      ],
      "name": "setIncreasePositionBufferBps",
      "outputs": [],
      "stateMutability": "nonpayable",
      "type": "function"
    },
    {
      "inputs": [
        {
          "internalType": "address",
          "name": "_account",
          "type": "address"
        },
        {
          "internalType": "bool",
          "name": "_isActive",
          "type": "bool"
        }
      ],
      "name": "setLiquidator",
      "outputs": [],
      "stateMutability": "nonpayable",
      "type": "function"
    },
    {
      "inputs": [
        {
          "internalType": "address[]",
          "name": "_tokens",
          "type": "address[]"
        },
        {
          "internalType": "uint256[]",
          "name": "_longSizes",
          "type": "uint256[]"
        },
        {
          "internalType": "uint256[]",
          "name": "_shortSizes",
          "type": "uint256[]"
        }
      ],
      "name": "setMaxGlobalSizes",
      "outputs": [],
      "stateMutability": "nonpayable",
      "type": "function"
    },
    {
      "inputs": [
        {
          "internalType": "address",
          "name": "_account",
          "type": "address"
        },
        {
          "internalType": "bool",
          "name": "_isActive",
          "type": "bool"
        }
      ],
      "name": "setOrderKeeper",
      "outputs": [],
      "stateMutability": "nonpayable",
      "type": "function"
    },
    {
      "inputs": [
        {
          "internalType": "address",
          "name": "_account",
          "type": "address"
        },
        {
          "internalType": "bool",
          "name": "_isActive",
          "type": "bool"
        }
      ],
      "name": "setPartner",
      "outputs": [],
      "stateMutability": "nonpayable",
      "type": "function"
    },
    {
      "inputs": [
        {
          "internalType": "address",
          "name": "_referralStorage",
          "type": "address"
        }
      ],
      "name": "setReferralStorage",
      "outputs": [],
      "stateMutability": "nonpayable",
      "type": "function"
    },
    {
      "inputs": [
        {
          "internalType": "bool",
          "name": "_shouldValidateIncreaseOrder",
          "type": "bool"
        }
      ],
      "name": "setShouldValidateIncreaseOrder",
      "outputs": [],
      "stateMutability": "nonpayable",
      "type": "function"
    },
    {
      "inputs": [],
      "name": "shouldValidateIncreaseOrder",
      "outputs": [
        {
          "internalType": "bool",
          "name": "",
          "type": "bool"
        }
      ],
      "stateMutability": "view",
      "type": "function"
    },
    {
      "inputs": [],
      "name": "vault",
      "outputs": [
        {
          "internalType": "address",
          "name": "",
          "type": "address"
        }
      ],
      "stateMutability": "view",
      "type": "function"
    },
    {
      "inputs": [],
      "name": "weth",
      "outputs": [
        {
          "internalType": "address",
          "name": "",
          "type": "address"
        }
      ],
      "stateMutability": "view",
      "type": "function"
    },
    {
      "inputs": [
        {
          "internalType": "address",
          "name": "_token",
          "type": "address"
        },
        {
          "internalType": "address",
          "name": "_receiver",
          "type": "address"
        }
      ],
      "name": "withdrawFees",
      "outputs": [],
      "stateMutability": "nonpayable",
      "type": "function"
    },
    {
      "stateMutability": "payable",
      "type": "receive"
    }
  ],
  "bytecode": "0x6080346200010957601f620038bc38819003918201601f19168301916001600160401b038311848410176200010e5780849260a09460405283398101031262000109578062000052620000f99262000124565b90620000616020820162000124565b6200006f6040830162000124565b906200008360806060850151940162000124565b93929092600160005560018060a01b03199233846001541617600155606460075560018060a01b03809581809416866003541617600355168460045416176004551682600554161760055560065533906002541617600255600c5490600160a81b921690600161ff0160a01b0319161717600c55565b60405161378290816200013a8239f35b600080fd5b634e487b7160e01b600052604160045260246000fd5b51906001600160a01b0382168203620001095756fe60806040526004361015610023575b361561001957600080fd5b610021611ed3565b005b60003560e01c80626cc35e1461036a57806307c7edc3146103615780631045c74e1461035857806311d9444a1461034f578063126082cf1461034657806312d43a511461033d5780631b904359146103345780631ce9cb8f1461032b5780631e2615381461032257806321acf65914610319578063233bfe3b1461031057806324a084df146103075780633039e37f146102fe5780633833f5f5146102f55780633fc8cef3146102ec578063430ed37c146102e35780634453a374146102da5780634584bd4b146102d1578063490ae210146102c8578063529a356f146102bf5780635fc8500e146102b657806367a52793146102ad578063704b6c02146102a4578063776af5ba1461029b5780638c0f9aac1461029257806390205d8c146102895780639698d25a1461028057806398d1e03a146102775780639c95332f1461026e578063ae4d7f9a14610265578063b32755de1461025c578063b7ddc99214610253578063cfad57a21461024a578063d38ab51914610241578063d4ca83f914610238578063de2ea9481461022f578063e1f21c6714610226578063ef12c67e1461021d578063f255527814610214578063f851a4401461020b578063f887ea40146102025763fbfa77cf0361000e576101fd611e65565b61000e565b506101fd611e3b565b506101fd611e11565b506101fd611dcc565b506101fd611caf565b506101fd611b9f565b506101fd61195f565b506101fd611938565b506101fd611773565b506101fd611727565b506101fd6114f2565b506101fd611374565b506101fd611301565b506101fd611289565b506101fd61126a565b506101fd61122c565b506101fd611191565b506101fd61114e565b506101fd611124565b506101fd6110ae565b506101fd61108f565b506101fd610f6b565b506101fd610f28565b506101fd610ecf565b506101fd610ea8565b506101fd610e46565b506101fd610d39565b506101fd610d0f565b506101fd610ccc565b506101fd610b61565b506101fd610a1f565b506101fd6109c6565b506101fd610955565b506101fd6108e8565b506101fd610885565b506101fd6107fb565b506101fd6107c7565b506101fd6107a9565b506101fd610526565b506101fd6104e8565b506101fd610409565b506101fd6103a2565b600091031261037e57565b600080fd5b6001600160a01b031690565b6001600160a01b03909116815260200190565b503461037e57600036600319011261037e576008546040516001600160a01b039091168152602090f35b6001600160a01b0381160361037e57565b606090600319011261037e576004356103f5816103cc565b9060243590604435610406816103cc565b90565b503461037e57610418366103dd565b9190600092338452600d60205260ff604085205416156104a257600c5484926001600160a01b0390911690813b1561049e578361046c95604051968795869485936307c7edc360e01b8552600485016133b4565b03925af18015610491575b610482575b50604051f35b61048b90610a75565b3861047c565b6104996122dc565b610477565b8380fd5b604051631dd2188d60e31b8152600490fd5b6001600160a01b03166000908152600b6020526040902090565b6001600160a01b0316600090815260096020526040902090565b503461037e57602036600319011261037e57600435610506816103cc565b60018060a01b0316600052600a6020526020604060002054604051908152f35b503461037e57610535366103dd565b9190600092338452600d60205260409260ff848620541615610798578461055d600354610383565b85516312d43a5160e01b8152909490936001600160a01b03602086600481848b165afa95861561078b575b849661075b575b506105a66105a16105a1600c54610383565b610383565b8851630130197760e11b815261010097918890829081806105cb8a8d60048401612077565b03915afa97881561074e575b8698610717575b50501691823b1561049e5787516306d63c1d60e41b81528481806106058b6004830161038f565b038183885af1801561070a575b6106f7575b506106296105a16105a1600c54610383565b91823b156106f357610654928592838b518096819582946308eca22560e11b84528c600485016133b4565b03925af180156106e6575b6106d3575b50803b156106cf5761069082916106a696885194858094819363d3c87bbb60e01b83526004830161038f565b03925af180156106c2575b6106a9575b50613287565b51f35b806106b66106bc92610a75565b80610373565b386106a0565b6106ca6122dc565b61069b565b5080fd5b806106b66106e092610a75565b38610664565b6106ee6122dc565b61065f565b8480fd5b806106b661070492610a75565b38610617565b6107126122dc565b610612565b610737929850803d10610747575b61072f8183610ab0565b8101906133d7565b50505050925050509538806105de565b503d610725565b6107566122dc565b6105d7565b61077d91965060203d8111610784575b6107758183610ab0565b81019061259c565b943861058f565b503d61076b565b6107936122dc565b610588565b8351631dd2188d60e31b8152600490fd5b503461037e57600036600319011261037e5760206040516127108152f35b503461037e57600036600319011261037e576001546040516001600160a01b039091168152602090f35b8015150361037e57565b503461037e57602036600319011261037e57600435610819816107f1565b6002546001600160a01b031633036108735760207fa956222e37fe025ff51e5440ac729a9bd417ff91e485e14dcffa2c0ba8894f40911515600c5460ff60a81b8260a81b169060ff60a81b191617600c55604051908152a1005b60405163118bf34960e11b8152600490fd5b503461037e57602036600319011261037e576004356108a3816103cc565b60018060a01b031660005260096020526020604060002054604051908152f35b604090600319011261037e576004356108db816103cc565b90602435610406816107f1565b503461037e576108f7366108c3565b60025490916001600160a01b039182163303610873577f1d5bc0255b943d6a5b5279e8a55d74d620baccbceecb25e87a3558f14c4c118e91602091169283600052600d825261094a8160406000206123c4565b6040519015158152a2005b503461037e57610964366108c3565b6002546001600160a01b0392919083163303610873577fa4e46c70ff429a91de7d1716d736e877c7cca1c22ac850b23d242530dd95e47492604092169081600052600e6020526109b781846000206123c4565b825191825215156020820152a1005b503461037e57602036600319011261037e57600254600435906001600160a01b03163303610873576020817f21167d0d4661af93817ebce920f18986eed3d75d5e1c03f2aed05efcbafbc45292600755604051908152a1005b503461037e57604036600319011261037e57610021600435610a40816103cc565b610a5560018060a01b03600154163314611e8f565b602435906122e9565b50634e487b7160e01b600052604160045260246000fd5b6001600160401b038111610a8857604052565b610a90610a5e565b604052565b604081019081106001600160401b03821117610a8857604052565b601f909101601f19168101906001600160401b03821190821017610a8857604052565b6020906001600160401b038111610aec575b60051b0190565b610af4610a5e565b610ae5565b81601f8201121561037e57803591610b1083610ad3565b92610b1e6040519485610ab0565b808452602092838086019260051b82010192831161037e578301905b828210610b48575050505090565b8380918335610b56816103cc565b815201910190610b3a565b503461037e5761010036600319011261037e576004356001600160401b03811161037e57610b93903690600401610af9565b60243590610ba0826103cc565b608435610bac816107f1565b60a43591610bb9836103cc565b610bc8600260005414156123d5565b600260005533600052600e60205260ff604060002054161580610cbc575b6104a257610c88610c5b610c9895610c9394610c056002865114612421565b610c2b610c38865160018110610caf575b6001600160a01b039283916000190189611f41565b5116826005541614612f95565b855115610ca2575b6020860151169060c435923092606435916044359133613039565b610c776105a1610c6a85611f27565b516001600160a01b031690565b610c82600354610383565b90612092565b309060e43590612b35565b613350565b6100216001600055565b610caa611f10565b610c40565b610cb7611ef9565b610c16565b5060ff600c5460a01c1615610be6565b503461037e57602036600319011261037e57600435610cea816103cc565b60018060a01b0316600052600d602052602060ff604060002054166040519015158152f35b503461037e57600036600319011261037e576005546040516001600160a01b039091168152602090f35b503461037e5760e036600319011261037e57600435610d57816103cc565b602435610d63816103cc565b608435610d6f816107f1565b60a43591610d7c836103cc565b610d8b600260005414156123d5565b600260005533600052600e60205260ff604060002054161580610e36575b6104a2576005546001600160a01b0390811690851603610ddf57610c9893610c939260c435923092606435916044359133613039565b60405162461bcd60e51b815260206004820152602960248201527f506f736974696f6e4d616e616765723a20696e76616c6964205f636f6c6c617460448201526832b930b62a37b5b2b760b91b6064820152608490fd5b5060ff600c5460a01c1615610da9565b503461037e57610e55366108c3565b60025490916001600160a01b039182163303610873577f8c0d56805c3b43d441481229dc64bee168253ffe4305f37ab7cfe63b1c4268c691602091169283600052600f825261094a8160406000206123c4565b503461037e57600036600319011261037e57602060ff600c5460a81c166040519015158152f35b503461037e57602036600319011261037e57600254600435906001600160a01b03163303610873576020817f974fd3c1fcb4653dfc4fb740c4c692cd212d55c28f163f310128cb64d830067592600655604051908152a1005b503461037e57602036600319011261037e57600435610f46816103cc565b60018060a01b0316600052600f602052602060ff604060002054166040519015158152f35b503461037e5761010036600319011261037e576004356001600160401b03811161037e57610f9d903690600401610af9565b60243590610faa826103cc565b60843590610fb7826107f1565b60a43591610fc4836103cc565b610fd3600260005414156123d5565b600260005533600052600e60205260ff60406000205416158061107f575b6104a25761105a93610c776110519261100d6002865114612421565b845115611072575b60208501805190936001600160a01b03926110419260c435923092916064359160443591881633613039565b92855115611065575b5116610383565b60e43590612b35565b506100216001600055565b61106d611f10565b61104a565b61107a611f10565b611015565b5060ff600c5460a01c1615610ff1565b503461037e57600036600319011261037e576020600654604051908152f35b503461037e57602036600319011261037e577f5a272403b402d892977df56625f4164ccaf70ca3863991c43ecfe76a6905b0a160206004356110ef816103cc565b6001546001600160a01b0391906111099083163314611e8f565b168060018060a01b03196002541617600255604051908152a1005b503461037e57600036600319011261037e57600c546040516001600160a01b039091168152602090f35b503461037e57602036600319011261037e5760043561116c816103cc565b60018060a01b0316600052600e602052602060ff604060002054166040519015158152f35b503461037e5760e036600319011261037e576004356111af816103cc565b602435906111bc826103cc565b6084356111c8816107f1565b60a435906111d5826103cc565b6111e4600260005414156123d5565b600260005533600052600e60205260ff60406000205416158061121c575b6104a25761105a9360c43593606435916044359133613039565b5060ff600c5460a01c1615611202565b503461037e57602036600319011261037e5760043561124a816103cc565b60018060a01b0316600052600b6020526020604060002054604051908152f35b503461037e57600036600319011261037e576020600754604051908152f35b503461037e57602036600319011261037e576004356112a7816107f1565b6002546001600160a01b031633036108735760207feac6b3611e79ff0d8ea5daa8439f6b1ab7eea4ebf95f1dd360417f712c3fc304911515600c5460ff60a01b8260a01b169060ff60a01b191617600c55604051908152a1005b503461037e57602036600319011261037e5760043561131f816103cc565b6002546001600160a01b03919082163303610873577f828abcccea18192c21d645e575652c49e20b986dab777906fc473d056b01b6a891602091168060018060a01b03196008541617600855604051908152a1005b5060c036600319011261037e576004356001600160401b03811161037e576113a0903690600401610af9565b602435906113ad826103cc565b6084356064356113bc826107f1565b6113cb600260005414156123d5565b600260005533600052600e60205260ff6040600020541615806114e2575b6104a257610c98936114088451600181149081156114d7575b50612421565b611436611417610c6a86611f27565b6114256105a1600554610383565b6001600160a01b0390911614612f95565b3461145c575b611456610c6a60a4359561145081516124a6565b90611f41565b336125b1565b611464612fe1565b3482848360018851116114a1575b90611483929161149c948933612cff565b610c776105a1610c6a61149689516124a6565b89611f41565b61143c565b5050506114b690610c776105a1600554610383565b61149c6114838385846114cc306044358b612b35565b945090919250611472565b600291501438611402565b5060ff600c5460a01c16156113e9565b503461037e5760e036600319011261037e57600480356001600160401b03811161037e576115239036908301610af9565b9060243591611531836103cc565b6044359260843560a43591611545836107f1565b6000956115566002885414156123d5565b60028755338752600e60205260ff6040882054161580611717575b611706578061158c8651600181149081156114d75750612421565b806115bc575b50506115ad9450611456610c6a60c4359561145081516124a6565b6115b76001600055565b604051f35b855160010361166157506115d66105a16105a18854610383565b95876115e4610c6a88611f27565b91883b156106cf5784846116218461163a976115ad9d611483988c988e98604051968795869485936303704f0f60e31b855230913391860161247b565b03925af18015611654575b611641575b505b8933612cff565b3880611592565b806106b661164e92610a75565b38611631565b61165c6122dc565b61162c565b9050866116746105a16105a18954610383565b96611681610c6a88611f27565b9761168d600354610383565b91813b1561049e57836115ad9a6116ba604051978896879586946303704f0f60e31b86523391860161247b565b03925af180156116f9575b6116e6575b5061163a6114838385846116e1306064358b612b35565b611633565b806106b66116f392610a75565b386116ca565b6117016122dc565b6116c5565b604051631dd2188d60e31b81528690fd5b5060ff600c5460a01c1615611571565b503461037e57602036600319011261037e57600435611745816103cc565b600154906001600160a01b039061175f3383851614611e8f565b6001600160a01b0319909216911617600155005b503461037e57611782366103dd565b60009291338452600d60205260409260ff84862054161561079857846117a88383613540565b926117b4600354610383565b86516312d43a5160e01b81529095906001600160a01b0390602081600481858c165afa90811561192b575b859161190d575b501691823b1561049e5787516306d63c1d60e41b815284818061180c8b6004830161038f565b038183885af18015611900575b6118ed575b506118306105a16105a1600c54610383565b91823b156106f35761185b928592838b5180968195829463d38ab51960e01b84528c600485016133b4565b03925af180156118e0575b6118cd575b50803b156106cf5761189782916106a696885194858094819363d3c87bbb60e01b83526004830161038f565b03925af180156118c0575b6118ad575b506129da565b806106b66118ba92610a75565b386118a7565b6118c86122dc565b6118a2565b806106b66118da92610a75565b3861186b565b6118e86122dc565b611866565b806106b66118fa92610a75565b3861181e565b6119086122dc565b611819565b611925915060203d8111610784576107758183610ab0565b386117e6565b6119336122dc565b6117df565b503461037e57600036600319011261037e57602060ff600c5460a01c166040519015158152f35b503461037e5760a036600319011261037e57600480359061197f826103cc565b6024359061198c826103cc565b60443592611999846103cc565b6064356119a5816107f1565b608435946119b2866103cc565b6000956119c36002885414156123d5565b60028755338752600f60205260409560ff878920541615611b8f579087949392916119ef600354610383565b88516312d43a5160e01b815290956001600160a01b03808816926020818c81875afa908115611b82575b8a91611b64575b501695863b15611b4057611a4889898c8e5193849283926306d63c1d60e41b8452830161038f565b0381838c5af18015611b57575b611b44575b50823b15611b40578a51631bc5d52960e31b81526001600160a01b03928316818c01908152948316602086015295821660408501521515606084015290921660808201528591839182908490829060a00103925af18015611b33575b611b20575b50803b15611b1c57611ae19383865180968195829463d3c87bbb60e01b8452830161038f565b03925af18015611b0f575b611afc575b506106a66001600055565b806106b6611b0992610a75565b38611af1565b611b176122dc565b611aec565b8280fd5b806106b6611b2d92610a75565b38611abb565b611b3b6122dc565b611ab6565b8880fd5b806106b6611b5192610a75565b38611a5a565b611b5f6122dc565b611a55565b611b7c915060203d8111610784576107758183610ab0565b38611a20565b611b8a6122dc565b611a19565b8651631dd2188d60e31b81528690fd5b503461037e57606036600319011261037e57600435611bbd816103cc565b6020611c0b60243592611bcf846103cc565b6001546001600160a01b039490611be99086163314611e8f565b600060405195868095819463095ea7b360e01b83526044359060048401612077565b0393165af18015611c44575b611c1d57005b6100219060203d8111611c3d575b611c358183610ab0565b810190612194565b503d611c2b565b611c4c6122dc565b611c17565b81601f8201121561037e57803591611c6883610ad3565b92611c766040519485610ab0565b808452602092838086019260051b82010192831161037e578301905b828210611ca0575050505090565b81358152908301908301611c92565b503461037e57606036600319011261037e576001600160401b0360043581811161037e57611ce1903690600401610af9565b60243582811161037e57611cf9903690600401611c51565b9160443590811161037e57611d12903690600401611c51565b6002546001600160a01b039391908416330361087357600093845b8451811015611d90578082611d4460019388611f41565b5116611d508287611f41565b51818952600a6020526040892055611d72611d6b8387611f41565b51916104b4565b556000198114611d83575b01611d2d565b611d8b611ef9565b611d7d565b505091611dc47fae32d569b058895b9620d6552b09aaffedc9a6f396be4d595a224ad09f8b21399360405193849384611f97565b0390a1604051f35b503461037e57604036600319011261037e57600435611dea816103cc565b602435611df6816103cc565b6002546001600160a01b031633036108735761002191612003565b503461037e57600036600319011261037e576002546040516001600160a01b039091168152602090f35b503461037e57600036600319011261037e576004546040516001600160a01b039091168152602090f35b503461037e57600036600319011261037e576003546040516001600160a01b039091168152602090f35b15611e9657565b60405162461bcd60e51b815260206004820152601560248201527423b7bb32b93730b136329d103337b93134b23232b760591b6044820152606490fd5b6005546001600160a01b03163303611ee757565b604051636edaef2f60e11b8152600490fd5b50634e487b7160e01b600052601160045260246000fd5b50634e487b7160e01b600052603260045260246000fd5b602090805115611f35570190565b611f3d611f10565b0190565b6020918151811015611f56575b60051b010190565b611f5e611f10565b611f4e565b90815180825260208080930193019160005b828110611f83575050505090565b835185529381019392810192600101611f75565b91939290936060830194606084528051809652608084019560208092019060005b818110611fe65750505094611fd891610406959685830390860152611f63565b916040818403910152611f63565b82516001600160a01b031689529783019791830191600101611fb8565b6001600160a01b039081166000818152600960205260409020549192918015612071577f4f1b51dd7a2fcb861aa2670f668be66835c4ee12b4bbbf037e4d0018f39819e4936060936000604081205561205d838286612092565b6040519384521660208301526040820152a1565b50505050565b6001600160a01b039091168152602081019190915260400190565b90604051916120c6836120b86020968783019563a9059cbb60e01b875260248401612077565b03601f198101855284610ab0565b60018060a01b031690604051926120dc84610a95565b8484527f5361666545524332303a206c6f772d6c6576656c2063616c6c206661696c656485850152823b1561214f57612128939260009283809351925af1612122612208565b90612255565b8051908161213557505050565b8261214d93612148938301019101612194565b6121a9565b565b60405162461bcd60e51b815260048101869052601d60248201527f416464726573733a2063616c6c20746f206e6f6e2d636f6e74726163740000006044820152606490fd5b9081602091031261037e5751610406816107f1565b156121b057565b60405162461bcd60e51b815260206004820152602a60248201527f5361666545524332303a204552433230206f7065726174696f6e20646964206e6044820152691bdd081cdd58d8d9595960b21b6064820152608490fd5b3d15612250573d906001600160401b038211612243575b60405191612237601f8201601f191660200184610ab0565b82523d6000602084013e565b61224b610a5e565b61221f565b606090565b90919015612261575090565b8151156122715750805190602001fd5b6040519062461bcd60e51b82528160208060048301528251928360248401526000915b8483106122c35750509180604493116122b6575b601f01601f19168101030190fd5b60008382840101526122a8565b8183018101518684016044015285935091820191612294565b506040513d6000823e3d90fd5b81471061237f576040516000928392839291906001600160a01b03165af161230f612208565b501561231757565b60405162461bcd60e51b815260206004820152603a60248201527f416464726573733a20756e61626c6520746f2073656e642076616c75652c20726044820152791958da5c1a595b9d081b585e481a185d99481c995d995c9d195960321b6064820152608490fd5b60405162461bcd60e51b815260206004820152601d60248201527f416464726573733a20696e73756666696369656e742062616c616e63650000006044820152606490fd5b9060ff801983541691151516179055565b156123dc57565b60405162461bcd60e51b815260206004820152601f60248201527f5265656e7472616e637947756172643a207265656e7472616e742063616c6c006044820152606490fd5b1561242857565b60405162461bcd60e51b815260206004820152602560248201527f506f736974696f6e4d616e616765723a20696e76616c6964205f706174682e6c6044820152640cadccee8d60db1b6064820152608490fd5b6001600160a01b03918216815291811660208301529091166040820152606081019190915260800190565b600181106124b6575b6000190190565b6124be611ef9565b6124af565b9081602091031261037e575190565b156124d957565b60405162461bcd60e51b8152602060048201526030602482015260008051602061372d83398151915260448201526f1b1bddd95c881d1a185b881b1a5b5a5d60821b6064820152608490fd5b1561252c57565b60405162461bcd60e51b8152602060048201526031602482015260008051602061372d8339815191526044820152701a1a59da195c881d1a185b881b1a5b5a5d607a1b6064820152608490fd5b61271081198111612588570190565b611f3d611ef9565b81198111612588570190565b9081602091031261037e5751610406816103cc565b92939094916125c1600354610383565b92821561294557604051637092736960e11b81526126119190602081806125eb876004830161038f565b03816001600160a01b038a165afa908115612938575b60009161291a575b501115612525565b811561288a576001600160a01b0381166000908152600a60205260409020548015159081612800575b506127b6575b6040516312d43a5160e01b81526001600160a01b03906020816004818886165afa9081156127a9575b60009161278b575b501695863b1561037e576040516306d63c1d60e41b815260008180612699886004830161038f565b0381838c5af1801561277e575b61276b575b506126bd6105a16105a1600454610383565b803b1561037e57604051630f8ee8bb60e11b81526001600160a01b038781166004830152928316602482015292909116604483015260648201869052911515608482015290600090829060a490829084905af1801561275e575b61274b575b50833b1561037e57600061189761214d95829360405194858094819363d3c87bbb60e01b83526004830161038f565b806106b661275892610a75565b3861271c565b6127666122dc565b612717565b806106b661277892610a75565b386126ab565b6127866122dc565b6126a6565b6127a3915060203d8111610784576107758183610ab0565b38612671565b6127b16122dc565b612669565b60405162461bcd60e51b815260206004820152602e602482015260008051602061370d83398151915260448201526d1b1bdb99dcc8195e18d95959195960921b6064820152608490fd5b90506128488660405163783a2b6760e11b815260208180612824886004830161038f565b03816001600160a01b038b165afa90811561287d575b60009161284f575b50612590565b113861263a565b612870915060203d8111612876575b6128688183610ab0565b8101906124c3565b38612842565b503d61285e565b6128856122dc565b61283a565b612893816104b4565b5480151590816128ef575b50156126405760405162461bcd60e51b815260206004820152602f602482015260008051602061370d83398151915260448201526e1cda1bdc9d1cc8195e18d959591959608a1b6064820152608490fd5b90506129138660405163114f1b5560e31b815260208180612824886004830161038f565b113861289e565b612932915060203d8111612876576128688183610ab0565b38612609565b6129406122dc565b612601565b6040516340d3096b60e11b815261298e919060208180612968876004830161038f565b03816001600160a01b038a165afa9081156129b1575b600091612993575b5010156124d2565b612611565b6129ab915060203d8111612876576128688183610ab0565b38612986565b6129b96122dc565b61297e565b919082604091031261037e5760208251920151610406816103cc565b9060018060a01b036129ed600854610383565b16918215612b3057612abd7fc2414023ce7002ee98557d1e7be21e5559073336f2217ee5f9b2e50fd85f71ee93604090818051809263534ef88360e01b82528180612a3b896004830161038f565b03915afa918215612b23575b6000918293612aef575b506004906020612a686105a16105a1600354610383565b825163318bc68960e01b815293849182905afa918215612ae2575b600092612ac2575b50516001600160a01b0395861681526020810196909652604086015260608501529091166080830152819060a0820190565b0390a1565b612adb91925060203d8111612876576128688183610ab0565b9038612a8b565b612aea6122dc565b612a83565b81612b14929450600493503d8511612b1c575b612b0c8183610ab0565b8101906129be565b929091612a51565b503d612b02565b612b2b6122dc565b612a47565b505050565b80519060028214612b975760405162461bcd60e51b815260206004820152602960248201527f42617365506f736974696f6e4d616e616765723a20696e76616c6964205f70616044820152680e8d05cd8cadccee8d60bb1b6064820152608490fd5b60209115612c9c575b606460018060a01b0391600083604081878501511693805160011015612c8f575b015116938060035416906040519889968795634998b10960e11b8752600487015260248601521660448401525af1918215612c82575b600092612c62575b508110612c095790565b60405162461bcd60e51b815260206004820152602b60248201527f42617365506f736974696f6e4d616e616765723a20696e73756666696369656e60448201526a1d08185b5bdd5b9d13dd5d60aa1b6064820152608490fd5b612c7b91925060203d8111612876576128688183610ab0565b9038612bff565b612c8a6122dc565b612bf7565b612c97611f10565b612bc1565b612ca4611f10565b612ba0565b612710908060001904821181151516612cc0570290565b612cc8611ef9565b0290565b8060001904821181151516612cc0570290565b8115612ce9570490565b634e487b7160e01b600052601260045260246000fd5b928282612d1195979497969396612e1a565b612d19575090565b90612d80612d7a600654612d3a61271091808310612d9e575b820385612ccc565b048094818510612d91575b612d6781519160018310612d84575b6001600160a01b03926000190190611f41565b51169303612d74846104ce565b54612590565b916104ce565b5590565b612d8c611ef9565b612d54565b612d99611ef9565b612d45565b612da6611ef9565b612d32565b91908261010091031261037e5781519160208101519160408201519160608101519160808201519160a08101519160e060c0830151612de9816107f1565b92015190565b6001600160a01b03918216815291811660208301529091166040820152901515606082015260800190565b949392908315612f37578415612f8a57612e3e610c6a82611450612e7494516124a6565b958694612e526105a16105a1600354610383565b936040519384928392634a3f088d60e01b8452610100998a9660048601612def565b0381855afa908115612f7d575b6000948592612f42575b50508315612f3757612ef1612eeb612ed06020612ef196612ef696612eb3612f089b8b612590565b9b604051809581948293630a48d5a960e01b845260048401612077565b03915afa908115612f2a575b600091612f0c575b5083612590565b94612ca9565b612cdf565b93612f02600754612579565b90612ccc565b1090565b612f24915060203d8111612876576128688183610ab0565b38612ee4565b612f326122dc565b612edc565b505050505050600090565b612f6693955080919250903d10612f76575b612f5e8183610ab0565b810190612dab565b5050505050509290923880612e8b565b503d612f54565b612f856122dc565b612e81565b505050505050600190565b15612f9c57565b60405162461bcd60e51b815260206004820152601e60248201527f506f736974696f6e4d616e616765723a20696e76616c6964205f7061746800006044820152606490fd5b34612fe857565b6005546001600160a01b0316803b1561037e57600060049160405192838092630d0e30db60e41b825234905af1801561302c575b6130235750565b61214d90610a75565b6130346122dc565b61301c565b939496929195909561304c600354610383565b93881561323b576040516340d3096b60e11b815261309a919060208180613076876004830161038f565b03816001600160a01b038b165afa9081156129b157600091612993575010156124d2565b6040516312d43a5160e01b8152602098906001600160a01b03908a816004818a86165afa90811561322e575b600091613211575b501697883b1561037e576000876131818c9683806131038f8d6040519485809481936306d63c1d60e41b83526004830161038f565b03925af18015613204575b6131f1575b506131256105a16105a1600454610383565b604051632662166b60e01b81526001600160a01b039485166004820152958416602487015296831660448601526064850198909852608484018b905293151560a484015290951660c482015293849291839190829060e4820190565b03925af19586156131e4575b6000966131c5575b5050833b1561037e57600061069061040695829360405194858094819363d3c87bbb60e01b83526004830161038f565b6131dc929650803d10612876576128688183610ab0565b933880613195565b6131ec6122dc565b61318d565b806106b66131fe92610a75565b38613113565b61320c6122dc565b61310e565b61322891508b3d8d11610784576107758183610ab0565b386130ce565b6132366122dc565b6130c6565b604051637092736960e11b815261328291906020818061325e876004830161038f565b03816001600160a01b038b165afa9081156129385760009161291a57501115612525565b61309a565b9060018060a01b0361329a600854610383565b16918215612b30576040808051809563534ef88360e01b825281806132c2876004830161038f565b03915afa8015613343575b6000948591613320575b508415613319577f474c763ff84bf2c2039a6d9fea955ecd0f724030e3c365b91169c6a16fe751b7946004612abd936020612a686105a16105a1600354610383565b5050505050565b90508161333a9295503d8611612b1c57612b0c8183610ab0565b939093386132d7565b61334b6122dc565b6132cd565b6005546001600160a01b031691823b1561037e5760008061214d94602460405180948193632e1a7d4d60e01b83528860048401525af180156133a7575b613398575b506122e9565b6133a190610a75565b38613392565b6133af6122dc565b61338d565b6001600160a01b0391821681526020810192909252909116604082015260600190565b91908261010091031261037e5781516133ef816103cc565b916020810151916040820151613404816103cc565b916060810151916080820151613419816107f1565b9160a08101519160e060c0830151612de9816107f1565b908161012091031261037e578051613447816103cc565b91602082015191604081015161345c816103cc565b91606082015161346b816103cc565b9160808101519160a0820151613480816107f1565b9160c08101519161010060e0830151612de9816107f1565b1561349f57565b60405162461bcd60e51b815260206004820152601d60248201527f506f736974696f6e4d616e616765723a206c6f6e67206465706f7369740000006044820152606490fd5b156134eb57565b60405162461bcd60e51b815260206004820152602760248201527f506f736974696f6e4d616e616765723a206c6f6e67206c6576657261676520646044820152666563726561736560c81b6064820152608490fd5b9061356891600c546040519263d3bab1d160e01b845283806101209687938660048401612077565b03816001600160a01b0385165afa9081156136ff575b600092839084928596869887966136b5575b50509060ff88939260a81c16156136ab5784156136ab576135e9946135b6841515613498565b6135c76105a16105a1600354610383565b976040519687928392634a3f088d60e01b845261010098899660048601612def565b0381895afa93841561369e575b6000938495613671575b5050821561366857612eeb61366194612ef161364c612ed06020613652966104069c61362f61365b9a8c612590565b9c604051809581948293630a48d5a960e01b845260048401612077565b95612ca9565b91600754612cdf565b90612590565b10156134e4565b50505050505090565b809192955061368d939450903d10612f7657612f5e8183610ab0565b505050505050919091923880613600565b6136a66122dc565b6135f6565b5050505050505090565b935093509450945060ff95506136e09250803d106136f8575b6136d88183610ab0565b810190613430565b50929993989697919694959493919250899050613590565b503d6136ce565b6137076122dc565b61357e56fe42617365506f736974696f6e4d616e616765723a206d617820676c6f62616c2042617365506f736974696f6e4d616e616765723a206d61726b20707269636520a2646970667358221220e92a1db7f7c05329e0a94ddce245a5fa54f9e334bf26d73d427f58644f586d2564736f6c634300080e0033",
  "linkReferences": {},
  "deployedLinkReferences": {}
}