{
  "_format": "hh-sol-artifact-1",
  "contractName": "PositionRouter",
  "sourceName": "contracts/core/PositionRouter.sol",
  "abi": [
    {
      "inputs": [
        {
          "internalType": "address",
          "name": "_vault",
          "type": "address"
        },
        {
          "internalType": "address",
          "name": "_router",
          "type": "address"
        },
        {
          "internalType": "address",
          "name": "_weth",
          "type": "address"
        },
        {
          "internalType": "uint256",
          "name": "_depositFee",
          "type": "uint256"
        },
        {
          "internalType": "uint256",
          "name": "_minExecutionFee",
          "type": "uint256"
        }
      ],
      "stateMutability": "nonpayable",
      "type": "constructor"
    },
    {
      "inputs": [],
      "name": "DelayNotPassed",
      "type": "error"
    },
    {
      "inputs": [],
      "name": "Forbidden",
      "type": "error"
    },
    {
      "inputs": [],
      "name": "InsufficientAmountOut",
      "type": "error"
    },
    {
      "inputs": [],
      "name": "InvalidExecutionFee",
      "type": "error"
    },
    {
      "inputs": [],
      "name": "InvalidPath",
      "type": "error"
    },
    {
      "inputs": [],
      "name": "InvalidPathLength",
      "type": "error"
    },
    {
      "inputs": [],
      "name": "InvalidSender",
      "type": "error"
    },
    {
      "inputs": [],
      "name": "InvalidValue",
      "type": "error"
    },
    {
      "inputs": [],
      "name": "MaxLongsExceeded",
      "type": "error"
    },
    {
      "inputs": [],
      "name": "MaxShortsExceeded",
      "type": "error"
    },
    {
      "inputs": [],
      "name": "OnlyAdmin",
      "type": "error"
    },
    {
      "inputs": [],
      "name": "PriceTooHigh",
      "type": "error"
    },
    {
      "inputs": [],
      "name": "PriceTooLow",
      "type": "error"
    },
    {
      "inputs": [],
      "name": "RequestExpired",
      "type": "error"
    },
    {
      "anonymous": false,
      "inputs": [
        {
          "indexed": true,
          "internalType": "address",
          "name": "account",
          "type": "address"
        },
        {
          "indexed": false,
          "internalType": "address[]",
          "name": "path",
          "type": "address[]"
        },
        {
          "indexed": false,
          "internalType": "address",
          "name": "indexToken",
          "type": "address"
        },
        {
          "indexed": false,
          "internalType": "uint256",
          "name": "collateralDelta",
          "type": "uint256"
        },
        {
          "indexed": false,
          "internalType": "uint256",
          "name": "sizeDelta",
          "type": "uint256"
        },
        {
          "indexed": false,
          "internalType": "bool",
          "name": "isLong",
          "type": "bool"
        },
        {
          "indexed": false,
          "internalType": "address",
          "name": "receiver",
          "type": "address"
        },
        {
          "indexed": false,
          "internalType": "uint256",
          "name": "acceptablePrice",
          "type": "uint256"
        },
        {
          "indexed": false,
          "internalType": "uint256",
          "name": "minOut",
          "type": "uint256"
        },
        {
          "indexed": false,
          "internalType": "uint256",
          "name": "executionFee",
          "type": "uint256"
        },
        {
          "indexed": false,
          "internalType": "uint256",
          "name": "blockGap",
          "type": "uint256"
        },
        {
          "indexed": false,
          "internalType": "uint256",
          "name": "timeGap",
          "type": "uint256"
        }
      ],
      "name": "CancelDecreasePosition",
      "type": "event"
    },
    {
      "anonymous": false,
      "inputs": [
        {
          "indexed": true,
          "internalType": "address",
          "name": "account",
          "type": "address"
        },
        {
          "indexed": false,
          "internalType": "address[]",
          "name": "path",
          "type": "address[]"
        },
        {
          "indexed": false,
          "internalType": "address",
          "name": "indexToken",
          "type": "address"
        },
        {
          "indexed": false,
          "internalType": "uint256",
          "name": "amountIn",
          "type": "uint256"
        },
        {
          "indexed": false,
          "internalType": "uint256",
          "name": "minOut",
          "type": "uint256"
        },
        {
          "indexed": false,
          "internalType": "uint256",
          "name": "sizeDelta",
          "type": "uint256"
        },
        {
          "indexed": false,
          "internalType": "bool",
          "name": "isLong",
          "type": "bool"
        },
        {
          "indexed": false,
          "internalType": "uint256",
          "name": "acceptablePrice",
          "type": "uint256"
        },
        {
          "indexed": false,
          "internalType": "uint256",
          "name": "executionFee",
          "type": "uint256"
        },
        {
          "indexed": false,
          "internalType": "uint256",
          "name": "blockGap",
          "type": "uint256"
        },
        {
          "indexed": false,
          "internalType": "uint256",
          "name": "timeGap",
          "type": "uint256"
        }
      ],
      "name": "CancelIncreasePosition",
      "type": "event"
    },
    {
      "anonymous": false,
      "inputs": [
        {
          "indexed": true,
          "internalType": "address",
          "name": "account",
          "type": "address"
        },
        {
          "indexed": false,
          "internalType": "address[]",
          "name": "path",
          "type": "address[]"
        },
        {
          "indexed": false,
          "internalType": "address",
          "name": "indexToken",
          "type": "address"
        },
        {
          "indexed": false,
          "internalType": "uint256",
          "name": "collateralDelta",
          "type": "uint256"
        },
        {
          "indexed": false,
          "internalType": "uint256",
          "name": "sizeDelta",
          "type": "uint256"
        },
        {
          "indexed": false,
          "internalType": "bool",
          "name": "isLong",
          "type": "bool"
        },
        {
          "indexed": false,
          "internalType": "address",
          "name": "receiver",
          "type": "address"
        },
        {
          "indexed": false,
          "internalType": "uint256",
          "name": "acceptablePrice",
          "type": "uint256"
        },
        {
          "indexed": false,
          "internalType": "uint256",
          "name": "minOut",
          "type": "uint256"
        },
        {
          "indexed": false,
          "internalType": "uint256",
          "name": "executionFee",
          "type": "uint256"
        },
        {
          "indexed": false,
          "internalType": "uint256",
          "name": "index",
          "type": "uint256"
        },
        {
          "indexed": false,
          "internalType": "uint256",
          "name": "blockNumber",
          "type": "uint256"
        },
        {
          "indexed": false,
          "internalType": "uint256",
          "name": "blockTime",
          "type": "uint256"
        }
      ],
      "name": "CreateDecreasePosition",
      "type": "event"
    },
    {
      "anonymous": false,
      "inputs": [
        {
          "indexed": true,
          "internalType": "address",
          "name": "account",
          "type": "address"
        },
        {
          "indexed": false,
          "internalType": "address[]",
          "name": "path",
          "type": "address[]"
        },
        {
          "indexed": false,
          "internalType": "address",
          "name": "indexToken",
          "type": "address"
        },
        {
          "indexed": false,
          "internalType": "uint256",
          "name": "amountIn",
          "type": "uint256"
        },
        {
          "indexed": false,
          "internalType": "uint256",
          "name": "minOut",
          "type": "uint256"
        },
        {
          "indexed": false,
          "internalType": "uint256",
          "name": "sizeDelta",
          "type": "uint256"
        },
        {
          "indexed": false,
          "internalType": "bool",
          "name": "isLong",
          "type": "bool"
        },
        {
          "indexed": false,
          "internalType": "uint256",
          "name": "acceptablePrice",
          "type": "uint256"
        },
        {
          "indexed": false,
          "internalType": "uint256",
          "name": "executionFee",
          "type": "uint256"
        },
        {
          "indexed": false,
          "internalType": "uint256",
          "name": "index",
          "type": "uint256"
        },
        {
          "indexed": false,
          "internalType": "uint256",
          "name": "blockNumber",
          "type": "uint256"
        },
        {
          "indexed": false,
          "internalType": "uint256",
          "name": "blockTime",
          "type": "uint256"
        },
        {
          "indexed": false,
          "internalType": "uint256",
          "name": "gasPrice",
          "type": "uint256"
        }
      ],
      "name": "CreateIncreasePosition",
      "type": "event"
    },
    {
      "anonymous": false,
      "inputs": [
        {
          "indexed": false,
          "internalType": "address",
          "name": "account",
          "type": "address"
        },
        {
          "indexed": false,
          "internalType": "uint256",
          "name": "sizeDelta",
          "type": "uint256"
        },
        {
          "indexed": false,
          "internalType": "uint256",
          "name": "marginFeeBasisPoints",
          "type": "uint256"
        },
        {
          "indexed": false,
          "internalType": "bytes32",
          "name": "referralCode",
          "type": "bytes32"
        },
        {
          "indexed": false,
          "internalType": "address",
          "name": "referrer",
          "type": "address"
        }
      ],
      "name": "DecreasePositionReferral",
      "type": "event"
    },
    {
      "anonymous": false,
      "inputs": [
        {
          "indexed": true,
          "internalType": "address",
          "name": "account",
          "type": "address"
        },
        {
          "indexed": false,
          "internalType": "address[]",
          "name": "path",
          "type": "address[]"
        },
        {
          "indexed": false,
          "internalType": "address",
          "name": "indexToken",
          "type": "address"
        },
        {
          "indexed": false,
          "internalType": "uint256",
          "name": "collateralDelta",
          "type": "uint256"
        },
        {
          "indexed": false,
          "internalType": "uint256",
          "name": "sizeDelta",
          "type": "uint256"
        },
        {
          "indexed": false,
          "internalType": "bool",
          "name": "isLong",
          "type": "bool"
        },
        {
          "indexed": false,
          "internalType": "address",
          "name": "receiver",
          "type": "address"
        },
        {
          "indexed": false,
          "internalType": "uint256",
          "name": "acceptablePrice",
          "type": "uint256"
        },
        {
          "indexed": false,
          "internalType": "uint256",
          "name": "minOut",
          "type": "uint256"
        },
        {
          "indexed": false,
          "internalType": "uint256",
          "name": "executionFee",
          "type": "uint256"
        },
        {
          "indexed": false,
          "internalType": "uint256",
          "name": "blockGap",
          "type": "uint256"
        },
        {
          "indexed": false,
          "internalType": "uint256",
          "name": "timeGap",
          "type": "uint256"
        }
      ],
      "name": "ExecuteDecreasePosition",
      "type": "event"
    },
    {
      "anonymous": false,
      "inputs": [
        {
          "indexed": true,
          "internalType": "address",
          "name": "account",
          "type": "address"
        },
        {
          "indexed": false,
          "internalType": "address[]",
          "name": "path",
          "type": "address[]"
        },
        {
          "indexed": false,
          "internalType": "address",
          "name": "indexToken",
          "type": "address"
        },
        {
          "indexed": false,
          "internalType": "uint256",
          "name": "amountIn",
          "type": "uint256"
        },
        {
          "indexed": false,
          "internalType": "uint256",
          "name": "minOut",
          "type": "uint256"
        },
        {
          "indexed": false,
          "internalType": "uint256",
          "name": "sizeDelta",
          "type": "uint256"
        },
        {
          "indexed": false,
          "internalType": "bool",
          "name": "isLong",
          "type": "bool"
        },
        {
          "indexed": false,
          "internalType": "uint256",
          "name": "acceptablePrice",
          "type": "uint256"
        },
        {
          "indexed": false,
          "internalType": "uint256",
          "name": "executionFee",
          "type": "uint256"
        },
        {
          "indexed": false,
          "internalType": "uint256",
          "name": "blockGap",
          "type": "uint256"
        },
        {
          "indexed": false,
          "internalType": "uint256",
          "name": "timeGap",
          "type": "uint256"
        }
      ],
      "name": "ExecuteIncreasePosition",
      "type": "event"
    },
    {
      "anonymous": false,
      "inputs": [
        {
          "indexed": false,
          "internalType": "address",
          "name": "account",
          "type": "address"
        },
        {
          "indexed": false,
          "internalType": "uint256",
          "name": "sizeDelta",
          "type": "uint256"
        },
        {
          "indexed": false,
          "internalType": "uint256",
          "name": "marginFeeBasisPoints",
          "type": "uint256"
        },
        {
          "indexed": false,
          "internalType": "bytes32",
          "name": "referralCode",
          "type": "bytes32"
        },
        {
          "indexed": false,
          "internalType": "address",
          "name": "referrer",
          "type": "address"
        }
      ],
      "name": "IncreasePositionReferral",
      "type": "event"
    },
    {
      "anonymous": false,
      "inputs": [
        {
          "indexed": true,
          "internalType": "address",
          "name": "previousOwner",
          "type": "address"
        },
        {
          "indexed": true,
          "internalType": "address",
          "name": "newOwner",
          "type": "address"
        }
      ],
      "name": "OwnershipTransferred",
      "type": "event"
    },
    {
      "anonymous": false,
      "inputs": [
        {
          "indexed": false,
          "internalType": "address",
          "name": "admin",
          "type": "address"
        }
      ],
      "name": "SetAdmin",
      "type": "event"
    },
    {
      "anonymous": false,
      "inputs": [
        {
          "indexed": false,
          "internalType": "uint256",
          "name": "minBlockDelayKeeper",
          "type": "uint256"
        },
        {
          "indexed": false,
          "internalType": "uint256",
          "name": "minTimeDelayPublic",
          "type": "uint256"
        },
        {
          "indexed": false,
          "internalType": "uint256",
          "name": "maxTimeDelay",
          "type": "uint256"
        }
      ],
      "name": "SetDelayValues",
      "type": "event"
    },
    {
      "anonymous": false,
      "inputs": [
        {
          "indexed": false,
          "internalType": "uint256",
          "name": "depositFee",
          "type": "uint256"
        }
      ],
      "name": "SetDepositFee",
      "type": "event"
    },
    {
      "anonymous": false,
      "inputs": [
        {
          "indexed": false,
          "internalType": "uint256",
          "name": "increasePositionBufferBps",
          "type": "uint256"
        }
      ],
      "name": "SetIncreasePositionBufferBps",
      "type": "event"
    },
    {
      "anonymous": false,
      "inputs": [
        {
          "indexed": false,
          "internalType": "bool",
          "name": "isLeverageEnabled",
          "type": "bool"
        }
      ],
      "name": "SetIsLeverageEnabled",
      "type": "event"
    },
    {
      "anonymous": false,
      "inputs": [
        {
          "indexed": false,
          "internalType": "address[]",
          "name": "tokens",
          "type": "address[]"
        },
        {
          "indexed": false,
          "internalType": "uint256[]",
          "name": "longSizes",
          "type": "uint256[]"
        },
        {
          "indexed": false,
          "internalType": "uint256[]",
          "name": "shortSizes",
          "type": "uint256[]"
        }
      ],
      "name": "SetMaxGlobalSizes",
      "type": "event"
    },
    {
      "anonymous": false,
      "inputs": [
        {
          "indexed": false,
          "internalType": "uint256",
          "name": "minExecutionFee",
          "type": "uint256"
        }
      ],
      "name": "SetMinExecutionFee",
      "type": "event"
    },
    {
      "anonymous": false,
      "inputs": [
        {
          "indexed": true,
          "internalType": "address",
          "name": "account",
          "type": "address"
        },
        {
          "indexed": false,
          "internalType": "bool",
          "name": "isActive",
          "type": "bool"
        }
      ],
      "name": "SetPositionKeeper",
      "type": "event"
    },
    {
      "anonymous": false,
      "inputs": [
        {
          "indexed": false,
          "internalType": "address",
          "name": "referralStorage",
          "type": "address"
        }
      ],
      "name": "SetReferralStorage",
      "type": "event"
    },
    {
      "anonymous": false,
      "inputs": [
        {
          "indexed": false,
          "internalType": "uint256",
          "name": "increasePositionRequestKeysStart",
          "type": "uint256"
        },
        {
          "indexed": false,
          "internalType": "uint256",
          "name": "decreasePositionRequestKeysStart",
          "type": "uint256"
        }
      ],
      "name": "SetRequestKeysStartValues",
      "type": "event"
    },
    {
      "anonymous": false,
      "inputs": [
        {
          "indexed": false,
          "internalType": "address",
          "name": "token",
          "type": "address"
        },
        {
          "indexed": false,
          "internalType": "address",
          "name": "receiver",
          "type": "address"
        },
        {
          "indexed": false,
          "internalType": "uint256",
          "name": "amount",
          "type": "uint256"
        }
      ],
      "name": "WithdrawFees",
      "type": "event"
    },
    {
      "inputs": [],
      "name": "BASIS_POINTS_DIVISOR",
      "outputs": [
        {
          "internalType": "uint16",
          "name": "",
          "type": "uint16"
        }
      ],
      "stateMutability": "view",
      "type": "function"
    },
    {
      "inputs": [],
      "name": "admin",
      "outputs": [
        {
          "internalType": "address",
          "name": "",
          "type": "address"
        }
      ],
      "stateMutability": "view",
      "type": "function"
    },
    {
      "inputs": [
        {
          "internalType": "address",
          "name": "_token",
          "type": "address"
        },
        {
          "internalType": "address",
          "name": "_spender",
          "type": "address"
        },
        {
          "internalType": "uint256",
          "name": "_amount",
          "type": "uint256"
        }
      ],
      "name": "approve",
      "outputs": [],
      "stateMutability": "nonpayable",
      "type": "function"
    },
    {
      "inputs": [
        {
          "internalType": "bytes32",
          "name": "_key",
          "type": "bytes32"
        },
        {
          "internalType": "address payable",
          "name": "_executionFeeReceiver",
          "type": "address"
        }
      ],
      "name": "cancelDecreasePosition",
      "outputs": [
        {
          "internalType": "bool",
          "name": "",
          "type": "bool"
        }
      ],
      "stateMutability": "nonpayable",
      "type": "function"
    },
    {
      "inputs": [
        {
          "internalType": "bytes32",
          "name": "_key",
          "type": "bytes32"
        },
        {
          "internalType": "address payable",
          "name": "_executionFeeReceiver",
          "type": "address"
        }
      ],
      "name": "cancelIncreasePosition",
      "outputs": [
        {
          "internalType": "bool",
          "name": "",
          "type": "bool"
        }
      ],
      "stateMutability": "nonpayable",
      "type": "function"
    },
    {
      "inputs": [
        {
          "internalType": "address[]",
          "name": "_path",
          "type": "address[]"
        },
        {
          "internalType": "address",
          "name": "_indexToken",
          "type": "address"
        },
        {
          "internalType": "uint256",
          "name": "_collateralDelta",
          "type": "uint256"
        },
        {
          "internalType": "uint256",
          "name": "_sizeDelta",
          "type": "uint256"
        },
        {
          "internalType": "bool",
          "name": "_isLong",
          "type": "bool"
        },
        {
          "internalType": "address",
          "name": "_receiver",
          "type": "address"
        },
        {
          "internalType": "uint256",
          "name": "_acceptablePrice",
          "type": "uint256"
        },
        {
          "internalType": "uint256",
          "name": "_minOut",
          "type": "uint256"
        },
        {
          "internalType": "uint256",
          "name": "_executionFee",
          "type": "uint256"
        },
        {
          "internalType": "bool",
          "name": "_withdrawETH",
          "type": "bool"
        }
      ],
      "name": "createDecreasePosition",
      "outputs": [],
      "stateMutability": "payable",
      "type": "function"
    },
    {
      "inputs": [
        {
          "internalType": "address[]",
          "name": "_path",
          "type": "address[]"
        },
        {
          "internalType": "address",
          "name": "_indexToken",
          "type": "address"
        },
        {
          "internalType": "uint256",
          "name": "_amountIn",
          "type": "uint256"
        },
        {
          "internalType": "uint256",
          "name": "_minOut",
          "type": "uint256"
        },
        {
          "internalType": "uint256",
          "name": "_sizeDelta",
          "type": "uint256"
        },
        {
          "internalType": "bool",
          "name": "_isLong",
          "type": "bool"
        },
        {
          "internalType": "uint256",
          "name": "_acceptablePrice",
          "type": "uint256"
        },
        {
          "internalType": "uint256",
          "name": "_executionFee",
          "type": "uint256"
        },
        {
          "internalType": "bytes32",
          "name": "_referralCode",
          "type": "bytes32"
        }
      ],
      "name": "createIncreasePosition",
      "outputs": [],
      "stateMutability": "payable",
      "type": "function"
    },
    {
      "inputs": [
        {
          "internalType": "address[]",
          "name": "_path",
          "type": "address[]"
        },
        {
          "internalType": "address",
          "name": "_indexToken",
          "type": "address"
        },
        {
          "internalType": "uint256",
          "name": "_minOut",
          "type": "uint256"
        },
        {
          "internalType": "uint256",
          "name": "_sizeDelta",
          "type": "uint256"
        },
        {
          "internalType": "bool",
          "name": "_isLong",
          "type": "bool"
        },
        {
          "internalType": "uint256",
          "name": "_acceptablePrice",
          "type": "uint256"
        },
        {
          "internalType": "uint256",
          "name": "_executionFee",
          "type": "uint256"
        },
        {
          "internalType": "bytes32",
          "name": "_referralCode",
          "type": "bytes32"
        }
      ],
      "name": "createIncreasePositionETH",
      "outputs": [],
      "stateMutability": "payable",
      "type": "function"
    },
    {
      "inputs": [
        {
          "internalType": "uint256",
          "name": "",
          "type": "uint256"
        }
      ],
      "name": "decreasePositionRequestKeys",
      "outputs": [
        {
          "internalType": "bytes32",
          "name": "",
          "type": "bytes32"
        }
      ],
      "stateMutability": "view",
      "type": "function"
    },
    {
      "inputs": [],
      "name": "decreasePositionRequestKeysStart",
      "outputs": [
        {
          "internalType": "uint256",
          "name": "",
          "type": "uint256"
        }
      ],
      "stateMutability": "view",
      "type": "function"
    },
    {
      "inputs": [
        {
          "internalType": "bytes32",
          "name": "",
          "type": "bytes32"
        }
      ],
      "name": "decreasePositionRequests",
      "outputs": [
        {
          "internalType": "address",
          "name": "account",
          "type": "address"
        },
        {
          "internalType": "address",
          "name": "indexToken",
          "type": "address"
        },
        {
          "internalType": "uint256",
          "name": "collateralDelta",
          "type": "uint256"
        },
        {
          "internalType": "uint256",
          "name": "sizeDelta",
          "type": "uint256"
        },
        {
          "internalType": "bool",
          "name": "isLong",
          "type": "bool"
        },
        {
          "internalType": "address",
          "name": "receiver",
          "type": "address"
        },
        {
          "internalType": "uint256",
          "name": "acceptablePrice",
          "type": "uint256"
        },
        {
          "internalType": "uint256",
          "name": "minOut",
          "type": "uint256"
        },
        {
          "internalType": "uint256",
          "name": "executionFee",
          "type": "uint256"
        },
        {
          "internalType": "uint256",
          "name": "blockNumber",
          "type": "uint256"
        },
        {
          "internalType": "uint256",
          "name": "blockTime",
          "type": "uint256"
        },
        {
          "internalType": "bool",
          "name": "withdrawETH",
          "type": "bool"
        }
      ],
      "stateMutability": "view",
      "type": "function"
    },
    {
      "inputs": [
        {
          "internalType": "address",
          "name": "",
          "type": "address"
        }
      ],
      "name": "decreasePositionsIndex",
      "outputs": [
        {
          "internalType": "uint256",
          "name": "",
          "type": "uint256"
        }
      ],
      "stateMutability": "view",
      "type": "function"
    },
    {
      "inputs": [],
      "name": "depositFee",
      "outputs": [
        {
          "internalType": "uint256",
          "name": "",
          "type": "uint256"
        }
      ],
      "stateMutability": "view",
      "type": "function"
    },
    {
      "inputs": [
        {
          "internalType": "bytes32",
          "name": "_key",
          "type": "bytes32"
        },
        {
          "internalType": "address payable",
          "name": "_executionFeeReceiver",
          "type": "address"
        }
      ],
      "name": "executeDecreasePosition",
      "outputs": [
        {
          "internalType": "bool",
          "name": "",
          "type": "bool"
        }
      ],
      "stateMutability": "nonpayable",
      "type": "function"
    },
    {
      "inputs": [
        {
          "internalType": "uint256",
          "name": "_endIndex",
          "type": "uint256"
        },
        {
          "internalType": "address payable",
          "name": "_executionFeeReceiver",
          "type": "address"
        }
      ],
      "name": "executeDecreasePositions",
      "outputs": [],
      "stateMutability": "nonpayable",
      "type": "function"
    },
    {
      "inputs": [
        {
          "internalType": "bytes32",
          "name": "_key",
          "type": "bytes32"
        },
        {
          "internalType": "address payable",
          "name": "_executionFeeReceiver",
          "type": "address"
        }
      ],
      "name": "executeIncreasePosition",
      "outputs": [
        {
          "internalType": "bool",
          "name": "",
          "type": "bool"
        }
      ],
      "stateMutability": "nonpayable",
      "type": "function"
    },
    {
      "inputs": [
        {
          "internalType": "uint256",
          "name": "_endIndex",
          "type": "uint256"
        },
        {
          "internalType": "address payable",
          "name": "_executionFeeReceiver",
          "type": "address"
        }
      ],
      "name": "executeIncreasePositions",
      "outputs": [],
      "stateMutability": "nonpayable",
      "type": "function"
    },
    {
      "inputs": [
        {
          "internalType": "address",
          "name": "",
          "type": "address"
        }
      ],
      "name": "feeReserves",
      "outputs": [
        {
          "internalType": "uint256",
          "name": "",
          "type": "uint256"
        }
      ],
      "stateMutability": "view",
      "type": "function"
    },
    {
      "inputs": [
        {
          "internalType": "bytes32",
          "name": "_key",
          "type": "bytes32"
        }
      ],
      "name": "getDecreasePositionRequestPath",
      "outputs": [
        {
          "internalType": "address[]",
          "name": "",
          "type": "address[]"
        }
      ],
      "stateMutability": "view",
      "type": "function"
    },
    {
      "inputs": [
        {
          "internalType": "bytes32",
          "name": "_key",
          "type": "bytes32"
        }
      ],
      "name": "getIncreasePositionRequestPath",
      "outputs": [
        {
          "internalType": "address[]",
          "name": "",
          "type": "address[]"
        }
      ],
      "stateMutability": "view",
      "type": "function"
    },
    {
      "inputs": [
        {
          "internalType": "address",
          "name": "_account",
          "type": "address"
        },
        {
          "internalType": "uint256",
          "name": "_index",
          "type": "uint256"
        }
      ],
      "name": "getRequestKey",
      "outputs": [
        {
          "internalType": "bytes32",
          "name": "",
          "type": "bytes32"
        }
      ],
      "stateMutability": "pure",
      "type": "function"
    },
    {
      "inputs": [],
      "name": "getRequestQueueLengths",
      "outputs": [
        {
          "internalType": "uint256",
          "name": "",
          "type": "uint256"
        },
        {
          "internalType": "uint256",
          "name": "",
          "type": "uint256"
        },
        {
          "internalType": "uint256",
          "name": "",
          "type": "uint256"
        },
        {
          "internalType": "uint256",
          "name": "",
          "type": "uint256"
        }
      ],
      "stateMutability": "view",
      "type": "function"
    },
    {
      "inputs": [],
      "name": "increasePositionBufferBps",
      "outputs": [
        {
          "internalType": "uint256",
          "name": "",
          "type": "uint256"
        }
      ],
      "stateMutability": "view",
      "type": "function"
    },
    {
      "inputs": [
        {
          "internalType": "uint256",
          "name": "",
          "type": "uint256"
        }
      ],
      "name": "increasePositionRequestKeys",
      "outputs": [
        {
          "internalType": "bytes32",
          "name": "",
          "type": "bytes32"
        }
      ],
      "stateMutability": "view",
      "type": "function"
    },
    {
      "inputs": [],
      "name": "increasePositionRequestKeysStart",
      "outputs": [
        {
          "internalType": "uint256",
          "name": "",
          "type": "uint256"
        }
      ],
      "stateMutability": "view",
      "type": "function"
    },
    {
      "inputs": [
        {
          "internalType": "bytes32",
          "name": "",
          "type": "bytes32"
        }
      ],
      "name": "increasePositionRequests",
      "outputs": [
        {
          "internalType": "address",
          "name": "account",
          "type": "address"
        },
        {
          "internalType": "address",
          "name": "indexToken",
          "type": "address"
        },
        {
          "internalType": "uint256",
          "name": "amountIn",
          "type": "uint256"
        },
        {
          "internalType": "uint256",
          "name": "minOut",
          "type": "uint256"
        },
        {
          "internalType": "uint256",
          "name": "sizeDelta",
          "type": "uint256"
        },
        {
          "internalType": "bool",
          "name": "isLong",
          "type": "bool"
        },
        {
          "internalType": "uint256",
          "name": "acceptablePrice",
          "type": "uint256"
        },
        {
          "internalType": "uint256",
          "name": "executionFee",
          "type": "uint256"
        },
        {
          "internalType": "uint256",
          "name": "blockNumber",
          "type": "uint256"
        },
        {
          "internalType": "uint256",
          "name": "blockTime",
          "type": "uint256"
        },
        {
          "internalType": "bool",
          "name": "hasCollateralInETH",
          "type": "bool"
        }
      ],
      "stateMutability": "view",
      "type": "function"
    },
    {
      "inputs": [
        {
          "internalType": "address",
          "name": "",
          "type": "address"
        }
      ],
      "name": "increasePositionsIndex",
      "outputs": [
        {
          "internalType": "uint256",
          "name": "",
          "type": "uint256"
        }
      ],
      "stateMutability": "view",
      "type": "function"
    },
    {
      "inputs": [],
      "name": "isLeverageEnabled",
      "outputs": [
        {
          "internalType": "bool",
          "name": "",
          "type": "bool"
        }
      ],
      "stateMutability": "view",
      "type": "function"
    },
    {
      "inputs": [
        {
          "internalType": "address",
          "name": "",
          "type": "address"
        }
      ],
      "name": "isPositionKeeper",
      "outputs": [
        {
          "internalType": "bool",
          "name": "",
          "type": "bool"
        }
      ],
      "stateMutability": "view",
      "type": "function"
    },
    {
      "inputs": [
        {
          "internalType": "address",
          "name": "",
          "type": "address"
        }
      ],
      "name": "maxGlobalLongSizes",
      "outputs": [
        {
          "internalType": "uint256",
          "name": "",
          "type": "uint256"
        }
      ],
      "stateMutability": "view",
      "type": "function"
    },
    {
      "inputs": [
        {
          "internalType": "address",
          "name": "",
          "type": "address"
        }
      ],
      "name": "maxGlobalShortSizes",
      "outputs": [
        {
          "internalType": "uint256",
          "name": "",
          "type": "uint256"
        }
      ],
      "stateMutability": "view",
      "type": "function"
    },
    {
      "inputs": [],
      "name": "maxTimeDelay",
      "outputs": [
        {
          "internalType": "uint256",
          "name": "",
          "type": "uint256"
        }
      ],
      "stateMutability": "view",
      "type": "function"
    },
    {
      "inputs": [],
      "name": "minBlockDelayKeeper",
      "outputs": [
        {
          "internalType": "uint256",
          "name": "",
          "type": "uint256"
        }
      ],
      "stateMutability": "view",
      "type": "function"
    },
    {
      "inputs": [],
      "name": "minExecutionFee",
      "outputs": [
        {
          "internalType": "uint256",
          "name": "",
          "type": "uint256"
        }
      ],
      "stateMutability": "view",
      "type": "function"
    },
    {
      "inputs": [],
      "name": "minTimeDelayPublic",
      "outputs": [
        {
          "internalType": "uint256",
          "name": "",
          "type": "uint256"
        }
      ],
      "stateMutability": "view",
      "type": "function"
    },
    {
      "inputs": [],
      "name": "owner",
      "outputs": [
        {
          "internalType": "address",
          "name": "",
          "type": "address"
        }
      ],
      "stateMutability": "view",
      "type": "function"
    },
    {
      "inputs": [],
      "name": "referralStorage",
      "outputs": [
        {
          "internalType": "address",
          "name": "",
          "type": "address"
        }
      ],
      "stateMutability": "view",
      "type": "function"
    },
    {
      "inputs": [],
      "name": "renounceOwnership",
      "outputs": [],
      "stateMutability": "nonpayable",
      "type": "function"
    },
    {
      "inputs": [],
      "name": "router",
      "outputs": [
        {
          "internalType": "address",
          "name": "",
          "type": "address"
        }
      ],
      "stateMutability": "view",
      "type": "function"
    },
    {
      "inputs": [
        {
          "internalType": "address payable",
          "name": "_receiver",
          "type": "address"
        },
        {
          "internalType": "uint256",
          "name": "_amount",
          "type": "uint256"
        }
      ],
      "name": "sendValue",
      "outputs": [],
      "stateMutability": "nonpayable",
      "type": "function"
    },
    {
      "inputs": [
        {
          "internalType": "address",
          "name": "_admin",
          "type": "address"
        }
      ],
      "name": "setAdmin",
      "outputs": [],
      "stateMutability": "nonpayable",
      "type": "function"
    },
    {
      "inputs": [
        {
          "internalType": "uint256",
          "name": "_minBlockDelayKeeper",
          "type": "uint256"
        },
        {
          "internalType": "uint256",
          "name": "_minTimeDelayPublic",
          "type": "uint256"
        },
        {
          "internalType": "uint256",
          "name": "_maxTimeDelay",
          "type": "uint256"
        }
      ],
      "name": "setDelayValues",
      "outputs": [],
      "stateMutability": "nonpayable",
      "type": "function"
    },
    {
      "inputs": [
        {
          "internalType": "uint256",
          "name": "_depositFee",
          "type": "uint256"
        }
      ],
      "name": "setDepositFee",
      "outputs": [],
      "stateMutability": "nonpayable",
      "type": "function"
    },
    {
      "inputs": [
        {
          "internalType": "uint256",
          "name": "_increasePositionBufferBps",
          "type": "uint256"
        }
      ],
      "name": "setIncreasePositionBufferBps",
      "outputs": [],
      "stateMutability": "nonpayable",
      "type": "function"
    },
    {
      "inputs": [
        {
          "internalType": "bool",
          "name": "_isLeverageEnabled",
          "type": "bool"
        }
      ],
      "name": "setIsLeverageEnabled",
      "outputs": [],
      "stateMutability": "nonpayable",
      "type": "function"
    },
    {
      "inputs": [
        {
          "internalType": "address[]",
          "name": "_tokens",
          "type": "address[]"
        },
        {
          "internalType": "uint256[]",
          "name": "_longSizes",
          "type": "uint256[]"
        },
        {
          "internalType": "uint256[]",
          "name": "_shortSizes",
          "type": "uint256[]"
        }
      ],
      "name": "setMaxGlobalSizes",
      "outputs": [],
      "stateMutability": "nonpayable",
      "type": "function"
    },
    {
      "inputs": [
        {
          "internalType": "uint256",
          "name": "_minExecutionFee",
          "type": "uint256"
        }
      ],
      "name": "setMinExecutionFee",
      "outputs": [],
      "stateMutability": "nonpayable",
      "type": "function"
    },
    {
      "inputs": [
        {
          "internalType": "address",
          "name": "_account",
          "type": "address"
        },
        {
          "internalType": "bool",
          "name": "_isActive",
          "type": "bool"
        }
      ],
      "name": "setPositionKeeper",
      "outputs": [],
      "stateMutability": "nonpayable",
      "type": "function"
    },
    {
      "inputs": [
        {
          "internalType": "address",
          "name": "_referralStorage",
          "type": "address"
        }
      ],
      "name": "setReferralStorage",
      "outputs": [],
      "stateMutability": "nonpayable",
      "type": "function"
    },
    {
      "inputs": [
        {
          "internalType": "uint256",
          "name": "_increasePositionRequestKeysStart",
          "type": "uint256"
        },
        {
          "internalType": "uint256",
          "name": "_decreasePositionRequestKeysStart",
          "type": "uint256"
        }
      ],
      "name": "setRequestKeysStartValues",
      "outputs": [],
      "stateMutability": "nonpayable",
      "type": "function"
    },
    {
      "inputs": [
        {
          "internalType": "address",
          "name": "newOwner",
          "type": "address"
        }
      ],
      "name": "transferOwnership",
      "outputs": [],
      "stateMutability": "nonpayable",
      "type": "function"
    },
    {
      "inputs": [],
      "name": "vault",
      "outputs": [
        {
          "internalType": "address",
          "name": "",
          "type": "address"
        }
      ],
      "stateMutability": "view",
      "type": "function"
    },
    {
      "inputs": [],
      "name": "weth",
      "outputs": [
        {
          "internalType": "address",
          "name": "",
          "type": "address"
        }
      ],
      "stateMutability": "view",
      "type": "function"
    },
    {
      "inputs": [
        {
          "internalType": "address",
          "name": "_token",
          "type": "address"
        },
        {
          "internalType": "address",
          "name": "_receiver",
          "type": "address"
        }
      ],
      "name": "withdrawFees",
      "outputs": [],
      "stateMutability": "nonpayable",
      "type": "function"
    },
    {
      "stateMutability": "payable",
      "type": "receive"
    }
  ],
  "bytecode": "0x6080346200011557601f620043f538819003918201601f19168301916001600160401b038311848410176200011a5780849260a09460405283398101031262000115576200004d8162000130565b6200005b6020830162000130565b916200006a6040820162000130565b90608060608201519101519260016000556001549260018060a01b03199333858216176001556040519660018060a01b0380948193823391167f8be0079c531659141344cd1fd0a4f28419497f9722a3daafe3b4186f6b6457e0600080a3606460075516866003541617600355168460045416176004551682600554161760055560065533906002541617600255600160ff196010541617601055600c556142af9081620001468239f35b600080fd5b634e487b7160e01b600052604160045260246000fd5b51906001600160a01b0382168203620001155756fe6080806040526004361015610041575b50361561001b57600080fd5b6005546001600160a01b0316330361002f57005b604051636edaef2f60e11b8152600490fd5b600090813560e01c9081626cc35e14611d50575080630422595414611d1e5780630d4d003d14611ce25780631045c74e14611ca9578063126082cf14611c8c5780631bca8cf014611c6e5780631ce9cb8f14611c355780631f28510614611b77578063225fc9fd14611b3b578063233bfe3b14611ae157806324a084df14611ab357806327b42c0f14611a77578063308aa81f14611a10578063332e0382146117295780633422ead1146116a857806336eba48a146116695780633a2a80c71461164b5780633e72a262146116285780633fc8cef3146115ff5780634067b1321461158a5780634278555f14611558578063490ae210146114fe5780635841fcaa146114e05780635d5c22e8146113ff57806360a362e2146113b757806362f8a3fe14611387578063633451de1461134e57806363ae21031461133057806367a5279314611312578063704b6c02146112a4578063715018a6146112595780637c2eb9f7146111eb5780638da5cb5b146111c257806395e9bbd7146110e95780639698d25a146110b057806398d1e03a146110925780639a208100146110575780639b57862014611039578063ae4d7f9a14610fc9578063c987417014610c32578063cb0269c914610c14578063e1f21c6714610b69578063e70dd2fc1461071d578063ef12c67e146105e3578063f2555278146105a6578063f2cea6a51461056f578063f2fde38b146104bc578063f3883d8b1461046c578063f851a44014610443578063f887ea401461041a578063fa444577146103e1578063faf990f314610332578063fbfa77cf146103095763fc2cee620361000f573461030657602036600319011261030657600254600435906001600160a01b031633036102f4576020817f52a8358457e20bbb36e4086b83fb0749599f1893fe4c35a876c46dc4886d12db92600c55604051908152a180f35b604051634755657960e01b8152600490fd5b80fd5b50346103065780600319360112610306576003546040516001600160a01b039091168152602090f35b503461030657602036600319011261030657604061016091600435815260176020522060018060a01b039081815416916002820154169060038101546004820154600583015460ff60068501541660078501549160088601549360098701549560ff600b600a8a015499015416986040519a8b5260208b015260408a015260608901526080880152151560a087015260c086015260e08501526101008401526101208301521515610140820152f35b5034610306576020366003190112610306576020906040906001600160a01b03610409611dd7565b168152601883522054604051908152f35b50346103065780600319360112610306576004546040516001600160a01b039091168152602090f35b50346103065780600319360112610306576002546040516001600160a01b039091168152602090f35b503461030657604036600319011261030657610486611dc1565b338252601560205260ff604083205416156104aa576104a79060043561259c565b80f35b604051631dd2188d60e31b8152600490fd5b5034610306576020366003190112610306576104d6611dd7565b6104de611f8a565b6001600160a01b0390811690811561051b57600180546001600160a01b0319811684179091551660008051602061425a833981519152600080a380f35b60405162461bcd60e51b815260206004820152602660248201527f4f776e61626c653a206e6577206f776e657220697320746865207a65726f206160448201526564647265737360d01b6064820152608490fd5b5034610306578060031936011261030657608060135460115460145460125491604051938452602084015260408301526060820152f35b5034610306576040366003190112610306576105c0611dd7565b6105c8611dc1565b6002546001600160a01b031633036102f4576104a791612046565b5034610306576060366003190112610306576001600160401b0360043581811161071957610615903690600401611e72565b906024358181116107155761062e903690600401611f2c565b9060443590811161071557610647903690600401611f2c565b6002546001600160a01b0390811633036102f457845b84518110156106b15780826106756106ac9388611ffe565b5116600b6106838388611ffe565b51828a52602090600a825260408b205561069d8488611ffe565b51928a52526040882055611fe2565b61065d565b857fae32d569b058895b9620d6552b09aaffedc9a6f396be4d595a224ad09f8b21396106f38761070f876107018a604051958695606087526060870190611eef565b908582036020870152612012565b908382036040850152612012565b0390a180f35b8380fd5b8280fd5b50610140366003190112610306576004356001600160401b038111610b655761074a903690600401611e72565b610752611dc1565b9061075b611ee0565b60a43591906001600160a01b0383168303610b605761012435928315158403610b605761078c600287541415612710565b60028655600c546101043510610b4e57610104353403610b3c57825160018114159081610b30575b50610b1e5783610ad6575b6107c761275c565b3386526018602052604086205490600182018211610ac2573387526018602052600182016040882055604051946107fd86611ded565b33808752602087018690526001600160a01b0388811660408901526044356060890152606435608089015285151560a0890152831660c088015260c43560e088015260e435610100880152610104356101208801524361014088015242610160880152901515610180870152610877906001840190614046565b8088526019602090815260408920875181546001600160a01b0319166001600160a01b039190911617815590870151805192979192906001600160401b038211610aae57602060018501916108cc848461282c565b01908b5260208b208b5b838110610a91575050505090600b610180610997936002840160018060a01b0360408301511660018060a01b031982541617905560608101516003850155608081015160048501556005840161093260a08301511515826123e6565b60c08201518154610100600160a81b031916600891821b610100600160a81b03161790915560e082015160068601556101008201516007860155610120820151908501556101408101516009850155610160810151600a8501550151151591016123e6565b60125492600160401b841015610a7b577f506f2634e4508d88b04b7511af75c6d4c29b2b6f4f5067676b9400b28f3761d2956109f66109dd866001809801601255611da6565b819391549060031b600019811b9283911b169119161790565b9055610a0f604051956101808752610180870190611eef565b96848060a01b031660208601526044356040860152606435606086015215156080850152828060a01b031660a084015260c43560c084015260e43560e0840152610104356101008401520161012082015243610140820152426101608201528033930390a26001815580f35b634e487b7160e01b600052604160045260246000fd5b82516001600160a01b0316818301556020909201916001016108d6565b634e487b7160e01b8b52604160045260248bfd5b634e487b7160e01b87526011600452602487fd5b82516000198101908111610ac2576001600160a01b0390610af79085611ffe565b516005546001600160a01b03169116146107bf575b6040516320db826760e01b8152600490fd5b6040516366b045ff60e11b8152600490fd5b600291501415386107b4565b604051632a9ffab760e21b8152600490fd5b60405163feced27f60e01b8152600490fd5b600080fd5b5080fd5b503461030657606036600319011261030657806020610bb9610b89611dd7565b610b91611dc1565b610b99611f8a565b60405194858094819363095ea7b360e01b835260443590600484016120ba565b03926001600160a01b03165af18015610c0957610bd4575080f35b6020813d8211610c01575b81610bec60209383611e38565b81010312610b6557610bfd90612247565b5080f35b3d9150610bdf565b6040513d84823e3d90fd5b50346103065780600319360112610306576020600f54604051908152f35b50610120366003190112610306576004356001600160401b038111610b6557610c5f903690600401611e72565b610c67611dc1565b9060a435801515810361071557610c82600285541415612710565b60028455600c5460e43510610b4e5760e4353403610b3c57815160018114159081610fbd575b50610b1e57610cb561275c565b610cc161010435614089565b604435610f39575b33600052601660205260406000205490600182018211610f235733600052601660205260018201604060002055604051610d0281611e09565b33808252602082018590526001600160a01b03861660408301526044356060830152606435608083015260843560a083015282151560c083015260c43560e083015260e43561010083015243610120830152426101408301526000610160830152610d71906001850190614046565b6000818152601760209081526040909120835181546001600160a01b0319166001600160a01b039190911617815590830151805192939192906001600160401b038211610a7b5760206001850191610dc9848461282c565b0190600052602060002060005b838110610f06575050505060008051602061423a833981519152959492610e8783600b610160610e8c95600260019a98018a8060a01b036040830151168b8060a01b0319825416179055606081015160038501556080810151600485015560a08101516005850155610e5160c08201511515600686016123e6565b60e0810151600785015561010081015160088501556101208101516009850155610140810151600a8501550151151591016123e6565b6140f4565b610ea160405194610180808752860190611eef565b95838060a01b03166020850152604435604085015260643560608501526084356080850152151560a084015260c43560c084015260e43560e08401520161010082015243610120820152426101408201523a6101608201528033930390a26001815580f35b82516001600160a01b031681830155602090920191600101610dd6565b634e487b7160e01b600052601160045260246000fd5b60045484906001600160a01b0390811690610f5385611ff1565b511690803b15610719576084839260405194859384926303704f0f60e31b8452600484015233602484015230604484015260443560648401525af18015610fb257610f9f575b50610cc9565b610fab90949194611e25565b9238610f99565b6040513d87823e3d90fd5b60029150141538610ca8565b503461030657602036600319011261030657610fe3611dd7565b6002546001600160a01b039190821633036102f4577f828abcccea18192c21d645e575652c49e20b986dab777906fc473d056b01b6a891602091168060018060a01b03196008541617600855604051908152a180f35b50346103065780600319360112610306576020601354604051908152f35b503461030657604036600319011261030657611071611dc1565b338252601560205260ff604083205416156104aa576104a790600435612410565b50346103065780600319360112610306576020600754604051908152f35b5034610306576020366003190112610306576020906040906001600160a01b036110d8611dd7565b168152600b83522054604051908152f35b50346103065760203660031901126103065760406111be91600435815260176020522060405161111881611e09565b61016060ff600b60018060a01b0394858154168552611139600182016127c1565b9586602087015260028201541660408601526003810154606086015260048101546080860152600581015460a086015282600682015416151560c0860152600781015460e086015260088101546101008601526009810154610120860152600a8101546101408601520154161515910152604051918291602083526020830190611eef565b0390f35b50346103065780600319360112610306576001546040516001600160a01b039091168152602090f35b503461030657602036600319011261030657600435801515809103610b65576002546001600160a01b031633036102f45760207f4eb87a5935d402aa24c01b45bfb30adefcd2328b480f2d967864de4b64ea929f9160ff196010541660ff821617601055604051908152a180f35b5034610306578060031936011261030657611272611f8a565b600180546001600160a01b0319811690915581906001600160a01b031660008051602061425a8339815191528280a380f35b5034610306576020366003190112610306577f5a272403b402d892977df56625f4164ccaf70ca3863991c43ecfe76a6905b0a160206112e1611dd7565b6112e9611f8a565b600280546001600160a01b0319166001600160a01b03929092169182179055604051908152a180f35b50346103065780600319360112610306576020600654604051908152f35b50346103065780600319360112610306576020600c54604051908152f35b5034610306576020366003190112610306576020906040906001600160a01b03611376611dd7565b168152601683522054604051908152f35b50346103065760403660031901126103065760206113af6113a6611dd7565b60243590614046565b604051908152f35b50346103065760403660031901126103065760209060016113f36113d9611dc1565b6113e7600285541415612710565b60028455600435613ec0565b91556040519015158152f35b50346103065760203660031901126103065760406111be91600435815260196020522060405161142e81611ded565b61018060ff600b60018060a01b039485815416855261144f600182016127c1565b9586602087015280600283015416604087015260038201546060870152600482015460808701526005820154848116151560a088015260081c1660c0860152600681015460e0860152600781015461010086015260088101546101208601526009810154610140860152600a8101546101608601520154161515910152604051918291602083526020830190611eef565b50346103065780600319360112610306576020600d54604051908152f35b503461030657602036600319011261030657600254600435906001600160a01b031633036102f4576020817f974fd3c1fcb4653dfc4fb740c4c692cd212d55c28f163f310128cb64d830067592600655604051908152a180f35b503461030657602036600319011261030657600435601254811015610b65576020826012829452200154604051908152f35b5034610306576060366003190112610306576002546044359060243590600435906001600160a01b031633036102f4577fb98e759701eaca2e60c25e91109003c1c7442ef731b5d569037063005da8254d9260609282600d5580600e5581600f5560405192835260208301526040820152a180f35b50346103065780600319360112610306576005546040516001600160a01b039091168152602090f35b5034610306578060031936011261030657602060ff601054166040519015158152f35b50346103065780600319360112610306576020600e54604051908152f35b50346103065760203660031901126103065760209060ff906040906001600160a01b03611694611dd7565b168152601584522054166040519015158152f35b5034610306576040366003190112610306576116c2611dd7565b60243590811515808303610715576002546001600160a01b039190821633036102f45761171f6020927ffbabc02389290a451c6e600d05bf9887b99bfad39d8e1237e4e3df042e4941fe94169485875260158452604087206123e6565b604051908152a280f35b50610100366003190112610306576004356001600160401b038111610b6557611756903690600401611e72565b61175e611dc1565b90611767611ee0565b611775600285541415612710565b60028455600c5460c43510610b4e5760c4353403610b3c57815160018114159081611a04575b50610b1e576001600160a01b036117b183611ff1565b511660018060a01b036005541603610b0c576117cb61275c565b6117d660e435614089565b6117e260c435346127b4565b9033855260166020526040852054916001830183116119f057338652601660205260018301604087205560405161181881611e09565b33815284602082015260018060a01b0386166040820152816060820152604435608082015260643560a082015282151560c082015260a43560e082015260c435610100820152436101208201524261014082015260016101608201526118816001850133614046565b8088526017602090815260408920835181546001600160a01b0319166001600160a01b039190911617815590830151805192939192906001600160401b038211610aae57602060018501916118d6848461282c565b01908b5260208b208b5b8381106119d3575050505060019492610e8783600b61016061195c95600260008051602061423a8339815191529d9c9a98018b8060a01b036040830151168c8060a01b0319825416179055606081015160038501556080810151600485015560a08101516005850155610e5160c08201511515600686016123e6565b61197160405195610180808852870190611eef565b96848060a01b03166020860152604085015260443560608501526064356080850152151560a084015260a43560c084015260c43560e08401520161010082015243610120820152426101408201523a6101608201528033930390a26001815580f35b82516001600160a01b0316818301556020909201916001016118e0565b634e487b7160e01b86526011600452602486fd5b6002915014153861179b565b50346103065760403660031901126103065760025460043590602435906001600160a01b031633036102f457816040917febb0f666150f4be5b60c45df8f3e49992510b0128027fe58eea6110f296493bc936013558060145582519182526020820152a180f35b50346103065760403660031901126103065760209060016113f3611a99611dc1565b611aa7600285541415612710565b6002845560043561293d565b5034610306576040366003190112610306576104a7611ad0611dd7565b611ad8611f8a565b6024359061230e565b503461030657602036600319011261030657600254600435906001600160a01b031633036102f4576020817f21167d0d4661af93817ebce920f18986eed3d75d5e1c03f2aed05efcbafbc45292600755604051908152a180f35b50346103065760403660031901126103065760209060016113f3611b5d611dc1565b611b6b600285541415612710565b6002845560043561357a565b503461030657602036600319011261030657604061018091600435815260196020522060018060a01b038082541691816002820154169160038201549060048301549060058401549060068501549060078601549260088701549460098801549660ff600b600a8b01549a015416996040519b8c5260208c015260408b015260608a015260ff8116151560808a015260081c1660a088015260c087015260e08601526101008501526101208401526101408301521515610160820152f35b5034610306576020366003190112610306576020906040906001600160a01b03611c5d611dd7565b168152600983522054604051908152f35b50346103065780600319360112610306576020601454604051908152f35b503461030657806003193601126103065760206040516127108152f35b5034610306576020366003190112610306576020906040906001600160a01b03611cd1611dd7565b168152600a83522054604051908152f35b50346103065760403660031901126103065760209060016113f3611d04611dc1565b611d12600285541415612710565b60028455600435613822565b503461030657602036600319011261030657600435601154811015610b65576020826011829452200154604051908152f35b905034610b655781600319360112610b65576008546001600160a01b03168152602090f35b601154811015611d9057601160005260206000200190600090565b634e487b7160e01b600052603260045260246000fd5b601254811015611d9057601260005260206000200190600090565b602435906001600160a01b0382168203610b6057565b600435906001600160a01b0382168203610b6057565b6101a081019081106001600160401b03821117610a7b57604052565b61018081019081106001600160401b03821117610a7b57604052565b6001600160401b038111610a7b57604052565b601f909101601f19168101906001600160401b03821190821017610a7b57604052565b6001600160401b038111610a7b5760051b60200190565b81601f82011215610b6057803591611e8983611e5b565b92611e976040519485611e38565b808452602092838086019260051b820101928311610b60578301905b828210611ec1575050505090565b81356001600160a01b0381168103610b60578152908301908301611eb3565b608435908115158203610b6057565b90815180825260208080930193019160005b828110611f0f575050505090565b83516001600160a01b031685529381019392810192600101611f01565b81601f82011215610b6057803591611f4383611e5b565b92611f516040519485611e38565b808452602092838086019260051b820101928311610b60578301905b828210611f7b575050505090565b81358152908301908301611f6d565b6001546001600160a01b03163303611f9e57565b606460405162461bcd60e51b815260206004820152602060248201527f4f776e61626c653a2063616c6c6572206973206e6f7420746865206f776e65726044820152fd5b6000198114610f235760010190565b805115611d905760200190565b8051821015611d905760209160051b010190565b90815180825260208080930193019160005b828110612032575050505090565b835185529381019392810192600101612024565b6001600160a01b0390811660008181526009602052604090205491929180156120b4577f4f1b51dd7a2fcb861aa2670f668be66835c4ee12b4bbbf037e4d0018f39819e493606093600060408120556120a08382866120d5565b6040519384521660208301526040820152a1565b50505050565b6001600160a01b039091168152602081019190915260400190565b60409182519161210a836120fc6020978883019563a9059cbb60e01b8752602484016120ba565b03601f198101855284611e38565b8351926001600160a01b039190911691908385016001600160401b03811185821017610a7b5785528584527f5361666545524332303a206c6f772d6c6576656c2063616c6c206661696c656486850152823b156122035761217e939260009283809351925af1612178612254565b90612293565b80518061218b5750505050565b81849181010312610b6057826121a19101612247565b156121ad5780806120b4565b60849250519062461bcd60e51b82526004820152602a60248201527f5361666545524332303a204552433230206f7065726174696f6e20646964206e6044820152691bdd081cdd58d8d9595960b21b6064820152fd5b845162461bcd60e51b815260048101879052601d60248201527f416464726573733a2063616c6c20746f206e6f6e2d636f6e74726163740000006044820152606490fd5b51908115158203610b6057565b3d1561228e573d906001600160401b038211610a7b5760405191612282601f8201601f191660200184611e38565b82523d6000602084013e565b606090565b9091901561229f575090565b8151156122af5750805190602001fd5b6040519062461bcd60e51b82528160208060048301528251908160248401526000935b8285106122f5575050604492506000838284010152601f80199101168101030190fd5b84810182015186860160440152938101938593506122d2565b8147106123a1576000918291829182916001600160a01b03165af1612331612254565b501561233957565b60405162461bcd60e51b815260206004820152603a60248201527f416464726573733a20756e61626c6520746f2073656e642076616c75652c20726044820152791958da5c1a595b9d081b585e481a185d99481c995d995c9d195960321b6064820152608490fd5b60405162461bcd60e51b815260206004820152601d60248201527f416464726573733a20696e73756666696369656e742062616c616e63650000006044820152606490fd5b9060ff801983541691151516179055565b9081526001600160a01b03909116602082015260400190565b9060135491601154808410156120b457808211612594575b50905b81831061243a575b5050601355565b909161244581611d75565b9054600391821b1c6040848151926327b42c0f60e01b84526020926004908561247185858584016123f7565b03958581600098818a305af187918161254f575b5061253957505163225fc9fd60e01b8152928492849283926124aa92909184016123f7565b038186305af1918390836124fe575b5050506124ec575b50906124e5915b6124d182611d75565b9091825491600019911b1b19169055611fe2565b919061242b565b156124f757386124c1565b5091612433565b909180939450813d8311612532575b6125178183611e38565b81010312610306575061252990612247565b903880806124b9565b503d61250d565b95505050505050156124f757906124e5916124c8565b87809294959697508193503d831161258d575b61256c8183611e38565b8101031261258957906125828a95949392612247565b9038612485565b8680fd5b503d612562565b905038612428565b9060145491601254808410156120b457808211612708575b50905b8183106125c6575b5050601455565b90916125d181611da6565b9054600391821b1c604084815192630d4d003d60e01b8452602092600490856125fd85858584016123f7565b03958581600098818a305af18791816126c7575b506126b1575051633051b17160e11b81529284928492839261263692909184016123f7565b038186305af191839083612676575b505050612664575b509061265d915b6124d182611da6565b91906125b7565b1561266f573861264d565b50916125bf565b909180939450813d83116126aa575b61268f8183611e38565b8101031261030657506126a190612247565b90388080612645565b503d612685565b955050505050501561266f579061265d91612654565b87809294959697508193503d8311612701575b6126e48183611e38565b8101031261258957906126fa8a95949392612247565b9038612611565b503d6126da565b9050386125b4565b1561271757565b60405162461bcd60e51b815260206004820152601f60248201527f5265656e7472616e637947756172643a207265656e7472616e742063616c6c006044820152606490fd5b3461276357565b6005546001600160a01b0316803b15610b6057600060049160405192838092630d0e30db60e41b825234905af180156127a85761279d5750565b6127a690611e25565b565b6040513d6000823e3d90fd5b91908203918211610f2357565b9060405191828154918282526020928383019160005283600020936000905b8282106127f6575050506127a692500383611e38565b85546001600160a01b0316845260019586019588955093810193909101906127e0565b81810292918115918404141715610f2357565b600160401b8211610a7b5780549180825582811061284957505050565b60009182526020822092830192015b82811061286457505050565b818155600101612858565b6000908181556001808201805490848155816128c6575b50505080826002600b93015582600382015582600482015582600582015582600682015582600782015582600882015582600982015582600a8201550155565b845260208420908101905b818110156128865784815582016128d1565b969390926129036101209996939c9b9a9794610140808b528a0190611eef565b6001600160a01b03909c166020890152604088015260608701526080860152151560a085015260c084015260e08301526101008201520152565b906000828152601760205260408120926040519361295a85611e09565b80546001600160a01b03168552612973600182016127c1565b602086015260018060a01b0360028201541660408601526003810154606086015260048101546080860152600581015460a086015260ff600682015416151560c0860152600781015460e086015260088101546101008601526009810154908161012087015260ff600b600a83015492836101408a0152015416151561016087015260018060a01b0386511690811561301f57612a0f9261411a565b156130185781526017602052612a276040822061286f565b606083015180612f45575b5060018060a01b03835116602084015180519081600019810111612f31576001600160a01b0391612a699160001990910190611ffe565b51604086015160a087015160c088015160e0890151600354929795909416936001600160a01b0392831693911580159390921691612ebb57604051637092736960e11b815260048101839052602081602481885afa908115612cf8578791612e89575b5011612e77575b8115612dd457808552600a60205260408520548015159081612d60575b50612d4e575b604051638da5cb5b60e01b815293602085600481875afa948515612d43578695612d07575b506001600160a01b0385163b15612d03576040516306d63c1d60e41b8152600481018590528681602481836001600160a01b038b165af18015612cf857612ce5575b506004546001600160a01b0316803b15612589578692918360a4926040519687958694630f8ee8bb60e11b86528d6004870152602486015260448501528c606485015260848401525af18015612cda57908491612cc6575b50506001600160a01b0382163b156107195760405163d3c87bbb60e01b815260048101919091529082908290602490829084906001600160a01b03165af18015610c0957612cb2575b5050612c199291612c0e9161309c565b6101008301516132c7565b7f1be316b94d38c07bd41cdb4913772d0a0a82802786a2f8b657b6e85dbcdfc64160018060a01b03825116916020810151612caa60018060a01b0360408401511692606081015190608081015160a082015160c0830151151560e08401519161010085015193612c9d610140612c94610120890151436127b4565b970151426127b4565b966040519a8b9a8b6128e3565b0390a2600190565b612cbc8291611e25565b6103065780612bfe565b612ccf90611e25565b610719578238612bb5565b6040513d86823e3d90fd5b612cf190969196611e25565b9438612b5d565b6040513d89823e3d90fd5b8580fd5b9094506020813d602011612d3b575b81612d2360209383611e38565b81010312612d0357612d3490613038565b9338612b1b565b3d9150612d16565b6040513d88823e3d90fd5b6040516327e1f89160e11b8152600490fd5b905060405163783a2b6760e11b8152826004820152602081602481885afa8015612cf85789908890612d9e575b612d97925061302b565b1138612af0565b50506020813d602011612dcc575b81612db960209383611e38565b810103126125895788612d979151612d8d565b3d9150612dac565b808552600b60205260408520548015159081612e03575b5015612af657604051631cfb746d60e21b8152600490fd5b905060405163114f1b5560e31b8152826004820152602081602481885afa8015612cf85789908890612e41575b612e3a925061302b565b1138612deb565b50506020813d602011612e6f575b81612e5c60209383611e38565b810103126125895788612e3a9151612e30565b3d9150612e4f565b604051636dddf41160e11b8152600490fd5b90506020813d602011612eb3575b81612ea460209383611e38565b81010312612589575138612acc565b3d9150612e97565b6040516340d3096b60e11b815260048101839052602081602481885afa908115612cf8578791612eff575b501015612ad35760405163127f08c960e11b8152600490fd5b90506020813d602011612f29575b81612f1a60209383611e38565b81010312612589575138612ee6565b3d9150612f0d565b634e487b7160e01b84526011600452602484fd5b60208401516001815111612fcc575b506020840151604085015160c086015160a0870151612f83949093911515926001600160a01b0316913361333f565b602084015180519081600019810111612f3157612fc692916001600160a01b0391612fb2916000190190611ffe565b516003546001600160a01b031691166120d5565b38612a32565b612ffb91506001600160a01b0390612fe390611ff1565b511660018060a01b03600354166060860151916120d5565b612f836130126020850151608086015130916131ce565b90612f54565b5091505090565b50505050505050600190565b91908201809211610f2357565b51906001600160a01b0382168203610b6057565b9190826040910312610b6057613066602083519301613038565b90565b6001600160a01b039182168152602081019290925260408201929092526060810192909252909116608082015260a00190565b6008546001600160a01b0393929190841680156131c7576040805163534ef88360e01b81528387166004820152918190839060249082905afa95861561318057600092839761318b575b509060206004926003541682519384809263318bc68960e01b82525afa9182156131805760009261314b575b50917fc2414023ce7002ee98557d1e7be21e5559073336f2217ee5f9b2e50fd85f71ee959691613146935195869586613069565b0390a1565b90916020823d8211613178575b8161316560209383611e38565b8101031261030657505190613146613112565b3d9150613158565b50513d6000823e3d90fd5b82919750602093506131b4906004933d84116131c0575b6131ac8183611e38565b81019061304c565b939093979192506130e6565b503d6131a2565b5050509050565b9160009260028151146131ed576040516366b045ff60e11b8152600490fd5b6001600160a01b03908161320082611ff1565b5116908051600110156132b3578291866020946040606494015116938060035416906040519788968795634998b10960e11b8752600487015260248601521660448401525af19283156132a7578093613271575b5050811061325f5790565b604051637294b85560e11b8152600490fd5b909192506020823d821161329f575b8161328d60209383611e38565b81010312610306575051903880613254565b3d9150613280565b604051903d90823e3d90fd5b634e487b7160e01b86526032600452602486fd5b6005546001600160a01b031691823b15610b605760008093602460405180968193632e1a7d4d60e01b83528760048401525af19283156127a8576127a693613310575b5061230e565b61331990611e25565b3861330a565b8115613329570490565b634e487b7160e01b600052601260045260246000fd5b928282613351959794979693966133cf565b613359575090565b60065461271090810390808211610f235761337761337f9285612819565b0480936127b4565b815190916000198201918211610f23576133bd916001600160a01b03916133a69190611ffe565b51169182600052600960205260406000205461302b565b90600052600960205260406000205590565b9394909492919215613570578015613566578451600019810195908611610f23576001600160a01b039586916134059190611ffe565b5116948060035416928160405196634a3f088d60e01b885216600487015286602487015216604485015260016064850152610100928385608481865afa9485156127a8576000948596613520575b50508315613515576134889261346b6020938661302b565b96604051809581948293630a48d5a960e01b8452600484016120ba565b03915afa80156127a8576000906134e2575b6134a591508361302b565b90612710928382029182048403610f23576134bf9161331f565b926007548301809311610f23576134de926134d991612819565b61331f565b1090565b6020823d821161350d575b816134fa60209383611e38565b8101031261030657506134a5905161349a565b3d91506134ed565b505050505050600090565b908095929650813d831161355f575b6135398183611e38565b810103126103065750825161355560c060208601519501612247565b5092933880613453565b503d61352f565b5050505050600190565b5050505050600090565b80600052601760205260406000206040519061359582611e09565b80546001600160a01b039081168352916135b1600183016127c1565b94602082019586528360028401541692604083019384526003810154946060840195865260048201549260808501938452600583015460a0860190815260ff60068501541660c08701901515815260078501549160e0880192835260088601549361010089019485528860098801549661012082019780895260ff600b610140600a8d015495019b858d52015416926101608d019315158452828d51169081156137285761365e926141d0565b1561371457808f9b7f35b638e650e2328786fb405bd69d2083dbedc018d086662e74b775b4f1dae4bf9f8f95612caa9e612c9d97856136eb986136ce9560005260176020526136b0604060002061286f565b51156136f357506136c7915051858551169061373f565b8a516132c7565b51169e519b51169b519851925193511515945195519651436127b4565b9651426127b4565b61370061370f9351611ff1565b511690868651169051916120d5565b6136c7565b505050505050505050505050505050600090565b505050505050505050505050505050505050600190565b60055490916000916001600160a01b03908116803b1561071557838091602460405180948193632e1a7d4d60e01b83528a60048401525af18015612cda576137a8575b50828094819382938391831561379e575b1690f1156132a75750565b6108fc9250613793565b6137b59093919293611e25565b919038613782565b979490936137de6101409a9793949d9c9b9895610160808c528b0190611eef565b6001600160a01b0394851660208b015260408a019d909d526060890152151560808801521660a086015260c085015260e08401526101008301526101208201520152565b906000828152601960205260408120926040519361383f85611ded565b80546001600160a01b03168552613858600182016127c1565b602086015260028101546001600160a01b0390811660408701526003820154606087015260048201546080870152600582015460ff808216151560a0890152600891821c831660c0890152600684015460e089015260078401546101008901529083015461012088015260098301546101408801819052600a8401546101608901819052600b90940154909116151561018088015286519092911690811561301f576139039261411a565b15613018578152601960205261391b6040822061286f565b825160208401516001600160a01b0391821692919061393990611ff1565b5160408601516060870151608088015160a089015160e08a015160035493989296929591158015956001600160a01b0395861695169390921691613d3757604051637092736960e11b815260048101849052602081602481885afa908115613cab578991613d01575b5011612e77575b604051638da5cb5b60e01b815293602085600481875afa948515613cf6578895613cba575b506001600160a01b0385163b15613cb6576040516306d63c1d60e41b8152600481018590528881602481836001600160a01b038b165af18015613cab57613c90575b50602092918860e49260018060a01b0360045416906040519c8d968795632662166b60e01b87528c60048801526024870152604486015260648501528a608485015260a48401523060c48401525af1958615610fb2578596613c5c575b506001600160a01b0382163b15613c585760405163d3c87bbb60e01b815260048101919091529084908290602490829084906001600160a01b03165af18015612cda57908491613c44575b505090613ac491613dad565b8160208501516001815111613c0d575b505061018084015115613baa575060c0830151613b0a9291613aff916001600160a01b03169061373f565b6101208301516132c7565b7f21435c5b618d77ff3657140cd3318e2cffaebc5e0e1b7318f56a9ba4044c3ed260018060a01b03825116916020810151612caa60018060a01b0360408401511692606081015190608081015160a0820151151560018060a01b0360c08401511660e0840151906101008501519261012086015194613b9d610160613b946101408a0151436127b4565b980151426127b4565b976040519b8c9b8c6137bd565b6020840151805190916000198201918211613bf95750613b0a9392613bf49290916001600160a01b0391613bde9190611ffe565b5160c08701516001600160a01b031691166120d5565b613aff565b634e487b7160e01b81526011600452602490fd5b919250613c26916001600160a01b0390612fb290611ff1565b613c3c60208401513090610100860151906131ce565b903880613ad4565b613c4d90611e25565b610719578238613ab8565b8480fd5b9095506020813d602011613c88575b81613c7860209383611e38565b81010312610b6057519438613a6d565b3d9150613c6b565b9160e49198613ca160209594611e25565b9891509192613a10565b6040513d8b823e3d90fd5b8780fd5b9094506020813d602011613cee575b81613cd660209383611e38565b81010312613cb657613ce790613038565b93386139ce565b3d9150613cc9565b6040513d8a823e3d90fd5b90506020813d602011613d2f575b81613d1c60209383611e38565b81010312613d2b5751386139a2565b8880fd5b3d9150613d0f565b6040516340d3096b60e11b815260048101849052602081602481885afa908115613cab578991613d7b575b5010156139a95760405163127f08c960e11b8152600490fd5b90506020813d602011613da5575b81613d9660209383611e38565b81010312613d2b575138613d62565b3d9150613d89565b6008546001600160a01b0393929190841680156131c7576040805163534ef88360e01b81528387166004820152918190839060249082905afa958615613180576000928397613e9b575b508215613e92579060206004926003541682519384809263318bc68960e01b82525afa91821561318057600092613e5d575b50917f474c763ff84bf2c2039a6d9fea955ecd0f724030e3c365b91169c6a16fe751b7959691613146935195869586613069565b90916020823d8211613e8a575b81613e7760209383611e38565b8101031261030657505190613146613e29565b3d9150613e6a565b50505050509050565b90965081613eb69293503d84116131c0576131ac8183611e38565b9190919538613df7565b90816000526019602052604060002091604051613edc81611ded565b83546001600160a01b039081168252600b613ef9600187016127c1565b95602084019687528260028201541693604081019485526003820154956060820196875260048301549760808301988952600584015460a084019660ff8216151588528060c086019260081c16825260068601549260e08601938452600787015494610100870195865260088801549661012081019788526009890154610140820199818b5260ff600a8201549c8d9261016086019e8f5201541615156101808401528583511690811561372857613fb0926141d0565b15613714578392839260005260196020526040600020613fcf9061286f565b885190613fdb916132c7565b51169c5199511699519a519751151591511691519251935194514390614000916127b4565b955161400c90426127b4565b966040519a8b9a61401d9a8c6137bd565b037f87abfd78e844f28318363bdf3da99eab2f4a2da9ff7ae365484507f7b6c3f80591a2600190565b604051606091821b6001600160601b031916602082019081526034808301949094529281529081016001600160401b03811182821017610a7b5760405251902090565b801515806140e0575b6140995750565b6008546001600160a01b031690813b15610b60576000916044839260405194859384926356b4b2ad60e01b845233600485015260248401525af180156127a85761279d5750565b506008546001600160a01b03161515614092565b601154600160401b811015610a7b576109dd8160016141169301601155611d75565b9055565b919091614129600f548461302b565b4210156141be5730331480156141a6575b60ff60105416158061419e575b6104aa5761418957506001600160a01b031633036104aa5761416d4291600e549061302b565b1161417757600190565b6040516364037fb760e11b8152600490fd5b600d546141989350915061302b565b43101590565b508015614147565b5033600052601560205260ff6040600020541661413a565b604051637f780e6960e11b8152600490fd5b9190913033148015614221575b60ff601054161580614219575b6104aa5761418957506001600160a01b031633036104aa57600e5461420e9161302b565b421061417757600190565b5080156141ea565b5033600052601560205260ff604060002054166141dd56fea89f00a1c1cd0de066abac1a05f9314520fef2a9b98f6a99ff4548ed1161c03c8be0079c531659141344cd1fd0a4f28419497f9722a3daafe3b4186f6b6457e0a2646970667358221220cb61c6505838b66515edd2f905a9f3755af890ca299d4fc6e8ae99f25013660864736f6c63430008110033",
  "linkReferences": {},
  "deployedLinkReferences": {}
}