{
  "_format": "hh-sol-artifact-1",
  "contractName": "PositionRouter",
  "sourceName": "contracts/core/PositionRouter.sol",
  "abi": [
    {
      "inputs": [
        {
          "internalType": "address",
          "name": "_vault",
          "type": "address"
        },
        {
          "internalType": "address",
          "name": "_router",
          "type": "address"
        },
        {
          "internalType": "address",
          "name": "_weth",
          "type": "address"
        },
        {
          "internalType": "uint256",
          "name": "_depositFee",
          "type": "uint256"
        },
        {
          "internalType": "uint256",
          "name": "_minExecutionFee",
          "type": "uint256"
        }
      ],
      "stateMutability": "nonpayable",
      "type": "constructor"
    },
    {
      "inputs": [],
      "name": "AdminRestricted",
      "type": "error"
    },
    {
      "inputs": [],
      "name": "InvalidSender",
      "type": "error"
    },
    {
      "anonymous": false,
      "inputs": [
        {
          "indexed": true,
          "internalType": "address",
          "name": "account",
          "type": "address"
        },
        {
          "indexed": false,
          "internalType": "address[]",
          "name": "path",
          "type": "address[]"
        },
        {
          "indexed": false,
          "internalType": "address",
          "name": "indexToken",
          "type": "address"
        },
        {
          "indexed": false,
          "internalType": "uint256",
          "name": "collateralDelta",
          "type": "uint256"
        },
        {
          "indexed": false,
          "internalType": "uint256",
          "name": "sizeDelta",
          "type": "uint256"
        },
        {
          "indexed": false,
          "internalType": "bool",
          "name": "isLong",
          "type": "bool"
        },
        {
          "indexed": false,
          "internalType": "address",
          "name": "receiver",
          "type": "address"
        },
        {
          "indexed": false,
          "internalType": "uint256",
          "name": "acceptablePrice",
          "type": "uint256"
        },
        {
          "indexed": false,
          "internalType": "uint256",
          "name": "minOut",
          "type": "uint256"
        },
        {
          "indexed": false,
          "internalType": "uint256",
          "name": "executionFee",
          "type": "uint256"
        },
        {
          "indexed": false,
          "internalType": "uint256",
          "name": "blockGap",
          "type": "uint256"
        },
        {
          "indexed": false,
          "internalType": "uint256",
          "name": "timeGap",
          "type": "uint256"
        }
      ],
      "name": "CancelDecreasePosition",
      "type": "event"
    },
    {
      "anonymous": false,
      "inputs": [
        {
          "indexed": true,
          "internalType": "address",
          "name": "account",
          "type": "address"
        },
        {
          "indexed": false,
          "internalType": "address[]",
          "name": "path",
          "type": "address[]"
        },
        {
          "indexed": false,
          "internalType": "address",
          "name": "indexToken",
          "type": "address"
        },
        {
          "indexed": false,
          "internalType": "uint256",
          "name": "amountIn",
          "type": "uint256"
        },
        {
          "indexed": false,
          "internalType": "uint256",
          "name": "minOut",
          "type": "uint256"
        },
        {
          "indexed": false,
          "internalType": "uint256",
          "name": "sizeDelta",
          "type": "uint256"
        },
        {
          "indexed": false,
          "internalType": "bool",
          "name": "isLong",
          "type": "bool"
        },
        {
          "indexed": false,
          "internalType": "uint256",
          "name": "acceptablePrice",
          "type": "uint256"
        },
        {
          "indexed": false,
          "internalType": "uint256",
          "name": "executionFee",
          "type": "uint256"
        },
        {
          "indexed": false,
          "internalType": "uint256",
          "name": "blockGap",
          "type": "uint256"
        },
        {
          "indexed": false,
          "internalType": "uint256",
          "name": "timeGap",
          "type": "uint256"
        }
      ],
      "name": "CancelIncreasePosition",
      "type": "event"
    },
    {
      "anonymous": false,
      "inputs": [
        {
          "indexed": true,
          "internalType": "address",
          "name": "account",
          "type": "address"
        },
        {
          "indexed": false,
          "internalType": "address[]",
          "name": "path",
          "type": "address[]"
        },
        {
          "indexed": false,
          "internalType": "address",
          "name": "indexToken",
          "type": "address"
        },
        {
          "indexed": false,
          "internalType": "uint256",
          "name": "collateralDelta",
          "type": "uint256"
        },
        {
          "indexed": false,
          "internalType": "uint256",
          "name": "sizeDelta",
          "type": "uint256"
        },
        {
          "indexed": false,
          "internalType": "bool",
          "name": "isLong",
          "type": "bool"
        },
        {
          "indexed": false,
          "internalType": "address",
          "name": "receiver",
          "type": "address"
        },
        {
          "indexed": false,
          "internalType": "uint256",
          "name": "acceptablePrice",
          "type": "uint256"
        },
        {
          "indexed": false,
          "internalType": "uint256",
          "name": "minOut",
          "type": "uint256"
        },
        {
          "indexed": false,
          "internalType": "uint256",
          "name": "executionFee",
          "type": "uint256"
        },
        {
          "indexed": false,
          "internalType": "uint256",
          "name": "index",
          "type": "uint256"
        },
        {
          "indexed": false,
          "internalType": "uint256",
          "name": "blockNumber",
          "type": "uint256"
        },
        {
          "indexed": false,
          "internalType": "uint256",
          "name": "blockTime",
          "type": "uint256"
        }
      ],
      "name": "CreateDecreasePosition",
      "type": "event"
    },
    {
      "anonymous": false,
      "inputs": [
        {
          "indexed": true,
          "internalType": "address",
          "name": "account",
          "type": "address"
        },
        {
          "indexed": false,
          "internalType": "address[]",
          "name": "path",
          "type": "address[]"
        },
        {
          "indexed": false,
          "internalType": "address",
          "name": "indexToken",
          "type": "address"
        },
        {
          "indexed": false,
          "internalType": "uint256",
          "name": "amountIn",
          "type": "uint256"
        },
        {
          "indexed": false,
          "internalType": "uint256",
          "name": "minOut",
          "type": "uint256"
        },
        {
          "indexed": false,
          "internalType": "uint256",
          "name": "sizeDelta",
          "type": "uint256"
        },
        {
          "indexed": false,
          "internalType": "bool",
          "name": "isLong",
          "type": "bool"
        },
        {
          "indexed": false,
          "internalType": "uint256",
          "name": "acceptablePrice",
          "type": "uint256"
        },
        {
          "indexed": false,
          "internalType": "uint256",
          "name": "executionFee",
          "type": "uint256"
        },
        {
          "indexed": false,
          "internalType": "uint256",
          "name": "index",
          "type": "uint256"
        },
        {
          "indexed": false,
          "internalType": "uint256",
          "name": "blockNumber",
          "type": "uint256"
        },
        {
          "indexed": false,
          "internalType": "uint256",
          "name": "blockTime",
          "type": "uint256"
        },
        {
          "indexed": false,
          "internalType": "uint256",
          "name": "gasPrice",
          "type": "uint256"
        }
      ],
      "name": "CreateIncreasePosition",
      "type": "event"
    },
    {
      "anonymous": false,
      "inputs": [
        {
          "indexed": false,
          "internalType": "address",
          "name": "account",
          "type": "address"
        },
        {
          "indexed": false,
          "internalType": "uint256",
          "name": "sizeDelta",
          "type": "uint256"
        },
        {
          "indexed": false,
          "internalType": "uint256",
          "name": "marginFeeBasisPoints",
          "type": "uint256"
        },
        {
          "indexed": false,
          "internalType": "bytes32",
          "name": "referralCode",
          "type": "bytes32"
        },
        {
          "indexed": false,
          "internalType": "address",
          "name": "referrer",
          "type": "address"
        }
      ],
      "name": "DecreasePositionReferral",
      "type": "event"
    },
    {
      "anonymous": false,
      "inputs": [
        {
          "indexed": true,
          "internalType": "address",
          "name": "account",
          "type": "address"
        },
        {
          "indexed": false,
          "internalType": "address[]",
          "name": "path",
          "type": "address[]"
        },
        {
          "indexed": false,
          "internalType": "address",
          "name": "indexToken",
          "type": "address"
        },
        {
          "indexed": false,
          "internalType": "uint256",
          "name": "collateralDelta",
          "type": "uint256"
        },
        {
          "indexed": false,
          "internalType": "uint256",
          "name": "sizeDelta",
          "type": "uint256"
        },
        {
          "indexed": false,
          "internalType": "bool",
          "name": "isLong",
          "type": "bool"
        },
        {
          "indexed": false,
          "internalType": "address",
          "name": "receiver",
          "type": "address"
        },
        {
          "indexed": false,
          "internalType": "uint256",
          "name": "acceptablePrice",
          "type": "uint256"
        },
        {
          "indexed": false,
          "internalType": "uint256",
          "name": "minOut",
          "type": "uint256"
        },
        {
          "indexed": false,
          "internalType": "uint256",
          "name": "executionFee",
          "type": "uint256"
        },
        {
          "indexed": false,
          "internalType": "uint256",
          "name": "blockGap",
          "type": "uint256"
        },
        {
          "indexed": false,
          "internalType": "uint256",
          "name": "timeGap",
          "type": "uint256"
        }
      ],
      "name": "ExecuteDecreasePosition",
      "type": "event"
    },
    {
      "anonymous": false,
      "inputs": [
        {
          "indexed": true,
          "internalType": "address",
          "name": "account",
          "type": "address"
        },
        {
          "indexed": false,
          "internalType": "address[]",
          "name": "path",
          "type": "address[]"
        },
        {
          "indexed": false,
          "internalType": "address",
          "name": "indexToken",
          "type": "address"
        },
        {
          "indexed": false,
          "internalType": "uint256",
          "name": "amountIn",
          "type": "uint256"
        },
        {
          "indexed": false,
          "internalType": "uint256",
          "name": "minOut",
          "type": "uint256"
        },
        {
          "indexed": false,
          "internalType": "uint256",
          "name": "sizeDelta",
          "type": "uint256"
        },
        {
          "indexed": false,
          "internalType": "bool",
          "name": "isLong",
          "type": "bool"
        },
        {
          "indexed": false,
          "internalType": "uint256",
          "name": "acceptablePrice",
          "type": "uint256"
        },
        {
          "indexed": false,
          "internalType": "uint256",
          "name": "executionFee",
          "type": "uint256"
        },
        {
          "indexed": false,
          "internalType": "uint256",
          "name": "blockGap",
          "type": "uint256"
        },
        {
          "indexed": false,
          "internalType": "uint256",
          "name": "timeGap",
          "type": "uint256"
        }
      ],
      "name": "ExecuteIncreasePosition",
      "type": "event"
    },
    {
      "anonymous": false,
      "inputs": [
        {
          "indexed": false,
          "internalType": "address",
          "name": "account",
          "type": "address"
        },
        {
          "indexed": false,
          "internalType": "uint256",
          "name": "sizeDelta",
          "type": "uint256"
        },
        {
          "indexed": false,
          "internalType": "uint256",
          "name": "marginFeeBasisPoints",
          "type": "uint256"
        },
        {
          "indexed": false,
          "internalType": "bytes32",
          "name": "referralCode",
          "type": "bytes32"
        },
        {
          "indexed": false,
          "internalType": "address",
          "name": "referrer",
          "type": "address"
        }
      ],
      "name": "IncreasePositionReferral",
      "type": "event"
    },
    {
      "anonymous": false,
      "inputs": [
        {
          "indexed": false,
          "internalType": "address",
          "name": "admin",
          "type": "address"
        }
      ],
      "name": "SetAdmin",
      "type": "event"
    },
    {
      "anonymous": false,
      "inputs": [
        {
          "indexed": false,
          "internalType": "uint256",
          "name": "minBlockDelayKeeper",
          "type": "uint256"
        },
        {
          "indexed": false,
          "internalType": "uint256",
          "name": "minTimeDelayPublic",
          "type": "uint256"
        },
        {
          "indexed": false,
          "internalType": "uint256",
          "name": "maxTimeDelay",
          "type": "uint256"
        }
      ],
      "name": "SetDelayValues",
      "type": "event"
    },
    {
      "anonymous": false,
      "inputs": [
        {
          "indexed": false,
          "internalType": "uint256",
          "name": "depositFee",
          "type": "uint256"
        }
      ],
      "name": "SetDepositFee",
      "type": "event"
    },
    {
      "anonymous": false,
      "inputs": [
        {
          "indexed": false,
          "internalType": "uint256",
          "name": "increasePositionBufferBps",
          "type": "uint256"
        }
      ],
      "name": "SetIncreasePositionBufferBps",
      "type": "event"
    },
    {
      "anonymous": false,
      "inputs": [
        {
          "indexed": false,
          "internalType": "bool",
          "name": "isLeverageEnabled",
          "type": "bool"
        }
      ],
      "name": "SetIsLeverageEnabled",
      "type": "event"
    },
    {
      "anonymous": false,
      "inputs": [
        {
          "indexed": false,
          "internalType": "address[]",
          "name": "tokens",
          "type": "address[]"
        },
        {
          "indexed": false,
          "internalType": "uint256[]",
          "name": "longSizes",
          "type": "uint256[]"
        },
        {
          "indexed": false,
          "internalType": "uint256[]",
          "name": "shortSizes",
          "type": "uint256[]"
        }
      ],
      "name": "SetMaxGlobalSizes",
      "type": "event"
    },
    {
      "anonymous": false,
      "inputs": [
        {
          "indexed": false,
          "internalType": "uint256",
          "name": "minExecutionFee",
          "type": "uint256"
        }
      ],
      "name": "SetMinExecutionFee",
      "type": "event"
    },
    {
      "anonymous": false,
      "inputs": [
        {
          "indexed": true,
          "internalType": "address",
          "name": "account",
          "type": "address"
        },
        {
          "indexed": false,
          "internalType": "bool",
          "name": "isActive",
          "type": "bool"
        }
      ],
      "name": "SetPositionKeeper",
      "type": "event"
    },
    {
      "anonymous": false,
      "inputs": [
        {
          "indexed": false,
          "internalType": "address",
          "name": "referralStorage",
          "type": "address"
        }
      ],
      "name": "SetReferralStorage",
      "type": "event"
    },
    {
      "anonymous": false,
      "inputs": [
        {
          "indexed": false,
          "internalType": "uint256",
          "name": "increasePositionRequestKeysStart",
          "type": "uint256"
        },
        {
          "indexed": false,
          "internalType": "uint256",
          "name": "decreasePositionRequestKeysStart",
          "type": "uint256"
        }
      ],
      "name": "SetRequestKeysStartValues",
      "type": "event"
    },
    {
      "anonymous": false,
      "inputs": [
        {
          "indexed": false,
          "internalType": "address",
          "name": "token",
          "type": "address"
        },
        {
          "indexed": false,
          "internalType": "address",
          "name": "receiver",
          "type": "address"
        },
        {
          "indexed": false,
          "internalType": "uint256",
          "name": "amount",
          "type": "uint256"
        }
      ],
      "name": "WithdrawFees",
      "type": "event"
    },
    {
      "inputs": [],
      "name": "BASIS_POINTS_DIVISOR",
      "outputs": [
        {
          "internalType": "uint256",
          "name": "",
          "type": "uint256"
        }
      ],
      "stateMutability": "view",
      "type": "function"
    },
    {
      "inputs": [],
      "name": "admin",
      "outputs": [
        {
          "internalType": "address",
          "name": "",
          "type": "address"
        }
      ],
      "stateMutability": "view",
      "type": "function"
    },
    {
      "inputs": [
        {
          "internalType": "address",
          "name": "_token",
          "type": "address"
        },
        {
          "internalType": "address",
          "name": "_spender",
          "type": "address"
        },
        {
          "internalType": "uint256",
          "name": "_amount",
          "type": "uint256"
        }
      ],
      "name": "approve",
      "outputs": [],
      "stateMutability": "nonpayable",
      "type": "function"
    },
    {
      "inputs": [
        {
          "internalType": "bytes32",
          "name": "_key",
          "type": "bytes32"
        },
        {
          "internalType": "address payable",
          "name": "_executionFeeReceiver",
          "type": "address"
        }
      ],
      "name": "cancelDecreasePosition",
      "outputs": [
        {
          "internalType": "bool",
          "name": "",
          "type": "bool"
        }
      ],
      "stateMutability": "nonpayable",
      "type": "function"
    },
    {
      "inputs": [
        {
          "internalType": "bytes32",
          "name": "_key",
          "type": "bytes32"
        },
        {
          "internalType": "address payable",
          "name": "_executionFeeReceiver",
          "type": "address"
        }
      ],
      "name": "cancelIncreasePosition",
      "outputs": [
        {
          "internalType": "bool",
          "name": "",
          "type": "bool"
        }
      ],
      "stateMutability": "nonpayable",
      "type": "function"
    },
    {
      "inputs": [
        {
          "internalType": "address[]",
          "name": "_path",
          "type": "address[]"
        },
        {
          "internalType": "address",
          "name": "_indexToken",
          "type": "address"
        },
        {
          "internalType": "uint256",
          "name": "_collateralDelta",
          "type": "uint256"
        },
        {
          "internalType": "uint256",
          "name": "_sizeDelta",
          "type": "uint256"
        },
        {
          "internalType": "bool",
          "name": "_isLong",
          "type": "bool"
        },
        {
          "internalType": "address",
          "name": "_receiver",
          "type": "address"
        },
        {
          "internalType": "uint256",
          "name": "_acceptablePrice",
          "type": "uint256"
        },
        {
          "internalType": "uint256",
          "name": "_minOut",
          "type": "uint256"
        },
        {
          "internalType": "uint256",
          "name": "_executionFee",
          "type": "uint256"
        },
        {
          "internalType": "bool",
          "name": "_withdrawETH",
          "type": "bool"
        }
      ],
      "name": "createDecreasePosition",
      "outputs": [],
      "stateMutability": "payable",
      "type": "function"
    },
    {
      "inputs": [
        {
          "internalType": "address[]",
          "name": "_path",
          "type": "address[]"
        },
        {
          "internalType": "address",
          "name": "_indexToken",
          "type": "address"
        },
        {
          "internalType": "uint256",
          "name": "_amountIn",
          "type": "uint256"
        },
        {
          "internalType": "uint256",
          "name": "_minOut",
          "type": "uint256"
        },
        {
          "internalType": "uint256",
          "name": "_sizeDelta",
          "type": "uint256"
        },
        {
          "internalType": "bool",
          "name": "_isLong",
          "type": "bool"
        },
        {
          "internalType": "uint256",
          "name": "_acceptablePrice",
          "type": "uint256"
        },
        {
          "internalType": "uint256",
          "name": "_executionFee",
          "type": "uint256"
        },
        {
          "internalType": "bytes32",
          "name": "_referralCode",
          "type": "bytes32"
        }
      ],
      "name": "createIncreasePosition",
      "outputs": [],
      "stateMutability": "payable",
      "type": "function"
    },
    {
      "inputs": [
        {
          "internalType": "address[]",
          "name": "_path",
          "type": "address[]"
        },
        {
          "internalType": "address",
          "name": "_indexToken",
          "type": "address"
        },
        {
          "internalType": "uint256",
          "name": "_minOut",
          "type": "uint256"
        },
        {
          "internalType": "uint256",
          "name": "_sizeDelta",
          "type": "uint256"
        },
        {
          "internalType": "bool",
          "name": "_isLong",
          "type": "bool"
        },
        {
          "internalType": "uint256",
          "name": "_acceptablePrice",
          "type": "uint256"
        },
        {
          "internalType": "uint256",
          "name": "_executionFee",
          "type": "uint256"
        },
        {
          "internalType": "bytes32",
          "name": "_referralCode",
          "type": "bytes32"
        }
      ],
      "name": "createIncreasePositionETH",
      "outputs": [],
      "stateMutability": "payable",
      "type": "function"
    },
    {
      "inputs": [
        {
          "internalType": "uint256",
          "name": "",
          "type": "uint256"
        }
      ],
      "name": "decreasePositionRequestKeys",
      "outputs": [
        {
          "internalType": "bytes32",
          "name": "",
          "type": "bytes32"
        }
      ],
      "stateMutability": "view",
      "type": "function"
    },
    {
      "inputs": [],
      "name": "decreasePositionRequestKeysStart",
      "outputs": [
        {
          "internalType": "uint256",
          "name": "",
          "type": "uint256"
        }
      ],
      "stateMutability": "view",
      "type": "function"
    },
    {
      "inputs": [
        {
          "internalType": "bytes32",
          "name": "",
          "type": "bytes32"
        }
      ],
      "name": "decreasePositionRequests",
      "outputs": [
        {
          "internalType": "address",
          "name": "account",
          "type": "address"
        },
        {
          "internalType": "address",
          "name": "indexToken",
          "type": "address"
        },
        {
          "internalType": "uint256",
          "name": "collateralDelta",
          "type": "uint256"
        },
        {
          "internalType": "uint256",
          "name": "sizeDelta",
          "type": "uint256"
        },
        {
          "internalType": "bool",
          "name": "isLong",
          "type": "bool"
        },
        {
          "internalType": "address",
          "name": "receiver",
          "type": "address"
        },
        {
          "internalType": "uint256",
          "name": "acceptablePrice",
          "type": "uint256"
        },
        {
          "internalType": "uint256",
          "name": "minOut",
          "type": "uint256"
        },
        {
          "internalType": "uint256",
          "name": "executionFee",
          "type": "uint256"
        },
        {
          "internalType": "uint256",
          "name": "blockNumber",
          "type": "uint256"
        },
        {
          "internalType": "uint256",
          "name": "blockTime",
          "type": "uint256"
        },
        {
          "internalType": "bool",
          "name": "withdrawETH",
          "type": "bool"
        }
      ],
      "stateMutability": "view",
      "type": "function"
    },
    {
      "inputs": [
        {
          "internalType": "address",
          "name": "",
          "type": "address"
        }
      ],
      "name": "decreasePositionsIndex",
      "outputs": [
        {
          "internalType": "uint256",
          "name": "",
          "type": "uint256"
        }
      ],
      "stateMutability": "view",
      "type": "function"
    },
    {
      "inputs": [],
      "name": "depositFee",
      "outputs": [
        {
          "internalType": "uint256",
          "name": "",
          "type": "uint256"
        }
      ],
      "stateMutability": "view",
      "type": "function"
    },
    {
      "inputs": [
        {
          "internalType": "bytes32",
          "name": "_key",
          "type": "bytes32"
        },
        {
          "internalType": "address payable",
          "name": "_executionFeeReceiver",
          "type": "address"
        }
      ],
      "name": "executeDecreasePosition",
      "outputs": [
        {
          "internalType": "bool",
          "name": "",
          "type": "bool"
        }
      ],
      "stateMutability": "nonpayable",
      "type": "function"
    },
    {
      "inputs": [
        {
          "internalType": "uint256",
          "name": "_endIndex",
          "type": "uint256"
        },
        {
          "internalType": "address payable",
          "name": "_executionFeeReceiver",
          "type": "address"
        }
      ],
      "name": "executeDecreasePositions",
      "outputs": [],
      "stateMutability": "nonpayable",
      "type": "function"
    },
    {
      "inputs": [
        {
          "internalType": "bytes32",
          "name": "_key",
          "type": "bytes32"
        },
        {
          "internalType": "address payable",
          "name": "_executionFeeReceiver",
          "type": "address"
        }
      ],
      "name": "executeIncreasePosition",
      "outputs": [
        {
          "internalType": "bool",
          "name": "",
          "type": "bool"
        }
      ],
      "stateMutability": "nonpayable",
      "type": "function"
    },
    {
      "inputs": [
        {
          "internalType": "uint256",
          "name": "_endIndex",
          "type": "uint256"
        },
        {
          "internalType": "address payable",
          "name": "_executionFeeReceiver",
          "type": "address"
        }
      ],
      "name": "executeIncreasePositions",
      "outputs": [],
      "stateMutability": "nonpayable",
      "type": "function"
    },
    {
      "inputs": [
        {
          "internalType": "address",
          "name": "",
          "type": "address"
        }
      ],
      "name": "feeReserves",
      "outputs": [
        {
          "internalType": "uint256",
          "name": "",
          "type": "uint256"
        }
      ],
      "stateMutability": "view",
      "type": "function"
    },
    {
      "inputs": [
        {
          "internalType": "bytes32",
          "name": "_key",
          "type": "bytes32"
        }
      ],
      "name": "getDecreasePositionRequestPath",
      "outputs": [
        {
          "internalType": "address[]",
          "name": "",
          "type": "address[]"
        }
      ],
      "stateMutability": "view",
      "type": "function"
    },
    {
      "inputs": [
        {
          "internalType": "bytes32",
          "name": "_key",
          "type": "bytes32"
        }
      ],
      "name": "getIncreasePositionRequestPath",
      "outputs": [
        {
          "internalType": "address[]",
          "name": "",
          "type": "address[]"
        }
      ],
      "stateMutability": "view",
      "type": "function"
    },
    {
      "inputs": [
        {
          "internalType": "address",
          "name": "_account",
          "type": "address"
        },
        {
          "internalType": "uint256",
          "name": "_index",
          "type": "uint256"
        }
      ],
      "name": "getRequestKey",
      "outputs": [
        {
          "internalType": "bytes32",
          "name": "",
          "type": "bytes32"
        }
      ],
      "stateMutability": "pure",
      "type": "function"
    },
    {
      "inputs": [],
      "name": "getRequestQueueLengths",
      "outputs": [
        {
          "internalType": "uint256",
          "name": "",
          "type": "uint256"
        },
        {
          "internalType": "uint256",
          "name": "",
          "type": "uint256"
        },
        {
          "internalType": "uint256",
          "name": "",
          "type": "uint256"
        },
        {
          "internalType": "uint256",
          "name": "",
          "type": "uint256"
        }
      ],
      "stateMutability": "view",
      "type": "function"
    },
    {
      "inputs": [],
      "name": "gov",
      "outputs": [
        {
          "internalType": "address",
          "name": "",
          "type": "address"
        }
      ],
      "stateMutability": "view",
      "type": "function"
    },
    {
      "inputs": [],
      "name": "increasePositionBufferBps",
      "outputs": [
        {
          "internalType": "uint256",
          "name": "",
          "type": "uint256"
        }
      ],
      "stateMutability": "view",
      "type": "function"
    },
    {
      "inputs": [
        {
          "internalType": "uint256",
          "name": "",
          "type": "uint256"
        }
      ],
      "name": "increasePositionRequestKeys",
      "outputs": [
        {
          "internalType": "bytes32",
          "name": "",
          "type": "bytes32"
        }
      ],
      "stateMutability": "view",
      "type": "function"
    },
    {
      "inputs": [],
      "name": "increasePositionRequestKeysStart",
      "outputs": [
        {
          "internalType": "uint256",
          "name": "",
          "type": "uint256"
        }
      ],
      "stateMutability": "view",
      "type": "function"
    },
    {
      "inputs": [
        {
          "internalType": "bytes32",
          "name": "",
          "type": "bytes32"
        }
      ],
      "name": "increasePositionRequests",
      "outputs": [
        {
          "internalType": "address",
          "name": "account",
          "type": "address"
        },
        {
          "internalType": "address",
          "name": "indexToken",
          "type": "address"
        },
        {
          "internalType": "uint256",
          "name": "amountIn",
          "type": "uint256"
        },
        {
          "internalType": "uint256",
          "name": "minOut",
          "type": "uint256"
        },
        {
          "internalType": "uint256",
          "name": "sizeDelta",
          "type": "uint256"
        },
        {
          "internalType": "bool",
          "name": "isLong",
          "type": "bool"
        },
        {
          "internalType": "uint256",
          "name": "acceptablePrice",
          "type": "uint256"
        },
        {
          "internalType": "uint256",
          "name": "executionFee",
          "type": "uint256"
        },
        {
          "internalType": "uint256",
          "name": "blockNumber",
          "type": "uint256"
        },
        {
          "internalType": "uint256",
          "name": "blockTime",
          "type": "uint256"
        },
        {
          "internalType": "bool",
          "name": "hasCollateralInETH",
          "type": "bool"
        }
      ],
      "stateMutability": "view",
      "type": "function"
    },
    {
      "inputs": [
        {
          "internalType": "address",
          "name": "",
          "type": "address"
        }
      ],
      "name": "increasePositionsIndex",
      "outputs": [
        {
          "internalType": "uint256",
          "name": "",
          "type": "uint256"
        }
      ],
      "stateMutability": "view",
      "type": "function"
    },
    {
      "inputs": [],
      "name": "isLeverageEnabled",
      "outputs": [
        {
          "internalType": "bool",
          "name": "",
          "type": "bool"
        }
      ],
      "stateMutability": "view",
      "type": "function"
    },
    {
      "inputs": [
        {
          "internalType": "address",
          "name": "",
          "type": "address"
        }
      ],
      "name": "isPositionKeeper",
      "outputs": [
        {
          "internalType": "bool",
          "name": "",
          "type": "bool"
        }
      ],
      "stateMutability": "view",
      "type": "function"
    },
    {
      "inputs": [
        {
          "internalType": "address",
          "name": "",
          "type": "address"
        }
      ],
      "name": "maxGlobalLongSizes",
      "outputs": [
        {
          "internalType": "uint256",
          "name": "",
          "type": "uint256"
        }
      ],
      "stateMutability": "view",
      "type": "function"
    },
    {
      "inputs": [
        {
          "internalType": "address",
          "name": "",
          "type": "address"
        }
      ],
      "name": "maxGlobalShortSizes",
      "outputs": [
        {
          "internalType": "uint256",
          "name": "",
          "type": "uint256"
        }
      ],
      "stateMutability": "view",
      "type": "function"
    },
    {
      "inputs": [],
      "name": "maxTimeDelay",
      "outputs": [
        {
          "internalType": "uint256",
          "name": "",
          "type": "uint256"
        }
      ],
      "stateMutability": "view",
      "type": "function"
    },
    {
      "inputs": [],
      "name": "minBlockDelayKeeper",
      "outputs": [
        {
          "internalType": "uint256",
          "name": "",
          "type": "uint256"
        }
      ],
      "stateMutability": "view",
      "type": "function"
    },
    {
      "inputs": [],
      "name": "minExecutionFee",
      "outputs": [
        {
          "internalType": "uint256",
          "name": "",
          "type": "uint256"
        }
      ],
      "stateMutability": "view",
      "type": "function"
    },
    {
      "inputs": [],
      "name": "minTimeDelayPublic",
      "outputs": [
        {
          "internalType": "uint256",
          "name": "",
          "type": "uint256"
        }
      ],
      "stateMutability": "view",
      "type": "function"
    },
    {
      "inputs": [],
      "name": "referralStorage",
      "outputs": [
        {
          "internalType": "address",
          "name": "",
          "type": "address"
        }
      ],
      "stateMutability": "view",
      "type": "function"
    },
    {
      "inputs": [],
      "name": "router",
      "outputs": [
        {
          "internalType": "address",
          "name": "",
          "type": "address"
        }
      ],
      "stateMutability": "view",
      "type": "function"
    },
    {
      "inputs": [
        {
          "internalType": "address payable",
          "name": "_receiver",
          "type": "address"
        },
        {
          "internalType": "uint256",
          "name": "_amount",
          "type": "uint256"
        }
      ],
      "name": "sendValue",
      "outputs": [],
      "stateMutability": "nonpayable",
      "type": "function"
    },
    {
      "inputs": [
        {
          "internalType": "address",
          "name": "_admin",
          "type": "address"
        }
      ],
      "name": "setAdmin",
      "outputs": [],
      "stateMutability": "nonpayable",
      "type": "function"
    },
    {
      "inputs": [
        {
          "internalType": "uint256",
          "name": "_minBlockDelayKeeper",
          "type": "uint256"
        },
        {
          "internalType": "uint256",
          "name": "_minTimeDelayPublic",
          "type": "uint256"
        },
        {
          "internalType": "uint256",
          "name": "_maxTimeDelay",
          "type": "uint256"
        }
      ],
      "name": "setDelayValues",
      "outputs": [],
      "stateMutability": "nonpayable",
      "type": "function"
    },
    {
      "inputs": [
        {
          "internalType": "uint256",
          "name": "_depositFee",
          "type": "uint256"
        }
      ],
      "name": "setDepositFee",
      "outputs": [],
      "stateMutability": "nonpayable",
      "type": "function"
    },
    {
      "inputs": [
        {
          "internalType": "address",
          "name": "_gov",
          "type": "address"
        }
      ],
      "name": "setGov",
      "outputs": [],
      "stateMutability": "nonpayable",
      "type": "function"
    },
    {
      "inputs": [
        {
          "internalType": "uint256",
          "name": "_increasePositionBufferBps",
          "type": "uint256"
        }
      ],
      "name": "setIncreasePositionBufferBps",
      "outputs": [],
      "stateMutability": "nonpayable",
      "type": "function"
    },
    {
      "inputs": [
        {
          "internalType": "bool",
          "name": "_isLeverageEnabled",
          "type": "bool"
        }
      ],
      "name": "setIsLeverageEnabled",
      "outputs": [],
      "stateMutability": "nonpayable",
      "type": "function"
    },
    {
      "inputs": [
        {
          "internalType": "address[]",
          "name": "_tokens",
          "type": "address[]"
        },
        {
          "internalType": "uint256[]",
          "name": "_longSizes",
          "type": "uint256[]"
        },
        {
          "internalType": "uint256[]",
          "name": "_shortSizes",
          "type": "uint256[]"
        }
      ],
      "name": "setMaxGlobalSizes",
      "outputs": [],
      "stateMutability": "nonpayable",
      "type": "function"
    },
    {
      "inputs": [
        {
          "internalType": "uint256",
          "name": "_minExecutionFee",
          "type": "uint256"
        }
      ],
      "name": "setMinExecutionFee",
      "outputs": [],
      "stateMutability": "nonpayable",
      "type": "function"
    },
    {
      "inputs": [
        {
          "internalType": "address",
          "name": "_account",
          "type": "address"
        },
        {
          "internalType": "bool",
          "name": "_isActive",
          "type": "bool"
        }
      ],
      "name": "setPositionKeeper",
      "outputs": [],
      "stateMutability": "nonpayable",
      "type": "function"
    },
    {
      "inputs": [
        {
          "internalType": "address",
          "name": "_referralStorage",
          "type": "address"
        }
      ],
      "name": "setReferralStorage",
      "outputs": [],
      "stateMutability": "nonpayable",
      "type": "function"
    },
    {
      "inputs": [
        {
          "internalType": "uint256",
          "name": "_increasePositionRequestKeysStart",
          "type": "uint256"
        },
        {
          "internalType": "uint256",
          "name": "_decreasePositionRequestKeysStart",
          "type": "uint256"
        }
      ],
      "name": "setRequestKeysStartValues",
      "outputs": [],
      "stateMutability": "nonpayable",
      "type": "function"
    },
    {
      "inputs": [],
      "name": "vault",
      "outputs": [
        {
          "internalType": "address",
          "name": "",
          "type": "address"
        }
      ],
      "stateMutability": "view",
      "type": "function"
    },
    {
      "inputs": [],
      "name": "weth",
      "outputs": [
        {
          "internalType": "address",
          "name": "",
          "type": "address"
        }
      ],
      "stateMutability": "view",
      "type": "function"
    },
    {
      "inputs": [
        {
          "internalType": "address",
          "name": "_token",
          "type": "address"
        },
        {
          "internalType": "address",
          "name": "_receiver",
          "type": "address"
        }
      ],
      "name": "withdrawFees",
      "outputs": [],
      "stateMutability": "nonpayable",
      "type": "function"
    },
    {
      "stateMutability": "payable",
      "type": "receive"
    }
  ],
  "bytecode": "0x608034620000f257601f6200491f38819003918201601f19168301916001600160401b03831184841017620000f75780849260a094604052833981010312620000f2578062000052620000e2926200010d565b9062000061602082016200010d565b6200006f604083016200010d565b9060806060840151930151939291600160005560018060a01b03199333856001541617600155606460075560018060a01b039283809216866003541617600355168460045416176004551682600554161760055560065533906002541617600255600160ff196010541617601055600c55565b6040516147fc9081620001238239f35b600080fd5b634e487b7160e01b600052604160045260246000fd5b51906001600160a01b0382168203620000f25756fe60806040526004361015610023575b361561001957600080fd5b610021611cb7565b005b60003560e01c80626cc35e14610446578063042259541461043d5780630d4d003d146104345780631045c74e1461042b578063126082cf1461042257806312d43a51146104195780631bca8cf0146104105780631ce9cb8f146104075780631f285106146103fe578063225fc9fd146103f5578063233bfe3b146103ec57806324a084df146103e357806327b42c0f146103da578063308aa81f146103d1578063332e0382146103c85780633422ead1146103bf57806336eba48a146103b65780633a2a80c7146103ad5780633e72a262146103a45780633fc8cef31461039b5780634067b132146103925780634278555f14610389578063490ae210146103805780635841fcaa146103775780635d5c22e81461036e57806360a362e21461036557806362f8a3fe1461035c578063633451de1461035357806363ae21031461034a57806367a5279314610341578063704b6c02146103385780637c2eb9f71461032f57806395e9bbd7146103265780639698d25a1461031d57806398d1e03a146103145780639a2081001461030b5780639b57862014610302578063ae4d7f9a146102f9578063c9874170146102f0578063cb0269c9146102e7578063cfad57a2146102de578063e1f21c67146102d5578063e70dd2fc146102cc578063ef12c67e146102c3578063f2555278146102ba578063f2cea6a5146102b1578063f3883d8b146102a8578063f851a4401461029f578063f887ea4014610296578063fa4445771461028d578063faf990f314610284578063fbfa77cf1461027b5763fc2cee620361000e57610276611bfb565b61000e565b50610276611bd1565b50610276611af2565b50610276611ab4565b50610276611a8a565b50610276611a60565b50610276611a1d565b506102766119e5565b506102766119a0565b50610276611895565b50610276611629565b50610276611577565b5061027661152b565b5061027661150c565b50610276611392565b5061027661131f565b50610276611300565b506102766112bd565b5061027661129e565b50610276611260565b5061027661118c565b5061027661111e565b506102766110a8565b50610276611089565b5061027661106a565b5061027661102c565b50610276610ff8565b50610276610fb9565b50610276610eb2565b50610276610e42565b50610276610de9565b50610276610da9565b50610276610d35565b50610276610d0b565b50610276610ce7565b50610276610cc8565b50610276610c85565b50610276610bfd565b50610276610ae9565b50610276610936565b506102766108f7565b506102766108b8565b5061027661084d565b5061027661080e565b5061027661071b565b506102766106bd565b5061027661069e565b50610276610674565b50610276610656565b50610276610618565b50610276610562565b50610276610511565b5061027661047e565b600091031261045a57565b600080fd5b6001600160a01b031690565b6001600160a01b03909116815260200190565b503461045a57600036600319011261045a576008546040516001600160a01b039091168152602090f35b50634e487b7160e01b600052603260045260246000fd5b6011548110156104db575b601160005260206000200190600090565b6104e36104a8565b6104ca565b601254811015610504575b601260005260206000200190600090565b61050c6104a8565b6104f3565b503461045a57602036600319011261045a5760043560115481101561045a5760116000526000805160206147878339815191520154604051908152602090f35b6001600160a01b0381160361045a57565b503461045a57604036600319011261045a5760206105a160243561058581610551565b61059460026000541415612471565b600260005560043561395c565b60016000556040519015158152f35b6001600160a01b0316600090815260096020526040902090565b6001600160a01b0316600090815260156020526040902090565b6001600160a01b0316600090815260166020526040902090565b6001600160a01b0316600090815260186020526040902090565b503461045a57602036600319011261045a5760043561063681610551565b60018060a01b0316600052600a6020526020604060002054604051908152f35b503461045a57600036600319011261045a5760206040516127108152f35b503461045a57600036600319011261045a576001546040516001600160a01b039091168152602090f35b503461045a57600036600319011261045a576020601454604051908152f35b503461045a57602036600319011261045a576004356106db81610551565b60018060a01b031660005260096020526020604060002054604051908152f35b6000526017602052604060002090565b6000526019602052604060002090565b503461045a57602036600319011261045a57600435600052601960205260ff604060002061080a60018060a01b0391828154169083600282015416916003820154906004830154906005840154600685015490600786015492600887015494600988015496610793600b600a8b01549a015460ff1690565b996040519d8e9d8660081c169516938d9a989694919c9b999795928b949161018086019e600160a01b60019003968780931690521660208d015260408c015260608b0152151560808a01521660a088015260c087015260e08601526101008501526101208401526101408301521515906101600152565b0390f35b503461045a57604036600319011261045a5760206105a160243561083181610551565b61084060026000541415612471565b6002600055600435613657565b503461045a57602036600319011261045a57600254600435906001600160a01b031633036108a6576020817f21167d0d4661af93817ebce920f18986eed3d75d5e1c03f2aed05efcbafbc45292600755604051908152a1005b60405163118bf34960e11b8152600490fd5b503461045a57604036600319011261045a576100216004356108d981610551565b6108ee60018060a01b03600154163314611c54565b602435906120a6565b503461045a57604036600319011261045a5760206105a160243561091a81610551565b61092960026000541415612471565b60026000556004356128ca565b503461045a57604036600319011261045a5760025460043590602435906001600160a01b031633036108a657816040917febb0f666150f4be5b60c45df8f3e49992510b0128027fe58eea6110f296493bc936013558060145582519182526020820152a1005b50634e487b7160e01b600052604160045260246000fd5b6001600160401b0381116109c657604052565b6109ce61099c565b604052565b604081019081106001600160401b038211176109c657604052565b601f909101601f19168101906001600160401b038211908210176109c657604052565b604051906101a082016001600160401b038111838210176109c657604052565b6040519061018082016001600160401b038111838210176109c657604052565b6020906001600160401b038111610a6a575b60051b0190565b610a7261099c565b610a63565b81601f8201121561045a57803591610a8e83610a51565b92610a9c60405194856109ee565b808452602092838086019260051b82010192831161045a578301905b828210610ac6575050505090565b8380918335610ad481610551565b815201910190610ab8565b8015150361045a57565b5061010036600319011261045a576004356001600160401b03811161045a57610b19610bdb913690600401610a77565b602435610b2581610551565b608435610b3181610adf565b60c43592610b4460026000541415612471565b6002600055610b57600c548510156124bd565b610b6384341015612515565b610b7a815160018114908115610bf2575b5061256b565b805115610be5575b610bab60018060a01b03602083015116610ba5610ba060055461045f565b61045f565b1461261b565b610bb36125c3565b610bbe60e435613fbd565b60a435926064359160443591610bd48734612684565b9133614455565b6100216001600055565b610bed6104a8565b610b82565b600291501438610b74565b503461045a57604036600319011261045a57600435610c1b81610551565b60243590610c2882610adf565b6002546001600160a01b039190821633036108a6577ffbabc02389290a451c6e600d05bf9887b99bfad39d8e1237e4e3df042e4941fe9160209116928360005260158252610c7a816040600020612181565b6040519015158152a2005b503461045a57602036600319011261045a57600435610ca381610551565b60018060a01b03166000526015602052602060ff604060002054166040519015158152f35b503461045a57600036600319011261045a576020600e54604051908152f35b503461045a57600036600319011261045a57602060ff601054166040519015158152f35b503461045a57600036600319011261045a576005546040516001600160a01b039091168152602090f35b503461045a57606036600319011261045a576002546044359060243590600435906001600160a01b031633036108a6577fb98e759701eaca2e60c25e91109003c1c7442ef731b5d569037063005da8254d9260609282600d5580600e5581600f5560405192835260208301526040820152a1005b503461045a57602036600319011261045a5760043560125481101561045a5760126000526000805160206147678339815191520154604051908152602090f35b503461045a57602036600319011261045a57600254600435906001600160a01b031633036108a6576020817f974fd3c1fcb4653dfc4fb740c4c692cd212d55c28f163f310128cb64d830067592600655604051908152a1005b503461045a57600036600319011261045a576020600d54604051908152f35b90815180825260208080930193019160005b828110610e81575050505090565b83516001600160a01b031685529381019392810192600101610e73565b906020610eaf928181520190610e61565b90565b503461045a57602036600319011261045a57600435600052601960205261080a6040600020610fac610ee2610a11565b610ef5610eef845461045f565b8261269b565b610180610fa5600b610f09600187016126aa565b9560208501968752610f2a610f21600283015461045f565b6040870161269b565b6003810154606086015260048101546080860152600581015460ff8116151560a0870152610f679060081c6001600160a01b031660c0870161269b565b600681015460e0860152600781015461010086015260088101546101208601526009810154610140860152600a810154610160860152015460ff1690565b1515910152565b5160405191829182610e9e565b503461045a57604036600319011261045a5760206105a1602435610fdc81610551565b610feb60026000541415612471565b6002600055600435613e81565b503461045a57604036600319011261045a57602061102460043561101b81610551565b60243590613f6c565b604051908152f35b503461045a57602036600319011261045a5760043561104a81610551565b60018060a01b031660005260166020526020604060002054604051908152f35b503461045a57600036600319011261045a576020600c54604051908152f35b503461045a57600036600319011261045a576020600654604051908152f35b503461045a57602036600319011261045a577f5a272403b402d892977df56625f4164ccaf70ca3863991c43ecfe76a6905b0a160206004356110e981610551565b6001546001600160a01b0391906111039083163314611c54565b168060018060a01b03196002541617600255604051908152a1005b503461045a57602036600319011261045a5760043561113c81610adf565b6002546001600160a01b031633036108a65760207f4eb87a5935d402aa24c01b45bfb30adefcd2328b480f2d967864de4b64ea929f91151560ff196010541660ff821617601055604051908152a1005b503461045a57602036600319011261045a57600435600052601760205261080a6040600020610fac6111bc610a31565b6111c9610eef845461045f565b610160610fa5600b6111dd600187016126aa565b95602085019687526111f5610f21600283015461045f565b6003810154606086015260048101546080860152600581015460a086015261122d611224600683015460ff1690565b151560c0870152565b600781015460e086015260088101546101008601526009810154610120860152600a810154610140860152015460ff1690565b503461045a57602036600319011261045a5760043561127e81610551565b60018060a01b0316600052600b6020526020604060002054604051908152f35b503461045a57600036600319011261045a576020600754604051908152f35b503461045a57604036600319011261045a576100216024356112de81610551565b3360005260156020526112f860ff60406000205416612192565b6004356121f3565b503461045a57600036600319011261045a576020601354604051908152f35b503461045a57602036600319011261045a5760043561133d81610551565b6002546001600160a01b039190821633036108a6577f828abcccea18192c21d645e575652c49e20b986dab777906fc473d056b01b6a891602091168060018060a01b03196008541617600855604051908152a1005b5061012036600319011261045a576004356001600160401b03811161045a576113bf903690600401610a77565b602435906113cc82610551565b60a4356044356113db82610adf565b60e435916000946113f0600287541415612471565b60028655611402600c548510156124bd565b61140d843414612515565b611423855160018114908115610bf2575061256b565b61142b6125c3565b61143761010435613fbd565b82611462575b6114539460c4359360843592606435923361453b565b61145d6001600055565b604051f35b611473610ba0610ba060045461045f565b9461148561148082611d10565b611d48565b9587813b15611509576040516303704f0f60e31b81526001600160a01b039890981660048901523360248901523060448901526064880186905261145397918290608490829084905af180156114fc575b6114e3575b50945061143d565b806114f06114f6926109b3565b8061044f565b386114db565b611504612099565b6114d6565b80fd5b503461045a57600036600319011261045a576020600f54604051908152f35b503461045a57602036600319011261045a5760043561154981610551565b600154906001600160a01b03906115633383851614611c54565b6001600160a01b0319909216911617600155005b503461045a57606036600319011261045a5760043561159581610551565b60206115e3602435926115a784610551565b6001546001600160a01b0394906115c19086163314611c54565b600060405195868095819463095ea7b360e01b83526044359060048401611e34565b0393165af1801561161c575b6115f557005b6100219060203d8111611615575b61160d81836109ee565b810190611f51565b503d611603565b611624612099565b6115ef565b506101408060031936011261045a576004356001600160401b03811161045a576116787f506f2634e4508d88b04b7511af75c6d4c29b2b6f4f5067676b9400b28f3761d2913690600401610a77565b916024359261168684610551565b6117e56044359460643592818460843580976116a182610adf565b60a4356117d3866117b28e6116b585610551565b60c4359561177960e43598610104359a61012435946116d386610adf565b6116e260026000541415612471565b60026000556116f58d600c5411156124bd565b6117008d3414612515565b85611717895160018114908115610bf2575061256b565b6117f2575b6117246125c3565b611766611739611733336105fe565b54612bd0565b9e8f611744336105fe565b5561174d610a11565b99611758338c61269b565b60208b015260408a0161269b565b60608801526080870152151560a0860152565b6117868660c0860161269b565b8660e0850152876101008501528861012085015243908401524261016084015261018083019015159052565b6117ce6117bf8833613f6c565b916117c98361070b565b6145e3565b61439b565b604051998a99339d429943998d6146ba565b0390a26100216001600055565b61182561181889516001811061182a575b6001600160a01b03918291600019018c611d26565b511690600554161461261b565b61171c565b611832611cdd565b611803565b81601f8201121561045a5780359161184e83610a51565b9261185c60405194856109ee565b808452602092838086019260051b82010192831161045a578301905b828210611886575050505090565b81358152908301908301611878565b503461045a57606036600319011261045a576001600160401b0360043581811161045a576118c7903690600401610a77565b60243582811161045a576118df903690600401611837565b9160443590811161045a576118f8903690600401611837565b6002549092906001600160a01b0390811633036108a65760005b835181101561196957808261192a6119649387611d26565b51166119368286611d26565b5181600052600b6020600a81526040928360002055611955858b611d26565b51936000525260002055611cf4565b611912565b6040517fae32d569b058895b9620d6552b09aaffedc9a6f396be4d595a224ad09f8b2139908061199b88878984611d89565b0390a1005b503461045a57604036600319011261045a576004356119be81610551565b6024356119ca81610551565b6002546001600160a01b031633036108a65761002191611dc0565b503461045a57600036600319011261045a57608060135460115460145460125491604051938452602084015260408301526060820152f35b503461045a57604036600319011261045a57610021602435611a3e81610551565b336000526015602052611a5860ff60406000205416612192565b600435612342565b503461045a57600036600319011261045a576002546040516001600160a01b039091168152602090f35b503461045a57600036600319011261045a576004546040516001600160a01b039091168152602090f35b503461045a57602036600319011261045a57600435611ad281610551565b60018060a01b031660005260186020526020604060002054604051908152f35b503461045a57602036600319011261045a576004356000526017602052604060002060018060a01b0361080a81835416916002840154169260038101549060048101546005820154611b48600684015460ff1690565b600784015490600885015492600986015494611b6d600b600a89015498015460ff1690565b976040519b8c9b8c99969390926101409996939c9b9895929c6101608c019d60018060a01b038092168d521660208c015260408b015260608a01526080890152151560a088015260c087015260e08601526101008501526101208401521515910152565b503461045a57600036600319011261045a576003546040516001600160a01b039091168152602090f35b503461045a57602036600319011261045a57600254600435906001600160a01b031633036108a6576020817f52a8358457e20bbb36e4086b83fb0749599f1893fe4c35a876c46dc4886d12db92600c55604051908152a1005b15611c5b57565b60405162461bcd60e51b815260206004820152601560248201527423b7bb32b93730b136329d103337b93134b23232b760591b6044820152606490fd5b80546001600160a01b0319166001600160a01b03909216919091179055565b6005546001600160a01b03163303611ccb57565b604051636edaef2f60e11b8152600490fd5b50634e487b7160e01b600052601160045260246000fd5b6001906000198114611d04570190565b611d0c611cdd565b0190565b602090805115611d1e570190565b611d0c6104a8565b6020918151811015611d3b575b60051b010190565b611d436104a8565b611d33565b516001600160a01b031690565b90815180825260208080930193019160005b828110611d75575050505090565b835185529381019392810192600101611d67565b91611db290611da4610eaf9593606086526060860190610e61565b908482036020860152611d55565b916040818403910152611d55565b6001600160a01b039081166000818152600960205260409020549192918015611e2e577f4f1b51dd7a2fcb861aa2670f668be66835c4ee12b4bbbf037e4d0018f39819e49360609360006040812055611e1a838286611e4f565b6040519384521660208301526040820152a1565b50505050565b6001600160a01b039091168152602081019190915260400190565b9060405191611e8383611e756020968783019563a9059cbb60e01b875260248401611e34565b03601f1981018552846109ee565b60018060a01b03169060405192611e99846109d3565b8484527f5361666545524332303a206c6f772d6c6576656c2063616c6c206661696c656485850152823b15611f0c57611ee5939260009283809351925af1611edf611fc5565b90612012565b80519081611ef257505050565b82611f0a93611f05938301019101611f51565b611f66565b565b60405162461bcd60e51b815260048101869052601d60248201527f416464726573733a2063616c6c20746f206e6f6e2d636f6e74726163740000006044820152606490fd5b9081602091031261045a5751610eaf81610adf565b15611f6d57565b60405162461bcd60e51b815260206004820152602a60248201527f5361666545524332303a204552433230206f7065726174696f6e20646964206e6044820152691bdd081cdd58d8d9595960b21b6064820152608490fd5b3d1561200d573d906001600160401b038211612000575b60405191611ff4601f8201601f1916602001846109ee565b82523d6000602084013e565b61200861099c565b611fdc565b606090565b9091901561201e575090565b81511561202e5750805190602001fd5b6040519062461bcd60e51b82528160208060048301528251928360248401526000915b848310612080575050918060449311612073575b601f01601f19168101030190fd5b6000838284010152612065565b8183018101518684016044015285935091820191612051565b506040513d6000823e3d90fd5b81471061213c576040516000928392839291906001600160a01b03165af16120cc611fc5565b50156120d457565b60405162461bcd60e51b815260206004820152603a60248201527f416464726573733a20756e61626c6520746f2073656e642076616c75652c20726044820152791958da5c1a595b9d081b585e481a185d99481c995d995c9d195960321b6064820152608490fd5b60405162461bcd60e51b815260206004820152601d60248201527f416464726573733a20696e73756666696369656e742062616c616e63650000006044820152606490fd5b9060ff801983541691151516179055565b1561219957565b60405162461bcd60e51b81526020600482015260196024820152782837b9b4ba34b7b72937baba32b91d103337b93134b23232b760391b6044820152606490fd5b9081526001600160a01b03909116602082015260400190565b906013549160115480841015611e2e5780821161233a575b5091905b82821061221e575b5060135550565b9061223561222b826104bf565b90549060031b1c90565b604090838251916327b42c0f60e01b83526020936004908461225a85858584016121da565b039486816000978189305af186918161231b575b5061230657505163225fc9fd60e01b81529285928492839261229392909184016121da565b038185305af19192826122e7575b50506122d6575b506122d0905b6122cb6122ba826104bf565b8154906000199060031b1b19169055565b611cf4565b9061220f565b156122e157386122a8565b90612217565b6122fe929350803d106116155761160d81836109ee565b9038806122a1565b95505050505050156122e1576122d0906122ae565b612333919250883d8a116116155761160d81836109ee565b903861226e565b90503861220b565b906014549160125480841015611e2e57808211612469575b5091905b82821061236d575b5060145550565b9061237a61222b826104e8565b60409083825191630d4d003d60e01b83526020936004908461239f85858584016121da565b039486816000978189305af186918161244a575b50612435575051633051b17160e11b8152928592849283926123d892909184016121da565b038185305af1919282612416575b5050612405575b506123ff905b6122cb6122ba826104e8565b9061235e565b1561241057386123ed565b90612366565b61242d929350803d106116155761160d81836109ee565b9038806123e6565b9550505050505015612410576123ff906123f3565b612462919250883d8a116116155761160d81836109ee565b90386123b3565b90503861235a565b1561247857565b60405162461bcd60e51b815260206004820152601f60248201527f5265656e7472616e637947756172643a207265656e7472616e742063616c6c006044820152606490fd5b156124c457565b60405162461bcd60e51b8152602060048201526024808201527f506f736974696f6e526f757465723a20696e76616c696420657865637574696f6044820152636e46656560e01b6064820152608490fd5b1561251c57565b60405162461bcd60e51b815260206004820152602160248201527f506f736974696f6e526f757465723a20696e76616c6964206d73672e76616c756044820152606560f81b6064820152608490fd5b1561257257565b60405162461bcd60e51b8152602060048201526024808201527f506f736974696f6e526f757465723a20696e76616c6964205f70617468206c656044820152630dccee8d60e31b6064820152608490fd5b346125ca57565b6005546001600160a01b0316803b1561045a57600060049160405192838092630d0e30db60e41b825234905af1801561260e575b6126055750565b611f0a906109b3565b612616612099565b6125fe565b1561262257565b60405162461bcd60e51b815260206004820152601d60248201527f506f736974696f6e526f757465723a20696e76616c6964205f706174680000006044820152606490fd5b60018110612677575b6000190190565b61267f611cdd565b612670565b81811061268f570390565b612697611cdd565b0390565b6001600160a01b039091169052565b9060405191828154918282526020928383019160005283600020936000905b8282106126df57505050611f0a925003836109ee565b85546001600160a01b0316845260019586019588955093810193909101906126c9565b90611f0a6127bc600b612713610a31565b94612727612721825461045f565b8761269b565b612733600182016126aa565b6020870152612751612748600283015461045f565b6040880161269b565b6003810154606087015260048101546080870152600581015460a0870152612789612780600683015460ff1690565b151560c0880152565b600781015460e087015260088101546101008701526009810154610120870152600a810154610140870152015460ff1690565b1515610160840152565b6127109080600019048211811515166127dd570290565b6127e5611cdd565b0290565b80600019048211811515166127dd570290565b600090818155600180820180549084815581612853575b50505080826002600b93015582600382015582600482015582600582015582600682015582600782015582600882015582600982015582600a8201550155565b845260208420908101905b8181101561281357848155820161285e565b969390926128906101209996939c9b9a9794610140808b528a0190610e61565b6001600160a01b03909c166020890152604088015260608701526080860152151560a085015260c084015260e08301526101008201520152565b906128dc6128d7836106fb565b612702565b906128e7825161045f565b926001600160a01b039283851615612b015761012081019161291a612916845197610140850198895190614089565b1590565b612af65761292a61292f916106fb565b6127fc565b6060810194855180612a39575b5081516129489061045f565b9260208301948551805161295b90612667565b61296491611d26565b61296d90611d48565b946040850195865161297e9061045f565b9160a087019081519260c0890193845161299790151590565b9060e08b01968751936129a995612c01565b6101008701938451906129bb9161334e565b86516129c69061045f565b985197516129d39061045f565b9a516080909701519051915115159251935194516129f19043612684565b95516129fd9042612684565b966040519a8b9a169b612a10998b612870565b037f1be316b94d38c07bd41cdb4913772d0a0a82802786a2f8b657b6e85dbcdfc64191a2600190565b612aa390602084019081516001815111612aa9575b50610ba0611480612a80612a9293855190612a6c60408b015161045f565b60c08b015115159160a08c015193336133d2565b9351612a8c8151612667565b90611d26565b612a9d60035461045f565b90611e4f565b3861293c565b612ad09150610ba0611480612abd92611d10565b612ac860035461045f565b8a5191611e4f565b612a92610ba0611480612a80612aed855160808a015130916131da565b93505050612a4e565b505050505050600090565b5050505050600190565b9081602091031261045a575190565b15612b2157565b60405162461bcd60e51b815260206004820152603060248201526000805160206147a783398151915260448201526f1b1bddd95c881d1a185b881b1a5b5a5d60821b6064820152608490fd5b15612b7457565b60405162461bcd60e51b815260206004820152603160248201526000805160206147a78339815191526044820152701a1a59da195c881d1a185b881b1a5b5a5d607a1b6064820152608490fd5b61271081198111611d04570190565b6001906001198111611d04570190565b81198111611d04570190565b9081602091031261045a5751610eaf81610551565b9293909491612c1160035461045f565b928215612fea57604051637092736960e11b8152612c61919060208180612c3b876004830161046b565b03816001600160a01b038a165afa908115612fdd575b600091612fbf575b501115612b6d565b8115612f20576001600160a01b0381166000908152600a60205260409020548015159081612e96575b50612e4c575b6040516312d43a5160e01b81526001600160a01b03906020816004818886165afa908115612e3f575b600091612e11575b501695863b1561045a576040516306d63c1d60e41b815260008180612ce9886004830161046b565b0381838c5af18015612e04575b612df1575b50612d0d610ba0610ba060045461045f565b803b1561045a57604051630f8ee8bb60e11b81526001600160a01b038781166004830152928316602482015292909116604483015260648201869052911515608482015290600090829060a490829084905af18015612de4575b612dd1575b50833b1561045a576000612d9b611f0a95829360405194858094819363d3c87bbb60e01b83526004830161046b565b03925af18015612dc4575b612db1575b5061307f565b806114f0612dbe926109b3565b38612dab565b612dcc612099565b612da6565b806114f0612dde926109b3565b38612d6c565b612dec612099565b612d67565b806114f0612dfe926109b3565b38612cfb565b612e0c612099565b612cf6565b612e32915060203d8111612e38575b612e2a81836109ee565b810190612bec565b38612cc1565b503d612e20565b612e47612099565b612cb9565b60405162461bcd60e51b815260206004820152602e602482015260008051602061474783398151915260448201526d1b1bdb99dcc8195e18d95959195960921b6064820152608490fd5b9050612ede8660405163783a2b6760e11b815260208180612eba886004830161046b565b03816001600160a01b038b165afa908115612f13575b600091612ee5575b50612be0565b1138612c8a565b612f06915060203d8111612f0c575b612efe81836109ee565b810190612b0b565b38612ed8565b503d612ef4565b612f1b612099565b612ed0565b6001600160a01b0381166000908152600b60205260409020548015159081612f94575b5015612c905760405162461bcd60e51b815260206004820152602f602482015260008051602061474783398151915260448201526e1cda1bdc9d1cc8195e18d959591959608a1b6064820152608490fd5b9050612fb88660405163114f1b5560e31b815260208180612eba886004830161046b565b1138612f43565b612fd7915060203d8111612f0c57612efe81836109ee565b38612c59565b612fe5612099565b612c51565b6040516340d3096b60e11b815261303391906020818061300d876004830161046b565b03816001600160a01b038a165afa908115613056575b600091613038575b501015612b1a565b612c61565b613050915060203d8111612f0c57612efe81836109ee565b3861302b565b61305e612099565b613023565b919082604091031261045a5760208251920151610eaf81610551565b9060018060a01b0361309260085461045f565b169182156131d5576131627fc2414023ce7002ee98557d1e7be21e5559073336f2217ee5f9b2e50fd85f71ee93604090818051809263534ef88360e01b825281806130e0896004830161046b565b03915afa9182156131c8575b6000918293613194575b50600490602061310d610ba0610ba060035461045f565b825163318bc68960e01b815293849182905afa918215613187575b600092613167575b50516001600160a01b0395861681526020810196909652604086015260608501529091166080830152819060a0820190565b0390a1565b61318091925060203d8111612f0c57612efe81836109ee565b9038613130565b61318f612099565b613128565b816131b9929450600493503d85116131c1575b6131b181836109ee565b810190613063565b9290916130f6565b503d6131a7565b6131d0612099565b6130ec565b505050565b8051906002821461323c5760405162461bcd60e51b815260206004820152602960248201527f42617365506f736974696f6e4d616e616765723a20696e76616c6964205f70616044820152680e8d05cd8cadccee8d60bb1b6064820152608490fd5b60209115613341575b606460018060a01b0391600083604081878501511693805160011015613334575b015116938060035416906040519889968795634998b10960e11b8752600487015260248601521660448401525af1918215613327575b600092613307575b5081106132ae5790565b60405162461bcd60e51b815260206004820152602b60248201527f42617365506f736974696f6e4d616e616765723a20696e73756666696369656e60448201526a1d08185b5bdd5b9d13dd5d60aa1b6064820152608490fd5b61332091925060203d8111612f0c57612efe81836109ee565b90386132a4565b61332f612099565b61329c565b61333c6104a8565b613266565b6133496104a8565b613245565b6005546001600160a01b031691823b1561045a57600080611f0a94602460405180948193632e1a7d4d60e01b83528860048401525af180156133a5575b613396575b506120a6565b61339f906109b3565b38613390565b6133ad612099565b61338b565b81156133bc570490565b634e487b7160e01b600052601260045260246000fd5b9282826133e4959794979693966134c2565b6133ec575090565b9061345361344d60065461340d61271091808310613471575b8203856127e9565b048094818510613464575b61343a81519160018310613457575b6001600160a01b03926000190190611d26565b51169303613447846105b0565b54612be0565b916105b0565b5590565b61345f611cdd565b613427565b61346c611cdd565b613418565b613479611cdd565b613405565b91908261010091031261045a5781519160208101519160408201519160608101519160808201519160a08101519160e060c08301516134bc81610adf565b92015190565b949392908315612af657841561364c576134e661148082612a8c6135419451612667565b9586946134fa610ba0610ba060035461045f565b604051634a3f088d60e01b81526001600160a01b03938416600482015296831660248801529390911660448601521515606485015261010093908490829081906084820190565b0381855afa90811561363f575b6000948592613604575b50508315612af6576135be6135b861359d60206135be966135c3966135806135d59b8b612be0565b9b604051809581948293630a48d5a960e01b845260048401611e34565b03915afa9081156135f7575b6000916135d9575b5083612be0565b946127c6565b6133b2565b936135cf600754612bc1565b906127e9565b1090565b6135f1915060203d8111612f0c57612efe81836109ee565b386135b1565b6135ff612099565b6135a9565b61362893955080919250903d10613638575b61362081836109ee565b81019061347e565b5050505050509290923880613558565b503d613616565b613647612099565b61354e565b505050505050600190565b6136636128d7826106fb565b9061366e825161045f565b916001600160a01b039182841615612b015761012082019161369d61291684519661014084019788519061417d565b612af6577f35b638e650e2328786fb405bd69d2083dbedc018d086662e74b775b4f1dae4bf946136d261292a613770946106fb565b61016082015115613778576136f860608301516136f2610ba0855161045f565b906137a8565b613708610100830197885161334e565b613712825161045f565b93602083015197613726604085015161045f565b936060810151608082015160a08301519161376161375960e061374c60c0880151151590565b9601519651975143612684565b975142612684565b976040519b8c9b169d8b612870565b0390a2600190565b6137a361378e610ba06114806020860151611d10565b613798845161045f565b606085015191611e4f565b6136f8565b6005546001600160a01b03908116803b1561045a57602492604051948593632e1a7d4d60e01b85528260048601528460008098819882988380995af18015613825575b613816575b508391831561380c575b1690f11561380457565b611f0a612099565b6108fc92506137fa565b61381f906109b3565b386137f0565b61382d612099565b6137eb565b90611f0a6138ed600b613843610a11565b94613851612721825461045f565b61385d600182016126aa565b6020870152613872612748600283015461045f565b6003810154606087015260048101546080870152600581015460ff8116151560a08801526138af9060081c6001600160a01b031660c0880161269b565b600681015460e0870152600781015461010087015260088101546101208701526009810154610140870152600a810154610160870152015460ff1690565b1515610180840152565b979490936139186101409a9793949d9c9b9895610160808c528b0190610e61565b6001600160a01b0394851660208b015260408a019d909d526060890152151560808801521660a086015260c085015260e08401526101008301526101208201520152565b9061396e6139698361070b565b613832565b91613979835161045f565b916001600160a01b039182841615612b01576101408501946139a8612916875196610160840197885190614089565b612af6577f21435c5b618d77ff3657140cd3318e2cffaebc5e0e1b7318f56a9ba4044c3ed2946139dd61292a6137709461070b565b6139e7825161045f565b9660208301946139fa6114808751611d10565b936040810199613a0a8b5161045f565b90606083019689613a3e895192608087019485519460a0890195613a2e8751151590565b9160e08b01998a51953095613b34565b81516001815111613b06575b5061018086015115613adc57613a6b91506136f2610ba060c088015161045f565b613a7b610120850195865161334e565b613a9f613a94613a8b865161045f565b9b519e5161045f565b985192519151151590565b91613acd613ac5610100613ab660c089015161045f565b96519701519751985143612684565b985142612684565b986040519c8d9c169e8c6138f7565b613af4610ba0611480613b019451612a8c8151612667565b612a9d60c088015161045f565b613a6b565b613b1a9250610ba0611480612a9292611d10565b89613b2e81513090610100880151906131da565b38613a4a565b9394969291959095613b4760035461045f565b938815613d6c576040516340d3096b60e11b8152613b95919060208180613b71876004830161046b565b03816001600160a01b038b165afa9081156130565760009161303857501015612b1a565b6040516312d43a5160e01b8152602098906001600160a01b03908a816004818a86165afa908115613d5f575b600091613d42575b501697883b1561045a57600087613c7c8c968380613bfe8f8d6040519485809481936306d63c1d60e41b83526004830161046b565b03925af18015613d35575b613d22575b50613c20610ba0610ba060045461045f565b604051632662166b60e01b81526001600160a01b039485166004820152958416602487015296831660448601526064850198909852608484018b905293151560a484015290951660c482015293849291839190829060e4820190565b03925af1958615613d15575b600096613cf6575b5050833b1561045a576000613cc0610eaf95829360405194858094819363d3c87bbb60e01b83526004830161046b565b03925af18015613ce9575b613cd6575b50613db8565b806114f0613ce3926109b3565b38613cd0565b613cf1612099565b613ccb565b613d0d929650803d10612f0c57612efe81836109ee565b933880613c90565b613d1d612099565b613c88565b806114f0613d2f926109b3565b38613c0e565b613d3d612099565b613c09565b613d5991508b3d8d11612e3857612e2a81836109ee565b38613bc9565b613d67612099565b613bc1565b604051637092736960e11b8152613db3919060208180613d8f876004830161046b565b03816001600160a01b038b165afa908115612fdd57600091612fbf57501115612b6d565b613b95565b9060018060a01b03613dcb60085461045f565b169182156131d5576040808051809563534ef88360e01b82528180613df3876004830161046b565b03915afa8015613e74575b6000948591613e51575b508415613e4a577f474c763ff84bf2c2039a6d9fea955ecd0f724030e3c365b91169c6a16fe751b794600461316293602061310d610ba0610ba060035461045f565b5050505050565b905081613e6b9295503d86116131c1576131b181836109ee565b93909338613e08565b613e7c612099565b613dfe565b613e8d6139698261070b565b90613e98825161045f565b916001600160a01b039182841615612b0157610140820191613ec761291684519661016084019788519061417d565b612af6577f87abfd78e844f28318363bdf3da99eab2f4a2da9ff7ae365484507f7b6c3f80594613efc61292a6137709461070b565b613f0c610120830197885161334e565b613f16825161045f565b93602083015197613f2a604085015161045f565b9360608101516080820151613f4260a0840151151590565b90613f5060c085015161045f565b92613acd613ac561010060e08801519701519751985143612684565b604051606091821b6001600160601b031916602082019081526034808301949094529281529081016001600160401b03811182821017613fb0575b60405251902090565b613fb861099c565b613fa7565b80151580614018575b613fcd5750565b6008546001600160a01b0316803b1561045a576040516356b4b2ad60e01b8152916000918391829084908290614007903360048401611e34565b03925af1801561260e576126055750565b506008546001600160a01b03161515613fc6565b1561403357565b60405162461bcd60e51b815260206004820152602860248201527f506f736974696f6e526f757465723a206d696e2064656c6179206e6f742079656044820152671d081c185cdcd95960c21b6064820152608490fd5b614095600f5483612be0565b42101561412c573033148015614113575b6140b561291660105460ff1690565b8061410b575b612199576140f657506140f1916140dc906001600160a01b03163314612192565b6140ea4291600e5490612be0565b111561402c565b600190565b600d5461410593509150612be0565b43101590565b5080156140bb565b50614127614120336105ca565b5460ff1690565b6140a6565b60405162461bcd60e51b815260206004820152602360248201527f506f736974696f6e526f757465723a20726571756573742068617320657870696044820152621c995960ea1b6064820152608490fd5b91909130331480156141dd575b61419961291660105460ff1690565b806141d5575b612199576140f657506140f1916141cd916141c4906001600160a01b03163314612192565b600e5490612be0565b42101561402c565b50801561419f565b506141ea614120336105ca565b61418a565b815191600160401b8311614283575b815483835580841061425a575b50602080910191600052806000206000925b84841061422b575050505050565b805182546001600160a01b0319166001600160a01b03919091161782556001938401939190910190820161421d565b6000838152846020822092830192015b82811061427857505061420b565b81815560010161426a565b61428b61099c565b6141fe565b600b614342610160611f0a946142af6142a9825161045f565b86611c98565b6142c06020820151600187016141ef565b6142d96142d0604083015161045f565b60028701611c98565b606081015160038601556080810151600486015560a0810151600586015561431061430760c0830151151590565b60068701612181565b60e0810151600786015561010081015160088601556101208101516009860155610140810151600a8601550151151590565b9101612181565b601154600160401b81101561438e575b6001810180601155811015614381575b60116000526000805160206147878339815191520155565b6143896104a8565b614369565b61439661099c565b614359565b601254600160401b8110156143e0575b60018101806012558110156143d3575b60126000526000805160206147678339815191520155565b6143db6104a8565b6143bb565b6143e861099c565b6143ab565b98959261440f6101609b9895929e9d9c9996939e610180808d528c0190610e61565b6001600160a01b03909e1660208b015260408a015260608901526080880152151560a087015260c086015260e08501526101008401526101208301526101408201520152565b9495614536949860008051602061472783398151915298614478611733896105e4565b92836144838a6105e4565b5561451761448f610a31565b6144998b8261269b565b8660208201526144ac886040830161269b565b8860608201528d60808201528b60a08201526144cd8360c083019015159052565b8360e08201528461010082015243610120820152426101408201526144f6610160820160019052565b614512614503878d613f6c565b9161450d836106fb565b614290565b614349565b6040516001600160a01b039099169b98998a993a98429843988d6143ed565b0390a2565b949561453694986000805160206147278339815191529861455e611733896105e4565b92836145698a6105e4565b55614517614575610a31565b61457f8b8261269b565b866020820152614592886040830161269b565b8860608201528d60808201528b60a08201526145b38360c083019015159052565b8360e08201528461010082015243610120820152426101408201526000610160820152614512614503878d613f6c565b600b614342610180611f0a946145fc6142a9825161045f565b61460d6020820151600187016141ef565b61461d6142d0604083015161045f565b606081015160038601556080810151600486015561467d6005860161464e61464860a0850151151590565b82612181565b61465b60c084015161045f565b8154610100600160a81b03191660089190911b610100600160a81b0316179055565b60e08101516006860155610100810151600786015561012081015160088601556101408101516009860155610160810151600a8601550151151590565b989591929c9b9a979490936146dc6101609b9895610180808d528c0190610e61565b6001600160a01b0394851660208c015260408b019e909e5260608a0152151560808901521660a087015260c086015260e0850152610100840152610120830152610140820152015256fea89f00a1c1cd0de066abac1a05f9314520fef2a9b98f6a99ff4548ed1161c03c42617365506f736974696f6e4d616e616765723a206d617820676c6f62616c20bb8a6a4669ba250d26cd7a459eca9d215f8307e33aebe50379bc5a3617ec344431ecc21a745e3968a04e9570e4425bc18fa8019c68028196b546d1669c200c6842617365506f736974696f6e4d616e616765723a206d61726b20707269636520a264697066735822122095d41325ca5e752c1f21abe4271b1c24d6c4b24b70a7825420186b48d91d49e164736f6c634300080e0033",
  "linkReferences": {},
  "deployedLinkReferences": {}
}