{
  "_format": "hh-sol-artifact-1",
  "contractName": "ReferralStorage",
  "sourceName": "contracts/referrals/ReferralStorage.sol",
  "abi": [
    {
      "inputs": [],
      "name": "Forbidden",
      "type": "error"
    },
    {
      "inputs": [],
      "name": "InvalidCode",
      "type": "error"
    },
    {
      "anonymous": false,
      "inputs": [
        {
          "indexed": false,
          "internalType": "bytes32",
          "name": "code",
          "type": "bytes32"
        },
        {
          "indexed": false,
          "internalType": "address",
          "name": "newAccount",
          "type": "address"
        }
      ],
      "name": "GovSetCodeOwner",
      "type": "event"
    },
    {
      "anonymous": false,
      "inputs": [
        {
          "indexed": true,
          "internalType": "address",
          "name": "previousOwner",
          "type": "address"
        },
        {
          "indexed": true,
          "internalType": "address",
          "name": "newOwner",
          "type": "address"
        }
      ],
      "name": "OwnershipTransferred",
      "type": "event"
    },
    {
      "anonymous": false,
      "inputs": [
        {
          "indexed": false,
          "internalType": "address",
          "name": "account",
          "type": "address"
        },
        {
          "indexed": false,
          "internalType": "bytes32",
          "name": "code",
          "type": "bytes32"
        }
      ],
      "name": "RegisterCode",
      "type": "event"
    },
    {
      "anonymous": false,
      "inputs": [
        {
          "indexed": false,
          "internalType": "address",
          "name": "account",
          "type": "address"
        },
        {
          "indexed": false,
          "internalType": "address",
          "name": "newAccount",
          "type": "address"
        },
        {
          "indexed": false,
          "internalType": "bytes32",
          "name": "code",
          "type": "bytes32"
        }
      ],
      "name": "SetCodeOwner",
      "type": "event"
    },
    {
      "anonymous": false,
      "inputs": [
        {
          "indexed": false,
          "internalType": "address",
          "name": "handler",
          "type": "address"
        },
        {
          "indexed": false,
          "internalType": "bool",
          "name": "isActive",
          "type": "bool"
        }
      ],
      "name": "SetHandler",
      "type": "event"
    },
    {
      "anonymous": false,
      "inputs": [
        {
          "indexed": false,
          "internalType": "address",
          "name": "referrer",
          "type": "address"
        },
        {
          "indexed": false,
          "internalType": "uint256",
          "name": "discountShare",
          "type": "uint256"
        }
      ],
      "name": "SetReferrerDiscountShare",
      "type": "event"
    },
    {
      "anonymous": false,
      "inputs": [
        {
          "indexed": false,
          "internalType": "address",
          "name": "referrer",
          "type": "address"
        },
        {
          "indexed": false,
          "internalType": "uint256",
          "name": "tierId",
          "type": "uint256"
        }
      ],
      "name": "SetReferrerTier",
      "type": "event"
    },
    {
      "anonymous": false,
      "inputs": [
        {
          "indexed": false,
          "internalType": "uint256",
          "name": "tierId",
          "type": "uint256"
        },
        {
          "indexed": false,
          "internalType": "uint256",
          "name": "totalRebate",
          "type": "uint256"
        },
        {
          "indexed": false,
          "internalType": "uint256",
          "name": "discountShare",
          "type": "uint256"
        }
      ],
      "name": "SetTier",
      "type": "event"
    },
    {
      "anonymous": false,
      "inputs": [
        {
          "indexed": false,
          "internalType": "address",
          "name": "account",
          "type": "address"
        },
        {
          "indexed": false,
          "internalType": "bytes32",
          "name": "code",
          "type": "bytes32"
        }
      ],
      "name": "SetTraderReferralCode",
      "type": "event"
    },
    {
      "inputs": [],
      "name": "BASIS_POINTS",
      "outputs": [
        {
          "internalType": "uint256",
          "name": "",
          "type": "uint256"
        }
      ],
      "stateMutability": "view",
      "type": "function"
    },
    {
      "inputs": [
        {
          "internalType": "bytes32",
          "name": "",
          "type": "bytes32"
        }
      ],
      "name": "codeOwners",
      "outputs": [
        {
          "internalType": "address",
          "name": "",
          "type": "address"
        }
      ],
      "stateMutability": "view",
      "type": "function"
    },
    {
      "inputs": [
        {
          "internalType": "address",
          "name": "_account",
          "type": "address"
        }
      ],
      "name": "getTraderReferralInfo",
      "outputs": [
        {
          "internalType": "bytes32",
          "name": "",
          "type": "bytes32"
        },
        {
          "internalType": "address",
          "name": "",
          "type": "address"
        }
      ],
      "stateMutability": "view",
      "type": "function"
    },
    {
      "inputs": [
        {
          "internalType": "bytes32",
          "name": "_code",
          "type": "bytes32"
        },
        {
          "internalType": "address",
          "name": "_newAccount",
          "type": "address"
        }
      ],
      "name": "govSetCodeOwner",
      "outputs": [],
      "stateMutability": "nonpayable",
      "type": "function"
    },
    {
      "inputs": [
        {
          "internalType": "address",
          "name": "",
          "type": "address"
        }
      ],
      "name": "isHandler",
      "outputs": [
        {
          "internalType": "bool",
          "name": "",
          "type": "bool"
        }
      ],
      "stateMutability": "view",
      "type": "function"
    },
    {
      "inputs": [],
      "name": "owner",
      "outputs": [
        {
          "internalType": "address",
          "name": "",
          "type": "address"
        }
      ],
      "stateMutability": "view",
      "type": "function"
    },
    {
      "inputs": [
        {
          "internalType": "address",
          "name": "",
          "type": "address"
        }
      ],
      "name": "referrerDiscountShares",
      "outputs": [
        {
          "internalType": "uint256",
          "name": "",
          "type": "uint256"
        }
      ],
      "stateMutability": "view",
      "type": "function"
    },
    {
      "inputs": [
        {
          "internalType": "address",
          "name": "",
          "type": "address"
        }
      ],
      "name": "referrerTiers",
      "outputs": [
        {
          "internalType": "uint256",
          "name": "",
          "type": "uint256"
        }
      ],
      "stateMutability": "view",
      "type": "function"
    },
    {
      "inputs": [
        {
          "internalType": "bytes32",
          "name": "_code",
          "type": "bytes32"
        }
      ],
      "name": "registerCode",
      "outputs": [],
      "stateMutability": "nonpayable",
      "type": "function"
    },
    {
      "inputs": [],
      "name": "renounceOwnership",
      "outputs": [],
      "stateMutability": "nonpayable",
      "type": "function"
    },
    {
      "inputs": [
        {
          "internalType": "bytes32",
          "name": "_code",
          "type": "bytes32"
        },
        {
          "internalType": "address",
          "name": "_newAccount",
          "type": "address"
        }
      ],
      "name": "setCodeOwner",
      "outputs": [],
      "stateMutability": "nonpayable",
      "type": "function"
    },
    {
      "inputs": [
        {
          "internalType": "address",
          "name": "_handler",
          "type": "address"
        },
        {
          "internalType": "bool",
          "name": "_isActive",
          "type": "bool"
        }
      ],
      "name": "setHandler",
      "outputs": [],
      "stateMutability": "nonpayable",
      "type": "function"
    },
    {
      "inputs": [
        {
          "internalType": "uint256",
          "name": "_discountShare",
          "type": "uint256"
        }
      ],
      "name": "setReferrerDiscountShare",
      "outputs": [],
      "stateMutability": "nonpayable",
      "type": "function"
    },
    {
      "inputs": [
        {
          "internalType": "address",
          "name": "_referrer",
          "type": "address"
        },
        {
          "internalType": "uint256",
          "name": "_tierId",
          "type": "uint256"
        }
      ],
      "name": "setReferrerTier",
      "outputs": [],
      "stateMutability": "nonpayable",
      "type": "function"
    },
    {
      "inputs": [
        {
          "internalType": "uint256",
          "name": "_tierId",
          "type": "uint256"
        },
        {
          "internalType": "uint256",
          "name": "_totalRebate",
          "type": "uint256"
        },
        {
          "internalType": "uint256",
          "name": "_discountShare",
          "type": "uint256"
        }
      ],
      "name": "setTier",
      "outputs": [],
      "stateMutability": "nonpayable",
      "type": "function"
    },
    {
      "inputs": [
        {
          "internalType": "address",
          "name": "_account",
          "type": "address"
        },
        {
          "internalType": "bytes32",
          "name": "_code",
          "type": "bytes32"
        }
      ],
      "name": "setTraderReferralCode",
      "outputs": [],
      "stateMutability": "nonpayable",
      "type": "function"
    },
    {
      "inputs": [
        {
          "internalType": "bytes32",
          "name": "_code",
          "type": "bytes32"
        }
      ],
      "name": "setTraderReferralCodeByUser",
      "outputs": [],
      "stateMutability": "nonpayable",
      "type": "function"
    },
    {
      "inputs": [
        {
          "internalType": "uint256",
          "name": "",
          "type": "uint256"
        }
      ],
      "name": "tiers",
      "outputs": [
        {
          "internalType": "uint256",
          "name": "totalRebate",
          "type": "uint256"
        },
        {
          "internalType": "uint256",
          "name": "discountShare",
          "type": "uint256"
        }
      ],
      "stateMutability": "view",
      "type": "function"
    },
    {
      "inputs": [
        {
          "internalType": "address",
          "name": "",
          "type": "address"
        }
      ],
      "name": "traderReferralCodes",
      "outputs": [
        {
          "internalType": "bytes32",
          "name": "",
          "type": "bytes32"
        }
      ],
      "stateMutability": "view",
      "type": "function"
    },
    {
      "inputs": [
        {
          "internalType": "address",
          "name": "newOwner",
          "type": "address"
        }
      ],
      "name": "transferOwnership",
      "outputs": [],
      "stateMutability": "nonpayable",
      "type": "function"
    }
  ],
  "bytecode": "0x6080806040523461005b5760008054336001600160a01b0319821681178355916001600160a01b03909116907f8be0079c531659141344cd1fd0a4f28419497f9722a3daafe3b4186f6b6457e09080a3610b1390816100618239f35b600080fdfe6080604081815260048036101561001557600080fd5b600092833560e01c908163039af9eb14610924575080631582a018146108ec57806336def2c8146107d65780633fb8b3231461076a57806346ea87af1461072e578063534ef883146106c957806356b4b2ad14610682578063715018a61461063757806371a6a790146105ff578063836a0187146104ea57806385725b58146104b25780638da5cb5b1461048a5780639c8e2de91461042a5780639cb7de4b146103a6578063c8b3c46014610374578063dfcfa250146102db578063e1e01bf3146102ba578063e1f1c4a714610299578063ed843134146101b25763f2fde38b146100ff57600080fd5b346101ae5760203660031901126101ae57610118610956565b906101216109a0565b6001600160a01b0391821692831561015c57505082546001600160a01b031981168317845516600080516020610abe8339815191528380a380f35b906020608492519162461bcd60e51b8352820152602660248201527f4f776e61626c653a206e6577206f776e657220697320746865207a65726f206160448201526564647265737360d01b6064820152fd5b8280fd5b5090346101ae57806003193601126101ae578135906101cf610971565b92821561028b578285526005602052818520546001600160a01b0391908216330361024b5750917f5640856798d41ce9ca0a109b54c20a06eb99ba9c36ab4547115dafb8473cf397939160609382875260056020528187209316928360018060a01b03198254161790558051923384526020840152820152a180f35b606490602084519162461bcd60e51b8352820152601a6024820152792932b332b93930b629ba37b930b3b29d103337b93134b23232b760311b6044820152fd5b9051633303523160e11b8152fd5b5050346102b657816003193601126102b657602090516127108152f35b5080fd5b8382346102b65760203660031901126102b6576102d8903533610a6e565b80f35b508290346102b657826003193601126102b65780356102f8610971565b916103016109a0565b81156103665750808352600560205283832080546001600160a01b0319166001600160a01b038416179055925191927f6431f88c655dd0e2b8d09b6405c007c515c66d67f2998e69c902873a8c8f3e9792918291610360919083610987565b0390a180f35b8451633303523160e11b8152fd5b50346101ae5760203660031901126101ae5735825260056020908152918190205490516001600160a01b039091168152f35b5090346101ae57806003193601126101ae576103c0610956565b91602435801515809103610426577fd373464a39404e5f98fdb4b152b8ba9a094561e97e5c4b4ea11eb18cd9e6695e936103f86109a0565b6001600160a01b03168086526020928352838620805460ff191660ff8416179055835190815291820152a180f35b8480fd5b50346101ae5760203660031901126101ae577fbd224f3917462b0fa80805fe3ec29be3a37f664955aad6224e5ece036224c429916103609135906104726127108311156109f8565b33855260016020528181862055519182913383610a53565b5050346102b657816003193601126102b657905490516001600160a01b039091168152602090f35b5050346102b65760203660031901126102b65760209181906001600160a01b036104da610956565b1681526006845220549051908152f35b509190346102b65760603660031901126102b657823590604435906024356105106109a0565b6127108082116105b057610526908411156109f8565b600360205281518083016001600160401b0381118282101761059d57918391606095937f4ebd23a492b2bd79586cb57cae40d7793408265f20320f68b478b971e696f4c7979552600160208201838352858152868a526003602052848a20925183555191015581519384526020840152820152a180f35b634e487b7160e01b875260418852602487fd5b825162461bcd60e51b81526020818901526024808201527f526566657272616c53746f726167653a20696e76616c696420746f74616c52656044820152636261746560e01b6064820152608490fd5b5050346102b65760203660031901126102b65760209181906001600160a01b03610627610956565b1681526001845220549051908152f35b833461067f578060031936011261067f576106506109a0565b80546001600160a01b03198116825581906001600160a01b0316600080516020610abe8339815191528280a380f35b80fd5b50346101ae57816003193601126101ae5761069b610956565b913384528160205260ff8185205416156106bc57836102d860243585610a6e565b51631dd2188d60e31b8152fd5b5050346102b65760203660031901126102b6576001600160a01b0390816106ee610956565b168352600660205280832054918383610716575b5050610712905192839283610987565b0390f35b83815260056020528290205416925061071238610702565b50346101ae5760203660031901126101ae5760209260ff918391906001600160a01b03610759610956565b168252855220541690519015158152f35b5050346102b657806003193601126102b6577f7696855cdbb94bb5a44cb0a95caff6f29173aa1cbfba193834b12b90827ce2bc906107a6610956565b610360602435926107b56109a0565b6001600160a01b038316865260026020528086208490555192839283610a53565b5090346101ae5760203660031901126101ae5781359182156108aa578284526005602052818420546001600160a01b031661085c5750818352600560205280832080546001600160a01b0319163390811790915590517f04f82286a2a3b2ee5c8555de8304dfe2ea70991613213184b73a9e408d2d802992909182916103609183610a53565b6020608492519162461bcd60e51b83528201526024808201527f526566657272616c53746f726167653a20636f646520616c72656164792065786044820152636973747360e01b6064820152fd5b6020606492519162461bcd60e51b8352820152601e60248201527f526566657272616c53746f726167653a20696e76616c6964205f636f646500006044820152fd5b5050346102b65760203660031901126102b65760209181906001600160a01b03610914610956565b1681526002845220549051908152f35b91849150346102b65760203660031901126102b657908391358152600360205220600181549101549082526020820152f35b600435906001600160a01b038216820361096c57565b600080fd5b602435906001600160a01b038216820361096c57565b9081526001600160a01b03909116602082015260400190565b6000546001600160a01b031633036109b457565b606460405162461bcd60e51b815260206004820152602060248201527f4f776e61626c653a2063616c6c6572206973206e6f7420746865206f776e65726044820152fd5b156109ff57565b60405162461bcd60e51b815260206004820152602660248201527f526566657272616c53746f726167653a20696e76616c696420646973636f756e60448201526574536861726560d01b6064820152608490fd5b6001600160a01b039091168152602081019190915260400190565b907f43825f14567dda057e821be2e51a5aa79aa51f3907a647e3ed2bd486a01050f19160018060a01b038116600052600660205281604060002055610ab860405192839283610a53565b0390a156fe8be0079c531659141344cd1fd0a4f28419497f9722a3daafe3b4186f6b6457e0a26469706673582212206a8ffc60e92bf548ab85dc9fbf7691f3c0bb72c53ce9ac68f38337cabcc1177464736f6c63430008110033",
  "linkReferences": {},
  "deployedLinkReferences": {}
}