{
  "_format": "hh-sol-artifact-1",
  "contractName": "ReferralStorage",
  "sourceName": "contracts/referrals/ReferralStorage.sol",
  "abi": [
    {
      "inputs": [],
      "name": "Forbidden",
      "type": "error"
    },
    {
      "inputs": [],
      "name": "InvalidCode",
      "type": "error"
    },
    {
      "anonymous": false,
      "inputs": [
        {
          "indexed": false,
          "internalType": "bytes32",
          "name": "code",
          "type": "bytes32"
        },
        {
          "indexed": false,
          "internalType": "address",
          "name": "newAccount",
          "type": "address"
        }
      ],
      "name": "GovSetCodeOwner",
      "type": "event"
    },
    {
      "anonymous": false,
      "inputs": [
        {
          "indexed": false,
          "internalType": "address",
          "name": "account",
          "type": "address"
        },
        {
          "indexed": false,
          "internalType": "bytes32",
          "name": "code",
          "type": "bytes32"
        }
      ],
      "name": "RegisterCode",
      "type": "event"
    },
    {
      "anonymous": false,
      "inputs": [
        {
          "indexed": false,
          "internalType": "address",
          "name": "account",
          "type": "address"
        },
        {
          "indexed": false,
          "internalType": "address",
          "name": "newAccount",
          "type": "address"
        },
        {
          "indexed": false,
          "internalType": "bytes32",
          "name": "code",
          "type": "bytes32"
        }
      ],
      "name": "SetCodeOwner",
      "type": "event"
    },
    {
      "anonymous": false,
      "inputs": [
        {
          "indexed": false,
          "internalType": "address",
          "name": "handler",
          "type": "address"
        },
        {
          "indexed": false,
          "internalType": "bool",
          "name": "isActive",
          "type": "bool"
        }
      ],
      "name": "SetHandler",
      "type": "event"
    },
    {
      "anonymous": false,
      "inputs": [
        {
          "indexed": false,
          "internalType": "address",
          "name": "referrer",
          "type": "address"
        },
        {
          "indexed": false,
          "internalType": "uint256",
          "name": "discountShare",
          "type": "uint256"
        }
      ],
      "name": "SetReferrerDiscountShare",
      "type": "event"
    },
    {
      "anonymous": false,
      "inputs": [
        {
          "indexed": false,
          "internalType": "address",
          "name": "referrer",
          "type": "address"
        },
        {
          "indexed": false,
          "internalType": "uint256",
          "name": "tierId",
          "type": "uint256"
        }
      ],
      "name": "SetReferrerTier",
      "type": "event"
    },
    {
      "anonymous": false,
      "inputs": [
        {
          "indexed": false,
          "internalType": "uint256",
          "name": "tierId",
          "type": "uint256"
        },
        {
          "indexed": false,
          "internalType": "uint256",
          "name": "totalRebate",
          "type": "uint256"
        },
        {
          "indexed": false,
          "internalType": "uint256",
          "name": "discountShare",
          "type": "uint256"
        }
      ],
      "name": "SetTier",
      "type": "event"
    },
    {
      "anonymous": false,
      "inputs": [
        {
          "indexed": false,
          "internalType": "address",
          "name": "account",
          "type": "address"
        },
        {
          "indexed": false,
          "internalType": "bytes32",
          "name": "code",
          "type": "bytes32"
        }
      ],
      "name": "SetTraderReferralCode",
      "type": "event"
    },
    {
      "inputs": [],
      "name": "BASIS_POINTS",
      "outputs": [
        {
          "internalType": "uint256",
          "name": "",
          "type": "uint256"
        }
      ],
      "stateMutability": "view",
      "type": "function"
    },
    {
      "inputs": [
        {
          "internalType": "bytes32",
          "name": "",
          "type": "bytes32"
        }
      ],
      "name": "codeOwners",
      "outputs": [
        {
          "internalType": "address",
          "name": "",
          "type": "address"
        }
      ],
      "stateMutability": "view",
      "type": "function"
    },
    {
      "inputs": [
        {
          "internalType": "address",
          "name": "_account",
          "type": "address"
        }
      ],
      "name": "getTraderReferralInfo",
      "outputs": [
        {
          "internalType": "bytes32",
          "name": "",
          "type": "bytes32"
        },
        {
          "internalType": "address",
          "name": "",
          "type": "address"
        }
      ],
      "stateMutability": "view",
      "type": "function"
    },
    {
      "inputs": [],
      "name": "gov",
      "outputs": [
        {
          "internalType": "address",
          "name": "",
          "type": "address"
        }
      ],
      "stateMutability": "view",
      "type": "function"
    },
    {
      "inputs": [
        {
          "internalType": "bytes32",
          "name": "_code",
          "type": "bytes32"
        },
        {
          "internalType": "address",
          "name": "_newAccount",
          "type": "address"
        }
      ],
      "name": "govSetCodeOwner",
      "outputs": [],
      "stateMutability": "nonpayable",
      "type": "function"
    },
    {
      "inputs": [
        {
          "internalType": "address",
          "name": "",
          "type": "address"
        }
      ],
      "name": "isHandler",
      "outputs": [
        {
          "internalType": "bool",
          "name": "",
          "type": "bool"
        }
      ],
      "stateMutability": "view",
      "type": "function"
    },
    {
      "inputs": [
        {
          "internalType": "address",
          "name": "",
          "type": "address"
        }
      ],
      "name": "referrerDiscountShares",
      "outputs": [
        {
          "internalType": "uint256",
          "name": "",
          "type": "uint256"
        }
      ],
      "stateMutability": "view",
      "type": "function"
    },
    {
      "inputs": [
        {
          "internalType": "address",
          "name": "",
          "type": "address"
        }
      ],
      "name": "referrerTiers",
      "outputs": [
        {
          "internalType": "uint256",
          "name": "",
          "type": "uint256"
        }
      ],
      "stateMutability": "view",
      "type": "function"
    },
    {
      "inputs": [
        {
          "internalType": "bytes32",
          "name": "_code",
          "type": "bytes32"
        }
      ],
      "name": "registerCode",
      "outputs": [],
      "stateMutability": "nonpayable",
      "type": "function"
    },
    {
      "inputs": [
        {
          "internalType": "bytes32",
          "name": "_code",
          "type": "bytes32"
        },
        {
          "internalType": "address",
          "name": "_newAccount",
          "type": "address"
        }
      ],
      "name": "setCodeOwner",
      "outputs": [],
      "stateMutability": "nonpayable",
      "type": "function"
    },
    {
      "inputs": [
        {
          "internalType": "address",
          "name": "_gov",
          "type": "address"
        }
      ],
      "name": "setGov",
      "outputs": [],
      "stateMutability": "nonpayable",
      "type": "function"
    },
    {
      "inputs": [
        {
          "internalType": "address",
          "name": "_handler",
          "type": "address"
        },
        {
          "internalType": "bool",
          "name": "_isActive",
          "type": "bool"
        }
      ],
      "name": "setHandler",
      "outputs": [],
      "stateMutability": "nonpayable",
      "type": "function"
    },
    {
      "inputs": [
        {
          "internalType": "uint256",
          "name": "_discountShare",
          "type": "uint256"
        }
      ],
      "name": "setReferrerDiscountShare",
      "outputs": [],
      "stateMutability": "nonpayable",
      "type": "function"
    },
    {
      "inputs": [
        {
          "internalType": "address",
          "name": "_referrer",
          "type": "address"
        },
        {
          "internalType": "uint256",
          "name": "_tierId",
          "type": "uint256"
        }
      ],
      "name": "setReferrerTier",
      "outputs": [],
      "stateMutability": "nonpayable",
      "type": "function"
    },
    {
      "inputs": [
        {
          "internalType": "uint256",
          "name": "_tierId",
          "type": "uint256"
        },
        {
          "internalType": "uint256",
          "name": "_totalRebate",
          "type": "uint256"
        },
        {
          "internalType": "uint256",
          "name": "_discountShare",
          "type": "uint256"
        }
      ],
      "name": "setTier",
      "outputs": [],
      "stateMutability": "nonpayable",
      "type": "function"
    },
    {
      "inputs": [
        {
          "internalType": "address",
          "name": "_account",
          "type": "address"
        },
        {
          "internalType": "bytes32",
          "name": "_code",
          "type": "bytes32"
        }
      ],
      "name": "setTraderReferralCode",
      "outputs": [],
      "stateMutability": "nonpayable",
      "type": "function"
    },
    {
      "inputs": [
        {
          "internalType": "bytes32",
          "name": "_code",
          "type": "bytes32"
        }
      ],
      "name": "setTraderReferralCodeByUser",
      "outputs": [],
      "stateMutability": "nonpayable",
      "type": "function"
    },
    {
      "inputs": [
        {
          "internalType": "uint256",
          "name": "",
          "type": "uint256"
        }
      ],
      "name": "tiers",
      "outputs": [
        {
          "internalType": "uint256",
          "name": "totalRebate",
          "type": "uint256"
        },
        {
          "internalType": "uint256",
          "name": "discountShare",
          "type": "uint256"
        }
      ],
      "stateMutability": "view",
      "type": "function"
    },
    {
      "inputs": [
        {
          "internalType": "address",
          "name": "",
          "type": "address"
        }
      ],
      "name": "traderReferralCodes",
      "outputs": [
        {
          "internalType": "bytes32",
          "name": "",
          "type": "bytes32"
        }
      ],
      "stateMutability": "view",
      "type": "function"
    }
  ],
  "bytecode": "0x6080806040523461002857600080546001600160a01b03191633179055610a41908161002e8239f35b600080fdfe6080604081815260048036101561001557600080fd5b600092833560e01c908163039af9eb146108865750806312d43a511461085e5780631582a0181461082657806336def2c81461070f5780633fb8b3231461069f57806346ea87af14610663578063534ef883146105fe57806356b4b2ad146105b557806371a6a7901461057d578063836a01871461045b57806385725b58146104235780639c8e2de9146103c45780639cb7de4b14610339578063c8b3c46014610307578063cfad57a2146102bf578063dfcfa2501461021d578063e1e01bf3146101fd578063e1f1c4a7146101dc5763ed843134146100f457600080fd5b346101d857816003193601126101d857803561010e6108d3565b9181156101ca578185526005602052838520546001600160a01b0391908216330361018a575091817f5640856798d41ce9ca0a109b54c20a06eb99ba9c36ab4547115dafb8473cf39793606093875260056020528587209216918260018060a01b0319825416179055845191338352602083015284820152a151f35b606490602086519162461bcd60e51b8352820152601a6024820152792932b332b93930b629ba37b930b3b29d103337b93134b23232b760311b6044820152fd5b8351633303523160e11b8152fd5b8280fd5b5050346101f957816003193601126101f957602090516127108152f35b5080fd5b50346101d85760203660031901126101d85761021a9035336109bc565b51f35b50346101d857816003193601126101d85780356102386108d3565b845490926001600160a01b03916102529083163314610902565b82156102b15750818552600560205283852080546001600160a01b03191691841691909117905582517f6431f88c655dd0e2b8d09b6405c007c515c66d67f2998e69c902873a8c8f3e9792909182916102ab91836108e9565b0390a151f35b8451633303523160e11b8152fd5b5050346101f95760203660031901126101f9576102da6108b8565b8254906001600160a01b03906102f33383851614610902565b6001600160a01b0319909216911617825551f35b50346101d85760203660031901126101d85735825260056020908152918190205490516001600160a01b039091168152f35b50346101d857816003193601126101d8576103526108b8565b602435918215158093036103c0577fd373464a39404e5f98fdb4b152b8ba9a094561e97e5c4b4ea11eb18cd9e6695e92849260018060a01b039061039a828954163314610902565b169182875260205282862060ff1981541660ff831617905582519182526020820152a151f35b8480fd5b50346101d85760203660031901126101d8576102ab7fbd224f3917462b0fa80805fe3ec29be3a37f664955aad6224e5ece036224c429913561040a612710821115610946565b33855260016020528084862055835191829133836109a1565b5050346101f95760203660031901126101f95760209181906001600160a01b0361044b6108b8565b1681526006845220549051908152f35b50346101d85760603660031901126101d8578035906024356044359161048b60018060a01b038754163314610902565b61271080831161052e576104a190841115610946565b6003602052845190818601906001600160401b0382118383101761051b575091606093917f4ebd23a492b2bd79586cb57cae40d7793408265f20320f68b478b971e696f4c795938752600160208201838352848152858a526003602052888a2092518355519101558551928352602083015284820152a151f35b634e487b7160e01b885260419052602487fd5b855162461bcd60e51b81526020818401526024808201527f526566657272616c53746f726167653a20696e76616c696420746f74616c52656044820152636261746560e01b6064820152608490fd5b5050346101f95760203660031901126101f95760209181906001600160a01b036105a56108b8565b1681526001845220549051908152f35b50346101d857816003193601126101d8576105ce6108b8565b903384528060205260ff8385205416156105f0575061021a90602435906109bc565b8251631dd2188d60e31b8152fd5b5050346101f95760203660031901126101f9576001600160a01b0390816106236108b8565b16835260066020528083205491838361064b575b50506106479051928392836108e9565b0390f35b83815260056020528290205416925061064738610637565b50346101d85760203660031901126101d85760209260ff918391906001600160a01b0361068e6108b8565b168252855220541690519015158152f35b5050346101f957806003193601126101f9577f7696855cdbb94bb5a44cb0a95caff6f29173aa1cbfba193834b12b90827ce2bc6106da6108b8565b6024359060018060a01b036106f3818754163314610902565b81168552600260205281848620556102ab8451928392836109a1565b50346101d85760203660031901126101d85780359081156107e3578184526005602052828420546001600160a01b03166107945750808352600560205281832080546001600160a01b0319163390811790915582517f04f82286a2a3b2ee5c8555de8304dfe2ea70991613213184b73a9e408d2d802992909182916102ab91836109a1565b608490602084519162461bcd60e51b83528201526024808201527f526566657272616c53746f726167653a20636f646520616c72656164792065786044820152636973747360e01b6064820152fd5b606490602084519162461bcd60e51b8352820152601e60248201527f526566657272616c53746f726167653a20696e76616c6964205f636f646500006044820152fd5b5050346101f95760203660031901126101f95760209181906001600160a01b0361084e6108b8565b1681526002845220549051908152f35b5050346101f957816003193601126101f957905490516001600160a01b039091168152602090f35b91849150346101f95760203660031901126101f957908391358152600360205220600181549101549082526020820152f35b600435906001600160a01b03821682036108ce57565b600080fd5b602435906001600160a01b03821682036108ce57565b9081526001600160a01b03909116602082015260400190565b1561090957565b60405162461bcd60e51b815260206004820152601560248201527423b7bb32b93730b136329d103337b93134b23232b760591b6044820152606490fd5b1561094d57565b60405162461bcd60e51b815260206004820152602660248201527f526566657272616c53746f726167653a20696e76616c696420646973636f756e60448201526574536861726560d01b6064820152608490fd5b6001600160a01b039091168152602081019190915260400190565b907f43825f14567dda057e821be2e51a5aa79aa51f3907a647e3ed2bd486a01050f19160018060a01b038116600052600660205281604060002055610a06604051928392836109a1565b0390a156fea264697066735822122041067a09fd7fca20f68f52ba574334131c08c8f27841deb493e4825f02769d3e64736f6c634300080f0033",
  "linkReferences": {},
  "deployedLinkReferences": {}
}